:020000040800F2
:10000000A807002081020008BB250008ED1F00089A
:10001000B925000835070008512900080000000034
:10002000000000000000000000000000D3280008CD
:10003000DB07000800000000BD250008D5280008E7
:100040009B0200089B0200089B0200089B0200081C
:100050009B0200089B0200089B0200089B0200080C
:100060009B0200089B0200089B0200089B020008FC
:100070009B0200089B0200089B0200089B020008EC
:100080009B020008000000009B0200089B02000881
:100090009B0200089B0200089B0200089B020008CC
:1000A0009B0200089B0200089B0200089B020008BC
:1000B0009B0200089B0200089B0200089B020008AC
:1000C0009B0200089B0200089B0200089B0200089C
:1000D0009B0200089B0200089B0200089B0200088C
:1000E0009B0200089B0200089B0200089B0200087C
:1000F0009B0200089B0200089B0200080000000011
:10010000000000009B020008000000009B020008A5
:100110009B020008000000009B0200089B020008F0
:100120009B0200089B0200089B0200089B0200083B
:100130009B02000800000000000000009B02000875
:100140009B0200089B020008000000000000000065
:10015000000000000000000000000000000000009F
:100160000000000000000000000000009B020008EA
:100170009B020008000000000000000000000000DA
:10018000000000009B0200080000000000000000CA
:10019000000000000000000000000000000000005F
:1001A00000000000000000009B0200089B02000805
:1001B0009B0200089B0200089B0200080000000050
:1001C000000000009B02000800000000000000008A
:1001D0009B0200089B02000800F002F800F041F8C2
:1001E0000AA090E8000C82448344AAF10107DA4592
:1001F00001D100F036F8AFF2090EBAE80F0013F0A3
:10020000010F18BFFB1A43F001031847243C0000FC
:10021000443C0000103A24BF78C878C1FAD852078D
:1002200024BF30C830C144BF04680C607047000070
:100230000023002400250026103A28BF78C1FBD8EF
:10024000520728BF30C148BF0B607047642900F0D7
:100250007F80002070471FB502F0F4FC1FBD10B571
:1002600010BD00F074F91146FFF7F5FF02F062FCD3
:1002700000F092F903B4FFF7F2FF03BC00F09AF923
:100280000948804709480047FEE7FEE7FEE7FEE72A
:10029000FEE7FEE7FEE7FEE7FEE7FEE70448054966
:1002A000054A064B7047000041290008D9010008A3
:1002B000A8010020A8070020A8030020A803002010
:1002C0000FB41CB5074B06AA7B44694600900598FD
:1002D00000F025F90020694600F034F91CBC5DF8F7
:1002E00014FB0000790200002DE9F0410E4604469F
:1002F000002020622046E168884730B3252805D0D9
:10030000D4E901219047206A401CF2E7E1682046C9
:1003100000278847050018D0A5F14100192802D808
:1003200020354FF400673246294620462760FFF704
:100330008DFF40B1012804D0F61D26F007060836CF
:10034000D8E7361DD6E72846DAE7206ABDE8F0810F
:100350002DE9F0410646002410687529314616A59E
:1003600010D0AFF30080002802DA404213A507E066
:1003700031688A0701D512A502E0490704D511A505
:10038000012401E0AFF3008000210A2206F12407D6
:1003900009E0B0FBF2FCB0FBF2F302FB1C003030D2
:1003A00078541846491C0028F3D123462A46304683
:1003B000BDE8F04100F054B8000000002D0000003E
:1003C0002B000000200000004FF000020429C0F0C4
:1003D000128010F0030C00F01B80CCF1040CBCF177
:1003E000020F18BF00F8012BA8BF20F8022BA1EBC9
:1003F0000C0100F00DB85FEAC17C24BF00F8012BAE
:1004000000F8012B48BF00F8012B70474FF00002A5
:1004100000B5134694469646203922BFA0E80C50FA
:10042000A0E80C50B1F12001BFF4F7AF090728BFD5
:10043000A0E80C5048BF0CC05DF804EB890028BF51
:1004400040F8042B08BF704748BF20F8022B11F07A
:10045000804F18BF00F8012B7047704770477047F6
:100460002DE9F0470D4699469246044600F12408CE
:100470000168880604D5E06921F01001216000E0E0
:100480000120A84201DD471B00E00027A1697A197D
:1004900002EB0900081AA0612078C00602D42046A9
:1004A000AFF30080002608E0D4E901211AF8060025
:1004B0009047206A401C761C20624E45F4DB207871
:1004C000C0060AD52046AFF3008006E0D4E901213A
:1004D00030209047206A401C2062381EA7F1010797
:1004E000F4DC07E0D4E9012118F805009047206A00
:1004F000401C2062281EA5F10105F3DC2046AFF365
:1005000000802078000602D50220BDE8F087012097
:10051000FBE7000001694A1C02610878704700B5DA
:100520008FB0CDE901310021059105497944CDE92C
:10053000031011466846FFF7D7FE0FB000BD00005C
:10054000E5FFFFFF0A6802F8010B0A607047754675
:1005500000F02CF8AE4605006946534620F007002F
:10056000854618B020B5FFF799FEBDE820404FF052
:1005700000064FF000074FF000084FF0000B21F08D
:100580000701AC46ACE8C009ACE8C009ACE8C0095A
:10059000ACE8C0098D46704710B50446AFF3008043
:1005A0002046BDE81040FFF765BE000000487047D8
:1005B0004401002001491820ABBEFEE726000200DE
:1005C000704710B5846AE16D11F0500F06D0E16DEF
:1005D000C90625D5204600F069FB10BDE06D40F44A
:1005E0000070E06520680168090716D501F0EAFE91
:1005F00078B12068C068800400280ADBE06D20F430
:100600008070E065E06DC00403D4E06D40F001004F
:10061000E065204600F048FB10BDC0688007EBE7AE
:10062000616D496BBDE81040084710B5806AC16D27
:1006300041F04001C165016E41F00401016600F026
:1006400035FB10BD10B5806A00F02FFB10BD000017
:1006500070B50446006881688268C1F3400112F0F9
:10066000010F28D039BB816801F00D01012914D197
:100670008168124A1140891C81602168032008604A
:1006800000F040FF054612E000F03CFF401B02284E
:100690000DD920688068C00709D0E06D40F01000D7
:1006A000E065206E40F001002066012070BD2068EA
:1006B0008068C007E8D1002070BD0000C0FFFF7F48
:1006C00070B504460068816811F0010F2DD1816872
:1006D000174A11421AD18168D5432940491C8160CB
:1006E00000F010FF06461BE0816811F0010F03D1F6
:1006F00081682940491C816000F004FF801B0228AA
:100700000ED920680068C043C00709D0E06D40F0F2
:100710001000E065206E40F001002066012070BDF1
:1007200020680168C943C907DED1002070BD000000
:100730003F000080FEE700000D4902688A4201D2B6
:100740000C4901E00B492031D2B21423083AB2FB24
:10075000F3F2436C02F01F0223F003031944816497
:1007600004498031C1640121914001657047000056
:1007700008040240000802400179074A02EB8102A6
:100780004265054A4432491E826501F01F0201217B
:100790009140C16570470000FC08024030B5D0E9C7
:1007A00013456560446D14B1D0E91645656090F855
:1007B000444004F01F050124AC40056C6C600468E3
:1007C00063608368102B036803D099600068C2607F
:1007D00030BD9A600068C16030BD7047002240F6AD
:1007E000B83306E00021491C89B29942FBD3521C60
:1007F00092B28242F6D3704772B6FEE7F8B5002691
:100800000446009690F858000D4601280BD00120B0
:1008100084F858002046FFF71BFF0100E06D04D06C
:1008200040F010002AE00220F8BD20F4885040F08B
:100830000200E06520688268134B1A4005F080438F
:100840001A4342F000428260104A20680EE0009B8A
:100850005B1C0093934209D3E06D20F0020040F04E
:100860001000E06584F858600120F8BD8368DB0F54
:10087000EDD1E06D20F0020040F00100E06584F869
:1008800058600846F8BD0000C0FFFF3F02DE0400CC
:100890002DE9F84F00270446009790F85800DFF83C
:1008A000D8930D46B846012811D0012684F8586027
:1008B000206801F083FD60B1E06D40F02000E0654C
:1008C0005FF0010784F858803846BDE8F88F0220B1
:1008D000FBE7D5E900210C23206803EA91131844B3
:1008E000036B01F01F014FF01F0C0CFA01FCC2F367
:1008F000846223EA0C038A4013430363206801F0F7
:100900005DFD8246206801F055FD5AEA00003CD1A9
:10091000AA6829682068B2F1004F37D001F05AFD6B
:100920002068416921F00041416120686969C2681D
:10093000C2F3C102520091402A69042A31D000EB6F
:1009400082002B68026EDFF834C303F0F84302EA3A
:100950000C020B431A4342F00041016620682A69E9
:10096000A96900EB8200026E22F080720A430266DF
:10097000297F22682869012910D0002102EB80001C
:10098000026E22F000720A4302667DE0002201F04E
:1009900021FD2068416941F00041C5E74FF0007139
:1009A000ECE7002101F000FD400320684FF000015A
:1009B00072D001F0F9FC90FAA0F0B0FA80F128684A
:1009C00042036ED090FAA0F0B0FA80F0814204D1D8
:1009D00000221146206801F00CFD0121206801F081
:1009E000E3FC400320684FF001015DD001F0DCFC26
:1009F00090FAA0F0B0FA80F12868420359D090FA3A
:100A0000A0F0B0FA80F0814204D1002201212068D8
:100A100001F0EFFC0221206801F0C6FC40032068D1
:100A20004FF0020148D001F0BFFC90FAA0F0B0FAFC
:100A300080F12868420344D090FAA0F0B0FA80F028
:100A4000814204D100220221206801F0D2FC03215E
:100A5000206801F0A9FC400320684FF0030133D067
:100A600001F0A2FC90FAA0F0B0FA80F128684203ED
:100A70002FD090FAA0F0B0FA80F0814204D1002289
:100A80000321206801F0B5FC2068816811F0010F96
:100A900022D0A8E000E004E001F086FCC0F384610D
:100AA0008DE7C0F3846091E701F07EFCC0F38461C0
:100AB000A2E7C0F38460A6E701F076FCC0F384618E
:100AC000B7E7C0F38460BBE701F06EFCC0F384615C
:100AD000CCE7C0F38460D0E7EB6829684B4550F859
:100AE000B03FC1F3120101D10B4300E08B4303601F
:100AF000E868484577D1286841031CD090FAA0F1F6
:100B0000B1FA81F1491C01F01F0109294FEA403176
:100B100032D8002912D000BF90FAA0F1B1FA81F1C9
:100B200001F1010101F01F0106FA01F609D100BF30
:100B3000C0F3846109E0C0F38461E3E7C0F384613A
:100B4000EEE790FAA0F1B1FA81F101F1010101F0B3
:100B50001F0146EA816102D1C0F3846003E090FA8C
:100B6000A0F0B0FA80F000F1010000F01F0000EBEF
:100B7000400041EA005132E000290ED090FAA0F185
:100B8000B1FA81F101F1010101F01F0106FA01F64C
:100B900006D100BFC0F3846106E0C0F38461F1E7D1
:100BA00090FAA0F1B1FA81F101F1010101F01F0108
:100BB00046EA816102D1C0F3846003E090FAA0F0BC
:100BC000B0FA80F000F1010000F01F002C4A00EBA9
:100BD000400002EB005041EA000141F00071AA68B8
:100BE000206801F0F7FB27482A6802423FF46AAE0A
:100BF00025488168254B01F0E0719A4202D0244BD0
:100C00009A421CD10B021AD42268B2F1A04F7FF491
:100C100059AE826841F4000122F0E0720A4382601A
:100C20001C481D490068B0FBF1F0401C00EB40007F
:100C3000800000E0401E00900028FBD142E6174DE6
:100C4000174BAA4207D1CD0105D422689A42F5D0AC
:100C500041F0807109E0134DAA42EFD14A02EDD470
:100C600022689A42EAD041F48001826822F0E07260
:100C70000A43826026E6000000007F4000F0FF0388
:100C8000000020FE0000088000030050000021C387
:100C90001000C09024000020400D0300000052C747
:100CA00000010050000084CB704770477047006817
:100CB000006C7047F8B54FF0000504002E46009513
:100CC00002D0E06D10B107E00120F8BD204600F031
:100CD000EFF8266684F8586020688168C1F3407197
:100CE00019B181686A4A1140816020688168C1F346
:100CF000007189B98168674A114041F08051816073
:100D0000654866490068B0FBF1F04000801C00E0D7
:100D1000401E00900028FBD120688168C1F300715B
:100D200041B9E16D41F01001E165216E41F0010131
:100D30002166012501F042FBE16DC90600D430B106
:100D4000E06D40F01000E06501252846F8BDE06D3B
:100D500020F4807040F00200E0652068806810F0A8
:100D6000010F11D14FF0A04080684D4900F0010003
:100D7000896801F00101084306D14A486168826828
:100D800022F47C120A438260E168E06B627F0843D0
:100D9000A16841EA4231084394F8241040EA014036
:100DA000012904D1218D404A02EB41410843E16A07
:100DB00029B101F47871226B014342EA01002168F4
:100DC000CA683A4B1A400243CA6020680169626BE4
:100DD00021F0406111430161206801F0EFFA0646FD
:100DE000206801F0E7FA30432ED1207F94F83810C4
:100DF000800340EA41022068C16844F2020399433B
:100E00001143C16020690028206801690AD041F4BB
:100E100080310161206850F8C01F22696FF30D0115
:100E2000114307E021F480310161206850F8C01FB0
:100E30006FF30D01016094F8400001280CD0206888
:100E4000016921F001010161606901282068016BDD
:100E500021F00F0111D013E0D4E911010843D4E9C6
:100E600013121143084321680A6940F2FC739A4344
:100E7000104340F001000861E6E7226A521E114368
:100E80000163E06D20F0020040F00100E0655CE7E6
:100E9000C0FFFF5FC0FFFF7F24000020400D030064
:100EA00000010050000300500000FEFF0740F0FF6B
:100EB000F0B597B00546142111A8FFF7A7FA442111
:100EC0006846FFF7A3FA2149286888423CD1C0014F
:100ED000009080030F90684600F004FC08B1FFF713
:100EE0008BFC1B49C86C40F40050C864C86C00F40B
:100EF00000501690C86C40F00100C864C86C2027F0
:100F000000F001001197169003200026CDE912068B
:100F100011A94FF0904000F0CBF90F4C0D48206024
:100F20002420C4E901068020C4E903604000606118
:100F300080002662C4E90607204600F001F908B1E6
:100F4000FFF75AFC6C65A56217B0F0BD00010050B8
:100F50000010024008000240E40000202DE9F041AA
:100F600004463848806800F01F05206801F026FA22
:100F700018B102210846BDE8F08194F85800012814
:100F80000CD0012084F858002046FFF799FB01009F
:100F90004FF0000304D084F85830EBE70220EAE772
:100FA000E06D40F60162904340F48070E065264AAF
:100FB00020684FF0A046904201D1374600E0074636
:100FC000874200D01DB9E76D27F48017E765E76D0C
:100FD000FF0404D5276E27F00607276600E0236686
:100FE0001C27076084F858302068904201D13346AE
:100FF00000E00346834215D0A5B1052D12D0092D7E
:1010000010D0E36D43F48013E365904200D1304685
:10101000C0688001AED5E06D20F4005040F48050EF
:10102000E065A7E7C268920105D5E26D22F400529F
:1010300042F48052E2658268044B1A40121D8260BD
:1010400098E700000003005000010050C0FFFF7F40
:101050002DE9F0410446344817468846806800F080
:101060001F05206801F0AAF900285AD194F8580009
:10107000012856D0012084F85800002625B1052DFE
:1010800002D0092D00D003E02046FFF719FB18B16C
:1010900084F85860BDE8F081E06D40F60161884356
:1010A00040F48070E06521492068884202D14FF009
:1010B000A04100E00146814200D01DB9E06D20F45E
:1010C0008010E065E06DC00404D5206E20F00600BD
:1010D000206600E02666616D1548C862616D15489E
:1010E0000863616D1448486321681C20086084F817
:1010F00058602068416841F0100141602068C16873
:1011000041F00101C16021683B4642464031606DBB
:1011100000F076F821688A68084B1A40121D8A6030
:10112000B8E70220B6E700000003005000010050BD
:10113000C3050008450600082B060008C0FFFF7F16
:1011400070B504000CD02B4A21681420914209D2BA
:10115000294A0A44B2FBF0F08000606427480AE0A4
:10116000012070BD234A52420A44B2FBF0F08000D5
:101170006064204808382064022084F825000A684A
:1011800047F6F0708243D4E902031843D4E90435EA
:101190002B431843A3691843E3691843236A184390
:1011A000104308602046FFF7C7FAA0680025B0F595
:1011B000804F00D16560A16C20790860D4E91301EB
:1011C00041606068401E032808D82046FFF7D4FA23
:1011D000606D0560D4E91601416002E06565A565B2
:1011E000E565E563012084F8250084F8245000209B
:1011F00070BD000008040240F8FFFDBF000002407F
:1012000070B5044690F82400002501280CD0012078
:1012100084F8240094F825600020012E06D084F87C
:1012200024000225284670BD022070BD022684F8E5
:101230002560E0632068066826F001060660204607
:10124000FFF7ACFA206B00282068016802D041F05B
:101250000E0106E021F0040101602068016841F000
:101260000A010160A06C0168C90303D5016841F45B
:1012700080710160606D18B1016841F48071016096
:101280002068016841F001010160CBE770B50446B8
:1012900000F038F90546601C02D004484068044458
:1012A00000F030F9401BA042FAD370BD18000020B6
:1012B0002DE9F04FDFF82092002301260324A9F145
:1012C000040B85B00F2709F1040AABF1040EFAE014
:1012D00006FA03F52A407CD091F804C00CF0030C08
:1012E000BCF1010F02D0BCF1020F26D1D0F808C02A
:1012F000CDF800C04FEA430C04FA0CF8CDF810C04A
:10130000DDF800C02CEA080CCDF800C0D1F80C8044
:10131000DDF810C008FA0CF8DDF800C048EA0C0847
:10132000C0F80880D0F804C02CEA050C0D79C5F38C
:1013300000159D4045EA0C0545600D79ED43AD076C
:101340000ED0C5684FEA430804FA08FC25EA0C05EC
:10135000D1F808C00CFA08FC4CEA050CC0F80CC027
:101360000D7905F00305022D16D1DD0800EB850C83
:10137000CDF808C0DCF820805D074FEAD56C07FA8D
:101380000CF528EA05080D6905FA0CF5DDF808C02A
:1013900045EA0805CCF8205005684FEA430CCDF823
:1013A00008C004FA0CFC25EA0C0591F804C00CF006
:1013B0000308DDF808C008FA0CF848EA0508C0F888
:1013C00000804D6815F4403F7CD0444DD5F860C096
:1013D00000E077E04CF0010CC5F860C02D6E23F002
:1013E000030C05F0010500953D4D65440295AD687F
:1013F0004FEA837C4FEA1C7807FA08FC25EA0C05C3
:10140000B0F1904F06D0DFF8DCC0604505D14FF059
:10141000010C20E04FF0000C1DE0DFF8CCC060456F
:1014200002D14FF0020C16E0DFF8C0C0604502D1D7
:101430004FF0030C0FE0DFF8B8C0604502D14FF069
:10144000040C08E0DFF8ACC0604502D14FF0050C99
:1014500001E04FF0060C0CFA08FC4CEA050C029D6A
:10146000C5F808C0D9F80050CC46D1F8048095439F
:101470005FEAC82800D51543CCF80050DAF80050D0
:10148000D446D1F8048095435FEA882800D51543F7
:10149000CCF80050DBF80050DC46D1F804809543CE
:1014A0005FEA883800D51543CCF80050DEF80050CC
:1014B000F446D1F8048095435FEAC83800D5154357
:1014C000CCF800505B1C0A6832FA03F57FF400AFD9
:1014D00005B0BDE8F08F0000080401400010024094
:1014E000000001400004004800080048000C0048CB
:1014F00000100048001400480AB181617047816201
:101500007047000001488068704700001800002004
:1015100002488168426811448160704718000020C9
:1015200010B50024032000F065F80F2000F008F843
:1015300008B1012401E000F025F8204610BD0000AC
:1015400070B50E4E05460024706898B14FF47A715C
:10155000B1FBF0F00A490968B1FBF0F000F032FD90
:1015600040B9102D06D200222946501E00F022F864
:10157000356000E00124204670BD00001800002006
:10158000240000200A4882B0016E41F0010101668A
:10159000016E01F001010091816D41F08051816582
:1015A000806D00F08050009002B000F093B8000011
:1015B00000100240F0B40E4B1B680C46C3F302232C
:1015C000C3F10705042D00D90425191D072901D2EF
:1015D000002300E0DB1E012606FA05F1491E21402A
:1015E00099409E40761E16403143F0BC01F0B1B9DF
:1015F0000CED00E0064900F0070208684FF6FF0313
:10160000184040EA0220034A104308607047000077
:101610000CED00E00000FA052B492C4B0A68322142
:101620004A432B4940B1B0F5007F086829D020F427
:10163000C06040F480602CE00868C0F341200228BC
:1016400004D051F8800F20F4807022E0D1F880009F
:1016500020F48070C1F88000086820F4C06040F475
:1016600000700860B2FBF3F0401C00E0401E4A69C5
:10167000520501D50028F9D1486940050AD5032053
:101680007047C0F34120022806D051F8800F40F483
:101690008070086000207047D1F8800040F48070AE
:1016A000C1F88000086820F4C06040F40070086051
:1016B000B2FBF3F0401C00E0401E4A695205DBD546
:1016C0000028F9D1D8E700002400002040420F0094
:1016D000007000400248816841F480418160704799
:1016E000007000402DE9F8430446006800269D4D37
:1016F00000035ED5A86D0027C00008D4A86D40F097
:101700008050A865A86D012700F080500090DFF898
:101710005892D9F8001041F48071C9F80010FFF711
:10172000F1FE804606E000BFFFF7ECFEA0EB0800EC
:1017300002282BD8D9F80000C005F5D5D5F89000BF
:1017400010F4407014D0216C814211D0D5F8900073
:10175000D5F8901020F4407041F48031C5F8901015
:10176000D5F8901021F48031C5F89010C5F890009C
:10177000C00711D0FFF7C6FE804641F2883907E066
:10178000FFF7C0FEA0EB0801494501D903260BE095
:10179000D5F890008007F3D5D5F89000216C20F49F
:1017A00040700843C5F890001FB1A86D20F080502C
:1017B000A8652078C00707D0D5F88800616820F0B8
:1017C00003000843C5F888002078800707D5D5F8BE
:1017D0008800A16820F00C000843C5F88800207834
:1017E000400707D5D5F88800E16820F030000843AD
:1017F000C5F888002078000707D5D5F8880021694A
:1018000020F0C0000843C5F888002078800607D57E
:10181000D5F88800616920F440600843C5F8880065
:101820002078400607D5D5F88800A16920F44050FB
:101830000843C5F888002078000607D5D5F8880049
:10184000E16920F440400843C5F888002088C005BD
:1018500007D5D5F88800216A20F440300843C5F840
:1018600088002088800507D5D5F88800616A20F4B3
:1018700040200843C5F88800208840050FD5D5F8DA
:101880008800A16A20F440100843C5F88800A06AC7
:10189000B0F5801F03D1E86840F48010E86020882C
:1018A00000050FD5D5F88800E16A20F44000084310
:1018B000C5F88800E06AB0F5800F03D1E86840F40D
:1018C0008010E8602088C0040FD5D5F88800216B0F
:1018D00020F040700843C5F88800206BB0F1807F8D
:1018E00003D1E86840F48010E86020884FF0006180
:1018F00080040ED5D5F88800626B20F0406010435C
:10190000C5F88800606B884203D1E86840F4801015
:10191000E860208840040ED5D5F88800A26B20F03E
:1019200040601043C5F88800A06B884203D1E86886
:1019300040F48010E860208800040FD5D5F88800B6
:10194000E16B20F040500843C5F88800E06BB0F12F
:10195000805F03D1E86840F48030E8603046BDE83D
:10196000F883000000100240007000402DE9F047AD
:101970000E4605004FF0000725D0DFF8AC81D8F8FF
:10198000000000F00F00B0420CD2D8F8001021F097
:101990000F013143C8F80010D8F8000000F00F0024
:1019A000B04210D12968614CC80741F2883A5AD038
:1019B0006868DFF87C91032808D0022820682DD0C1
:1019C000400500282CDB0120BDE8F087206880015D
:1019D000F9D5E06800F00302E068C0F30310401C92
:1019E000032A19D0534A00BFB2FBF0F0E268C2F3F9
:1019F00006225043E268C2F34162521C5200B0FB1F
:101A0000F2F0484517D9A06810F0F00F0CD0880705
:101A100011D5A86840B10EE0474AE5E78003D0E75A
:101A200000F092F8484506D9A06820F0F00040F098
:101A30008000A0608027A068696820F00300084348
:101A4000A060FFF75FFD814606E000BFFFF75AFD8B
:101A5000A0EB090151453AD8A068696800F00C0074
:101A6000B0EB810FF2D12868810714D5400703D568
:101A7000A06840F4E060A0602878000705D5A06861
:101A800020F4605040F4E060A060A068A96820F0F5
:101A9000F000084304E0802F03D1A06820F0F0009C
:101AA000A060D8F80010404601F00F01B14216D9ED
:101AB000016821F00F0131430160FFF723FD074664
:101AC00007E000BFFFF71EFDC11B514501D90320F0
:101AD0007AE7D8F8000000F00F00B042F2D1287881
:101AE000400705D5A068E96820F4E0600843A060DD
:101AF0002878000706D5A068296920F4605040EADC
:101B0000C100A06000F020F8A1680C4AC1F30311E5
:101B1000515C01F01F01C84009490860094800688C
:101B2000BDE8F047FFF70CBD002002400010024066
:101B300000B4C4040024F40000366E014E2C0008EA
:101B40002400002018000020184910B58868C0F350
:101B500081021748012A0BD08A68164BC2F3810212
:101B6000022A06D08A68C2F38102032A03D0002029
:101B700010BD184610BDCA6802F00304CA68C2F35B
:101B80000312521C032C02D0B0FBF2F001E0B3FBB5
:101B9000F2F0CA68C968C2F306225043C1F341613A
:101BA000491C4900B0FBF1F010BD000000100240DC
:101BB0000024F40000366E012DE9F84304007AD0C9
:101BC0002078FA4DC00747D0A868E96800F00C00FB
:101BD00001F003010C2802D0082817D001E00329E6
:101BE00014D06068B0F5803F17D0B0F5A02F2868FA
:101BF00017D020F480302860286820F480202860E6
:101C00006068E0B1FFF77EFC064614E028688003B8
:101C100022D560680028D2D01EE0286840F48030C9
:101C2000EDE740F480202860F7E700BFFFF76AFC8B
:101C3000801B642870D828688003F7D50CE0FFF774
:101C400061FC064605E000BFFFF75CFC801B6428D2
:101C5000F0D828688003F7D4207880074CD5A8688E
:101C6000E96800F00C0001F003010C2802D0042800
:101C70000DD001E002290AD0E068002828682BD0A6
:101C800040F480702860FFF73DFC064619E02868A4
:101C9000400502D5E068002891D06868217C20F0DA
:101CA000FE4040EA01606860C1480068FFF748FCF8
:101CB000002800D120E076E1FFF724FC801B0228F9
:101CC000B8D828684005F7D56868217C20F0FE4028
:101CD00040EA016068600FE020F480702860FFF740
:101CE00011FC064605E000BFFFF70CFC801B022834
:101CF000A0D828684005F7D42078000729D5606966
:101D00000028D5F8940013D040F00100C5F89400E5
:101D1000FFF7F8FB064606E090E000BFFFF7F2FB96
:101D2000801B022886D8D5F894008007F6D510E0ED
:101D300020F00100C5F89400FFF7E4FB064604E03C
:101D4000FFF7E0FB801B022878D8D5F894008007C5
:101D5000F6D42078400761D5A86D0026C00008D4CD
:101D6000A86D40F08050A865A86D012600F0805055
:101D7000009090480168C90511D40168804641F47B
:101D800080710160FFF7BEFB074604E0FFF7BAFB76
:101D9000C01B022852D8D8F80000C005F6D5A068AC
:101DA000012815D00528D5F8900016D020F00100A4
:101DB000C5F89000D5F8900020F00400C5F8900018
:101DC000A06841F28838B8B1FFF79CFB07460EE0E7
:101DD000D5F8900040F00100F0E740F00400C5F8AD
:101DE0009000F5E7FFF78EFBC11B414526D8D5F8DB
:101DF00090008007F6D50CE0FFF784FB074604E06F
:101E0000FFF780FBC11B414518D8D5F8900080072B
:101E1000F6D41EB1A86D20F08050A8652078800609
:101E200029D5A0690028D5F8980013D040F001000A
:101E3000C5F89800FFF766FB064606E077E000BFAE
:101E4000FFF760FB801B022877D8D5F89800800741
:101E5000F6D510E020F00100C5F89800FFF752FB1E
:101E6000064604E0FFF74EFB801B022865D8D5F834
:101E700098008007F6D4E069F0B3A968C1F3810146
:101E8000032961D00228286820F0807028600BD0D8
:101E9000E86820F00300E860E86847490840E86027
:101EA000FFF730FB04464BE0FFF72CFB064604E04F
:101EB000FFF728FB801B02283FD828688001F7D451
:101EC000F4E908016FF00F0202EB01110843218AC7
:101ED0005204490802EB4151A26841EA0221084339
:101EE000217D4FF07E42490802EB41610843217B8E
:101EF00040EAC160E96800E062E0304A114008430E
:101F0000E860286840F080702860E86840F08070E1
:101F1000E860FFF7F7FA044605E000BFFFF7F2FAC2
:101F2000001B022809D828688001F7D548E004E0A2
:101F3000FFF7E8FA001B022802D90320BDE8F88366
:101F400028688001F4D43BE00128F7D0E868226AD1
:101F500000F00301914226D1616A00F0F00209010C
:101F6000103991421FD1A26A00F4FE41B1EB022F59
:101F700019D194F82C2000F07841B1EBC26F12D146
:101F8000218E00F4C00249084905A1F500119142D3
:101F900009D194F8341000F0C06049084906A1F155
:101FA000007181420CD00120C8E7000000100240FF
:101FB0001800002000700040FFFFEEFE0C809F0123
:101FC0000020BBE710B5401EB0F1807F01D3012097
:101FD00010BD4FF0E02460610F21601700F0B9FCE4
:101FE0000020A06107202061002010BDFEE7000056
:101FF00000B585B014216846FEF708FA4FF6FF7069
:10200000009000200321CDE90201019069460248B9
:10201000FFF74EF905B000BD0008004800B585B0D7
:1020200014216846FEF7F2F94FF6FF700090012088
:102030000190032003900020029069460248FFF7B8
:1020400037F905B000BD00000008004870B5002455
:1020500006462146204600F003F900F041F94FF40E
:102060009635304600F010F9641CAC42F9D370BDCF
:1020700030B587B014216846FEF7C8F91E48C16C18
:1020800041F00401C164C16C01F004010591C16C0F
:1020900041F00101C164C16C01F001010591C16C05
:1020A00041F00201C164C06C012500F002000590FE
:1020B0004FF44870CDE9000500240394694602946A
:1020C0000E48FFF7F5F8280203940090CDE901547B
:1020D0004FF0904469462046FFF7EAF8FFF79EFF6D
:1020E000A06940F48070A06104481830016841F490
:1020F0000871016007B030BD0010024000040048C4
:10210000203AD2B2034B02EB420203EB021200F080
:1021100019B800005E2C0008F0B50E4607460025F1
:1021200040F23F1407E021463846FFF7E9FF103C34
:102130006D1CA4B2761C3278002A01D0142DF2D383
:10214000F0BD00002DE9F04791468A46002604467E
:1021500000F086F8DFF84080012700BF00F0C0F8EB
:102160005FF0000539F8160007FA05F1084240460D
:1021700001D1408800E0008800F086F86D1C102D29
:10218000F0D3641CE4B25146204600F069F8761C96
:10219000182EE3D3BDE8F0872800002010B5FFF724
:1021A00067FF002000F014F8084CA080A088A0F57C
:1021B0000241303906D000F08BFA002000F008F818
:1021C000A08010BD00F0FBF9F7E700002800002018
:1021D00070B51D490A6842F400720A600A6842F448
:1021E00080720A60184C103C226842F02002226083
:1021F000164A1060086840F02000086000BF00BF69
:1022000000BF206840F020002060206840F480700B
:102210002060FFF7EDFE4FF09041886A40F4807037
:10222000886200BF00BF00BF0848001F006885B279
:10223000886940F480708861FFF7F0FE206840F400
:1022400000702060284670BD28040048140800482B
:1022500001B5BDF800000149488008BD28000020F4
:1022600010B50C460146202000F068F82146BDE874
:102270001040212000F062B801B5BDF8000001490E
:10228000088008BD28000020134A116841F400713D
:102290001160114910390B6843F480730B600B68AF
:1022A00043F020030B600D4B1860106840F02000D5
:1022B000106000BF00BF00BF086840F02000086049
:1022C000086840F48070086000BF00BF00BF086865
:1022D00040F4007008607047280400481408004863
:1022E0001449086840F400700860086840F4807081
:1022F000086010481038026842F0200202600E4B5D
:1023000022221A600A6842F020020A6000BF00BF61
:1023100000BF016841F020010160016841F4807153
:10232000016000BF00BF00BF016841F4007101609F
:10233000704700002804004814080048184B10B5E6
:102340001A6842F400721A601A6842F480721A60C5
:10235000134A103A146844F020041460114C2060B1
:10236000186840F02000186000BF00BF00BF106870
:1023700040F020001060106840F480701060216010
:10238000186840F02000186000BF00BF00BF106850
:1023900040F020001060106840F48070106010BDA4
:1023A000280400481408004800EB8100006E00F08B
:1023B000F84070478068C0F3C00070478068C0F381
:1023C00080007047C06810F4406F01D00020704753
:1023D00001207047042303EAD15310B51844436920
:1023E000C1F3045107248C40A3438A401343436143
:1023F00010BD00EB8100016E21F000411143016628
:102400007047000030B589B020216846FDF7FEFF17
:1024100019481849002401604902C0E90114C46048
:1024200004250461C0E90545047701214177016273
:1024300080F82440C462046380F83810C46380F8D4
:102440004040FEF737FC08B1FEF7D6F90B48009084
:1024500006200190052002907F200594CDE9030518
:1024600069460548FEF714FA002801D0FEF7C4F9C2
:1024700009B030BD000100507800002000209036E7
:10248000094808B5816C41F004018164816C01F058
:1024900004010091816C41F001018164806C00F0C5
:1024A0000100009008BD0000001002402DE9F04F2F
:1024B00087B014216846FDF7A9FF3B48C16C41F085
:1024C0000401C164C16C01F004010591C16C41F0CB
:1024D0002001C164C16C01F020010591C16C41F083
:1024E0000101C164C16C01F001010591C16C41F0B1
:1024F0000801C164C16C01F008010591C16C41F093
:102500000201C164C06CDFF8A48000F002000590F5
:1025100001224FF47F414046FEF7EEFF0022FF21EB
:102520004046FEF7E9FF4FF487764FF090490022CE
:1025300031464846FEF7E0FFDFF874A00022042190
:102540005046FEF7D9FFDFF86CB04FF44877002211
:1025500039465846FEF7D0FF4FF6FF700090012530
:102560000024CDE90154694640460394FEF7A0FEDD
:102570000096CDE90154694648460394FEF798FE5B
:1025800004200090CDE90154694650460394FEF7BB
:102590008FFE0097CDE90154694658460394FEF733
:1025A00087FE07B0BDE8F08F001002400008004829
:1025B000000C004800040048FEE7FEE7704730B515
:1025C00001210020FFF7BAFE4FF47A70FEF706F9FA
:1025D00000210120FFF7B2FE41F290711020FFF7B9
:1025E000ADFE4FF41C516020FFF7A8FE01216120D1
:1025F000FFF7A4FE02214620FFF7A0FE48F21001DB
:102600001320FFF79BFE48F2FE011220FFF796FE13
:102610004FF4A0610220FFF791FE41F23001032048
:10262000FFF78CFE40F2033421463020FFF786FE90
:1026300021463120FFF782FE21463220FFF77EFE41
:10264000E51E29463320FFF779FE03213420FFF7EA
:1026500075FE21463520FFF771FE14213620FFF765
:102660006DFE21463720FFF769FE21463820FFF72F
:1026700065FE21463920FFF761FE29463A20FFF723
:102680005DFE03213B20FFF759FE21463C20FFF76A
:1026900055FE4FF4A0513D20FFF750FE4FF400715E
:1026A0009220FFF74BFE21469320FFF747FE40F6AE
:1026B0000D019020FFF742FE41F218010320FFF7C1
:1026C0003DFEBDE8304040F273110720FFF736BEF3
:1026D00010B543F20801E320FFF730FE1221E72096
:1026E000FFF72CFE41F23121EF20FFF727FE0021FA
:1026F0000120FFF723FE4FF4E0610220FFF71EFEEA
:1027000041F230010320FFF719FE00210420FFF7FA
:1027100015FE40F207210820FFF710FE00210920D6
:10272000FFF70CFE00210A20FFF708FE00210C2015
:10273000FFF704FE00210D20FFF700FE00210F200F
:10274000FFF7FCFD00211020FFF7F8FD0721112005
:10275000FFF7F4FD00211220FFF7F0FD0021132008
:10276000FFF7ECFDC820FEF791FD41F290611020CB
:10277000FFF7E4FD40F227211120FFF7DFFD3220B3
:10278000FEF784FD1D211220FFF7D8FD3220FEF751
:102790007DFD4FF400611320FFF7D0FD14212920A7
:1027A000FFF7CCFD0B212B20FFF7C8FD3220FEF7F1
:1027B0006DFD00212020FFF7C1FD00212120FFF742
:1027C000BDFD07213020FFF7B9FD40F20771312030
:1027D000FFF7B4FD06213220FFF7B0FD40F204718F
:1027E0003520FFF7ABFD41F604713620FFF7A6FD5B
:1027F00004213720FFF7A2FD00213820FFF79EFDBE
:1028000040F206713920FFF799FD40F201713C203A
:10281000FFF794FD0F213D20FFF790FD0021502090
:10282000FFF78CFDEF215120FFF788FD002152209A
:10283000FFF784FD40F23F115320FFF77FFD4FF477
:102840001C516020FFF77AFD01216120FFF776FD22
:1028500000216A20FFF772FD00218020FFF76EFD46
:1028600000218120FFF76AFD00218220FFF766FD2D
:1028700000218320FFF762FD00218420FFF75EFD29
:1028800000218520FFF75AFD10219020FFF756FD0B
:1028900000219220FFF752FD03219320FFF74EFD08
:1028A0004FF488719520FFF749FD00219720FFF72D
:1028B00045FD00219820FFF741FD41F2180103205A
:1028C000FFF73CFDBDE8104040F273110720FFF711
:1028D00035BD7047FEF71CBE10B594B03821684670
:1028E000FDF794FD14210EA8FDF790FD4FF4007044
:1028F000FEF792FE012000900004019002200324C4
:10290000CDE907041421CDE90A100C900D9009942B
:102910006846FFF751F908B172B6FEE70F20CDE91E
:102920000E04002010901190129002210EA8FFF7C3
:102930001DF8002801D072B6FEE714B010BD0000EB
:102940000248016841F470010160704788ED00E0C1
:10295000FEE70907090E002804DB00F1E02080F8FB
:102960000014704700F00F0000F1E02080F8141D03
:1029700070470000074810B50168074C6269891A62
:10298000322905D300686061044800F03DF86060BA
:1029900010BD000020000020000000207800002072
:1029A000184900200968052901D201207047A1F2C9
:1029B0000922132A01D202207047A1F24D42632A54
:1029C00001D203207047A1F2A562632A01D204203C
:1029D0007047A1F6FD02632A01D205207047A1F6D7
:1029E0008D22C72A01D206207047A1F64952C72A74
:1029F00001D207207047A1F63D716329FAD2082061
:102A0000704700000400002010B50446FEF7A6FA47
:102A10002046BDE81040FEF74AB9000010B5134843
:102A20000168134CA268891A64291DD30068A0604C
:102A30001E211048FDF7C8FC0FA10E486268FDF783
:102A40003FFC0C494820FFF767FB1E210948FDF7B2
:102A5000BBFCA2780EA10748FDF732FCBDE8104090
:102A60000449A820FFF758BB10BD0000200000203B
:102A70000000002058000020202020202020414479
:102A8000433A256420202020202020200000000040
:102A90002020202020204B65793A2564202020200A
:102AA000202020200000000070B5124D04460122B5
:102AB0004FF6FF712846FEF71FFD0F4E012204213D
:102AC0003046FEF719FD002204213046FEF714FDC2
:102AD000210200222846FEF70FFD01220421304684
:102AE000FEF70AFD3046BDE8704000220421FEF7E3
:102AF00003BD000000080048000C00480B490A68AC
:102B00000B48C368D21A322A0FD30968C160014644
:102B100082780978012A05D001F0FE010170C8B25F
:102B2000FFF7C2BF41F00101F8E770472000002025
:102B300000000020FEF7F4FCFFF7CEFEFFF7B6FC26
:102B4000FFF79EFCFFF75EFC0020FFF7ADFFFFF7ED
:102B500025FB0020FFF77AFA0020FFF779FB4FF6FC
:102B6000FF70FFF789FB7F210A48FDF747FE0A4CFB
:102B7000012208486168FEF76BFA00BFFFF7FAFE12
:102B8000FFF70EFFA070FFF7B9FFFFF747FF00F058
:102B900037F8F3E778000020000000202DE9F0412D
:102BA000164D02244FF090470026285D000601D5FF
:102BB000012200E0002202213846FEF79DFC00229F
:102BC00008213846FEF798FC012208213846FEF716
:102BD00093FC285D761C40002855082EE5DB641E1A
:102BE000E2D5002204213846FEF786FC3846BDE8CF
:102BF000F04101220421FEF77FBC000054000020B8
:102C00000C490A680C480369D21AB2F5FA7F0FD34F
:102C100009680161094A4178094B525C491CC9B2F3
:102C20005A7041701E2901D100214170FFF7B6BFD3
:102C30007047000020000020000000202E0000202F
:102C4000540000204FF04070E1EE100A7047000081
:102C5000000000000000010203040607080900004C
:102C60000000000000000000000000000000000064
:102C70000000000000000000000000000000000054
:102C80000000000000000000000000000000000044
:102C9000800180018001800180018001800180012C
:102CA000800180018001800180010000000080011E
:102CB0008001000000000000000000000000000093
:102CC0000000CC00CC00CC00CC00CC00CC0000003C
:102CD00000000000000000000000000000000000F4
:102CE00000000000000000000000000000000000E4
:102CF00000000000000000000000600C600C600C90
:102D000030063006FE1FFE1F300638071803FE1F70
:102D1000FE1F180318038C018C018C0100000000B9
:102D20008000E003F80F9C0E8C1C8C188C0098001F
:102D3000F801E007800E801C8C188C189C18B80CC9
:102D4000F00FE003800080000000000000000000A1
:102D5000000000000E181B0C110C110611061103C7
:102D600011039B018E01C038C06C60446044304444
:102D700030441844186C0C380000000000000000BB
:102D8000E001F0033807180618063003F001F000E0
:102D9000F8009C310E33061E061C061C063FFC7311
:102DA000F021000000000000000000000000000012
:102DB00000000C000C000C000C000C000C000000CB
:102DC0000000000000000000000000000000000003
:102DD00000000000000000000000000000000000F3
:102DE000000200038001C000C000600060003000ED
:102DF0003000300030003000300030003000600023
:102E00006000C000C000800100030002000000005C
:102E100020006000C0008001800100030003000664
:102E20000006000600060006000600060006000375
:102E3000000380018001C00060002000000000004D
:102E400000000000000000000000C000C000D80624
:102E5000F807E00130033807000000000000000020
:102E60000000000000000000000000000000000062
:102E700000000000000000000000800180018001CF
:102E800080018001FC3FFC3F8001800180018001C6
:102E900080010000000000000000000000000000B1
:102EA0000000000000000000000000000000000022
:102EB0000000000000000000000000000000000012
:102EC000800180010001000180000000000000007E
:102ED00000000000000000000000000000000000F2
:102EE000000000000000E007E00700000000000014
:102EF00000000000000000000000000000000000D2
:102F000000000000000000000000000000000000C1
:102F100000000000000000000000000000000000B1
:102F2000C000C00000000000000000000000000021
:102F3000000C000C0006000600060003000300035E
:102F40008003800180018001C000C000C0006000DB
:102F50006000000000000000000000000000000011
:102F6000E003F007380E180C0C180C180C180C188D
:102F70000C180C180C180C180C18180C380EF0073C
:102F8000E00300000000000000000000000000005E
:102F900000018001C001F0019801880180018001D9
:102FA0008001800180018001800180018001800119
:102FB0008001000000000000000000000000000090
:102FC000E003F80F180C0C180C1800180018000C6F
:102FD000000600038001C000600030001800FC1FE4
:102FE000FC1F0000000000000000000000000000C6
:102FF000E001F807180E0C0C0C0C000C0006C003C6
:10300000C007000C001800180C180C18180CF80752
:10301000E0030000000000000000000000000000CD
:10302000000C000E000F000F800DC00C600C600C37
:10303000300C180C0C0CFC3FFC3F000C000C000C7E
:10304000000C000000000000000000000000000074
:10305000F80FF80F180018000C00EC03FC071C0E0A
:10306000001C0018001800180C181C0C180EF8078B
:10307000E00300000000000000000000000000006D
:10308000C007F00F381C181818000C00CC03EC0F08
:103090003C0E1C1C0C180C180C18181C380EF007D1
:1030A000E00300000000000000000000000000003D
:1030B000FC1FFC1F000C00060006000380038001BB
:1030C000C001C000E000600060007000300030000F
:1030D00030000000000000000000000000000000C0
:1030E000E003F007380E180C180C180C3806F0071F
:1030F000F007180C0C180C180C180C18380CF80FDA
:10310000E0030000000000000000000000000000DC
:10311000E003F007380E1C0C0C180C180C181C1CC3
:10312000381EF81BE0190018000C000C1C0EF807E4
:10313000F00100000000000000000000000000009E
:10314000000000000000000000008001800100007D
:1031500000000000000000000000000000008001EE
:1031600080010000000000000000000000000000DE
:10317000000000000000000000008001800100004D
:1031800000000000000000000000000000008001BE
:10319000800100010001800000000000000000002C
:1031A000000000000000000000000000000000100F
:1031B000001C800FE003F8001800F800E003800F07
:1031C000001C0010000000000000000000000000D3
:1031D0000000000000000000000000000000F81FD8
:1031E000000000000000F81F0000000000000000C8
:1031F00000000000000000000000000000000000CF
:1032000000000000000000000000000000000800B6
:103210003800F001C007001F0018001FC007F001B0
:10322000380008000000000000000000000000005E
:10323000E003F80F180C0C180C180018000C00060E
:1032400000038001C000C000C00000000000C000FA
:10325000C0000000000000000000000000000000AE
:103260000000E00718180420C229224A114409442A
:103270000944094409221113E20C024004201818E1
:10328000E007000000000000000000000000000057
:1032900080038003C006C006C006600C600C3018B6
:1032A00030183018F83FF83F1C700C600C6006C0F6
:1032B00006C0000000000000000000000000000048
:1032C000FC03FC0F0C0C0C180C180C180C0CFC0755
:1032D000FC0F0C180C300C300C300C300C18FC1F90
:1032E000FC070000000000000000000000000000DB
:1032F000C007F01F38381C300C700660060006004E
:10330000060006000600060006600C701C30F01F68
:10331000E0070000000000000000000000000000C6
:10332000FE03FE0F060E061806180630063006309D
:10333000063006300630063006180618060EFE0F58
:10334000FE0300000000000000000000000000007C
:10335000FC3FFC3F0C000C000C000C000C00FC1FA0
:10336000FC1F0C000C000C000C000C000C00FC3FBF
:10337000FC3F000000000000000000000000000012
:10338000F83FF83F18001800180018001800F81F40
:10339000F81F18001800180018001800180018006E
:1033A0001800000000000000000000000000000005
:1033B000E00FF83F3C780E6006E007C00300030012
:1033C00003FE03FE03C007C006C00EC03CF0F83F7A
:1033D000E00F0000000000000000000000000000FE
:1033E0000C300C300C300C300C300C300C30FC3FFE
:1033F000FC3F0C300C300C300C300C300C300C30EE
:103400000C30000000000000000000000000000080
:1034100080018001800180018001800180018001A4
:103420008001800180018001800180018001800194
:10343000800100000000000000000000000000000B
:10344000000600060006000600060006000600064C
:103450000006000600060006180618063807F003E6
:10346000E00100000000000000000000000000007B
:1034700006300618060C060606038601C60066001E
:103480007600DE008E0106030606060C06180630DE
:1034900006600000000000000000000000000000C6
:1034A000180018001800180018001800180018005C
:1034B0001800180018001800180018001800F81F4D
:1034C000F81F0000000000000000000000000000E5
:1034D0000EE01EF01EF01EF036D836D836D836D89C
:1034E00066CC66CC66CCC6C6C6C6C6C6C6C686C3CD
:1034F00086C3000000000000000000000000000083
:103500000C301C303C303C306C306C30CC30CC302B
:103510008C310C330C330C360C360C3C0C3C0C3818
:103520000C3000000000000000000000000000005F
:10353000E007F81F1C380E70066003C003C003C00C
:1035400003C003C003C003C006600E701C38F81F20
:10355000E007000000000000000000000000000084
:10356000FC0FFC1F0C380C300C300C300C300C18DD
:10357000FC1FFC070C000C000C000C000C000C00E5
:103580000C0000000000000000000000000000002F
:10359000E007F81F1C380E70066003E003C003C08C
:1035A00003C003C003C007E006630E3F1C3CF83FA6
:1035B000E0F700C000000000000000000000000074
:1035C000FE0FFE1F06380630063006300638FE1F96
:1035D000FE0706030606060C061806180630063017
:1035E0000660000000000000000000000000000075
:1035F000E003F80F1C0C0C180C180C001C00F8034E
:10360000E00F001E0038063006300E301C1CF80F8C
:10361000E0070000000000000000000000000000C3
:10362000FE7FFE7F8001800180018001800180019A
:103630008001800180018001800180018001800182
:1036400080010000000000000000000000000000F9
:103650000C300C300C300C300C300C300C300C308A
:103660000C300C300C300C300C300C301818F81FAB
:10367000E007000000000000000000000000000063
:1036800003600630063006300C180C180C18180CA5
:10369000180C380E30063006700760036003C00156
:1036A000C001000000000000000000000000000059
:1036B0000360C361C361C3616633663366336633D7
:1036C000663366336C1B6C1B6C1B2C1A3C1E380E4D
:1036D000380E0000000000000000000000000000A4
:1036E0000FE00C7018303018700C600EC0078003AB
:1036F0008003C003E006700C301C18180C300E60FC
:1037000007E00000000000000000000000000000D2
:1037100003C006600C301C383818300C6006E00717
:10372000C00380018001800180018001800180014F
:103730008001000000000000000000000000000008
:10374000FC7FFC7F006000300018000C00060003C6
:103750008001C0006000300018000C000600FE7FF1
:10376000FE7F0000000000000000000000000000DC
:10377000E003E00360006000600060006000600043
:103780006000600060006000600060006000600039
:103790006000600060006000E003E00300000000E3
:1037A00030003000600060006000C000C000C00059
:1037B000C0018001800180010003000300030006B6
:1037C00000060000000000000000000000000000F3
:1037D000E003E00300030003000300030003000311
:1037E00000030003000300030003000300030003C1
:1037F0000003000300030003E003E00300000000F7
:103800000000C001C00160036003600330063006A1
:10381000180C180C00000000000000000000000060
:103820000000000000000000000000000000000098
:103830000000000000000000000000000000000088
:103840000000000000000000000000000000000078
:10385000FFFFFFFF0000000000000000000000006C
:103860000C000C000C000C000C000C000000000010
:103870000000000000000000000000000000000048
:103880000000000000000000000000000000000038
:1038900000000000000000000000F003F8071C0C0E
:1038A0000C0C000FF00FF80C0C0C0C0C1C0FF80F8C
:1038B000F018000000000000000000000000000000
:1038C00018001800180018001800D803F80F380C5A
:1038D000181818181818181818181818380CF80F7D
:1038E000D8030000000000000000000000000000FD
:1038F00000000000000000000000C003F007300ED0
:10390000180C1800180018001800180C300EF007DA
:10391000C0030000000000000000000000000000E4
:1039200000180018001800180018C01BF01F301CE9
:10393000181818181818181818181818301CF01F0C
:10394000C01B00000000000000000000000000009C
:1039500000000000000000000000C003F00F300C69
:103960001818F81FF81F180018003818301CF00F2E
:10397000C007000000000000000000000000000080
:10398000800FC00FC000C000C000F007F007C000EB
:10399000C000C000C000C000C000C000C000C00027
:1039A000C000000000000000000000000000000057
:1039B00000000000000000000000E00DF80F180EED
:1039C0000C0C0C0C0C0C0C0C0C0C0C0C180EF80F3A
:1039D000E00D000C0C0C1C06F807F00100000000C4
:1039E00018001800180018001800D807F80F381C25
:1039F0001818181818181818181818181818181847
:103A00001818000000000000000000000000000086
:103A1000C000C000000000000000C000C000C000E6
:103A2000C000C000C000C000C000C000C000C00096
:103A3000C0000000000000000000000000000000C6
:103A4000C000C000000000000000C000C000C000B6
:103A5000C000C000C000C000C000C000C000C00066
:103A6000C000C000C000C000F800780000000000E6
:103A70000C000C000C000C000C000C0C0C060C03D1
:103A80008C01CC006C00FC009C018C030C030C0628
:103A90000C0C00000000000000000000000000000E
:103AA000C000C000C000C000C000C000C000C00016
:103AB000C000C000C000C000C000C000C000C00006
:103AC000C000000000000000000000000000000036
:103AD000000000000000000000007C3CFF7EC7E307
:103AE00083C183C183C183C183C183C183C183C1B6
:103AF00083C1000000000000000000000000000082
:103B0000000000000000000000009807F80F381CBB
:103B10001818181818181818181818181818181825
:103B20001818000000000000000000000000000065
:103B300000000000000000000000C003F00F300C87
:103B4000181818181818181818181818300CF00F1A
:103B5000C0030000000000000000000000000000A2
:103B600000000000000000000000D803F80F380C2F
:103B7000181818181818181818181818380CF80FDA
:103B8000D8031800180018001800180000000000E2
:103B900000000000000000000000C01BF01F301CEF
:103BA000181818181818181818181818301CF01F9A
:103BB000C01B0018001800180018001800000000B2
:103BC00000000000000000000000B007F0037000DB
:103BD0003000300030003000300030003000300065
:103BE00030000000000000000000000000000000A5
:103BF00000000000000000000000E003F003380EA9
:103C0000180C3800F003C007000C180C380EF00731
:103C1000E0030000000000000000000000000000C1
:103C200000008000C000C000C000F007F007C00026
:103C3000C000C000C000C000C000C000C000C0077D
:103C400080070000000000000000000000000000ED
:103C500000000000000000000000181818181818D4
:103C6000181818181818181818181818381CF01FD1
:103C7000E01900000000000000000000000000004B
:103C8000000000000000000000000C18180C180CC8
:103C9000180C300630063006600360036003C00174
:103CA000C001000000000000000000000000000053
:103CB00000000000000000000000C141C141C361DC
:103CC0006363636363633636363636361C1C1C1CEE
:103CD0001C1C0000000000000000000000000000AC
:103CE000000000000000000000001C38381C300CF0
:103CF000600660036003600360036006300C381CDC
:103D00001C3800000000000000000000000000005F
:103D100000000000000000000000183030183018CB
:103D20007018600C600CE00CC006C00680038003B5
:103D3000800380018001C001F000700000000000DD
:103D400000000000000000000000FC1FFC1F000C31
:103D5000000600038001C000600030001800FC1F56
:103D6000FC1F000000000000000000000000000038
:103D700000038001C000C000C000C000C000C0003F
:103D800060006000300060004000C000C000C00063
:103D9000C000C000C000800100030000000000005F
:103DA000800180018001800180018001800180010B
:103DB00080018001800180018001800180018001FB
:103DC00080018001800180018001800100000000ED
:103DD0006000C000C001800180018001800180017D
:103DE0000003000300060003000180018001800140
:103DF000800180018001C000600000000000000020
:103E00000000000000000000000000000000F010B2
:103E1000F81F080F00000000000000000000000074
:103E20000000000000000000000000000000000092
:103E3000503E000800000020580000001402000856
:103E4000A83E00085800002050070000300200087B
:103E50000000000000000000000000000000000062
:103E60000000000000000000100000000100000041
:103E7000000000000024F4000000FFFF00003F06E7
:103E80005B4F666D7D077F6F777C395E797100408F
:103E90007638375C733E3D6777BF86DBCFE6EDFD56
:083EA00087FFEF46000000005F
:04000005080001D915
:00000001FF
