:020000040800F2
:100000004007002081020008C3200008C71A00082A
:10001000C120000807060008BD2E000800000000EF
:10002000000000000000000000000000DB230008CA
:100030000906000800000000C5200008DD230008B4
:100040009B0200089B0200089B0200089B0200081C
:100050009B0200089B0200089B0200089B0200080C
:100060009B0200089B0200089B0200089B020008FC
:100070009B0200089B0200089B0200089B020008EC
:100080009B020008000000009B0200089B02000881
:100090009B0200089B0200089B0200089B020008CC
:1000A0009B0200089B0200089B0200089B020008BC
:1000B0009B0200089B0200089B0200089B020008AC
:1000C0009B0200089B0200089B0200089B0200089C
:1000D0009B020008B12E00089B0200089B0200084A
:1000E0009B0200089B0200089B0200089B0200087C
:1000F0009B0200089B0200089B0200080000000011
:10010000000000009B020008000000009B020008A5
:100110009B020008000000009B0200089B020008F0
:100120009B0200089B0200089B0200089B0200083B
:100130009B02000800000000000000009B02000875
:100140009B0200089B020008000000000000000065
:10015000000000000000000000000000000000009F
:100160000000000000000000000000009B020008EA
:100170009B020008000000000000000000000000DA
:10018000000000009B0200080000000000000000CA
:10019000000000000000000000000000000000005F
:1001A00000000000000000009B0200089B02000805
:1001B0009B0200089B0200089B0200080000000050
:1001C000000000009B02000800000000000000008A
:1001D0009B0200089B02000800F002F800F041F8C2
:1001E0000AA090E8000C82448344AAF10107DA4592
:1001F00001D100F036F8AFF2090EBAE80F0013F0A3
:10020000010F18BFFB1A43F00103184758400000C4
:1002100078400000103A24BF78C878C1FAD8520755
:1002200024BF30C830C144BF04680C607047000070
:100230000023002400250026103A28BF78C1FBD8EF
:10024000520728BF30C148BF0B607047732900F0C8
:100250009C81002070471FB502F0F6FE1FBD10B54F
:1002600010BD00F096F91146FFF7F5FF02F082FE8F
:1002700000F0B4F903B4FFF7F2FF03BC00F0BCF9DF
:100280000948804709480047FEE7FEE7FEE7FEE72A
:10029000FEE7FEE7FEE7FEE7FEE7FEE70448054966
:1002A000054A064B7047000049240008D9010008A0
:1002B00040010020400700204003002040030020B0
:1002C00053EA020C00F069802DE9F04B4FF0000674
:1002D000002B1FBFB3FA83F503FA05F424FA05F6E1
:1002E0005E4012BF1643B2FA82F502FA05F4C5F178
:1002F00020051EBF22FA05FC44EA0C04203556EA0C
:10030000044C4FEA144418BF641C4FF000084FF02F
:100310000009904271EB030C39D3002919BFB1FADF
:1003200081F701FA07F6B0FA80F700FA07F6C7F18D
:1003300020071EBF20FA07FC46EA0C062037B6FB52
:10034000F4FCA7EB0507103F07F01F0BCBF12006CD
:100350000CFA0BFB2CFA06F644BFB3460026202FFE
:10036000A4BF5E464FF0000B5BEA060C08BF4FF0DF
:10037000010B19EB0B09ABFB027C48EB0608C01B19
:1003800006FB02CC0BFB03CC71EB0C01C1E70B4667
:10039000024641464846BDE8F08B13B54FF00000D9
:1003A0004FF00001AFF30080BDE81C407047000033
:1003B0000FB41CB5074B06AA7B446946009005980C
:1003C00000F0B9F80020694600F0C8F81CBC5DF8E0
:1003D00014FB0000A10100002DE9F0410E46044687
:1003E000002020622046E168884730B3252805D0E8
:1003F000D4E901219047206A401CF2E7E1682046D9
:1004000000278847050018D0A5F14100192802D817
:1004100020354FF400673246294620462760FFF713
:1004200015FF40B1012804D0F61D26F00706083656
:10043000D8E7361DD6E72846DAE7206ABDE8F0811E
:1004400070B50C460546012A05D02878800600D5EF
:10045000EA69002302E0012305E05B1C934202D21B
:10046000E05C0028F9D1A869E618C01AA861286ADA
:10047000184428622846AFF3008004E0D5E9012142
:1004800014F8010B9047B442F8D32846AFF300802C
:1004900070BD4FF000020429C0F0128010F0030C70
:1004A00000F01B80CCF1040CBCF1020F18BF00F867
:1004B000012BA8BF20F8022BA1EB0C0100F00DB816
:1004C0005FEAC17C24BF00F8012B00F8012B48BF74
:1004D00000F8012B70474FF0000200B51346944618
:1004E0009646203922BFA0E80C50A0E80C50B1F18C
:1004F0002001BFF4F7AF090728BFA0E80C5048BFA0
:100500000CC05DF804EB890028BF40F8042B08BF3D
:10051000704748BF20F8022B11F0804F18BF00F839
:10052000012B7047704770477047000001694A1CF3
:1005300002610878704700B58FB0CDE90131002124
:10054000059105497944CDE9031011466846FFF746
:1005500043FF0FB000BD0000E5FFFFFF0A6802F88F
:10056000010B0A60704710B5436913B1AFF3008007
:1005700001E0FFF765FF012010BD127800F12401B2
:100580000A7000224A700122EDE711684FF0FF3235
:10059000E9E7754600F02CF8AE460500694653467B
:1005A00020F00700854618B020B5FFF777FEBDE8BC
:1005B00020404FF000064FF000074FF000084FF0CA
:1005C000000B21F00701AC46ACE8C009ACE8C0095B
:1005D000ACE8C009ACE8C0098D46704710B50446C8
:1005E000AFF300802046BDE81040FFF743BE000097
:1005F00000487047E000002001491820ABBEFEE72C
:10060000260002007047FEE77047002240F6B8332C
:1006100006E00021491C89B29942FBD3521C92B2D8
:100620008242F6D3704772B6FEE710B590F82530D7
:1006300000210122022B03D00421C163012122E009
:1006400003681C6824F00E041C60836C1C6824F48E
:1006500080741C6003681C6824F001041C6090F81E
:100660004430046C03F01F0302FA03F36360D0E923
:1006700013345C60436D33B11C6824F480741C60D7
:10068000D0E916345C6080F82520002280F8242010
:10069000084610BD70B590F825200024012123469E
:1006A000022A07D00422C26380F8251080F8243083
:1006B000012429E00268156825F00E05156002681E
:1006C000156825F001051560826C156825F48075A4
:1006D000156090F84420056C02F01F0201FA02F246
:1006E0006A60D0E913255560426D32B1156825F472
:1006F00080751560D0E91625556080F8251080F8C2
:100700002430816B01B18847204670BD70B5044626
:1007100000F03CF90546601C02D0044840680444DF
:1007200000F034F9401BA042FAD370BD180000203D
:100730002DE9F04FDFF82092002301260324A9F1D0
:10074000040B85B00F2709F1040AABF1040EFAE09F
:1007500006FA03F52A407CD091F804C00CF0030C93
:10076000BCF1010F02D0BCF1020F26D1D0F808C0B5
:10077000CDF800C04FEA430C04FA0CF8CDF810C0D5
:10078000DDF800C02CEA080CCDF800C0D1F80C80D0
:10079000DDF810C008FA0CF8DDF800C048EA0C08D3
:1007A000C0F80880D0F804C02CEA050C0D79C5F318
:1007B00000159D4045EA0C0545600D79ED43AD07F8
:1007C0000ED0C5684FEA430804FA08FC25EA0C0578
:1007D000D1F808C00CFA08FC4CEA050CC0F80CC0B3
:1007E0000D7905F00305022D16D1DD0800EB850C0F
:1007F000CDF808C0DCF820805D074FEAD56C07FA19
:100800000CF528EA05080D6905FA0CF5DDF808C0B5
:1008100045EA0805CCF8205005684FEA430CCDF8AE
:1008200008C004FA0CFC25EA0C0591F804C00CF091
:100830000308DDF808C008FA0CF848EA0508C0F813
:1008400000804D6815F4403F7CD0444DD5F860C021
:1008500000E077E04CF0010CC5F860C02D6E23F08D
:10086000030C05F0010500953D4D65440295AD680A
:100870004FEA837C4FEA1C7807FA08FC25EA0C054E
:10088000B0F1904F06D0DFF8DCC0604505D14FF0E5
:10089000010C20E04FF0000C1DE0DFF8CCC06045FB
:1008A00002D14FF0020C16E0DFF8C0C0604502D163
:1008B0004FF0030C0FE0DFF8B8C0604502D14FF0F5
:1008C000040C08E0DFF8ACC0604502D14FF0050C25
:1008D00001E04FF0060C0CFA08FC4CEA050C029DF6
:1008E000C5F808C0D9F80050CC46D1F8048095432B
:1008F0005FEAC82800D51543CCF80050DAF800505C
:10090000D446D1F8048095435FEA882800D5154382
:10091000CCF80050DBF80050DC46D1F80480954359
:100920005FEA883800D51543CCF80050DEF8005057
:10093000F446D1F8048095435FEAC83800D51543E2
:10094000CCF800505B1C0A6832FA03F57FF400AF64
:1009500005B0BDE8F08F000008040140001002401F
:10096000000001400004004800080048000C004856
:1009700000100048001400480069084000D0012021
:1009800070470AB181617047816270470148806891
:100990007047000018000020024881684268114436
:1009A000816070471800002010B50024032000F07B
:1009B00073F80F2000F008F808B1012401E000F0FE
:1009C00025F8204610BD000070B50E4E05460024E7
:1009D000706898B14FF47A71B1FBF0F00A49096878
:1009E000B1FBF0F000F064FD40B9102D06D20022FA
:1009F0002946501E00F030F8356000E00124204602
:100A000070BD000018000020240000200A4882B0B9
:100A1000016E41F001010166016E01F001010091DA
:100A2000816D41F080518165806D00F080500090B3
:100A300002B000F0A1B8000000100240002809DB5D
:100A400000F01F02012191404009800000F1E020E8
:100A5000C0F8001170470000F0B40E4B1B680C4644
:100A6000C3F30223C3F10705042D00D90425191D82
:100A7000072901D2002300E0DB1E012606FA05F15A
:100A8000491E214099409E40761E16403143F0BCDD
:100A900002F015BA0CED00E0064900F00702086804
:100AA0004FF6FF03184040EA0220034A1043086053
:100AB000704700000CED00E00000FA052B492C4BBC
:100AC0000A6832214A432B4940B1B0F5007F0868DB
:100AD00029D020F4C06040F480602CE00868C0F3A6
:100AE0004120022804D051F8800F20F4807022E0C9
:100AF000D1F8800020F48070C1F88000086820F4EC
:100B0000C06040F400700860B2FBF3F0401C00E0ED
:100B1000401E4A69520501D50028F9D148694005AF
:100B20000AD503207047C0F34120022806D051F8AF
:100B3000800F40F48070086000207047D1F880007A
:100B400040F48070C1F88000086820F4C06040F470
:100B500000700860B2FBF3F0401C00E0401E4A69E0
:100B60005205DBD50028F9D1D8E700002400002089
:100B700040420F00007000400248816841F480410B
:100B800081607047007000402DE9F843044600681A
:100B900000269D4D00035ED5A86D0027C00008D437
:100BA000A86D40F08050A865A86D012700F0805026
:100BB0000090DFF85892D9F8001041F48071C9F81C
:100BC0000010FFF7E3FE804606E000BFFFF7DEFE01
:100BD000A0EB080002282BD8D9F80000C005F5D5F5
:100BE000D5F8900010F4407014D0216C814211D0DF
:100BF000D5F89000D5F8901020F4407041F4803181
:100C0000C5F89010D5F8901021F48031C5F89010F7
:100C1000C5F89000C00711D0FFF7B8FE804641F23A
:100C2000883907E0FFF7B2FEA0EB0801494501D97A
:100C300003260BE0D5F890008007F3D5D5F8900097
:100C4000216C20F440700843C5F890001FB1A86DD6
:100C500020F08050A8652078C00707D0D5F888001C
:100C6000616820F003000843C5F8880020788007F9
:100C700007D5D5F88800A16820F00C000843C5F816
:100C800088002078400707D5D5F88800E16820F073
:100C900030000843C5F888002078000707D5D5F84C
:100CA0008800216920F0C0000843C5F8880020783A
:100CB000800607D5D5F88800616920F440600843B4
:100CC000C5F888002078400607D5D5F88800A169C6
:100CD00020F440500843C5F888002078000607D566
:100CE000D5F88800E16920F440400843C5F8880041
:100CF0002088C00507D5D5F88800216A20F4403047
:100D00000843C5F888002088800507D5D5F88800F5
:100D1000616A20F440200843C5F888002088400517
:100D20000FD5D5F88800A16A20F440100843C5F813
:100D30008800A06AB0F5801F03D1E86840F48010F5
:100D4000E860208800050FD5D5F88800E16A20F416
:100D500040000843C5F88800E06AB0F5800F03D171
:100D6000E86840F48010E8602088C0040FD5D5F80A
:100D70008800216B20F040700843C5F88800206B84
:100D8000B0F1807F03D1E86840F48010E8602088EB
:100D90004FF0006180040ED5D5F88800626B20F01A
:100DA00040601043C5F88800606B884203D1E86852
:100DB00040F48010E860208840040ED5D5F8880003
:100DC000A26B20F040601043C5F88800A06B8842F9
:100DD00003D1E86840F48010E860208800040FD553
:100DE000D5F88800E16B20F040500843C5F8880032
:100DF000E06BB0F1805F03D1E86840F48030E860D8
:100E00003046BDE8F883000000100240007000404A
:100E10002DE9F0470E4605004FF0000725D0DFF81A
:100E2000AC81D8F8000000F00F00B0420CD2D8F826
:100E3000001021F00F013143C8F80010D8F800006D
:100E400000F00F00B04210D12968614CC80741F290
:100E5000883A5AD06868DFF87C91032808D00228C5
:100E600020682DD0400500282CDB0120BDE8F0874C
:100E700020688001F9D5E06800F00302E068C0F363
:100E80000310401C032A19D0534A00BFB2FBF0F0F4
:100E9000E268C2F306225043E268C2F34162521C88
:100EA0005200B0FBF2F0484517D9A06810F0F00FDF
:100EB0000CD0880711D5A86840B10EE0474AE5E795
:100EC0008003D0E700F0B6F8484506D9A06820F0C6
:100ED000F00040F08000A0608027A068696820F0E2
:100EE00003000843A060FFF751FD814606E000BF04
:100EF000FFF74CFDA0EB090151453AD8A06869689D
:100F000000F00C00B0EB810FF2D12868810714D5F6
:100F1000400703D5A06840F4E060A060287800078F
:100F200005D5A06820F4605040F4E060A060A0689F
:100F3000A96820F0F000084304E0802F03D1A068E6
:100F400020F0F000A060D8F80010404601F00F013A
:100F5000B14216D9016821F00F0131430160FFF75A
:100F600015FD074607E000BFFFF710FDC11B514507
:100F700001D903207AE7D8F8000000F00F00B04252
:100F8000F2D12878400705D5A068E96820F4E06030
:100F90000843A0602878000706D5A068296920F4D6
:100FA000605040EAC100A06000F044F8A1680C4A1B
:100FB000C1F30311515C01F01F01C84009490860E9
:100FC00009480068BDE8F047FFF7FEBC002002407A
:100FD0000010024000B4C4040024F40000366E0186
:100FE0007A30000824000020180000200548064937
:100FF00000688968054AC1F30221515C01F01F01B4
:10100000C840704724000020001002408A300008C9
:101010000548064900688968054AC1F3C221515C48
:1010200001F01F01C840704724000020001002405A
:101030008A300008184910B58868C0F38102174843
:10104000012A0BD08A68164BC2F38102022A06D00D
:101050008A68C2F38102032A03D0002010BD18461B
:1010600010BDCA6802F00304CA68C2F30312521C1E
:10107000032C02D0B0FBF2F001E0B3FBF2F0CA683F
:10108000C968C2F306225043C1F34161491C4900BB
:10109000B0FBF1F010BD0000001002400024F4008D
:1010A00000366E012DE9F84304007AD02078FA4D1D
:1010B000C00747D0A868E96800F00C0001F0030100
:1010C0000C2802D0082817D001E0032914D060684A
:1010D000B0F5803F17D0B0F5A02F286817D020F4C6
:1010E00080302860286820F4802028606068E0B1A3
:1010F000FFF74CFC064614E02868800322D56068A0
:101100000028D2D01EE0286840F48030EDE740F49B
:1011100080202860F7E700BFFFF738FC801B6428B9
:1011200070D828688003F7D50CE0FFF72FFC06463F
:1011300005E000BFFFF72AFC801B6428F0D8286870
:101140008003F7D4207880074CD5A868E96800F0C0
:101150000C0001F003010C2802D004280DD001E09E
:1011600002290AD0E068002828682BD040F480705B
:101170002860FFF70BFC064619E02868400502D5F9
:10118000E068002891D06868217C20F0FE4040EAA9
:1011900001606860C1480068FFF716FC002800D1B4
:1011A00020E076E1FFF7F2FB801B0228B8D8286820
:1011B0004005F7D56868217C20F0FE4040EA0160D8
:1011C00068600FE020F480702860FFF7DFFB0646C0
:1011D00005E000BFFFF7DAFB801B0228A0D82868D3
:1011E0004005F7D42078000729D560690028D5F894
:1011F000940013D040F00100C5F89400FFF7C6FB3F
:10120000064606E090E000BFFFF7C0FB801B022807
:1012100086D8D5F894008007F6D510E020F00100BC
:10122000C5F89400FFF7B2FB064604E0FFF7AEFBFB
:10123000801B022878D8D5F894008007F6D420784F
:10124000400761D5A86D0026C00008D4A86D40F005
:101250008050A865A86D012600F08050009090484D
:101260000168C90511D40168804641F480710160AC
:10127000FFF78CFB074604E0FFF788FBC01B022842
:1012800052D8D8F80000C005F6D5A068012815D0BE
:101290000528D5F8900016D020F00100C5F8900080
:1012A000D5F8900020F00400C5F89000A06841F245
:1012B0008838B8B1FFF76AFB07460EE0D5F8900012
:1012C00040F00100F0E740F00400C5F89000F5E7B9
:1012D000FFF75CFBC11B414526D8D5F8900080077D
:1012E000F6D50CE0FFF752FB074604E0FFF74EFB94
:1012F000C11B414518D8D5F890008007F6D41EB11F
:10130000A86D20F08050A8652078800629D5A069B6
:101310000028D5F8980013D040F00100C5F89800D7
:10132000FFF734FB064606E077E000BFFFF72EFB31
:10133000801B022877D8D5F898008007F6D510E0F2
:1013400020F00100C5F89800FFF720FB064604E0F6
:10135000FFF71CFB801B022865D8D5F89800800792
:10136000F6D4E069F0B3A968C1F38101032961D023
:101370000228286820F0807028600BD0E86820F0F0
:101380000300E860E86847490840E860FFF7FEFAB4
:1013900004464BE0FFF7FAFA064604E0FFF7F6FAD8
:1013A000801B02283FD828688001F7D4F4E908019F
:1013B0006FF00F0202EB01110843218A5204490821
:1013C00002EB4151A26841EA02210843217D4FF01E
:1013D0007E42490802EB41610843217B40EAC1603B
:1013E000E96800E062E0304A11400843E86028689C
:1013F00040F080702860E86840F08070E860FFF797
:10140000C5FA044605E000BFFFF7C0FA001B02283A
:1014100009D828688001F7D548E004E0FFF7B6FA5C
:10142000001B022802D90320BDE8F8832868800148
:10143000F4D43BE00128F7D0E868226A00F0030109
:10144000914226D1616A00F0F002090110399142FF
:101450001FD1A26A00F4FE41B1EB022F19D194F81A
:101460002C2000F07841B1EBC26F12D1218E00F434
:10147000C00249084905A1F50011914209D194F82B
:10148000341000F0C06049084906A1F100718142A2
:101490000CD00120C8E70000001002401800002016
:1014A00000700040FFFFEEFE0C809F010020BBE7B4
:1014B00010B5401EB0F1807F01D3012010BD4FF068
:1014C000E02460610F21601701F0F9FC0020A061A9
:1014D00007202061002010BD90F88010012918D04D
:1014E000012180F880102421C0F8841050F8641B7A
:1014F0000A680B6823F001030B6022F00051002200
:10150000026050F8643C19602021016202771046A5
:101510007047022070477047704770B5044690F8D6
:10152000800001281DD0012084F880002420C4F808
:10153000840020680568026822F0010202602068C9
:10154000826822F060620A438260204600F084FFD5
:10155000206805602020C4F88400002084F8800002
:1015600070BD022070BD70B5044690F8800001285F
:101570001DD0012084F880002420C4F88400206855
:101580000568026822F0010202602068826822F089
:1015900060420A438260204600F05EFF20680560DA
:1015A0002020C4F88400002084F8800070BD022050
:1015B00070BD7047704770472DE9F04103680446DD
:1015C000D86919689A6840F60F0528424FF000055F
:1015D00009D186067ED501F0200602F080573E43F1
:1015E00078D0216F27E1A94EA94F16400F4037430D
:1015F00070D0C70709D0CF0507D501271F62D4F8DF
:101600008C3043F00103C4F88C3083070AD5D3072C
:1016100008D0276802233B62D4F88C3043F00403DF
:10162000C4F88C3043070AD5D30708D027680423B1
:101630003B62D4F88C3043F00203C4F88C300307CB
:101640000CD501F02003334308D026680823336209
:10165000D4F88C3043F00803C4F88C3003050BD564
:101660004B0109D526684FF400633362D4F88C30FF
:1016700043F02003C4F88C30D4F88C30002B3AD0DF
:10168000800609D501F0200002F08051084303D004
:10169000216F09B120468847D4F88C0021688968F9
:1016A000490602D410F0280F27D0204600F094FFFE
:1016B0002068806840061BD52068083050E8001F6D
:1016C00021F0400140E80012002AF5D1E06F78B126
:1016D000704900E017E08163E06FFEF7DBFF002850
:1016E00009D0E06F816B00E02046BDE8F04108477B
:1016F0002046FFF760FFBDE8F0812046FFF75BFF63
:10170000C4F88C50F7E7E76E2026012F7ED1C7067C
:101710007CD5CF067AD510201862206880684006F4
:1017200042D5E16F086840680004000CE3D0B4F8CB
:101730005C208242DFD9A4F85E0008680068800659
:101740002BD4206850E8001F21F4807140E800127B
:10175000002AF6D12068083050E8001F21F001016E
:1017600040E80012002AF5D12068083050E8001F38
:1017700021F0400140E80012002AF5D1C4F8886049
:10178000E566216851E8000F20F0100041E80002F2
:10179000002AF6D1E06FFEF748FFB4F85C00B4F819
:1017A0005E10401A81B22CE0B4F85C00B4F85E1010
:1017B000401A81B2B4F85E0000289CD000299AD06B
:1017C000226852E8000F20F4907042E80003002BDA
:1017D000F6D12E4BDB432068083050E8002F1A402A
:1017E00040E80027002FF6D1C4F88860E566256739
:1017F000226852E8000F20F0100042E80003002B9E
:10180000F6D12046FFF787FE75E7FFE7C70209D547
:10181000570207D54FF4801018622046BDE8F0410A
:10182000FFF7C8BE03060AD501F0800302F40002E8
:10183000134304D0616F00297FF456AF5BE7420683
:1018400011D54A060FD52046016851E8002F22F035
:10185000400241E80023002BF6D1C0F884604567C0
:1018600000F030F947E7020206D54A0004D52046C9
:10187000BDE8F041FFF79DBEC001C5D50029C3DA20
:101880002046BDE8F041FFF747BE00000100001010
:1018900020010004C525000810B5040003D0D4F8C9
:1018A000840010B107E0012010BD002084F8800002
:1018B000204600F027F82420C4F88400206801683E
:1018C00021F001010160204601F0C8F80128EBD0A9
:1018D000A06A10B1204600F0E1FD2068416821F4C3
:1018E000904141602068816821F02A018160206870
:1018F000016841F0010101602046BDE8104000F0A0
:1019000031BE000010B598B00446142111A8FEF7AE
:10191000E2FD44216846FEF7DEFD1B49206888424F
:1019200030D101200024CDE900046846FFF72CF9EE
:1019300008B1FEF778FE1548016E41F4804101665A
:10194000016E01F480411691C16C41F00101C16446
:10195000C06C11A900F0010016904FF4C060119006
:101960000220CDE912040720CDE914404FF0904049
:10197000FEF7DEFE002211462520FFF76DF8252038
:10198000FFF75CF818B010BD0038014000100240AD
:1019900030B4D0F88830202B20D1E1B1DAB190F802
:1019A0008030012B1AD0012380F880300023C366D9
:1019B0000B4C0368A3420BD05B681B0208D504687C
:1019C00054E8003F43F0806344E80035002DF6D131
:1019D00030BC01F07DB9012030BC70470220FBE72C
:1019E000008000400549064B48780A781A54401C8C
:1019F000487001220348FFF7CBBF00002E000020F3
:101A0000C0000020300000202DE9F8430446D0F843
:101A100084001F4616460D46202851D1DDB1D6B1AF
:101A200094F8800001284BD0012084F880004FF00A
:101A30000008C4F88C802120C4F884001834FEF714
:101A4000A5FFA6878146E68754F8100C183CB0F530
:101A5000805F03D004E00120BDE8F883206920B155
:101A60002E46002584F8808010E00026FAE78021C9
:101A7000204601F0B9F9B8B9C6B116F8010B2168D2
:101A80008862B4F85600401EA4F85600B4F8560018
:101A90004B464FF0000200970028E8D14FF040017C
:101AA000204601F0A1F930B10320D5E735F8020B4B
:101AB000C0F30800E3E72020C4F884000020CBE74F
:101AC0000220C9E77047FEE7124810B50168124CC2
:101AD0002269891A32291CD30068206101F000FABA
:101AE0002070A278014690436070E070A1700128D8
:101AF00009D0022809D0032809D0042809D1BDE85B
:101B0000104000F0E7B9552002E0AA2000E00020D4
:101B1000207110BD200000200000002000B585B01D
:101B200014216846FEF7D7FC4FF6FF7000900020A6
:101B30000321CDE90201019069460248FEF7F8FD54
:101B400005B000BD0008004800B585B01421684606
:101B5000FEF7C1FC4FF6FF700090012001900320BA
:101B600003900020029069460248FEF7E1FD05B0AF
:101B700000BD00000008004870B50024064621465C
:101B8000204600F003F900F041F94FF49635304655
:101B900000F010F9641CAC42F9D370BD30B587B0C9
:101BA00014216846FEF797FC1E48C16C41F0040101
:101BB000C164C16C01F004010591C16C41F00101E7
:101BC000C164C16C01F001010591C16C41F00201D9
:101BD000C164C06C012500F0020005904FF448700C
:101BE000CDE9000500240394694602940E48FEF7EF
:101BF0009FFD280203940090CDE901544FF09044DA
:101C000069462046FEF794FDFFF79EFFA06940F469
:101C10008070A06104481830016841F408710160C7
:101C200007B030BD0010024000040048203AD2B294
:101C3000034B02EB420203EB021200F019B8000062
:101C400092300008F0B50E460746002540F23F14DA
:101C500007E021463846FFF7E9FF103C6D1CA4B2AF
:101C6000761C3278002A01D0142DF2D3F0BD00008A
:101C70002DE9F04791468A460026044600F086F892
:101C8000DFF84080012700BF00F0C0F85FF00005DA
:101C900039F8160007FA05F10842404601D140889C
:101CA00000E0008800F086F86D1C102DF0D3641C55
:101CB000E4B25146204600F069F8761C182EE3D3B2
:101CC000BDE8F0872800002010B5FFF767FF00206F
:101CD00000F014F8084CA080A088A0F5024130392B
:101CE00006D000F079FA002000F008F8A08010BDBE
:101CF00000F0E9F9F7E700002800002070B51D4961
:101D00000A6842F400720A600A6842F480720A604B
:101D1000184C103C226842F020022260164A1060E3
:101D2000086840F02000086000BF00BF00BF2068C6
:101D300040F020002060206840F480702060FFF7B1
:101D4000EDFE4FF09041886A40F48070886200BFD9
:101D500000BF00BF0848001F006885B2886940F4D2
:101D600080708861FFF7F0FE206840F4007020600A
:101D7000284670BD280400481408004801B5BDF885
:101D800000000149488008BD2800002010B50C461D
:101D90000146202000F068F82146BDE810402120CF
:101DA00000F062B801B5BDF800000149088008BD27
:101DB00028000020134A116841F400711160114994
:101DC00010390B6843F480730B600B6843F02003F9
:101DD0000B600D4B1860106840F02000106000BFD1
:101DE00000BF00BF086840F020000860086840F4A9
:101DF0008070086000BF00BF00BF086840F400703A
:101E0000086070472804004814080048144908680E
:101E100040F400700860086840F480700860104862
:101E20001038026842F0200202600E4B22221A6033
:101E30000A6842F020020A6000BF00BF00BF0168CC
:101E400041F020010160016841F48071016000BF30
:101E500000BF00BF016841F40071016070470000DD
:101E60002804004814080048184B10B51A6842F4BA
:101E700000721A601A6842F480721A60134A103AAB
:101E8000146844F020041460114C2060186840F07D
:101E90002000186000BF00BF00BF106840F02000A5
:101EA0001060106840F4807010602160186840F085
:101EB0002000186000BF00BF00BF106840F0200085
:101EC0001060106840F48070106010BD2804004855
:101ED00014080048074802680749CB68D21AB2F5CF
:101EE000967F05D30068C86004A16020FFF7AABEF2
:101EF00070470000200000200000002048656C6C46
:101F00006F2C776F726C64210000000006490A682C
:101F100006488368D21A142A04D3096881600079BC
:101F200000F0FEBF704700002000002000000020ED
:101F30002DE9F04F87B014216846FEF7CCFA4248ED
:101F4000C16C41F00401C164C16C01F00401059150
:101F5000C16C41F02001C164C16C01F02001059108
:101F6000C16C41F00101C164C16C01F00101059136
:101F7000C16C41F00201C164C16C01F00201059124
:101F8000C16C41F00801C164C06CDFF8C08000F092
:101F90000800059001224FF47F414046FEF7F1FC16
:101FA0000022FF214046FEF7ECFC4FF480764FF014
:101FB0009049002231464846FEF7E3FCDFF890A046
:101FC000002204215046FEF7DCFCDFF888B04FF415
:101FD0004877002239465846FEF7D3FC4FF6FF708B
:101FE000009001250024CDE9015469464046039440
:101FF000FEF79EFBCDE90054694648460295FEF780
:1020000097FB07208DE8310069465846FEF790FBA4
:102010000096CDE90154694648460394FEF788FBD3
:1020200004200090CDE90154694650460394FEF720
:102030007FFB0097CDE90154694658460394FEF7AB
:1020400077FB07B0BDE8F08F0010024000080048A1
:10205000000C004800040048184810B516490160FB
:102060004FF416514160002181600C22C160C0E92B
:1020700004128161C161016241628162FFF70CFC5F
:1020800008B1FEF7D0FA00210C48FFF76CFA08B14E
:10209000FEF7C9FA00210948FFF73FFA08B1FEF739
:1020A000C2FA0648FFF718FA002803D0BDE810402E
:1020B000FEF7B9BA10BD0000003801403000002022
:1020C000FEE7FEE7704730B501210020FFF7CCFEA8
:1020D0004FF47A70FEF799FA00210120FFF7C4FE51
:1020E00041F290711020FFF7BFFE4FF41C516020A9
:1020F000FFF7BAFE01216120FFF7B6FE022146205C
:10210000FFF7B2FE48F210011320FFF7ADFE48F2D0
:10211000FE011220FFF7A8FE4FF4A0610220FFF796
:10212000A3FE41F230010320FFF79EFE40F203348C
:1021300021463020FFF798FE21463120FFF794FE1C
:1021400021463220FFF790FEE51E29463320FFF797
:102150008BFE03213420FFF787FE21463520FFF751
:1021600083FE14213620FFF77FFE21463720FFF73C
:102170007BFE21463820FFF777FE21463920FFF706
:1021800073FE29463A20FFF76FFE03213B20FFF73D
:102190006BFE21463C20FFF767FE4FF4A0513D2027
:1021A000FFF762FE4FF400719220FFF75DFE2146BB
:1021B0009320FFF759FE40F60D019020FFF754FEE3
:1021C00041F218010320FFF74FFEBDE8304040F216
:1021D00073110720FFF748BE10B543F20801E32052
:1021E000FFF742FE1221E720FFF73EFE41F23121C8
:1021F000EF20FFF739FE00210120FFF735FE4FF4F5
:10220000E0610220FFF730FE41F230010320FFF7CA
:102210002BFE00210420FFF727FE40F207210820B3
:10222000FFF722FE00210920FFF71EFE00210A20F1
:10223000FFF71AFE00210C20FFF716FE00210D20EB
:10224000FFF712FE00210F20FFF70EFE00211020E5
:10225000FFF70AFE07211120FFF706FE00211220DA
:10226000FFF702FE00211320FFF7FEFDC820FEF756
:102270004DFA41F290611020FFF7F6FD40F2272160
:102280001120FFF7F1FD3220FEF740FA1D21122048
:10229000FFF7EAFD3220FEF739FA4FF40061132010
:1022A000FFF7E2FD14212920FFF7DEFD0B212B2093
:1022B000FFF7DAFD3220FEF729FA00212020FFF790
:1022C000D3FD00212120FFF7CFFD07213020FFF7AC
:1022D000CBFD40F207713120FFF7C6FD0621322009
:1022E000FFF7C2FD40F204713520FFF7BDFD41F656
:1022F00004713620FFF7B8FD04213720FFF7B4FD45
:1023000000213820FFF7B0FD40F206713920FFF7B9
:10231000ABFD40F201713C20FFF7A6FD0F213D20EF
:10232000FFF7A2FD00215020FFF79EFDEF21512075
:10233000FFF79AFD00215220FFF796FD40F23F1172
:102340005320FFF791FD4FF41C516020FFF78CFDE7
:1023500001216120FFF788FD00216A20FFF784FD3D
:1023600000218020FFF780FD00218120FFF77CFD08
:1023700000218220FFF778FD00218320FFF774FD04
:1023800000218420FFF770FD00218520FFF76CFD00
:1023900010219020FFF768FD00219220FFF764FDD7
:1023A00003219320FFF760FD4FF488719520FFF71C
:1023B0005BFD00219720FFF757FD00219820FFF7D4
:1023C00053FD41F218010320FFF74EFDBDE8104018
:1023D00040F273110720FFF747BD7047FEF7DCBAE4
:1023E00010B594B038216846FEF775F814210EA890
:1023F000FEF771F84FF40070FEF760FB01200090CB
:102400000004019002200324CDE907041421CDE942
:102410000A100C900D9009946846FEF743FE08B12F
:1024200072B6FEE70F20CDE90E0400201090119047
:10243000129002210EA8FEF7EBFC002801D072B624
:10244000FEE714B010BD00000248016841F47001BD
:102450000160704788ED00E030B5416EB9B10268A7
:1024600091689268C1F342610B4B520F9C5CE5008E
:1024700003F10804A25CB5FBF2F2A0F86A205A5CF2
:10248000615CD200B2FBF1F1A0F8681030BD01210F
:10249000A0F86A10F8E700006A30000890F82810E9
:1024A000C90706D001684A68C36A22F400321A4399
:1024B0004A6090F82810890706D501684A68036BBE
:1024C00022F480321A434A6090F82810490706D552
:1024D00001684A68436B22F480221A434A6090F8EC
:1024E0002810090706D501684A68836B22F4004268
:1024F0001A434A6090F82810C90606D501688A6810
:10250000C36B22F480521A438A6090F8281089061F
:1025100006D501688A68036C22F400521A438A6067
:1025200090F82810490611D501684A68436C22F4D6
:1025300080121A434A60416CB1F5801F06D10168D0
:102540004A68836C22F4C0021A434A6090F828104B
:10255000090606D501684A68C06C22F400220243CD
:102560004A607047F8B500260446C0F88C60FEF754
:102570000DFA0546206800686FF07E47000708D511
:102580002B4600224FF400112046009700F02CFC4F
:1025900060B92068006840070AD52B4600224FF436
:1025A00080012046009700F01FFC08B10320F8BD11
:1025B0002020C4F88400C4F8880044F86C6F002020
:1025C0002675F8BD10B5806A0021A0F85E10A0F84D
:1025D0005610FEF7F0FF10BD10B5026852E8001F5C
:1025E00021F4907142E80013002BF6D10E4B0268E3
:1025F000083252E8001F194042E80014002CF6D1BE
:10260000C16E012908D1016851E8002F22F01002A3
:1026100041E80023002BF6D12021C0F888100021CA
:10262000C166016710BD0000FEFFFFEF10B5B0F8F6
:102630006020D0F888300168222B04D0886940F0EF
:102640000800886110BD496A836D11401980816D51
:10265000891C8165B0F85E10491EA0F85E10B0F8C4
:102660005E100029EED1026852E8001F21F490713B
:1026700042E80013002BF6D10168083151E8002F21
:1026800022F0010241E80023002BF5D12021C0F8FF
:10269000881000210167C26E012A02D0FFF7A2F95B
:1026A00010BDC166026852E8001F21F0100142E827
:1026B0000013002BF6D10168CA69D243D20601D4B7
:1026C00010220A62B0F85C10FEF725FF10BD000072
:1026D0002DE9F0470446B0F860600068C569D0F89D
:1026E00000A0D0F80880D4F88810222905D081698C
:1026F00041F008018161BDE8F087B4F868704FF0DF
:10270000000963E02068406AA16D30400880A06D38
:10271000801CA065B4F85E00401EA4F85E0020682E
:10272000C569690730D0E9070AD05FEACA5107D501
:1027300001210162D4F88C0040F00100C4F88C0043
:10274000A8070BD55FEAC87008D02168022008628C
:10275000D4F88C0040F00400C4F88C0068070BD556
:102760005FEAC87008D0216804200862D4F88C00A1
:1027700040F00200C4F88C00D4F88C0020B1204650
:10278000FEF719FFC4F88C90B4F85E00F0B9216828
:1027900051E8000F20F4807041E80002002AF6D1D1
:1027A000264A2068083050E8001F114040E8001316
:1027B000002BF6D12020C4F88800C4F87090E16E98
:1027C0004846012923D02046FFF70CF90FB1A8068F
:1027D00098D4B4F85E0000288DD0B4F86810814217
:1027E00089D92068083050E8001F21F0805140E866
:1027F0000012002AF5D112482067206850E8001F17
:1028000041F0200140E80012002AF6D173E7E066AB
:10281000216851E8000F20F0100041E80002002A72
:10282000F6D12068C169C943C90601D410210162EB
:10283000B4F85C102046FEF76EFEC7E7FEFFFFEF20
:102840002D26000810B5B0F86020D0F88830016857
:10285000222B04D0886940F00800886110BD496AC5
:102860001140826D1170816D491C8165B0F85E1058
:10287000491EA0F85E10B0F85E100029EED1026883
:1028800052E8001F21F4907142E80013002BF6D1AA
:102890000168083151E8002F22F0010241E80023CD
:1028A000002BF5D12021C0F8881000210167C26EED
:1028B000012A02D0FFF796F810BDC166026852E8FF
:1028C000001F21F0100142E80013002BF6D101682F
:1028D000CA69D243D20601D410220A62B0F85C1051
:1028E000FEF719FE10BD00002DE9F0470446B0F8D0
:1028F00060600068C569D0F800A0D0F80880D4F8FE
:102900008810222905D0816941F008018161BDE864
:10291000F087B4F868704FF0000963E02068406AFF
:10292000A16D30400870A06D401CA065B4F85E0039
:10293000401EA4F85E002068C569690730D0E90729
:102940000AD05FEACA5107D501210162D4F88C0090
:1029500040F00100C4F88C00A8070BD55FEAC870EE
:1029600008D0216802200862D4F88C0040F00400EE
:10297000C4F88C0068070BD55FEAC87008D02168DE
:1029800004200862D4F88C0040F00200C4F88C00E7
:10299000D4F88C0020B12046FEF70DFEC4F88C90D0
:1029A000B4F85E00F0B9216851E8000F20F480709F
:1029B00041E80002002AF6D1264A2068083050E893
:1029C000001F114040E80013002BF6D12020C4F86E
:1029D0008800C4F87090E16E4846012923D0204653
:1029E000FFF700F80FB1A80698D4B4F85E000028ED
:1029F0008DD0B4F86810814289D92068083050E839
:102A0000001F21F0805140E80012002AF5D1124841
:102A10002067216851E8000F40F0200041E80002E3
:102A2000002AF6D173E7E066216851E8000F20F034
:102A3000100041E80002002AF6D12068C169C943AC
:102A4000C90601D410210162B4F85C102046FEF7DB
:102A500062FDC7E7FEFFFFEF452800082DE9F041C2
:102A60000446016880682269E369104362690025B1
:102A70001A431043DFF82CC20A688B4B1A400243FA
:102A80000A6020684168E26821F4405111434160C6
:102A90002168A069614501D0226A10438A68834B8E
:102AA0001A4002438A602068C16A626A21F00F01FD
:102AB0001143C1627E4923687E488B420DD1D0F814
:102AC000880010F0030006D0012855D0022842D01B
:102AD00003283FD152E001203DE077498B420BD1E2
:102AE000D0F8880010F00C0035D0042833D0082826
:102AF00040D00C282ED141E070498B420BD1D0F848
:102B0000880010F0300026D0102835D0202831D091
:102B100030281FD132E06A498B420BD1D0F88800AF
:102B200010F0C00017D0402826D0802822D0C0281E
:102B300010D123E063450DD1D0F8880010F4406037
:102B400009D0B0F5806F17D0B0F5006F12D0B0F596
:102B5000406F13D010205B495B4F00264FF40042BA
:102B600063453BD160B1022813D004280BD008285C
:102B700072D10DE00220EEE70420ECE70820EAE73E
:102B8000FEF734FA01E0FEF755FA010001D17CE0CE
:102B90001146606A37F810206768B1FBF2F007EB66
:102BA0004703834270D8B0EB073F6DD80023084637
:102BB0001946FDF785FB090241EA10610202780817
:102BC000101871413A460023FDF77AFB3F4AA0F501
:102BD0004071914258D82168C86056E0E3694FF6C9
:102BE000EF7893422CD109284ED2DFE800F0050897
:102BF000114D0D4D4D4D1000FEF7F8F901E0FEF7B7
:102C000007FA010004D140E0FEF714FAF9E7114693
:102C1000606A37F81000B1FBF0F04100606801EB2A
:102C20005001B1FBF0F0A0F1100141452CD84FF656
:102C3000F0710140C0F3420001432068C16024E00C
:102C4000092821D2DFE800F0050912200E202020FB
:102C50001100FEF7CBF902E016E0FEF7D9F901000A
:102C600004D112E0FEF7E6F9F9E71146606A37F899
:102C70001000B1FBF0F1606801EB5001B1FBF0F026
:102C8000A0F1100141450AD901250120A4F86A00EC
:102C900024F8680F2846A660E660BDE8F08180B29F
:102CA00099E7000000800040F369FFCFFFF4FF11B7
:102CB000003801400010024000440040004800403D
:102CC000004C00400024F40052300008FFFC0F00CC
:102CD00070B58165A0F85C20A0F85E200021016736
:102CE00083684FF48055FF24AB4204D10369FBB9DC
:102CF00040F2FF1322E07F26C3B1B3F1805F1AD008
:102D0000A0F86010C0F88C102223C0F88830036847
:102D1000083353E8004F44F0010443E80046002E16
:102D2000F5D1436EB3F1005F0ED032E0036943B9D1
:102D3000A0F86040E6E703691BB13F23A0F86030CC
:102D4000E0E7A0F86060DDE7B0F86830934220D893
:102D50008268AA4201D10269CAB11F4A026780F89B
:102D60008010016941B1026852E8001F41F480718E
:102D700042E80013002BF6D10168083151E8002F1A
:102D800042F0805241E80023002BF5D121E0134AA4
:102D9000E4E78268AA4201D102697AB1104A026767
:102DA00080F88010016959B1026852E8001F41F4AF
:102DB000907142E80013002BF6D10AE0094AEEE7D1
:102DC000026852E8001F41F0200142E80013002B86
:102DD000F6D1002070BD0000E9280008D1260008C7
:102DE000452800082D2600082DE9F0479A46174689
:102DF0000E4604464FF000094FF02008089D4AE0B7
:102E0000681C48D0FDF7C2FDA0EB0A00A8422AD8F2
:102E10004DB32068016849073DD5C069C04300052E
:102E200039D421684FF400600862206850E8001F20
:102E300021F4D07140E80012002AF6D12068083051
:102E400050E8001F21F0010140E80012002AF5D1EE
:102E500044F8848FC4F80480C4F8088004F8049C03
:102E60000320BDE8F087216851E8000F20F4D070FE
:102E700041E80002002AF6D12068083050E8001F1F
:102E800021F0010140E80012002AF5D144F8848FB6
:102E9000C4F80480E2E72068C06936EA000004D084
:102EA0000020B842ACD00020DBE70120F9E70000A9
:102EB0000148FEF781BB000030000020FEE7090753
:102EC000090E002804DB00F1E02080F800147047B0
:102ED00000F00F0000F1E02080F8141D70470000A2
:102EE00070B50E4D002401212846FDF745FD00B9BF
:102EF000012402212846FDF73FFD00B902240421E8
:102F00002846FDF739FD00B9032401214FF0904018
:102F1000FDF732FD00B90424204670BD00040048CE
:102F200070B5124D044601224FF6FF712846FDF799
:102F300028FD0F4E012204213046FDF722FD00221C
:102F400004213046FDF71DFD210200222846FDF731
:102F500018FD012204213046FDF713FD3046BDE87F
:102F6000704000220421FDF70CBD0000000800485D
:102F7000000C0048FDF718FDFFF732FAFEF7D8FF06
:102F8000FFF76AF8FEF7A0FE0020FFF7C9FF4FF633
:102F9000FF742046FEF7F0FD40F21F50FEF702FFDF
:102FA0002046FEF7EBFE01220A490B48FEF7F0FC33
:102FB0000A4D00BFFEF788FDFEF7A8FF2C78002C15
:102FC000F8D00120FDF7A2FB28788442F2D100F06E
:102FD00007F8EFE72E000020300000202F0000202F
:102FE00010B5124888B0026811494B69D21A642A98
:102FF0001AD3006848610F4C2078002814D00E4A7C
:103000000EA16846FDF7D4F932231E2269460D4809
:10301000FEF7FAFC002020701E210748FDF739FA60
:1030200020216846FDF757FA08B010BD20000020A7
:10303000000000202F000020C00000202573200D7C
:103040000A000000300000204FF04070E1EE100A4E
:103050007047010002000400060008000A000C008E
:103060001000200040008000000101010103070161
:103070000000080402040801010100000000000033
:103080000000010203040607080900000000010215
:103090000304000000000000000000000000000029
:1030A0000000000000000000000000000000000020
:1030B0000000000000000000000000000000000010
:1030C00000000000800180018001800180018001FA
:1030D0008001800180018001800180018001000069
:1030E00000008001800100000000000000000000DE
:1030F000000000000000CC00CC00CC00CC00CC00D4
:10310000CC000000000000000000000000000000F3
:1031100000000000000000000000000000000000AF
:103120000000000000000000000000000000600C33
:10313000600C600C30063006FE1FFE1F300638079C
:103140001803FE1FFE1F180318038C018C018C014D
:10315000000000008000E003F80F9C0E8C1C8C180F
:103160008C009800F801E007800E801C8C188C18E9
:103170009C18B80CF00FE0038000800000000000F5
:1031800000000000000000000E181B0C110C1106BE
:103190001106110311039B018E01C038C06C6044FD
:1031A0006044304430441844186C0C38000000006F
:1031B00000000000E001F00338071806180630038D
:1031C000F001F000F8009C310E33061E061C061CB0
:1031D000063FFC73F021000000000000000000002A
:1031E0000000000000000C000C000C000C000C00A3
:1031F0000C000000000000000000000000000000C3
:1032000000000000000000000000000000000000BE
:1032100000000000000200038001C000C000600048
:1032200060003000300030003000300030003000EE
:10323000300060006000C000C00080010003000298
:103240000000000020006000C00080018001000339
:103250000003000600060006000600060006000641
:1032600000060003000380018001C0006000200010
:103270000000000000000000000000000000C0008E
:10328000C000D806F807E00130033807000000004E
:10329000000000000000000000000000000000002E
:1032A000000000000000000000000000000080019D
:1032B0008001800180018001FC3FFC3F8001800192
:1032C000800180018001000000000000000000007B
:1032D00000000000000000000000000000000000EE
:1032E00000000000000000000000000000000000DE
:1032F000000000008001800100010001800000004A
:1033000000000000000000000000000000000000BD
:1033100000000000000000000000E007E0070000DF
:10332000000000000000000000000000000000009D
:10333000000000000000000000000000000000008D
:10334000000000000000000000000000000000007D
:1033500000000000C000C0000000000000000000ED
:1033600000000000000C000C000600060006000330
:10337000000300038003800180018001C000C000C1
:10338000C0006000600000000000000000000000BD
:1033900000000000E003F007380E180C0C180C18A1
:1033A0000C180C180C180C180C180C180C18180CFD
:1033B000380EF007E00300000000000000000000ED
:1033C0000000000000018001C001F00198018801A7
:1033D00080018001800180018001800180018001E5
:1033E000800180018001000000000000000000005A
:1033F00000000000E003F80F180C0C180C1800185F
:103400000018000C000600038001C00060003000BE
:103410001800FC1FFC1F000000000000000000005E
:1034200000000000E001F807180E0C0C0C0C000C5A
:103430000006C003C007000C001800180C180C1878
:10344000180CF807E0030000000000000000000076
:1034500000000000000C000E000F000F800DC00CDB
:10346000600C600C300C180C0C0CFC3FFC3F000C8A
:10347000000C000C000C0000000000000000000028
:1034800000000000F80FF80F180018000C00EC0303
:10349000FC071C0E001C0018001800180C181C0C4F
:1034A000180EF807E0030000000000000000000014
:1034B00000000000C007F00F381C181818000C009E
:1034C000CC03EC0F3C0E1C1C0C180C180C18181C10
:1034D000380EF007E00300000000000000000000CC
:1034E00000000000FC1FFC1F000C0006000600038B
:1034F00080038001C001C000E00060006000700037
:10350000300030003000000000000000000000002B
:1035100000000000E003F007380E180C180C180C1F
:103520003806F007F007180C0C180C180C180C18BB
:10353000380CF80FE003000000000000000000005D
:1035400000000000E003F007380E1C0C0C180C18EB
:103550000C181C1C381EF81BE0190018000C000C7D
:103560001C0EF807F0010000000000000000000041
:1035700000000000000000000000000000008001CA
:1035800080010000000000000000000000000000BA
:103590000000800180010000000000000000000029
:1035A000000000000000000000000000000080019A
:1035B000800100000000000000000000000000008A
:1035C0000000800180010001000180000000000077
:1035D00000000000000000000000000000000000EB
:1035E00000000010001C800FE003F8001800F80035
:1035F000E003800F001C001000000000000000002D
:1036000000000000000000000000000000000000BA
:103610000000F81F000000000000F81F000000007C
:10362000000000000000000000000000000000009A
:10363000000000000000000000000000000000008A
:10364000000008003800F001C007001F0018001F2C
:10365000C007F00138000800000000000000000072
:1036600000000000E003F80F180C0C180C180018EC
:10367000000C000600038001C000C000C000000074
:103680000000C000C00000000000000000000000BA
:10369000000000000000E00718180420C229224A98
:1036A000114409440944094409221113E20C02405F
:1036B00004201818E00700000000000000000000CF
:1036C0000000000080038003C006C006C006600C36
:1036D000600C301830183018F83FF83F1C700C6040
:1036E0000C6006C006C000000000000000000000E2
:1036F00000000000FC03FC0F0C0C0C180C180C183C
:103700000C0CFC07FC0F0C180C300C300C300C307F
:103710000C18FC1FFC070000000000000000000067
:1037200000000000C007F01F38381C300C70066025
:1037300006000600060006000600060006600C7083
:103740001C30F01FE0070000000000000000000037
:1037500000000000FE03FE0F060E061806180630D5
:1037600006300630063006300630063006180618D9
:10377000060EFE0FFE030000000000000000000027
:1037800000000000FC3FFC3F0C000C000C000C0093
:103790000C00FC1FFC1F0C000C000C000C000C00AB
:1037A0000C00FC3FFC3F0000000000000000000097
:1037B00000000000F83FF83F18001800180018003B
:1037C0001800F81FF81F180018001800180018003B
:1037D00018001800180000000000000000000000A1
:1037E00000000000E00FF83F3C780E6006E007C0E4
:1037F0000300030003FE03FE03C007C006C00EC0A3
:103800003CF0F83FE00F0000000000000000000066
:10381000000000000C300C300C300C300C300C3040
:103820000C30FC3FFC3F0C300C300C300C300C30BA
:103830000C300C300C3000000000000000000000D4
:103840000000000080018001800180018001800172
:103850008001800180018001800180018001800160
:1038600080018001800100000000000000000000D5
:103870000000000000060006000600060006000624
:1038800000060006000600060006000618061806D8
:103890003807F003E0010000000000000000000015
:1038A0000000000006300618060C06060603860116
:1038B000C60066007600DE008E0106030606060CD2
:1038C000061806300660000000000000000000003E
:1038D0000000000018001800180018001800180058
:1038E0001800180018001800180018001800180018
:1038F0001800F81FF81F0000000000000000000082
:10390000000000000EE01EF01EF01EF036D836D883
:1039100036D836D866CC66CC66CCC6C6C6C6C6C651
:10392000C6C686C386C30000000000000000000079
:10393000000000000C301C303C303C306C306C30EF
:10394000CC30CC308C310C330C330C360C360C3C78
:103950000C3C0C380C30000000000000000000009F
:1039600000000000E007F81F1C380E70066003C05E
:1039700003C003C003C003C003C003C006600E70D1
:103980001C38F81FE00700000000000000000000E5
:1039900000000000FC0FFC1F0C380C300C300C3009
:1039A0000C300C18FC1FFC070C000C000C000C0069
:1039B0000C000C000C0000000000000000000000E3
:1039C00000000000E007F81F1C380E70066003E0DE
:1039D00003C003C003C003C003C007E006630E3F7B
:1039E0001C3CF83FE0F700C00000000000000000B1
:1039F00000000000FE0FFE1F0638063006300630BD
:103A00000638FE1FFE0706030606060C06180618F3
:103A100006300630066000000000000000000000D4
:103A200000000000E003F80F1C0C0C180C180C0030
:103A30001C00F803E00F001E0038063006300E3080
:103A40001C1CF80FE0070000000000000000000050
:103A500000000000FE7FFE7F800180018001800168
:103A6000800180018001800180018001800180014E
:103A700080018001800100000000000000000000C3
:103A8000000000000C300C300C300C300C300C30CE
:103A90000C300C300C300C300C300C300C300C3046
:103AA0001818F81FE00700000000000000000000E8
:103AB0000000000003600630063006300C180C18B9
:103AC0000C18180C180C380E3006300670076003FE
:103AD0006003C001C0010000000000000000000001
:103AE000000000000360C361C361C36166336633D5
:103AF00066336633663366336C1B6C1B6C1B2C1A87
:103B00003C1E380E380E00000000000000000000CF
:103B1000000000000FE00C7018303018700C600EC0
:103B2000C00780038003C003E006700C301C181827
:103B30000C300E6007E000000000000000000000F4
:103B40000000000003C006600C301C383818300C30
:103B50006006E007C00380018001800180018001D0
:103B600080018001800100000000000000000000D2
:103B700000000000FC7FFC7F006000300018000C9B
:103B8000000600038001C0006000300018000C0037
:103B90000600FE7FFE7F0000000000000000000025
:103BA00000000000E003E0036000600060006000CF
:103BB0006000600060006000600060006000600005
:103BC000600060006000600060006000E003E003EF
:103BD0000000000030003000600060006000C000A5
:103BE000C000C000C001800180018001000300030B
:103BF00000030006000600000000000000000000B6
:103C000000000000E003E0030003000300030003E2
:103C1000000300030003000300030003000300038C
:103C2000000300030003000300030003E003E003BC
:103C3000000000000000C001C001600360036003D9
:103C400030063006180C180C0000000000000000C0
:103C50000000000000000000000000000000000064
:103C60000000000000000000000000000000000054
:103C70000000000000000000000000000000000044
:103C800000000000FFFFFFFF000000000000000038
:103C9000000000000C000C000C000C000C000C00DC
:103CA0000000000000000000000000000000000014
:103CB0000000000000000000000000000000000004
:103CC0000000000000000000000000000000F00301
:103CD000F8071C0C0C0C000FF00FF80C0C0C0C0C63
:103CE0001C0FF80FF018000000000000000000009A
:103CF0000000000018001800180018001800D80371
:103D0000F80F380C18181818181818181818181848
:103D1000380CF80FD803000000000000000000007D
:103D20000000000000000000000000000000C003D0
:103D3000F007300E180C1800180018001800180CA6
:103D4000300EF007C003000000000000000000007B
:103D50000000000000180018001800180018C01B10
:103D6000F01F301C181818181818181818181818D8
:103D7000301CF01FC01B000000000000000000000D
:103D80000000000000000000000000000000C00370
:103D9000F00F300C1818F81FF81F1800180038180A
:103DA000301CF00FC0070000000000000000000001
:103DB00000000000800FC00FC000C000C000F0076E
:103DC000F007C000C000C000C000C000C000C000BC
:103DD000C000C000C00000000000000000000000A3
:103DE0000000000000000000000000000000E00DE6
:103DF000F80F180E0C0C0C0C0C0C0C0C0C0C0C0C06
:103E0000180EF80FE00D000C0C0C1C06F807F00162
:103E10000000000018001800180018001800D8074B
:103E2000F80F381C18181818181818181818181817
:103E300018181818181800000000000000000000F2
:103E400000000000C000C000000000000000C00032
:103E5000C000C000C000C000C000C000C000C00062
:103E6000C000C000C0000000000000000000000012
:103E700000000000C000C000000000000000C00002
:103E8000C000C000C000C000C000C000C000C00032
:103E9000C000C000C000C000C000C000F800780032
:103EA000000000000C000C000C000C000C000C0CBE
:103EB0000C060C038C01CC006C00FC009C018C03F4
:103EC0000C030C060C0C00000000000000000000B9
:103ED00000000000C000C000C000C000C000C00062
:103EE000C000C000C000C000C000C000C000C000D2
:103EF000C000C000C0000000000000000000000082
:103F000000000000000000000000000000007C3CF9
:103F1000FF7EC7E383C183C183C183C183C183C1E2
:103F200083C183C183C100000000000000000000C5
:103F300000000000000000000000000000009807E2
:103F4000F80F381C181818181818181818181818F6
:103F500018181818181800000000000000000000D1
:103F60000000000000000000000000000000C0038E
:103F7000F00F300C181818181818181818181818E6
:103F8000300CF00FC0030000000000000000000033
:103F90000000000000000000000000000000D80346
:103FA000F80F380C181818181818181818181818A6
:103FB000380CF80FD8031800180018001800180063
:103FC0000000000000000000000000000000C01B16
:103FD000F01F301C18181818181818181818181866
:103FE000301CF01FC01B0018001800180018001823
:103FF0000000000000000000000000000000B0070A
:10400000F00370003000300030003000300030002D
:104010003000300030000000000000000000000010
:104020000000000000000000000000000000E003AD
:10403000F003380E180C3800F003C007000C180C01
:10404000380EF007E0030000000000000000000050
:104050000000000000008000C000C000C000F007A9
:10406000F007C000C000C000C000C000C000C00019
:10407000C000C00780070000000000000000000032
:104080000000000000000000000000000000181800
:1040900018181818181818181818181818181818A0
:1040A000381CF01FE01900000000000000000000B4
:1040B00000000000000000000000000000000C18DC
:1040C000180C180C180C300630063006600360031C
:1040D0006003C001C00100000000000000000000FB
:1040E0000000000000000000000000000000C141CE
:1040F000C141C36163636363636336363636363604
:104100001C1C1C1C1C1C0000000000000000000007
:1041100000000000000000000000000000001C384B
:10412000381C300C600660036003600360036006A7
:10413000300C381C1C38000000000000000000009B
:104140000000000000000000000000000000183027
:10415000301830187018600C600CE00CC006C006F7
:1041600080038003800380018001C001F0007000A3
:104170000000000000000000000000000000FC1F24
:10418000FC1F000C000600038001C000600030002E
:104190001800FC1FFC1F00000000000000000000D1
:1041A0000000000000038001C000C000C000C0008B
:1041B000C000C00060006000300060004000C0002F
:1041C000C000C000C000C000C000800100030000AB
:1041D00000000000800180018001800180018001D9
:1041E00080018001800180018001800180018001C7
:1041F00080018001800180018001800180018001B7
:10420000000000006000C000C0018001800180014A
:10421000800180010003000300060003000180010B
:1042200080018001800180018001C00060000000E9
:10423000000000000000000000000000000000007E
:104240000000F010F81F080F000000000000000040
:10425000000000000000000000000000000000005E
:104260000000000084420008000000203000000030
:1042700014020008B44200083000002010070000BB
:1042800030020008000000000000000000000000F4
:10429000000000000000000000000000100000000E
:1042A00001000000000000000024F4000000FFFFF7
:0442B000000000000A
:04000005080001D915
:00000001FF
