:020000040800F2
:100000005808002091020008273F00082F370008F9
:10001000253F0008051500084D4E000800000000AF
:100020000000000000000000000000003F42000847
:100030000715000800000000293F000841420008A1
:10004000AB020008AB020008AB020008AB020008DC
:10005000AB020008AB020008AB020008AB020008CC
:10006000AB020008AB020008AB020008AB020008BC
:10007000AB020008AB020008AB020008AB020008AC
:10008000AB02000800000000AB020008AB02000851
:10009000AB020008AB020008AB020008AB0200088C
:1000A000AB020008AB020008AB020008AB0200087C
:1000B000AB020008AB020008BD420008AB0200081A
:1000C000AB020008AB020008AB020008AB0200085C
:1000D000AB020008414E0008AB020008AB0200086A
:1000E000AB020008AB020008AB020008AB0200083C
:1000F000AB020008AB020008AB02000800000000E1
:1001000000000000AB02000800000000AB02000885
:10011000AB02000800000000AB020008AB020008C0
:10012000AB020008AB020008AB020008AB020008FB
:10013000AB0200080000000000000000AB02000855
:10014000AB020008AB020008000000000000000045
:10015000000000000000000000000000000000009F
:10016000000000000000000000000000AB020008DA
:10017000AB020008000000000000000000000000CA
:1001800000000000AB0200080000000000000000BA
:10019000000000000000000000000000000000005F
:1001A0000000000000000000AB020008AB020008E5
:1001B000AB020008AB020008AB0200080000000020
:1001C00000000000AB02000800000000000000007A
:1001D000AB020008AB02000800F002F800F049F89A
:1001E0000AA090E8000C82448344AAF10107DA4592
:1001F00001D100F03EF8AFF2090EBAE80F0013F09B
:10020000010F18BFFB1A43F0010318478466000072
:10021000A4660000103A24BF78C878C1FAD8520703
:1002200024BF30C830C144BF04680C607047000070
:100230000023002400250026103A28BF78C1FBD8EF
:10024000520728BF30C148BF0B607047662905F0D0
:10025000C281002070471FB505F0B8F900F01AFC04
:1002600004000020002105F007F8E0601FBD10B574
:1002700010BD00F00FFD1146FFF7EDFF04F05EFF2B
:1002800000F02DFD03B4FFF7F2FF03BC00F030FDDA
:100290000948804709480047FEE7FEE7FEE7FEE71A
:1002A000FEE7FEE7FEE7FEE7FEE7FEE70448054956
:1002B000054A064B70470000AD420008D90100080E
:1002C000580200205808002058040020580400203C
:1002D00053EA020C00F069802DE9F04B4FF0000664
:1002E000002B1FBFB3FA83F503FA05F424FA05F6D1
:1002F0005E4012BF1643B2FA82F502FA05F4C5F168
:1003000020051EBF22FA05FC44EA0C04203556EAFB
:10031000044C4FEA144418BF641C4FF000084FF01F
:100320000009904271EB030C39D3002919BFB1FACF
:1003300081F701FA07F6B0FA80F700FA07F6C7F17D
:1003400020071EBF20FA07FC46EA0C062037B6FB42
:10035000F4FCA7EB0507103F07F01F0BCBF12006BD
:100360000CFA0BFB2CFA06F644BFB3460026202FEE
:10037000A4BF5E464FF0000B5BEA060C08BF4FF0CF
:10038000010B19EB0B09ABFB027C48EB0608C01B09
:1003900006FB02CC0BFB03CC71EB0C01C1E70B4657
:1003A000024641464846BDE8F08B13B54FF00000C9
:1003B0004FF00001AFF30080BDE81C407047000023
:1003C0000FB41CB5074B06AA7B44694600900598FC
:1003D00000F047FB0020694600F056FB1CBC5DF8AE
:1003E00014FB0000BD0600002DE9F05F89460446BD
:1003F0004FF0000ADFF824B1FB44C0F820A02046EB
:10040000E168884700287DD0252806D0D4E901215D
:100410009047206A401C2062F1E700255F46204695
:10042000E16888472028064607DB312E05D2B81937
:1004300010F8200C08B10543F1E7A80701D525F015
:100440000405C4F81CA00027C4F818A02A2E09D05F
:10045000304604F024FD38B304EB8708303EC8F87A
:10046000186019E059F8041B204604EB87029161DB
:10047000E1688847012F064618D1E069002820DA94
:1004800025F020051DE0D8F8180000EB800006EBF1
:1004900040003038C8F818002046E1688847064612
:1004A00004F0FDFC0028EED1012F0AD02E2E08D139
:1004B0002046E16888477F1C0646022F45F020054C
:1004C000C4DBA069002803DA404245F00105A061C1
:1004D000E80701D025F01005A6B1A6F141001928C2
:1004E00002D8203645F400654A463146204625604C
:1004F0004D46FFF7ABFE60B1012807D0ED1D25F09A
:10050000070000E007E000F1080978E705F10409B9
:1005100075E730467AE7206ABDE8F09FEE63000099
:100520004FF000020429C0F0128010F0030C00F01C
:100530001B80CCF1040CBCF1020F18BF00F8012B9A
:10054000A8BF20F8022BA1EB0C0100F00DB85FEA68
:10055000C17C24BF00F8012B00F8012B48BF00F834
:10056000012B70474FF0000200B5134694469646A3
:10057000203922BFA0E80C50A0E80C50B1F12001B6
:10058000BFF4F7AF090728BFA0E80C5048BF0CC064
:100590005DF804EB890028BF40F8042B08BF7047C2
:1005A00048BF20F8022B11F0804F18BF00F8012B34
:1005B000704700004FF0013C50F8042B51F8043B09
:1005C0009A4221D1A2EB0C03934313EACC1317D127
:1005D00050F8042B51F8043B9A4215D1A2EB0C03BE
:1005E000934313EACC130BD150F8042B51F8043B7E
:1005F0009A4209D1A2EB0C03934313EACC13DBD04C
:100600004FF00000704700BFD01A01BAB1FA81F173
:1006100001F0180122FA01F0CB40C1F12001DBB258
:10062000C0B2C01A2CFA01F3D11A914311EAC311D6
:10063000E6D1704770477047704770472DE9FF4F0C
:100640000C461E464FF0FF378BB0D2E90001DDF8B3
:1006500060800A908A46C1F30A5505B93D460021DB
:1006600008464FF00000BAF1000F00F4400005DA30
:1006700000EB80004FF4400101EA50004FEA90592E
:10068000B9F1010F00DDB9460A9850EA4A000ED0D0
:1006900044F61050A5F2FF3545432F14B8F1000F72
:1006A0001ED07542291E1EDDC9F100021CE0B8F102
:1006B000010F4FF0000001D0302103E0F24305E0CC
:1006C0002154401CB042FBDB304600220021215463
:1006D0000B99C1F80880C1E900200FB0BDE8F08F88
:1006E000BD1B6D1CDEE74A4600DA694206A800F031
:1006F0005BFA06AB93E8070003AB83E807005046BC
:100700000A9900F0FCFA8DE80700A0F500501F38A8
:1007100000900398002D0ADD42F21F014A4608446A
:10072000002303A90390684600F065FD09E0A0F5E9
:1007300000504A461F38002303A90390684600F082
:100740006FFD8DE807000004000C03D04FF0FF3070
:10075000410800E01046B8F1000F03D000220092DB
:1007600015461EE0751E05D400F098F9303262552A
:100770006D1EF9D5B3460122084302D000227F1C2A
:1007800004E02078302801D100227F1E002A09973A
:1007900084D01DE0112D07DA00F080F93032625567
:1007A0006D1C50EA0102F5D1084302D00098C8B18F
:1007B0000EE00021681E05E0235C625C6354225455
:1007C000401E491C8142F7DBAB46A81B401E099026
:1007D000002004F80B000B98099AC0F80880C0E9C3
:1007E000002B7AE711264FF0000857E72DE9F04F6C
:1007F00088460446D21D22F0070191B0D1E90001DC
:10080000CDE90A0104F023FB02460B98C00F01D08A
:100810002D2007E02068810701D52B2002E0202150
:1008200001EAC000032A099001D0072A05DB03462C
:100830004146204600F078F90BE12078800601D58A
:10084000E06900E00620B8F1650F814606D0B8F1F6
:10085000660F18D0B8F1670F70D131E00020B9F100
:10086000110F009001DB112301E009F101030AAA35
:1008700001A90CA8FFF7E2FEDDE90C70002609F1E2
:100880000105834647E001204B4600904FF00047AA
:100890000AAA01A90CA8FFF7D1FEDDE90DB00C9959
:1008A0005D46002610B909F101000D18B9EB0500ED
:1008B00003D4C0F1FF3609F10105A5EB09002BE0D7
:1008C000B9F1010F01DA4FF001090020B9F1110F60
:1008D0000090484601DD112300E003460AAA01A961
:1008E0000CA8FFF7ABFEDDE90C704D4600268346F1
:1008F000207800070AD4AB4500DA5D4601A8012D37
:1009000004DD411911F8011C302907D04F4502DAE6
:1009100017F1040F04DA012082460FE06D1EEEE7A6
:10092000002F02DCED1B3E4403E0781CA84200DDF2
:100930007D1CB81B00F1010A4FF00047207800072A
:1009400003D4AA4501DB4FF0FF3A0021B7F1004F75
:100950000DF143088DF8431024D002202B23002FE3
:1009600001DA7F422D230A21021EA0F1010000DCE2
:100970005FB197FBF1FC97FBF1F201FB1C7C174682
:100980000CF1300C08F801CDEEE7A8F1010003707E
:100990002188090501D5452100E06521A0F1010864
:1009A00000F8011C09980FA9A1EB0807FF1D00B171
:1009B0000120411901EBEA70A1693844081A401E70
:1009C000A0612078C00602D42046AFF300800998C9
:1009D00028B1D4E901219047206A401C2062207888
:1009E000C00622D52046AFF300801EE0002E04DBB7
:1009F000B34502DD01A8805D00E03020D4E901218B
:100A00009047206A401C2062761CAAF101005FEA30
:100A1000000A0AD100F03EF8C0680168405CD4E9E1
:100A200001219047206A401C2062281EA5F1010583
:100A3000DCDC07E0D4E9012118F8010B9047206ABB
:100A4000401C2062381EA7F10107F3DC2046AFF3FB
:100A50000080032011B041E601694A1C0261087858
:100A6000704700B58FB0CDE90131002105910549EE
:100A70007944CDE9031011466846FFF7B5FC0FB085
:100A800000BD0000E5FFFFFF0A6802F8010B0A60E5
:100A900070470000004870471802002030B5B0F1E0
:100AA0000A024FEA900E71F100034EEA817EB0EB2C
:100AB0000E0061EB91014FEA101E4EEA017E10EB31
:100AC0000E0041EB11114FEA102E4EEA016E10EBB1
:100AD0000E0041EB11214FEA104E4EEA014E10EB91
:100AE0000E0041EB1141401841F100014FEAD000E6
:100AF00040EA41704FEAD10110EB80054FEA8104D2
:100B000044EA907444EB01046D1944EB0404521B55
:100B1000A3414FF0000348BF0A3200D530BD401C4E
:100B200041F1000130BD00002DE9F0411F460446AF
:100B300003260168072A01F4006004DB08B116A54A
:100B400005E016A503E008B115A500E015A521F004
:100B500010002060A069C01EA0610FB1401EA061FE
:100B60002046AFF300804FB1D4E9012138469047C9
:100B7000206A401C2062C01C206206E0206AFAE75E
:100B8000D4E9012115F8010B9047761EF8D22046D2
:100B9000AFF30080BDE8F0814E414E006E616E0003
:100BA000494E4600696E66002DE9F04781461646BB
:100BB0008AB0354878440DC88DE80D003248784435
:100BC000801C03AC0DC884E80D0041F69B3008443E
:100BD000372190FBF1F290FBF1F5A5F1800501FBC7
:100BE00012041B3C02D56442012000E00020DFF823
:100BF00098A080460027FA44AAF1BE0A0EE0E0075A
:100C00000AD03246684607EB470101230AEB81010F
:100C100000F006FB8DE8070064107F1C002CEED16D
:100C2000194F7F44AE3F19E0E80715D007EB0410D9
:100C30000DF1180A90E80E008AE80E00C068F04234
:100C400001D1981908903246012306A903A800F0A3
:100C5000E7FA03AB83E807006D10641C002DE3D1B5
:100C60004FF0010332466946B8F1000F03A802D0E5
:100C700000F0C1FA01E000F0D3FAC9E90001C9F8B7
:100C800008200AB0BDE8F087C05C0000004870474B
:100C9000F80100207546FFF7F9FFAE4605006946EA
:100CA000534620F00700854618B020B5FFF7FEFA3E
:100CB000BDE820404FF000064FF000074FF000085D
:100CC0004FF0000B21F00701AC46ACE8C009ACE8DE
:100CD000C009ACE8C009ACE8C0098D46704710B542
:100CE0000446AFF300802046BDE81040FFF7CABAC3
:100CF00001491820ABBEFEE72600020070475FEAFC
:100D0000400C08BF91F0000F4FEA8C234FEAC1223C
:100D100043EA51514FEA1C5018BF00F5F0404FEA2A
:100D2000300018BF41F000415FEA6C5C00F02980A0
:100D3000BCF1FF3F08BF40F080407047130C06BF76
:100D400012044FF0100C4FF0000C130E04BF1202EF
:100D50000CF1080C130F04BF12010CF1040C930FDB
:100D600004BF92000CF1020CD30F04BF52000CF12F
:100D7000010C11464FF00002A0F11F00A0EB0C0087
:100D8000704711F0004F08BF704731F000413FF449
:100D9000D5AF0B0C06BF09044FF0100C4FF0000C40
:100DA0000B0E04BF09020CF1080C0B0F04BF090164
:100DB0000CF1040C8B0F04BF89000CF1020CCB0F5B
:100DC00004BF49000CF1010CCCF12003A0EB0C0096
:100DD00022FA03F302FA0CF241EA030100F10100E6
:100DE000704720F07F4C80EA030023F07F47ACEB94
:100DF000070303F57C5300F0004003F1FF032DE9E6
:100E000080494FEA154B09B44FEA144325EA0B4ECB
:100E100024EA03480FF2042606EB132749083E781C
:100E20005FEA320203FB0667C7F5000707FB06F619
:100E30004FEA54374FEAD64606F1020607FB066C26
:100E4000CCF1005C4FEA1C472CEA074C07FB06F488
:100E50000CFB06F504EB15464FEA961634BF00204E
:100E60004FF000404FEAD13706FB07FC4FEA1C4C1D
:100E70000CFB0BF7D21B03FB0CF761EB07010CFB20
:100E80000EF7B0EB074072EB17420CFB08F734BFCC
:100E9000A2EB0742B2EB074261EB17414FEA0C4469
:100EA0004FEA910706FB07FC4FEA1C4C0CFB0BF7C3
:100EB000B0EBC74072EB573203FB0CF734BFA2EB29
:100EC000C742B2EBC74261EB57310CFB0EF7B0EBF8
:100ED000C70072EB57720CFB08F734BFA2EBC702D6
:100EE000B2EBC70261EB5771039F4FEA816141EAA0
:100EF000921104EBCC044FEAD1374FEA826206FB31
:100F000007FC42EA90124FEA80604FEA1C4C0CFB4F
:100F10000BF7D21B03FB0CF761EB07010CFB0EF781
:100F2000B0EB074072EB17420CFB08F734BFA2EBA3
:100F30000742B2EB074261EB17414FEA8C554FEA8B
:100F4000910704EB9C2406FB07FC4FEA1C4C0CFBAE
:100F50000BF7B0EBC74072EB573203FB0CF734BF13
:100F6000A2EBC742B2EBC74261EB57310CFB0EF765
:100F7000B0EBC70072EB57720CFB08F734BFA2EB63
:100F8000C702B2EBC70261EB577115EB4C254FEA74
:100F9000816141EA92114FEA82624FEAD13742EA17
:100FA000901206FB07FC44F100044FEA80604FEA10
:100FB0001C4C0CFB0BF7D21B03FB0CF761EB07017E
:100FC0000CFB0EF7B0EB074072EB17420CFB08F777
:100FD00034BFA2EB0742B2EB074261EB174115EBBE
:100FE0001C154FEA813141EA92414FEA823242EACE
:100FF00090424FEA80304FEA0C7644F1000448EA10
:1010000003434EEA0B484FF0000EB2EB080C71EBB5
:10101000030724BF624639464EEB0E0E4FF0000B1D
:101020000018524149414BEB0B0BB2EB080C71EB32
:1010300003077BF1000B24BF624639464EEB0E0ED0
:101040004FF0000B0018524149414BEB0B0BB2EB38
:10105000080C71EB03077BF1000B24BF6246394695
:101060004EEB0E0E51EA020718BF46F0010616EBD2
:101070000E7655F1000254F1000103D5BDE8890157
:10108000BDE80088BDE88901BDE80048B6195241B5
:1010900041EB0101A3F10103704780807F7E7D7CDD
:1010A0007B7A7978777676757473727171706F6EFA
:1010B0006E6D6C6C6B6A6A696868676666656464A5
:1010C000636362616160605F5F5E5E5D5D5C5C5B2F
:1010D0005B5A5A595958585757565655555554549E
:1010E000535352525251515050504F4F4F4E4E4DFC
:1010F0004D4D4C4C4C4B4B4B4A4A4A494949484848
:101100004847474747464646454545444444444387
:1011100043434342424242414141002B9C4630D42A
:1011200077002BD01CB54FEA370703B44FF01000FF
:101130004FF01001BAF1000F06D0BCF1000FDCBF78
:1011400040F0080040F008014FF000000FBCBDE87F
:1011500010400BF1010BBBF1010F08BF5FEA17074D
:1011600022BF12F1010211F101014FF0004143F1E0
:10117000000300F0004043EA00007047F9D357082D
:10118000D0E746EA064613F1400F4FEA16461FDD48
:1011900013F1200FDFBF16430A46002120335B42C4
:1011A000BED0C3F1200746EA064602FA07F74FEA27
:1011B000164646EA0706C3F1200722FA03F201FAAF
:1011C00007F721FA03F14FF0000342EA0702A7E70D
:1011D00046EA020646EA06464FEA164646EA01068F
:1011E000BCBF46EA0646360C4FF000034FF0000243
:1011F0004FF0000194E72DE9804C9A46934670B475
:1012000091E8380007C831EA400C48BF34EA430C83
:1012100003D5FFF7E6FDFFF780FFF0BCBDE8008CCB
:101220002DE9804C9A46934670B491E8380007C87F
:1012300010F0804F08BF13F0804F03D100F005F885
:10124000FFF76BFFF0BCBDE8008C20F07F4780EA21
:10125000030023F07F4C07EB0C03A3F57C5300F055
:101260000040A3F1FE0392F0000F00F0B38095F070
:10127000000F00F077802DE901494FEA11404FEA55
:10128000144621EA004800FB06FC24EA064708FB56
:1012900006F607FB08F800FB07F718EB06484CEBCF
:1012A000164C4FEA124B18EB07484FEA15464CEB29
:1012B000174022EA0B4E0BFB06FC25EA06470EFB05
:1012C00006F607FB0EFE0BFB07F71EEB064E4CEB7C
:1012D000164C4FF000061EEB074E4CEB174B18EB6D
:1012E0000B0840F1000018EB0E0B58EB000840F122
:1012F00000008F1A4FF000013CBFC943661B14BFAA
:10130000B5EB040C00213CBFC943F61B4FEA174460
:101310004EEA8E0E27EA04454FEA1C4704FB07629B
:101320002CEA074C05FB07F70CFB05F604FB0CFC4D
:1013300016EB074642EB174216EB0C4642EB1C42FB
:101340001BEB060658EB0202414146EA9E0601D518
:10135000BDE80189B619524141EB0101A3F1010336
:10136000BDE801894FEA14454FEA114724EA0546D2
:1013700021EA074C05FB07F406FB07F70CFB06F117
:1013800005FB0CFC11EB074144EB17444FEA1247F5
:1013900011EB0C4144EB1C4422EA074C05FB07F21D
:1013A00006FB07F70CFB06F605FB0CFC16EB0746E5
:1013B00042EB174216EB0C4642EB1C456A1854F1FF
:1013C000000148BF7047B619524141EB0101A3F13A
:1013D0000103704795F0000F37D04FEA11424FEAF2
:1013E000144721EA024624EA074C02FB07F106FBF8
:1013F00007F70CFB06F402FB0CFC14EB074441EB73
:1014000017414FEA154714EB0C4441EB1C4125EA08
:10141000074C02FB07F506FB07F70CFB06F602FB81
:101420000CFC16EB074645EB174516EB0C4645EB57
:101430001C42121951F1000148BF7047B6195241C0
:1014400041EB0101A3F1010370474FEA14454FEA54
:10145000114724EA054621EA074C05FB07F106FB84
:1014600007F70CFB06F24FF0000605FB0CFC12EB35
:10147000074241EB174112EB0C4251EB1C4148BFB4
:101480007047921841EB0101A3F10103704700007E
:1014900070B504460068816811F0010F2DD1816894
:1014A000174A11421AD18168D5432940491C8160ED
:1014B00000F0C6FD06461BE0816811F0010F03D164
:1014C00081682940491C816000F0BAFD801B022818
:1014D0000ED920680068C043C00709D0E06D40F015
:1014E0001000E065206E40F001002066012070BD14
:1014F00020680168C943C907DED1002070BD000023
:101500003F000080FEE77047002240F6B83306E057
:101510000021491C89B29942FBD3521C92B28242EB
:10152000F6D3704772B6FEE710B5044600F05CFBD8
:10153000204600F01BFA03F0C1FE9FED041B53ECA4
:10154000112B03F00FFF41EC100B10BD66666666B1
:1015500066664A3F2DE9F84F00270446009790F849
:101560005800DFF8D8930D46B846012811D001265F
:1015700084F85860206802F0C1FA60B1E06D40F074
:101580002000E0655FF0010784F858803846BDE828
:10159000F88F0220FBE7D5E900210C23206803EA3D
:1015A00091131844036B01F01F014FF01F0C0CFA4C
:1015B00001FCC2F3846223EA0C038A4013430363F1
:1015C000206802F09BFA8246206802F093FA5AEAF9
:1015D00000003CD1AA6829682068B2F1004F37D0DA
:1015E00002F090FA2068416921F0004141612068D1
:1015F0006969C268C2F3C102520091402A69042A93
:1016000031D000EB82002B68026EDFF834C303F0A8
:10161000F84302EA0C020B431A4342F00041016610
:1016200020682A69A96900EB8200026E22F08072AC
:101630000A430266297F22682869012910D0002107
:1016400002EB8000026E22F000720A4302667DE027
:10165000002202F057FA2068416941F00041C5E7D5
:101660004FF00071ECE7002102F03EFA40032068E1
:101670004FF0000172D002F037FA90FAA0F0B0FA01
:1016800080F1286842036ED090FAA0F0B0FA80F0A2
:10169000814204D100221146206802F042FA012161
:1016A000206802F021FA400320684FF001015DD06C
:1016B00002F01AFA90FAA0F0B0FA80F1286842031A
:1016C00059D090FAA0F0B0FA80F0814204D1002203
:1016D0000121206802F025FA0221206802F004FAB4
:1016E000400320684FF0020148D002F0FDF990FA63
:1016F000A0F0B0FA80F12868420344D090FAA0F03C
:10170000B0FA80F0814204D100220221206802F068
:1017100008FA0321206802F0E7F9400320684FF03F
:10172000030133D002F0E0F990FAA0F0B0FA80F1B2
:10173000286842032FD090FAA0F0B0FA80F08142DE
:1017400004D100220321206802F0EBF920688168AF
:1017500011F0010F22D0A8E000E004E002F0C4F98B
:10176000C0F384618DE7C0F3846091E702F0BCF9B7
:10177000C0F38461A2E7C0F38460A6E702F0B4F985
:10178000C0F38461B7E7C0F38460BBE702F0ACF953
:10179000C0F38461CCE7C0F38460D0E7EB682968CC
:1017A0004B4550F8B03FC1F3120101D10B4300E0AB
:1017B0008B430360E868484577D1286841031CD013
:1017C00090FAA0F1B1FA81F1491C01F01F01092939
:1017D0004FEA403132D8002912D000BF90FAA0F170
:1017E000B1FA81F101F1010101F01F0106FA01F6E0
:1017F00009D100BFC0F3846109E0C0F38461E3E76D
:10180000C0F38461EEE790FAA0F1B1FA81F101F141
:10181000010101F01F0146EA816102D1C0F3846039
:1018200003E090FAA0F0B0FA80F000F1010000F0BF
:101830001F0000EB400041EA005132E000290ED0C9
:1018400090FAA0F1B1FA81F101F1010101F01F015B
:1018500006FA01F606D100BFC0F3846106E0C0F3CA
:101860008461F1E790FAA0F1B1FA81F101F101018F
:1018700001F01F0146EA816102D1C0F3846003E0F8
:1018800090FAA0F0B0FA80F000F1010000F01F0023
:101890002C4A00EB400002EB005041EA000141F00D
:1018A0000071AA68206802F02DF927482A680242D0
:1018B0003FF46AAE25488168254B01F0E0719A42F9
:1018C00002D0244B9A421CD10B021AD42268B2F1E6
:1018D000A04F7FF459AE826841F4000122F0E0721B
:1018E0000A4382601C481D490068B0FBF1F0401CAF
:1018F00000EB4000800000E0401E00900028FBD17B
:1019000042E6174D174BAA4207D1CD0105D42268F4
:101910009A42F5D041F0807109E0134DAA42EFD10F
:101920004A02EDD422689A42EAD041F480018268EA
:1019300022F0E0720A43826026E6000000007F4049
:1019400000F0FF03000020FE0000088000030050AC
:10195000000021C31000C0902C000020400D0300A7
:10196000000052C700010050000084CB0068006CEA
:1019700070470000F8B54FF0000504002E460095B2
:1019800002D0E06D10B107E00120F8BD204600F064
:10199000EFF8266684F8586020688168C1F34071CA
:1019A00019B181686A4A1140816020688168C1F379
:1019B000007189B98168674A114041F080518160A6
:1019C000654866490068B0FBF1F04000801C00E00B
:1019D000401E00900028FBD120688168C1F300718F
:1019E00041B9E16D41F01001E165216E41F0010165
:1019F0002166012502F082F8E16DC90600D430B1FC
:101A0000E06D40F01000E06501252846F8BDE06D6E
:101A100020F4807040F00200E0652068806810F0DB
:101A2000010F11D14FF0A04080684D4900F0010036
:101A3000896801F00101084306D14A48616882685B
:101A400022F47C120A438260E168E06B627F084303
:101A5000A16841EA4231084394F8241040EA014069
:101A6000012904D1218D404A02EB41410843E16A3A
:101A700029B101F47871226B014342EA0100216827
:101A8000CA683A4B1A400243CA6020680169626B17
:101A900021F0406111430161206802F02FF80646F1
:101AA000206802F027F830432ED1207F94F83810B8
:101AB000800340EA41022068C16844F2020399436E
:101AC0001143C16020690028206801690AD041F4EF
:101AD00080310161206850F8C01F22696FF30D0149
:101AE000114307E021F480310161206850F8C01FE4
:101AF0006FF30D01016094F8400001280CD02068BC
:101B0000016921F001010161606901282068016B10
:101B100021F00F0111D013E0D4E911010843D4E9F9
:101B200013121143084321680A6940F2FC739A4377
:101B3000104340F001000861E6E7226A521E11439B
:101B40000163E06D20F0020040F00100E0655CE719
:101B5000C0FFFF5FC0FFFF7F2C000020400D03008F
:101B600000010050000300500000FEFF0740F0FF9E
:101B700010B598B00446142111A8FEF7F3FC4421D7
:101B80006846FEF7EFFC15492068884223D1C4015E
:101B9000400500940F90684600F050FB08B1FFF735
:101BA000C1FC0F48C16C41F40051C164C16C01F427
:101BB00000511691C16C41F00201C164C06C11A9C1
:101BC00000F0020016900320CDE911400020139090
:101BD000044800F007F918B010BD000000010050E3
:101BE00000100240000400482DE9F0410446384846
:101BF000806800F01F05206801F080FF18B1022105
:101C00000846BDE8F08194F8580001280CD0012066
:101C100084F858002046FFF73BFC01004FF000031A
:101C200004D084F85830EBE70220EAE7E06D40F694
:101C30000162904340F48070E065264A20684FF0CE
:101C4000A046904201D1374600E00746874200D0C7
:101C50001DB9E76D27F48017E765E76DFF0404D52C
:101C6000276E27F00607276600E023661C2707601B
:101C700084F858302068904201D1334600E0034692
:101C8000834215D0A5B1052D12D0092D10D0E36DDA
:101C900043F48013E365904200D13046C068800170
:101CA000AED5E06D20F4005040F48050E065A7E729
:101CB000C268920105D5E26D22F4005242F48052CE
:101CC000E2658268044B1A40121D826098E70000AA
:101CD0000003005000010050C0FFFF7F10B590F8D6
:101CE000253000210122022B03D00421C1630121F0
:101CF00022E003681C6824F00E041C60836C1C68DE
:101D000024F480741C6003681C6824F001041C60C7
:101D100090F84430046C03F01F0302FA03F363608D
:101D2000D0E913345C60436D33B11C6824F48074D3
:101D30001C60D0E916345C6080F82520002280F811
:101D40002420084610BD70B590F8252000240121FC
:101D50002346022A07D00422C26380F8251080F8A7
:101D60002430012429E00268156825F00E0515606D
:101D70000268156825F001051560826C156825F468
:101D80008075156090F84420056C02F01F0201FA7E
:101D900002F26A60D0E913255560426D32B11568D0
:101DA00025F480751560D0E91625556080F825105A
:101DB00080F82430816B01B18847204670BD000057
:101DC00070B5044600F03CF90546601C02D004489A
:101DD0004068044400F034F9401BA042FAD370BDBF
:101DE000200000202DE9F04FDFF82092002301268B
:101DF0000324A9F1040B85B00F2709F1040AABF104
:101E0000040EFAE006FA03F52A407CD091F804C0EB
:101E10000CF0030CBCF1010F02D0BCF1020F26D173
:101E2000D0F808C0CDF800C04FEA430C04FA0CF813
:101E3000CDF810C0DDF800C02CEA080CCDF800C0C9
:101E4000D1F80C80DDF810C008FA0CF8DDF800C0FD
:101E500048EA0C08C0F80880D0F804C02CEA050C49
:101E60000D79C5F300159D4045EA0C0545600D79D7
:101E7000ED43AD070ED0C5684FEA430804FA08FCED
:101E800025EA0C05D1F808C00CFA08FC4CEA050C50
:101E9000C0F80CC00D7905F00305022D16D1DD0840
:101EA00000EB850CCDF808C0DCF820805D074FEA18
:101EB000D56C07FA0CF528EA05080D6905FA0CF54A
:101EC000DDF808C045EA0805CCF8205005684FEA5F
:101ED000430CCDF808C004FA0CFC25EA0C0591F877
:101EE00004C00CF00308DDF808C008FA0CF848EA52
:101EF0000508C0F800804D6815F4403F7CD0444D83
:101F0000D5F860C000E077E04CF0010CC5F860C087
:101F10002D6E23F0030C05F0010500953D4D654441
:101F20000295AD684FEA837C4FEA1C7807FA08FCFB
:101F300025EA0C05B0F1904F06D0DFF8DCC0604513
:101F400005D14FF0010C20E04FF0000C1DE0DFF850
:101F5000CCC0604502D14FF0020C16E0DFF8C0C0E3
:101F6000604502D14FF0030C0FE0DFF8B8C06045C8
:101F700002D14FF0040C08E0DFF8ACC0604502D19C
:101F80004FF0050C01E04FF0060C0CFA08FC4CEA8F
:101F9000050C029DC5F808C0D9F80050CC46D1F810
:101FA000048095435FEAC82800D51543CCF800505B
:101FB000DAF80050D446D1F8048095435FEA8828C7
:101FC00000D51543CCF80050DBF80050DC46D1F8C2
:101FD000048095435FEA883800D51543CCF800505B
:101FE000DEF80050F446D1F8048095435FEAC83823
:101FF00000D51543CCF800505B1C0A6832FA03F593
:102000007FF400AF05B0BDE8F08F00000804014088
:102010000010024000000140000400480008004891
:10202000000C0048001000480014004800690840F7
:1020300000D0012070470AB181617047816270470A
:102040000148806870470000200000200248816835
:1020500042681144816070472000002010B50024C0
:10206000032000F073F80F2000F008F808B10124F5
:1020700001E000F025F8204610BD000070B50E4EBE
:1020800005460024706898B14FF47A71B1FBF0F006
:102090000A490968B1FBF0F000F064FD40B9102D69
:1020A00006D200222946501E00F030F8356000E0CC
:1020B0000124204670BD0000200000202C000020DC
:1020C0000A4882B0016E41F001010166016E01F023
:1020D00001010091816D41F080518165806D00F0BA
:1020E0008050009002B000F0A1B800000010024043
:1020F000002809DB00F01F02012191404009800007
:1021000000F1E020C0F8001170470000F0B40E4B61
:102110001B680C46C3F30223C3F10705042D00D945
:102120000425191D072901D2002300E0DB1E01262A
:1021300006FA05F1491E214099409E40761E164040
:102140003143F0BC02F09BBE0CED00E0064900F00C
:10215000070208684FF6FF03184040EA0220034ACE
:1021600010430860704700000CED00E00000FA0525
:102170002B492C4B0A6832214A432B4940B1B0F518
:10218000007F086829D020F4C06040F480602CE013
:102190000868C0F34120022804D051F8800F20F4D1
:1021A000807022E0D1F8800020F48070C1F88000B7
:1021B000086820F4C06040F400700860B2FBF3F0DF
:1021C000401C00E0401E4A69520501D50028F9D1A3
:1021D000486940050AD503207047C0F34120022812
:1021E00006D051F8800F40F48070086000207047DE
:1021F000D1F8800040F48070C1F88000086820F4B5
:10220000C06040F400700860B2FBF3F0401C00E0D6
:10221000401E4A695205DBD50028F9D1D8E70000F5
:102220002C00002040420F000070004002488168EE
:1022300041F4804181607047007000402DE9F8430F
:102240000446006800269D4D00035ED5A86D00275A
:10225000C00008D4A86D40F08050A865A86D012783
:1022600000F080500090DFF85892D9F8001041F447
:102270008071C9F80010FFF7E3FE804606E000BF5A
:10228000FFF7DEFEA0EB080002282BD8D9F80000EB
:10229000C005F5D5D5F8900010F4407014D0216C2D
:1022A000814211D0D5F89000D5F8901020F44070FC
:1022B00041F48031C5F89010D5F8901021F48031A8
:1022C000C5F89010C5F89000C00711D0FFF7B8FE10
:1022D000804641F2883907E0FFF7B2FEA0EB080123
:1022E000494501D903260BE0D5F890008007F3D5C6
:1022F000D5F89000216C20F440700843C5F8900098
:102300001FB1A86D20F08050A8652078C00707D0C5
:10231000D5F88800616820F003000843C5F88800FC
:102320002078800707D5D5F88800A16820F00C0038
:102330000843C5F888002078400707D5D5F88800FD
:10234000E16820F030000843C5F8880020780007D5
:1023500007D5D5F88800216920F0C0000843C5F8EA
:1023600088002078800607D5D5F88800616920F4B8
:1023700040600843C5F888002078400607D5D5F8A6
:102380008800A16920F440500843C5F888002078EF
:10239000000607D5D5F88800E16920F440400843DD
:1023A000C5F888002088C00507D5D5F88800216ABF
:1023B00020F440300843C5F888002088800507D500
:1023C000D5F88800616A20F440200843C5F88800E9
:1023D000208840050FD5D5F88800A16A20F4401068
:1023E0000843C5F88800A06AB0F5801F03D1E868EB
:1023F00040F48010E860208800050FD5D5F88800EB
:10240000E16A20F440000843C5F88800E06AB0F5AE
:10241000800F03D1E86840F48010E8602088C00491
:102420000FD5D5F88800216B20F040700843C5F81F
:102430008800206BB0F1807F03D1E86840F4801001
:10244000E86020884FF0006180040ED5D5F8880040
:10245000626B20F040601043C5F88800606B8842D2
:1024600003D1E86840F48010E860208840040ED56D
:10247000D5F88800A26B20F040601043C5F88800B2
:10248000A06B884203D1E86840F48010E86020889F
:1024900000040FD5D5F88800E16B20F040500843C8
:1024A000C5F88800E06BB0F1805F03D1E86840F4C4
:1024B0008030E8603046BDE8F8830000001002403C
:1024C000007000402DE9F0470E4605004FF0000770
:1024D00025D0DFF8AC81D8F8000000F00F00B04242
:1024E0000CD2D8F8001021F00F013143C8F80010C9
:1024F000D8F8000000F00F00B04210D12968614CFC
:10250000C80741F2883A5AD06868DFF87C910328FE
:1025100008D0022820682DD0400500282CDB01209F
:10252000BDE8F08720688001F9D5E06800F003027B
:10253000E068C0F30310401C032A19D0534A00BFBF
:10254000B2FBF0F0E268C2F306225043E268C2F345
:102550004162521C5200B0FBF2F0484517D9A06806
:1025600010F0F00F0CD0880711D5A86840B10EE02C
:10257000474AE5E78003D0E700F0B6F8484506D9BA
:10258000A06820F0F00040F08000A0608027A068E4
:10259000696820F003000843A060FFF751FD814601
:1025A00006E000BFFFF74CFDA0EB090151453AD80A
:1025B000A068696800F00C00B0EB810FF2D12868C8
:1025C000810714D5400703D5A06840F4E060A060FF
:1025D0002878000705D5A06820F4605040F4E0603A
:1025E000A060A068A96820F0F000084304E0802FF4
:1025F00003D1A06820F0F000A060D8F80010404699
:1026000001F00F01B14216D9016821F00F013143E9
:102610000160FFF715FD074607E000BFFFF710FD5B
:10262000C11B514501D903207AE7D8F8000000F01A
:102630000F00B042F2D12878400705D5A068E968BC
:1026400020F4E0600843A0602878000706D5A06861
:10265000296920F4605040EAC100A06000F044F80D
:10266000A1680C4AC1F30311515C01F01F01C8407D
:102670000949086009480068BDE8F047FFF7FEBC5B
:10268000002002400010024000B4C4040024F40002
:1026900000366E01025600082C00002020000020A9
:1026A0000548064900688968054AC1F30221515C62
:1026B00001F01F01C84070472C00002000100240AC
:1026C000125600080548064900688968054AC1F3A2
:1026D000C221515C01F01F01C84070472C0000204E
:1026E0000010024012560008184910B58868C0F35F
:1026F00081021748012A0BD08A68164BC2F3810267
:10270000022A06D08A68C2F38102032A03D000207D
:1027100010BD184610BDCA6802F00304CA68C2F3AF
:102720000312521C032C02D0B0FBF2F001E0B3FB09
:10273000F2F0CA68C968C2F306225043C1F341618E
:10274000491C4900B0FBF1F010BD00000010024030
:102750000024F40000366E012DE9F84304007AD01D
:102760002078FA4DC00747D0A868E96800F00C004F
:1027700001F003010C2802D0082817D001E003293A
:1027800014D06068B0F5803F17D0B0F5A02F28684E
:1027900017D020F480302860286820F4802028603A
:1027A0006068E0B1FFF74CFC064614E0286880033F
:1027B00022D560680028D2D01EE0286840F480301E
:1027C000EDE740F480202860F7E700BFFFF738FC12
:1027D000801B642870D828688003F7D50CE0FFF7C9
:1027E0002FFC064605E000BFFFF72AFC801B64288B
:1027F000F0D828688003F7D4207880074CD5A868E3
:10280000E96800F00C0001F003010C2802D0042854
:102810000DD001E002290AD0E068002828682BD0FA
:1028200040F480702860FFF70BFC064619E028682A
:10283000400502D5E068002891D06868217C20F02E
:10284000FE4040EA01606860C1480068FFF716FC7E
:10285000002800D120E076E1FFF7F2FB801B022880
:10286000B8D828684005F7D56868217C20F0FE407C
:1028700040EA016068600FE020F480702860FFF794
:10288000DFFB064605E000BFFFF7DAFB801B0228EE
:10289000A0D828684005F7D42078000729D56069BA
:1028A0000028D5F8940013D040F00100C5F894003A
:1028B000FFF7C6FB064606E090E000BFFFF7C0FB4F
:1028C000801B022886D8D5F894008007F6D510E042
:1028D00020F00100C5F89400FFF7B2FB064604E0C3
:1028E000FFF7AEFB801B022878D8D5F8940080074C
:1028F000F6D42078400761D5A86D0026C00008D422
:10290000A86D40F08050A865A86D012600F08050A9
:10291000009090480168C90511D40168804641F4CF
:1029200080710160FFF78CFB074604E0FFF788FB2E
:10293000C01B022852D8D8F80000C005F6D5A06800
:10294000012815D00528D5F8900016D020F00100F8
:10295000C5F89000D5F8900020F00400C5F890006C
:10296000A06841F28838B8B1FFF76AFB07460EE06D
:10297000D5F8900040F00100F0E740F00400C5F801
:102980009000F5E7FFF75CFBC11B414526D8D5F861
:1029900090008007F6D50CE0FFF752FB074604E0F5
:1029A000FFF74EFBC11B414518D8D5F890008007B2
:1029B000F6D41EB1A86D20F08050A865207880065E
:1029C00029D5A0690028D5F8980013D040F001005F
:1029D000C5F89800FFF734FB064606E077E000BF35
:1029E000FFF72EFB801B022877D8D5F898008007C8
:1029F000F6D510E020F00100C5F89800FFF720FBA5
:102A0000064604E0FFF71CFB801B022865D8D5F8BA
:102A100098008007F6D4E069F0B3A968C1F381019A
:102A2000032961D00228286820F0807028600BD02C
:102A3000E86820F00300E860E86847490840E8607B
:102A4000FFF7FEFA04464BE0FFF7FAFA064604E009
:102A5000FFF7F6FA801B02283FD828688001F7D4D8
:102A6000F4E908016FF00F0202EB01110843218A1B
:102A70005204490802EB4151A26841EA022108438D
:102A8000217D4FF07E42490802EB41610843217BE2
:102A900040EAC160E96800E062E0304A1140084362
:102AA000E860286840F080702860E86840F0807036
:102AB000E860FFF7C5FA044605E000BFFFF7C0FA7B
:102AC000001B022809D828688001F7D548E004E0F7
:102AD000FFF7B6FA001B022802D90320BDE8F883ED
:102AE00028688001F4D43BE00128F7D0E868226A26
:102AF00000F00301914226D1616A00F0F002090161
:102B0000103991421FD1A26A00F4FE41B1EB022FAD
:102B100019D194F82C2000F07841B1EBC26F12D19A
:102B2000218E00F4C00249084905A1F50011914227
:102B300009D194F8341000F0C06049084906A1F1A9
:102B4000007181420CD00120C8E700000010024053
:102B50002000002000700040FFFFEEFE0C809F016F
:102B60000020BBE710B5401EB0F1807F01D30120EB
:102B700010BD4FF0E02460610F21601702F07FF973
:102B80000020A06107202061002010BD7047704721
:102B90007047704770477047F0B590F83C20012AA5
:102BA0003AD0012580F83C50022280F83D2003688D
:102BB0005A689C68194E1A4FB34201D0BB4204D1E7
:102BC00022F4700C4A6842EA0C02DFF858C002EAAC
:102BD0000C02D1F800C04CEA020CC3F804C0026831
:102BE000B2420DD0B2F1804F0AD00F4B9A4207D0BB
:102BF0000E4B9A4204D0BA4202D00D4B9A4204D1F5
:102C0000896824F080031943916080F83D500021C9
:102C100080F83C100846F0BD0220F0BD002C0140B9
:102C2000003401408FFFFFFD000400400008004019
:102C300000400140704710B5040003D094F83D00F7
:102C400010B107E0012010BD002084F83C002046B0
:102C500000F022F8022084F83D00211D206801F0D8
:102C600033FB012084F8480084F83E0084F83F00DC
:102C700084F8400084F8410084F8420084F843005E
:102C800084F8440084F8450084F8460084F847003E
:102C900084F83D00002010BD08B500680B4988424B
:102CA00012D10B48816D41F004018165806D0022D5
:102CB00000F00400009011461E20FFF727FABDE83F
:102CC00008401E20FFF714BA08BD000000080040AD
:102CD0000010024090F83D10012901D001207047FA
:102CE000022180F83D100168CA6842F00102CA6002
:102CF0000068104988420ED0B0F1804F0BD00E49C9
:102D0000884208D00D49884205D00D49884202D03A
:102D10000C49884207D181680B4A1140062906D028
:102D2000B1F5803F03D0016841F00101016000204E
:102D300070470000002C01400004004000080040E3
:102D400000340140004001400700010070B5044616
:102D500090F83C000025012814D0012684F83C603E
:102D6000022084F83D0022689068364B184020F419
:102D70007F409060086870282ED010DC10F00F0F94
:102D800003D021E04FF0020070BD4FEA2012072A65
:102D90001AD2DFE802F0525252524A3840002A4B0F
:102DA000C21A984249D009DCB0F5805F0DD0B0F569
:102DB000005F1CD0B0F1101F06D13EE0102A3CD0BD
:102DC000202A3AD0502A38D0012584F83D600020CE
:102DD00084F83C00284670BDCB68D1E90121206809
:102DE00001F0CAFA2068816841F0770109E0CB68F8
:102DF000D1E90121206801F0BFFA2068816841F41F
:102E000080418160E1E7CA684968206801F0C8FA3A
:102E10005021206806E0CA684968206801F0D1FAAC
:102E20006021206801F0B2FACFE7CA6849682068DB
:102E300001F0B6FA40212068F4E722680146104606
:102E4000F0E7000088FFCEFF20001000704770B54B
:102E50000446006801694FF00005C943890715D48D
:102E6000C168C943890711D4E91E01610120207797
:102E7000206880698007204602D0FFF7E7FF04E062
:102E800000F0E3F8204600F0E1F8257720680169BA
:102E9000C943490717D4C168C943490713D46FF020
:102EA00004010161022020772068806910F4407FCE
:102EB000204602D0FFF7CAFF04E000F0C6F8204623
:102EC00000F0C4F8257720680169C943090716D4C2
:102ED000C168C943090712D46FF0080101610420D9
:102EE00020772068C0698007204602D0FFF7AEFF38
:102EF00004E000F0AAF8204600F0A8F82577206842
:102F00000169C943C90617D4C168C943C90613D4A6
:102F10006FF010010161082020772068C06910F46B
:102F2000407F204602D0FFF791FF04E000F08DF8CB
:102F3000204600F08BF8257720680169C943C9074E
:102F400008D1C168C943C90704D1891E016120465F
:102F500000F07EF820680169C943090609D4C168F8
:102F6000C943090605D46FF0800101612046FFF7CF
:102F70000EFE20680169C943C90509D4C168C94367
:102F8000090605D46FF4807101612046FFF7FEFD4C
:102F900020680169C943490609D4C168C943490683
:102FA00005D46FF040010161204600F0C7F82068A9
:102FB0000169C943890609D4C168C943890605D492
:102FC0006FF0200101612046FFF7E2FD20680169F2
:102FD000C943C90209D4C168C943C90205D46FF401
:102FE000801101612046FFF7D5FD20680169C943C2
:102FF000890209D4C168C943890205D46FF400115C
:1030000001612046FFF7C5FD20680169C9434902F7
:1030100009D4C168C943490205D46FF48001016134
:103020002046FFF7B8FD20680169C94309020BD4A7
:10303000C168C943090207D46FF400010161204649
:10304000BDE87040FFF7F6BD70BD704770470000E7
:1030500070B500683249884242D1324D012128467C
:10306000FEF7E4FF00B101202F4C0221207028461A
:10307000FEF7DCFF00B10120E07004212846FEF7D6
:10308000D5FF00B10120A07101214FF09040FEF763
:10309000CDFF00B10120607201F0E6FF234800225D
:1030A000234C037823482449022B02D0012B18D04B
:1030B00019E02378BBB90B685B1C0B608B685B1C49
:1030C0008B600A2B05D2017801F0FD0141F001016E
:1030D0001CE00478142B04F0FE04047000D18A6014
:1030E00070BD23782BB1CA608A60017801F0FC01C1
:1030F0000CE04B685B1C4B60CB685B1CCB600A2B05
:1031000006D2017801F0FE0141F00201017070BDAC
:103110000478142B04F0FD040470F8D1CA6070BD6B
:103120000008004000040048EA01002002000020DE
:10313000010000200000002038000020704790F8B7
:103140008010012918D0012180F880102421C0F8B6
:10315000841050F8641B0A680B6823F001030B60AD
:1031600022F000510022026050F8643C19602021D6
:10317000016202771046704702207047704770471F
:1031800070B5044690F8800001281DD0012084F815
:1031900080002420C4F8840020680568026822F0BA
:1031A000010202602068826822F060620A43826045
:1031B000204601F019F9206805602020C4F8840039
:1031C000002084F8800070BD022070BD70B50446F8
:1031D00090F8800001281DD0012084F88000242070
:1031E000C4F8840020680568026822F001020260C9
:1031F0002068826822F060420A438260204601F023
:10320000F3F8206805602020C4F88400002084F8CA
:10321000800070BD022070BD70477047704700008D
:103220002DE9F04103680446D86919689A6840F6A8
:103230000F0528424FF0000509D186067ED501F022
:10324000200602F080573E4378D0216F27E1A94E37
:10325000A94F16400F40374370D0C70709D0CF059C
:1032600007D501271F62D4F88C3043F00103C4F85E
:103270008C3083070AD5D30708D0276802233B6226
:10328000D4F88C3043F00403C4F88C3043070AD5DB
:10329000D30708D0276804233B62D4F88C3043F06E
:1032A0000203C4F88C3003070CD501F0200333432C
:1032B00008D0266808233362D4F88C3043F0080322
:1032C000C4F88C3003050BD54B0109D526684FF4A3
:1032D00000633362D4F88C3043F02003C4F88C30A0
:1032E000D4F88C30002B3AD0800609D501F02000AC
:1032F00002F08051084303D0216F09B1204688476E
:10330000D4F88C0021688968490602D410F0280F8F
:1033100027D0204601F028F92068806840061BD598
:103320002068083050E8001F21F0400140E80012FA
:10333000002AF5D1E06F78B1704900E017E08163B1
:10334000E06FFEF700FD002809D0E06F816B00E020
:103350002046BDE8F04108472046FFF75FFFBDE883
:10336000F0812046FFF75AFFC4F88C50F7E7E76E6C
:103370002026012F7ED1C7067CD5CF067AD5102016
:10338000186220688068400642D5E16F086840688E
:103390000004000CE3D0B4F85C208242DFD9A4F82A
:1033A0005E000868006880062BD4206850E8001F83
:1033B00021F4807140E80012002AF6D1206808301C
:1033C00050E8001F21F0010140E80012002AF5D169
:1033D0002068083050E8001F21F0400140E800124A
:1033E000002AF5D1C4F88860E566216851E8000F2D
:1033F00020F0100041E80002002AF6D1E06FFEF74D
:103400006DFCB4F85C00B4F85E10401A81B22CE098
:10341000B4F85C00B4F85E10401A81B2B4F85E00F3
:1034200000289CD000299AD0226852E8000F20F48E
:10343000907042E80003002BF6D12E4BDB4320684E
:10344000083050E8002F1A4040E80027002FF6D13E
:10345000C4F88860E5662567226852E8000F20F00E
:10346000100042E80003002BF6D12046FFF786FE4D
:1034700075E7FFE7C70209D5570207D54FF480105B
:1034800018622046BDE8F041FFF7C7BE03060AD523
:1034900001F0800302F40002134304D0616F00299D
:1034A0007FF456AF5BE7420611D54A060FD520469A
:1034B000016851E8002F22F0400241E80023002B70
:1034C000F6D1C0F88460456700F030F947E70202A2
:1034D00006D54A0004D52046BDE8F041FFF79CBE62
:1034E000C001C5D50029C3DA2046BDE8F041FFF789
:1034F00046BE0000010000102001000455450008F0
:1035000010B5040003D0D4F8840010B107E0012006
:1035100010BD002084F88000204600F027F8242009
:10352000C4F884002068016821F001010160204690
:1035300001F05CFA0128EBD0A06A10B1204600F03F
:1035400075FF2068416821F49041416020688168DE
:1035500021F02A0181602068016841F001010160C9
:103560002046BDE8104000F0C5BF000010B598B07F
:103570000446142111A8FCF7F5FF44216846FCF726
:10358000F1FF1B492068884230D101200024CDE999
:1035900000046846FEF752FE08B1FDF7C3FF154868
:1035A000016E41F480410166016E01F48041169183
:1035B000C16C41F00101C164C06C11A900F00100AF
:1035C00016904FF4C06011900220CDE9120407203C
:1035D000CDE914404FF09040FEF704FC0022114664
:1035E0002520FEF793FD2520FEF782FD18B010BDC3
:1035F000003801400010024030B4D0F88830202B51
:1036000020D1E1B1DAB190F88030012B1AD001233A
:1036100080F880300023C3660B4C0368A3420BD0B4
:103620005B681B0208D5046854E8003F43F08063E0
:1036300044E80035002DF6D130BC01F011BB01206B
:1036400030BC70470220FBE7008000400549064B74
:1036500008784A781A54401C08700122491C034813
:10366000FFF7CABF36000020CC0100203C0100203B
:103670002DE9F8430446D0F884001F4616460D464F
:10368000202851D1DDB1D6B194F8800001284BD06B
:10369000012084F880004FF00008C4F88C802120BD
:1036A000C4F884001834FEF7CBFCA6878146E68771
:1036B00054F8100C183CB0F5805F03D004E00120F2
:1036C000BDE8F883206920B12E46002584F880806B
:1036D00010E00026FAE78021204601F04DFBB8B942
:1036E000C6B116F8010B21688862B4F85600401E76
:1036F000A4F85600B4F856004B464FF0000200976D
:103700000028E8D14FF04001204601F035FB30B1F0
:103710000320D5E735F8020BC0F30800E3E72020CB
:10372000C4F884000020CBE70220C9E77047FEE719
:1037300000B585B014216846FCF714FF4FF6FF7002
:10374000009000200321CDE9020101906946024862
:10375000FEF748FB05B000BD0008004800B585B085
:1037600014216846FCF7FEFE4FF6FF700090012022
:103770000190032003900020029069460248FEF762
:1037800031FB05B000BD00000008004870B5002402
:1037900006462146204600F003F900F041F94FF4B7
:1037A0009635304600F010F9641CAC42F9D370BD78
:1037B00030B587B014216846FCF7D4FE1E48C16CB2
:1037C00041F00401C164C16C01F004010591C16CB8
:1037D00041F00101C164C16C01F001010591C16CAE
:1037E00041F00201C164C06C012500F002000590A7
:1037F0004FF44870CDE90005002403946946029413
:103800000E48FEF7EFFA280203940090CDE9015428
:103810004FF0904469462046FEF7E4FAFFF79EFF1A
:10382000A06940F48070A06104481830016841F438
:103830000871016007B030BD00100240000400486C
:10384000203AD2B2034B02EB420203EB021200F029
:1038500019B800001A560008F0B50E4607460025B4
:1038600040F23F1407E021463846FFF7E9FF103CDD
:103870006D1CA4B2761C3278002A01D0142DF2D32C
:10388000F0BD00002DE9F04791468A460026044627
:1038900000F086F8DFF84080012700BF00F0C0F894
:1038A0005FF0000539F8160007FA05F108424046B6
:1038B00001D1408800E0008800F086F86D1C102DD2
:1038C000F0D3641CE4B25146204600F069F8761C3F
:1038D000182EE3D3BDE8F0873000002010B5FFF7C5
:1038E00067FF002000F014F8084CA080A088A0F525
:1038F0000241303906D000F0A1FB002000F008F8AA
:10390000A08010BD00F011FBF7E7000030000020A0
:1039100070B51D490A6842F400720A600A6842F4F0
:1039200080720A60184C103C226842F0200222602B
:10393000164A1060086840F02000086000BF00BF11
:1039400000BF206840F020002060206840F48070B4
:103950002060FFF7EDFE4FF09041886A40F48070E0
:10396000886200BF00BF00BF0848001F006885B222
:10397000886940F480708861FFF7F0FE206840F4A9
:1039800000702060284670BD2804004814080048D4
:1039900001B5BDF800000149488008BD3000002095
:1039A00010B50C460146202000F068F82146BDE81D
:1039B0001040212000F062B801B5BDF800000149B7
:1039C000088008BD30000020134A116841F40071DE
:1039D0001160114910390B6843F480730B600B6858
:1039E00043F020030B600D4B1860106840F020007E
:1039F000106000BF00BF00BF086840F020000860F2
:103A0000086840F48070086000BF00BF00BF08680D
:103A100040F400700860704728040048140800480B
:103A20001449086840F400700860086840F4807029
:103A3000086010481038026842F0200202600E4B05
:103A400022221A600A6842F020020A6000BF00BF0A
:103A500000BF016841F020010160016841F48071FC
:103A6000016000BF00BF00BF016841F40071016048
:103A7000704700002804004814080048184B10B58F
:103A80001A6842F400721A601A6842F480721A606E
:103A9000134A103A146844F020041460114C20605A
:103AA000186840F02000186000BF00BF00BF106819
:103AB00040F020001060106840F4807010602160B9
:103AC000186840F02000186000BF00BF00BF1068F9
:103AD00040F020001060106840F48070106010BD4D
:103AE000280400481408004800EB8100006E00F034
:103AF000F84070478068C0F3C00070478068C0F32A
:103B000080007047042303EAD15310B51844436979
:103B1000C1F3045107248C40A3438A4013434361FB
:103B200010BD00EB8100016E21F0004111430166E0
:103B30007047000010B535480168354C6268891A35
:103B4000642962D3006860603248FDF7EDFC9FEDA8
:103B5000321B84ED060B53EC112B51EC100B01F0D2
:103B6000FFFC04D89FED2E0B84ED040B0BE09FEDC2
:103B70002E0B53EC102B94ED060B51EC100B01F0B7
:103B8000F1FBC4E90401607850B101283DD11E2148
:103B90002748FCF7C5FC27A12548FCF711FC2CE0C1
:103BA0001E212348FCF7BCFC28A12148FCF708FC97
:103BB0001F491820FFF750FE1E211D48FCF7B0FCDE
:103BC000A07820B1012804D0022806D11BE025A14D
:103BD00000E029A11648FCF7F3FB15494820FFF740
:103BE0003BFE1E211248FCF79BFC94ED040B27A121
:103BF00053EC102B0E48FCF7E3FBBDE810400C49DA
:103C00006020FFF729BE27A1E4E710BD28000020AF
:103C10000000002084000020000000000000084098
:103C20000000000000C07240000000000000594089
:103C30004800002020202020202020205741524EE4
:103C400020202020202020202020000020202020B4
:103C500020202020444154412020202020202020CA
:103C600020200000202020202020204E3A53202019
:103C70002020202020000000202020202020204E76
:103C80003A52202020202020200000002020202048
:103C9000202020443A25302E31662020202020206C
:103CA00020000000202020202020204E3A4C202000
:103CB000202020202000000030B589B02021684657
:103CC000FCF750FC19481849002401604902C0E97A
:103CD0000114C46004250461C0E9054504774477F4
:103CE0000121016280F82440C462046380F83840F6
:103CF000C46380F84040FDF73DFE08B1FDF712FCBB
:103D00000B4800900620CDE901047F200594CDE901
:103D1000030569460548FDF71DFC002801D0FDF7A5
:103D200001FC09B030BD00000001005084000020FB
:103D30000080F03E2DE9F04F87B014216846FCF773
:103D400011FC4048C16C41F00401C164C16C01F038
:103D500004010591C16C41F02001C164C16C01F006
:103D600020010591C16C41F00101C164C16C01F0F9
:103D700001010591C16C41F00201C164C16C01F007
:103D800002010591C16C41F00801C164C06CDFF80B
:103D9000B88000F008004FF6FF740590002221461D
:103DA0004046FEF748F94FF480764FF090490022E4
:103DB00031464846FEF73FF9DFF890A00022042183
:103DC0005046FEF738F9DFF888B04FF44877002204
:103DD00039465846FEF72FF90125CDE90045002464
:103DE0000294694640460394FDF7FCFFCDE9005478
:103DF000694648460294FDF7F5FF0720CDE9000427
:103E0000694658460294FDF7EDFF0096CDE901544E
:103E1000694648460394FDF7E5FF04200090CDE98C
:103E20000154694650460394FDF7DCFF0097CDE945
:103E30000154694658460394FDF7D4FF07B0BDE826
:103E4000F08F00000010024000080048000C0048FD
:103E50000004004810B588B000241748009401946D
:103E600002940394049405941249069401604F212E
:103E7000C0E9011442F20F71C0E903148461FEF736
:103E8000DAFE08B1FDF74EFB4FF480500090694612
:103E90000948FEF75BFF08B1FDF744FB049404A951
:103EA00005480694FEF778FE002801D0FDF73AFB9E
:103EB00008B010BD00080040F0000020184810B500
:103EC000164901604FF416514160002181600C22B7
:103ED000C160C0E904128161C16101624162816215
:103EE000FFF70EFB08B1FDF71DFB00210C48FFF7A3
:103EF0006DF908B1FDF716FB00210948FFF740F9FD
:103F000008B1FDF70FFB0648FFF719F9002803D0A9
:103F1000BDE81040FDF706BB10BD000000380140B1
:103F20003C010020FEE7FEE7704730B5012100208C
:103F3000FFF7A4FD4FF47A70FDF7E6FA00210120A7
:103F4000FFF79CFD41F290711020FFF797FD4FF4B1
:103F50001C516020FFF792FD01216120FFF78EFDCB
:103F600002214620FFF78AFD48F210011320FFF7D7
:103F700085FD48F2FE011220FFF780FD4FF4A0619D
:103F80000220FFF77BFD41F230010320FFF776FDB1
:103F900040F2033421463020FFF770FD21463120E6
:103FA000FFF76CFD21463220FFF768FDE51E29462C
:103FB0003320FFF763FD03213420FFF75FFD214627
:103FC0003520FFF75BFD14213620FFF757FD214612
:103FD0003720FFF753FD21463820FFF74FFD2146DC
:103FE0003920FFF74BFD29463A20FFF747FD032113
:103FF0003B20FFF743FD21463C20FFF73FFD4FF4F8
:10400000A0513D20FFF73AFD4FF400719220FFF7D9
:1040100035FD21469320FFF731FD40F60D0190203C
:10402000FFF72CFD41F218010320FFF727FDBDE843
:10403000304040F273110720FFF720BD10B543F266
:104040000801E320FFF71AFD1221E720FFF716FD14
:1040500041F23121EF20FFF711FD00210120FFF790
:104060000DFD4FF4E0610220FFF708FD41F2300141
:104070000320FFF703FD00210420FFF7FFFC40F2BF
:1040800007210820FFF7FAFC00210920FFF7F6FCC2
:1040900000210A20FFF7F2FC00210C20FFF7EEFCC4
:1040A00000210D20FFF7EAFC00210F20FFF7E6FCBE
:1040B00000211020FFF7E2FC07211120FFF7DEFCB2
:1040C00000211220FFF7DAFC00211320FFF7D6FCB5
:1040D000C820FDF775FE41F290611020FFF7CEFC7D
:1040E00040F227211120FFF7C9FC3220FDF768FEBE
:1040F0001D211220FFF7C2FC3220FDF761FE4FF4B4
:1041000000611320FFF7BAFC14212920FFF7B6FC49
:104110000B212B20FFF7B2FC3220FDF751FE0021CE
:104120002020FFF7ABFC00212120FFF7A7FC07218F
:104130003020FFF7A3FC40F207713120FFF79EFC0F
:1041400006213220FFF79AFC40F204713520FFF778
:1041500095FC41F604713620FFF790FC04213720CE
:10416000FFF78CFC00213820FFF788FC40F2067135
:104170003920FFF783FC40F201713C20FFF77EFC01
:104180000F213D20FFF77AFC00215020FFF776FC3D
:10419000EF215120FFF772FC00215220FFF76EFC47
:1041A00040F23F115320FFF769FC4FF41C5160208F
:1041B000FFF764FC01216120FFF760FC00216A2009
:1041C000FFF75CFC00218020FFF758FC00218120D4
:1041D000FFF754FC00218220FFF750FC00218320D0
:1041E000FFF74CFC00218420FFF748FC00218520CC
:1041F000FFF744FC10219020FFF740FC00219220A3
:10420000FFF73CFC03219320FFF738FC4FF4887143
:104210009520FFF733FC00219720FFF72FFC0021AA
:104220009820FFF72BFC41F218010320FFF726FC32
:10423000BDE8104040F273110720FFF71FBC704724
:10424000FDF704BF10B594B038216846FCF78AF931
:1042500014210EA8FCF786F94FF40070FDF788FFD3
:10426000012000900004019002200324CDE90704FE
:104270001421CDE90A100C900D9009946846FEF7C0
:104280006BFA08B172B6FEE70F20CDE90E040020EC
:1042900010901190129002210EA8FEF713F9002839
:1042A00001D072B6FEE714B010BD000002480168EC
:1042B00041F470010160704788ED00E00148FEF7AD
:1042C000C6BD0000F00000202DE9F0430268234B3A
:1042D000234D244E244C4FF08049984207D0484546
:1042E00005D0A84203D0B04201D0A04203D122F0B1
:1042F00070074A683A431D4FDFF874C0DFF87480D6
:1043000098420DD048450BD0A84209D0B04207D002
:10431000A04205D0B84203D0604501D0404503D14A
:1043200022F44075CA682A434D6922F080022A436C
:1043300002608A68C2620A688262984207D0A0421C
:1043400005D0B84203D0604501D0404501D109698C
:10435000016301214161BDE8F0830000002C0140B0
:1043600000040040000800400034014000400140CB
:10437000004401400048014010B5846842EA03222D
:1043800024F47F440A432243826010BD8268034BB9
:104390001A400A4342F00701816070478FFFCFFF48
:1043A00010B5036A046A24F001040462846924F0ED
:1043B000F00444EA021423F00A020A438461026210
:1043C00010BD10B5036A23F0100303628369046A09
:1043D00023F4704343EA023224F0A00343EA0111BC
:1043E0008261016210BD000030B5416EB9B1026852
:1043F00091689268C1F342610B4B520F9C5CE500DF
:1044000003F10804A25CB5FBF2F2A0F86A205A5C42
:10441000615CD200B2FBF1F1A0F8681030BD01215F
:10442000A0F86A10F8E70000F255000890F828108C
:10443000C90706D001684A68C36A22F400321A43E9
:104440004A6090F82810890706D501684A68036B0E
:1044500022F480321A434A6090F82810490706D5A2
:1044600001684A68436B22F480221A434A6090F83C
:104470002810090706D501684A68836B22F40042B8
:104480001A434A6090F82810C90606D501688A6860
:10449000C36B22F480521A438A6090F82810890670
:1044A00006D501688A68036C22F400521A438A60B8
:1044B00090F82810490611D501684A68436C22F427
:1044C00080121A434A60416CB1F5801F06D1016821
:1044D0004A68836C22F4C0021A434A6090F828109C
:1044E000090606D501684A68C06C22F4002202431E
:1044F0004A607047F8B500260446C0F88C60FDF7A6
:104500009FFD0546206800686FF07E47000708D5CC
:104510002B4600224FF400112046009700F02CFC9F
:1045200060B92068006840070AD52B4600224FF486
:1045300080012046009700F01FFC08B10320F8BD61
:104540002020C4F88400C4F8880044F86C6F002070
:104550002675F8BD10B5806A0021A0F85E10A0F89D
:104560005610FEF75BFE10BD10B5026852E8001F42
:1045700021F4907142E80013002BF6D10E4B026833
:10458000083252E8001F194042E80014002CF6D10E
:10459000C16E012908D1016851E8002F22F01002F4
:1045A00041E80023002BF6D12021C0F8881000211B
:1045B000C166016710BD0000FEFFFFEF10B5B0F847
:1045C0006020D0F888300168222B04D0886940F040
:1045D0000800886110BD496A836D11401980816DA2
:1045E000891C8165B0F85E10491EA0F85E10B0F815
:1045F0005E100029EED1026852E8001F21F490718C
:1046000042E80013002BF6D10168083151E8002F71
:1046100022F0010241E80023002BF5D12021C0F84F
:10462000881000210167C26E012A02D0FFF70EF840
:1046300010BDC166026852E8001F21F0100142E877
:104640000013002BF6D10168CA69D243D20601D407
:1046500010220A62B0F85C10FEF790FD10BD000059
:104660002DE9F0470446B0F860600068C569D0F8ED
:1046700000A0D0F80880D4F88810222905D08169DC
:1046800041F008018161BDE8F087B4F868704FF02F
:10469000000963E02068406AA16D30400880A06D89
:1046A000801CA065B4F85E00401EA4F85E0020687F
:1046B000C569690730D0E9070AD05FEACA5107D552
:1046C00001210162D4F88C0040F00100C4F88C0094
:1046D000A8070BD55FEAC87008D0216802200862DD
:1046E000D4F88C0040F00400C4F88C0068070BD5A7
:1046F0005FEAC87008D0216804200862D4F88C00F2
:1047000040F00200C4F88C00D4F88C0020B12046A0
:10471000FEF784FDC4F88C90B4F85E00F0B921680F
:1047200051E8000F20F4807041E80002002AF6D121
:10473000264A2068083050E8001F114040E8001366
:10474000002BF6D12020C4F88800C4F87090E16EE8
:104750004846012923D02046FEF778FF0FB1A8066E
:1047600098D4B4F85E0000288DD0B4F86810814267
:1047700089D92068083050E8001F21F0805140E8B6
:104780000012002AF5D112482067206850E8001F67
:1047900041F0200140E80012002AF6D173E7E066FC
:1047A000216851E8000F20F0100041E80002002AC3
:1047B000F6D12068C169C943C90601D4102101623C
:1047C000B4F85C102046FEF7D9FCC7E7FEFFFFEF08
:1047D000BD45000810B5B0F86020D0F888300168F9
:1047E000222B04D0886940F00800886110BD496A16
:1047F0001140826D1170816D491C8165B0F85E10A9
:10480000491EA0F85E10B0F85E100029EED10268D3
:1048100052E8001F21F4907142E80013002BF6D1FA
:104820000168083151E8002F22F0010241E800231D
:10483000002BF5D12021C0F8881000210167C26E3D
:10484000012A02D0FEF702FF10BDC166026852E8DD
:10485000001F21F0100142E80013002BF6D101687F
:10486000CA69D243D20601D410220A62B0F85C10A1
:10487000FEF784FC10BD00002DE9F0470446B0F8B7
:1048800060600068C569D0F800A0D0F80880D4F84E
:104890008810222905D0816941F008018161BDE8B5
:1048A000F087B4F868704FF0000963E02068406A50
:1048B000A16D30400870A06D401CA065B4F85E008A
:1048C000401EA4F85E002068C569690730D0E9077A
:1048D0000AD05FEACA5107D501210162D4F88C00E1
:1048E00040F00100C4F88C00A8070BD55FEAC8703F
:1048F00008D0216802200862D4F88C0040F004003F
:10490000C4F88C0068070BD55FEAC87008D021682E
:1049100004200862D4F88C0040F00200C4F88C0037
:10492000D4F88C0020B12046FEF778FCC4F88C90B7
:10493000B4F85E00F0B9216851E8000F20F48070EF
:1049400041E80002002AF6D1264A2068083050E8E3
:10495000001F114040E80013002BF6D12020C4F8BE
:104960008800C4F87090E16E4846012923D02046A3
:10497000FEF76CFE0FB1A80698D4B4F85E000028CC
:104980008DD0B4F86810814289D92068083050E889
:10499000001F21F0805140E80012002AF5D1124892
:1049A0002067216851E8000F40F0200041E8000234
:1049B000002AF6D173E7E066216851E8000F20F085
:1049C000100041E80002002AF6D12068C169C943FD
:1049D000C90601D410210162B4F85C102046FEF72C
:1049E000CDFBC7E7FEFFFFEFD54700082DE9F041FB
:1049F0000446016880682269E36910436269002502
:104A00001A431043DFF82CC20A688B4B1A4002434A
:104A10000A6020684168E26821F440511143416016
:104A20002168A069614501D0226A10438A68834BDE
:104A30001A4002438A602068C16A626A21F00F014D
:104A40001143C1627E4923687E488B420DD1D0F864
:104A5000880010F0030006D0012855D0022842D06B
:104A600003283FD152E001203DE077498B420BD132
:104A7000D0F8880010F00C0035D0042833D0082876
:104A800040D00C282ED141E070498B420BD1D0F898
:104A9000880010F0300026D0102835D0202831D0E2
:104AA00030281FD132E06A498B420BD1D0F8880000
:104AB00010F0C00017D0402826D0802822D0C0286F
:104AC00010D123E063450DD1D0F8880010F4406088
:104AD00009D0B0F5806F17D0B0F5006F12D0B0F5E7
:104AE000406F13D010205B495B4F00264FF400420B
:104AF00063453BD160B1022813D004280BD00828AD
:104B000072D10DE00220EEE70420ECE70820EAE78E
:104B1000FDF7C6FD01E0FDF7E7FD010001D17CE0F6
:104B20001146606A37F810206768B1FBF2F007EBB6
:104B30004703834270D8B0EB073F6DD80023084687
:104B40001946FBF7C5FB090241EA10610202780829
:104B5000101871413A460023FBF7BAFB3F4AA0F513
:104B60004071914258D82168C86056E0E3694FF619
:104B7000EF7893422CD109284ED2DFE800F00508E7
:104B8000114D0D4D4D4D1000FDF78AFD01E0FDF773
:104B900099FD010004D140E0FDF7A6FDF9E71146BB
:104BA000606A37F81000B1FBF0F04100606801EB7B
:104BB0005001B1FBF0F0A0F1100141452CD84FF6A7
:104BC000F0710140C0F3420001432068C16024E05D
:104BD000092821D2DFE800F0050912200E2020204C
:104BE0001100FDF75DFD02E016E0FDF76BFD010031
:104BF00004D112E0FDF778FDF9E71146606A37F855
:104C00001000B1FBF0F1606801EB5001B1FBF0F076
:104C1000A0F1100141450AD901250120A4F86A003C
:104C200024F8680F2846A660E660BDE8F08180B2EF
:104C300099E7000000800040F369FFCFFFF4FF1107
:104C4000003801400010024000440040004800408D
:104C5000004C00400024F400DA550008FFFC0F006F
:104C600070B58165A0F85C20A0F85E200021016786
:104C700083684FF48055FF24AB4204D10369FBB92C
:104C800040F2FF1322E07F26C3B1B3F1805F1AD058
:104C9000A0F86010C0F88C102223C0F88830036898
:104CA000083353E8004F44F0010443E80046002E67
:104CB000F5D1436EB3F1005F0ED032E0036943B922
:104CC000A0F86040E6E703691BB13F23A0F860301D
:104CD000E0E7A0F86060DDE7B0F86830934220D8E4
:104CE0008268AA4201D10269CAB11F4A026780F8EC
:104CF0008010016941B1026852E8001F41F48071DF
:104D000042E80013002BF6D10168083151E8002F6A
:104D100042F0805241E80023002BF5D121E0134AF4
:104D2000E4E78268AA4201D102697AB1104A0267B7
:104D300080F88010016959B1026852E8001F41F4FF
:104D4000907142E80013002BF6D10AE0094AEEE721
:104D5000026852E8001F41F0200142E80013002BD6
:104D6000F6D1002070BD00007948000861460008B7
:104D7000D5470008BD4500082DE9F0479A4617467B
:104D80000E4604464FF000094FF02008089D4AE007
:104D9000681C48D0FDF754F9A0EB0A00A8422AD8B5
:104DA0004DB32068016849073DD5C069C04300057F
:104DB00039D421684FF400600862206850E8001F71
:104DC00021F4D07140E80012002AF6D120680830A2
:104DD00050E8001F21F0010140E80012002AF5D13F
:104DE00044F8848FC4F80480C4F8088004F8049C54
:104DF0000320BDE8F087216851E8000F20F4D0704F
:104E000041E80002002AF6D12068083050E8001F6F
:104E100021F0010140E80012002AF5D144F8848F06
:104E2000C4F80480E2E72068C06936EA000004D0D4
:104E30000020B842ACD00020DBE70120F9E70000F9
:104E40000148FEF7EDB900003C010020FEE703B485
:104E500001984100009850EAC12018BF04204A0D73
:104E600018BF40F0010040F2FF72B2EB515F08BF83
:104E700040F00200012808BF052002B07047090772
:104E8000090E002804DB00F1E02080F800147047D0
:104E900000F00F0000F1E02080F8141D704730385A
:104EA0000A2801D201207047002070472DE9F04701
:104EB0006248634C0126427861780025DFF88481DE
:104EC000DFF884914FF4FA77012A0BD00279012A96
:104ED0001FD02246C3799278012B1CD0837A012BF4
:104EE0004BD05AE04570012957D16570A57000205C
:104EF000FEF74CFC1E215548FBF712FB54A153480A
:104F0000FBF75EFA3223092250495448FEF7B0FB02
:104F100043E0057141E0C571002970D14A48022A79
:104F2000006809D0B2B1B84203D366700020FEF722
:104F30002DFCC9F8005030E0B842F6D2A5701E2111
:104F40004248FBF7EDFA42A14048FBF739FA142337
:104F500009220DE066700020FEF718FC1E213B4878
:104F6000FBF7DEFA3EA13948FBF72AFA14230622A2
:104F700036493A48FEF77CFBDBE7857200295BD1B6
:104F80003048012A00682BD0C2B3B84203D3667000
:104F90000020FEF7FBFBC8F80050607800284BD1DA
:104FA000A07801283FD0022846D1D9F80010B94294
:104FB00042D96670A570C9F800500020FEF7E6FBE4
:104FC0001E212248FBF7ACFA25A12048FBF7F8F98F
:104FD000BDE8F047142307221C492048FEF748BBD0
:104FE000B842D4D2A5701E211848FBF799FA18A12F
:104FF0001648FBF7E5F9142309220FE000E01BE057
:1050000066700020FEF7C2FB1E211048FBF788FAED
:1050100013A10E48FBF7D4F9142306220B490F48BD
:10502000FEF726FBB7E7D8F80010B94204D966703E
:10503000A570C8F80050C0E7BDE8F087EA0100207D
:10504000000000203C000020380000206600002006
:10505000537563636573730D0A0000003C01002003
:105060005761726E0D0A000070B500220F480124CE
:10507000154600BF02EB420319188E7826B1012EA7
:1050800006D0022E0ED109E0C35C5BB98C7009E03A
:10509000C35C33B902238B704C7003E0C35C012BFB
:1050A00000D18D70521C042AE4DB70BDEA0100209F
:1050B00070B5124D044601224FF47F412846FCF79B
:1050C000BAFF0F4E012204213046FCF7B4FF002244
:1050D00004213046FCF7AFFF210200222846FCF7EE
:1050E000AAFF012204213046FCF7A5FF3046BDE8A7
:1050F000704000220421FCF79EBF00000008004819
:10510000000C00480B490A680B488368D21A322AFF
:105110000FD309688160014642780978012A05D0D9
:1051200001F07F010170C8B2FFF7C2BF41F08001FA
:10513000F8E770472800002000000020FCF78EFFF1
:10514000FFF780F8FEF7F6FDFEF7B6FDFEF782FEEC
:10515000FEF7B4FE15480078FFF7AAFFFEF7BEFB86
:105160000020FEF713FB0020FEF712FC4FF6FF7045
:10517000FEF722FC0E48FDF7ADFD01220D490E4859
:10518000FEF73AFA0D4C00BFFFF790FE25783DB1CF
:105190000220FCF715FE2078854201D100F010F8BE
:1051A000FEF7C8FCFFF7AEFFEEE7000000000020AE
:1051B000F0000020370000203C01002036000020D5
:1051C00070B521480168214CE268891A14293AD344
:1051D0000068E0601E4D2878002834D0607810B157
:1051E00001281AD027E01BA11B48FBF7E3F978B18F
:1051F0001AA11948FBF7DEF960B11E211848FBF728
:105200008FF918A11648FBF7DBF8142307220EE0EC
:10521000022000E00120A0700DE01E211048FBF7E5
:105220007FF912A10E48FBF7CBF8142306220C4994
:105230001048FEF71DFA00202870BDE870401E21BE
:105240000548FBF76DB970BD280000200000002064
:10525000360000204C000000CC010020520000006D
:10526000660000204552524F520D0A0057414954E2
:105270000D0A00003C01002010B500290AD0087872
:10528000002807D005487844FBF794F9002801D09E
:10529000002010BD0248784410BD00002A1600000E
:1052A00022160000491058BFC1F140415B1058BFA1
:1052B000C3F140438B42EFF30080704710F000428F
:1052C00048BF4042B0FA80F310FA03F10AD0C3F1AC
:1052D0001D0303F580634FEA415002EB035202EBDA
:1052E000D12170474FF000007047000051EA030CD5
:1052F00017D41CF5801F58BFBCF5801F00F1068035
:10530000994218BF704708BF9042704707D711F500
:10531000801F58BF13F5801F19D4994270478942E6
:1053200070471CF5801F08D5BCF5801FF7D58B4250
:1053300018BF704708BF824270474FF4001C1CEB37
:10534000410F38BF1CEB430F01D28B42704770B541
:1053500000F0B2F8922449004FF000514FF0805312
:10536000FFF7A0BFDFF848C170B51CEA111E1EBFD1
:105370001CEA13159EEA0C0F95EA0C0F00F06F80E3
:1053800081EA030423EA4C134EEAD47E21EA4C114D
:1053900041F4801143F48013AE44A1FB024CA0FB06
:1053A0000365AEF17F7E361955EB0C05A1FB034C6E
:1053B0004CF10003A0FB021C16EB0C06654153F1F7
:1053C0000003094218BF46F0010613F4007F0BD119
:1053D0004FEA03314FEA0530340341EA155140EA00
:1053E00016506FF003020AE04FEAC3214FEAC520CE
:1053F000F40241EA555140EA56506FF0020202EBC6
:105400002E4201EB025585EACE710AD05FEA440CC8
:1054100018BF24F0004450F1000041F1000120EADF
:10542000D47040F2FE7C624500D270BDA84214BF29
:105430004FF080444FF04044002E08BF0024BEF1DE
:10544000806FA8BFA1F1C041BDE8704080F28280AA
:105450004FF0000001F1C04101F0004170479EEAA9
:105460000C0F0CEA131518BF95EA0C0F06D04FF07D
:10547000000081EA030E0EF0004170BD00F01CF840
:105480008900013E00F007B800F009B84FEA430C6C
:105490005FEA5C5C08D081EA030100F05BB84FEA88
:1054A000410C5FEA5C5CF6D14FF0000001497047A7
:1054B0000000FF070000F87F0EF1020E2EF0030E31
:1054C0005EF8046B364205D4012A43EB030515F55B
:1054D000001F12D8012841EB010C1CF5001F0CD84D
:1054E0000ED14FEAD17C15F5001F0CEB4C0C0CF1E2
:1054F000020C08BF4CEBD37C04E04FF0080C01E039
:105500004FEAD37C0CEB4C0526FA05F606F00706AD
:10551000B6F1040C06D20EEB860CBDE870404CF0E0
:10552000010C6047DFE80CF0090B02024FF000416C
:105530004FF00000A1F5002170BD1946104601286A
:1055400051EB010418BFD4F5001484BF002001F012
:10555000004170BD0808A0F500114FEA3101704705
:1055600053EA010C17D41CF5801F58BFBCF5801FEF
:1055700000F106808B4218BF704708BF8242704717
:1055800007D713F5801F58BF11F5801F19D48B4220
:1055900070479B4270471CF5801F08D5BCF5801FE3
:1055A000F7D5994218BF704708BF904270474FF433
:1055B000001C1CEB430F38BF1CEB410F01D299427A
:1055C00070470FB40CBC03BCFFF7C1BE4FF0407076
:1055D000E1EE100A7047FBF709B901000200040070
:1055E000060008000A000C001000200040008000A7
:1055F0000001010101030701000008040204080181
:105600000101000000000000000001020304060781
:10561000080900000000010203040000000000006F
:10562000000000000000000000000000000000007A
:10563000000000000000000000000000000000006A
:105640000000000000000000000000008001800158
:105650008001800180018001800180018001800142
:1056600080018001800100000000800180010000B5
:105670000000000000000000000000000000CC005E
:10568000CC00CC00CC00CC00CC000000000000001E
:10569000000000000000000000000000000000000A
:1056A00000000000000000000000000000000000FA
:1056B000000000000000600C600C600C300630063A
:1056C000FE1FFE1F300638071803FE1FFE1F1803BB
:1056D00018038C018C018C01000000008000E003A5
:1056E000F80F9C0E8C1C8C188C009800F801E007B9
:1056F000800E801C8C188C189C18B80CF00FE003DE
:105700008000800000000000000000000000000099
:105710000E181B0C110C11061106110311039B012D
:105720008E01C038C06C604460443044304418443A
:10573000186C0C380000000000000000E001F003CD
:105740003807180618063003F001F000F8009C3105
:105750000E33061E061C061C063FFC73F0210000DB
:1057600000000000000000000000000000000C002D
:105770000C000C000C000C000C00000000000000ED
:105780000000000000000000000000000000000019
:105790000000000000000000000000000002000304
:1057A0008001C000C00060006000300030003000A8
:1057B0003000300030003000300060006000C00079
:1057C000C000800100030002000000002000600013
:1057D000C0008001800100030003000600060006EF
:1057E0000006000600060006000600030003800114
:1057F0008001C000600020000000000000000000E8
:10580000000000000000C000C000D806F807E0015A
:105810003003380700000000000000000000000016
:105820000000000000000000000000000000000078
:1058300000000000000080018001800180018001E3
:10584000FC3FFC3F8001800180018001800100005D
:105850000000000000000000000000000000000048
:105860000000000000000000000000000000000038
:105870000000000000000000000000008001800126
:105880000001000180000000000000000000000096
:105890000000000000000000000000000000000008
:1058A0000000E007E007000000000000000000002A
:1058B00000000000000000000000000000000000E8
:1058C00000000000000000000000000000000000D8
:1058D000000000000000000000000000C000C00048
:1058E000000000000000000000000000000C000CA0
:1058F0000006000600060003000300038003800189
:1059000080018001C000C000C00060006000000095
:10591000000000000000000000000000E003F007AD
:10592000380E180C0C180C180C180C180C180C1835
:105930000C180C180C18180C380EF007E0030000B7
:1059400000000000000000000000000000018001D5
:10595000C001F0019801880180018001800180016F
:1059600080018001800180018001800180010000B0
:10597000000000000000000000000000E003F80F3D
:10598000180C0C180C1800180018000C0006000366
:105990008001C000600030001800FC1FFC1F0000E8
:1059A000000000000000000000000000E001F80717
:1059B000180E0C0C0C0C000C0006C003C007000CE9
:1059C000001800180C180C18180CF807E003000059
:1059D000000000000000000000000000000C000EAD
:1059E000000F000F800DC00C600C600C300C180C08
:1059F0000C0CFC3FFC3F000C000C000C000C0000E9
:105A0000000000000000000000000000F80FF80F88
:105A1000180018000C00EC03FC071C0E001C0018FA
:105A2000001800180C181C0C180EF807E0030000F2
:105A3000000000000000000000000000C007F00FA0
:105A4000381C181818000C00CC03EC0F3C0E1C1C62
:105A50000C180C180C18181C380EF007E003000086
:105A6000000000000000000000000000FC1FFC1F00
:105A7000000C00060006000380038001C001C00086
:105A8000E000600060007000300030003000000076
:105A9000000000000000000000000000E003F0072C
:105AA000380E180C180C180C3806F007F007180CF4
:105AB0000C180C180C180C18380CF80FE003000028
:105AC000000000000000000000000000E003F007FC
:105AD000380E1C0C0C180C180C181C1C381EF81B4B
