:020000040800F2
:1000000050090020990200082B4800080B3F000807
:100010002948000839160008E95B000800000000C4
:10002000000000000000000000000000E54B000898
:100030003B160008000000002D480008E74B0008B0
:10004000B3020008B3020008B3020008B3020008BC
:10005000B3020008B3020008B3020008B3020008AC
:10006000B3020008B3020008B3020008B30200089C
:10007000B3020008B3020008B3020008B30200088C
:10008000B302000800000000B3020008B302000839
:10009000B3020008B3020008B3020008B30200086C
:1000A000B3020008B3020008B3020008B30200085C
:1000B000614C0008B30200086D4C0008B302000850
:1000C000B3020008B3020008B3020008B30200083C
:1000D000B3020008DD5B0008B3020008B3020008A9
:1000E000B3020008B3020008B3020008B30200081C
:1000F000B3020008B3020008B302000800000000C9
:1001000000000000B302000800000000B302000875
:10011000B302000800000000B3020008B3020008A8
:10012000B3020008B3020008B3020008B3020008DB
:10013000B30200080000000000000000B302000845
:10014000B3020008B3020008000000000000000035
:10015000000000000000000000000000000000009F
:10016000000000000000000000000000B3020008D2
:10017000B3020008000000000000000000000000C2
:1001800000000000B30200080000000000000000B2
:10019000000000000000000000000000000000005F
:1001A0000000000000000000B3020008B3020008D5
:1001B000B3020008B3020008B30200080000000008
:1001C00000000000B3020008000000000000000072
:1001D000B3020008B302000800F002F800F04CF887
:1001E0000AA090E8000C82448344AAF10107DA4592
:1001F00001D100F041F8AFF2090EBAE80F0013F098
:10020000010F18BFFB1A43F0010318476880000074
:1002100088800000103A24BF78C878C1FAD8520705
:1002200024BF30C830C144BF04680C607047000070
:100230000023002400250026103A28BF78C1FBD8EF
:10024000520728BF30C148BF0B607047662906F0CF
:10025000B486642900F0CC80002070471FB506F0FA
:10026000A7FE00F0B1FC04000020002106F0BEF95A
:10027000E0601FBD10B510BD00F0A6FD1146FFF7F0
:10028000EDFF06F079F800F0C4FD03B4FFF7F2FFCC
:1002900003BC00F0C7FD000009488047094800473B
:1002A000FEE7FEE7FEE7FEE7FEE7FEE7FEE7FEE726
:1002B000FEE7FEE704480549054A064B7047000083
:1002C000514C0008D90100085003002050090020BB
:1002D000500500205005002053EA020C00F0698010
:1002E0002DE9F04B4FF00006002B1FBFB3FA83F54A
:1002F00003FA05F424FA05F65E4012BF1643B2FA7B
:1003000082F502FA05F4C5F120051EBF22FA05FCAC
:1003100044EA0C04203556EA044C4FEA144418BF52
:10032000641C4FF000084FF00009904271EB030C81
:1003300039D3002919BFB1FA81F701FA07F6B0FAEB
:1003400080F700FA07F6C7F120071EBF20FA07FC66
:1003500046EA0C062037B6FBF4FCA7EB0507103F76
:1003600007F01F0BCBF120060CFA0BFB2CFA06F65C
:1003700044BFB3460026202FA4BF5E464FF0000BBB
:100380005BEA060C08BF4FF0010B19EB0B09ABFB46
:10039000027C48EB0608C01B06FB02CC0BFB03CC1F
:1003A00071EB0C01C1E70B46024641464846BDE8E9
:1003B000F08B13B54FF000004FF00001AFF3008059
:1003C000BDE81C40704700000FB41CB5074B06AADF
:1003D0007B4469460090059800F0DDFB00206946EB
:1003E00000F0ECFB1CBC5DF814FB0000E90700000A
:1003F0002DE9F0410646002410687529314616A5FE
:1004000010D0AFF30080002802DA404213A507E0C5
:1004100031688A0701D512A502E0490704D511A564
:10042000012401E0AFF3008000210A2206F1240735
:1004300009E0B0FBF2FCB0FBF2F302FB1C00303031
:1004400078541846491C0028F3D123462A463046E2
:10045000BDE8F04100F031B9000000002D000000BF
:100460002B000000200000002DE9F05F89460446C3
:100470004FF0000ADFF824B1FB44C0F820A020466A
:10048000E168884700287DD0252806D0D4E90121DD
:100490009047206A401C2062F1E700255F46204615
:1004A000E16888472028064607DB312E05D2B819B7
:1004B00010F8200C08B10543F1E7A80701D525F095
:1004C0000405C4F81CA00027C4F818A02A2E09D0DF
:1004D000304605F0B2FB38B304EB8708303EC8F86D
:1004E000186019E059F8041B204604EB870291615B
:1004F000E1688847012F064618D1E069002820DA14
:1005000025F020051DE0D8F8180000EB800006EB70
:1005100040003038C8F818002046E1688847064691
:1005200005F08BFB0028EED1012F0AD02E2E08D12A
:100530002046E16888477F1C0646022F45F02005CB
:10054000C4DBA069002803DA404245F00105A06140
:10055000E80701D025F01005A6B1A6F14100192841
:1005600002D8203645F400654A46314620462560CB
:100570004D46FFF76BFE60B1012807D0ED1D25F059
:10058000070000E007E000F1080978E705F1040939
:1005900075E730467AE7206ABDE8F09F527D00009B
:1005A0004FF000020429C0F0128010F0030C00F09C
:1005B0001B80CCF1040CBCF1020F18BF00F8012B1A
:1005C000A8BF20F8022BA1EB0C0100F00DB85FEAE8
:1005D000C17C24BF00F8012B00F8012B48BF00F8B4
:1005E000012B70474FF0000200B513469446964623
:1005F000203922BFA0E80C50A0E80C50B1F1200136
:10060000BFF4F7AF090728BFA0E80C5048BF0CC0E3
:100610005DF804EB890028BF40F8042B08BF704741
:1006200048BF20F8022B11F0804F18BF00F8012BB3
:10063000704700004FF0013C50F8042B51F8043B88
:100640009A4221D1A2EB0C03934313EACC1317D1A6
:1006500050F8042B51F8043B9A4215D1A2EB0C033D
:10066000934313EACC130BD150F8042B51F8043BFD
:100670009A4209D1A2EB0C03934313EACC13DBD0CB
:100680004FF00000704700BFD01A01BAB1FA81F1F3
:1006900001F0180122FA01F0CB40C1F12001DBB2D8
:1006A000C0B2C01A2CFA01F3D11A914311EAC31156
:1006B000E6D170477047704770472DE9F0470D4607
:1006C00099469246044600F124080168880604D53C
:1006D000E06921F01001216000E00120A84201DD65
:1006E000471B00E00027A1697A1902EB0900081AEC
:1006F000A0612078C00602D42046AFF30080002617
:1007000008E0D4E901211AF806009047206A401C4D
:10071000761C20624E45F4DB2078C0060AD52046C0
:10072000AFF3008006E0D4E9012130209047206A31
:10073000401C2062381EA7F10107F4DC07E0D4E971
:10074000012118F805009047206A401C2062281EED
:10075000A5F10105F3DC2046AFF300802078000608
:1007600002D50220BDE8F0870120FBE770472DE9A4
:10077000FF4F0C461E464FF0FF378BB0D2E9000109
:10078000DDF860800A908A46C1F30A5505B93D46F6
:10079000002108464FF00000BAF1000F00F44000BD
:1007A00005DA00EB80004FF4400101EA50004FEA07
:1007B0009059B9F1010F00DDB9460A9850EA4A0094
:1007C0000ED044F61050A5F2FF3545432F14B8F172
:1007D000000F1ED07542291E1EDDC9F100021CE06B
:1007E000B8F1010F4FF0000001D0302103E0F243D7
:1007F00005E02154401CB042FBDB304600220021C2
:1008000021540B99C1F80880C1E900200FB0BDE860
:10081000F08FBD1B6D1CDEE74A4600DA694206A870
:1008200000F05CFA06AB93E8070003AB83E807002F
:1008300050460A9900F0FDFA8DE80700A0F5005037
:100840001F3800900398002D0ADD42F21F014A462E
:100850000844002303A90390684600F066FD09E000
:10086000A0F500504A461F38002303A903906846AC
:1008700000F070FD8DE807000004000C03D04FF07D
:10088000FF30410800E01046B8F1000F03D000220D
:10089000009215461EE0751E05D400F099F930321D
:1008A00062556D1EF9D5B3460122084302D00022DD
:1008B0007F1C04E02078302801D100227F1E002A0E
:1008C000099784D01DE0112D07DA00F081F930324C
:1008D00062556D1C50EA0102F5D1084302D0009820
:1008E000C8B10EE00021681E05E0235C625C635421
:1008F0002254401E491C8142F7DBAB46A81B401E18
:100900000990002004F80B000B98099AC0F80880A1
:10091000C0E9002B7AE711264FF0000857E72DE9D0
:10092000F04F88460446D21D22F0070191B0D1E96C
:100930000001CDE90A0105F058F902460B98C00FF5
:1009400001D02D2007E02068810701D52B2002E08F
:10095000202101EAC000032A099001D0072A05DB03
:1009600003464146204600F079F90BE120788006E5
:1009700001D5E06900E00620B8F1650F814606D098
:10098000B8F1660F18D0B8F1670F70D131E00020D0
:10099000B9F1110F009001DB112301E009F101030E
:1009A0000AAA01A90CA8FFF7E2FEDDE90C700026F7
:1009B00009F10105834647E001204B4600904FF0C6
:1009C00000470AAA01A90CA8FFF7D1FEDDE90DB086
:1009D0000C995D46002610B909F101000D18B9EB1C
:1009E000050003D4C0F1FF3609F10105A5EB0900AC
:1009F0002BE0B9F1010F01DA4FF001090020B9F144
:100A0000110F0090484601DD112300E003460AAAB9
:100A100001A90CA8FFF7ABFEDDE90C704D460026DE
:100A20008346207800070AD4AB4500DA5D4601A86A
:100A3000012D04DD411911F8011C302907D04F4563
:100A400002DA17F1040F04DA012082460FE06D1E6E
:100A5000EEE7002F02DCED1B3E4403E0781CA842C9
:100A600000DD7D1CB81B00F1010A4FF00047207823
:100A7000000703D4AA4501DB4FF0FF3A0021B7F18C
:100A8000004F0DF143088DF8431024D002202B2392
:100A9000002F01DA7F422D230A21021EA0F101005E
:100AA00000DC5FB197FBF1FC97FBF1F201FB1C7CD2
:100AB00017460CF1300C08F801CDEEE7A8F1010063
:100AC00003702188090501D5452100E06521A0F1C9
:100AD000010800F8011C09980FA9A1EB0807FF1DE8
:100AE00000B10120411901EBEA70A1693844081AEC
:100AF000401EA0612078C00602D42046AFF30080DB
:100B0000099828B1D4E901219047206A401C20624D
:100B10002078C00622D52046AFF300801EE0002ECC
:100B200004DBB34502DD01A8805D00E03020D4E99C
:100B300001219047206A401C2062761CAAF1010026
:100B40005FEA000A0AD100F03FF8C0680168405C23
:100B5000D4E901219047206A401C2062281EA5F19B
:100B60000105DCDC07E0D4E9012118F8010B90470E
:100B7000206A401C2062381EA7F10107F3DC2046E2
:100B8000AFF30080032011B041E6000001694A1C68
:100B900002610878704700B58FB0CDE901310021BE
:100BA000059105497944CDE9031011466846FFF7E0
:100BB0005BFC0FB000BD0000E5FFFFFF0A6802F814
:100BC000010B0A60704700000048704710030020C6
:100BD00030B5B0F10A024FEA900E71F100034EEA0F
:100BE000817EB0EB0E0061EB91014FEA101E4EEAE0
:100BF000017E10EB0E0041EB11114FEA102E4EEA70
:100C0000016E10EB0E0041EB11214FEA104E4EEA3F
:100C1000014E10EB0E0041EB1141401841F1000173
:100C20004FEAD00040EA41704FEAD10110EB800555
:100C30004FEA810444EA907444EB01046D1944EBDB
:100C40000404521BA3414FF0000348BF0A3200D5F1
:100C500030BD401C41F1000130BD00002DE9F041E4
:100C60001F46044603260168072A01F4006004DBDE
:100C700008B116A505E016A503E008B115A500E02A
:100C800015A521F010002060A069C01EA0610FB161
:100C9000401EA0612046AFF300804FB1D4E901218E
:100CA00038469047206A401C2062C01C206206E043
:100CB000206AFAE7D4E9012115F8010B9047761E66
:100CC000F8D22046AFF30080BDE8F0814E414E00DF
:100CD0006E616E00494E4600696E66002DE9F04770
:100CE000814616468AB0354878440DC88DE80D0017
:100CF00032487844801C03AC0DC884E80D0041F6EE
:100D00009B300844372190FBF1F290FBF1F5A5F1FF
:100D1000800501FB12041B3C02D56442012000E067
:100D20000020DFF898A080460027FA44AAF1BE0A06
:100D30000EE0E0070AD03246684607EB4701012380
:100D40000AEB810100F006FB8DE8070064107F1CB0
:100D5000002CEED1194F7F44AE3F19E0E80715D0C3
:100D600007EB04100DF1180A90E80E008AE80E0057
:100D7000C068F04201D1981908903246012306A9B3
:100D800003A800F0E7FA03AB83E807006D10641CCA
:100D9000002DE3D14FF0010332466946B8F1000F50
:100DA00003A802D000F0C1FA01E000F0D3FAC9E9CB
:100DB0000001C9F808200AB0BDE8F087707500008E
:100DC00000487047F00200207546FFF7F9FFAE4675
:100DD00005006946534620F00700854618B020B547
:100DE000FFF768FABDE820404FF000064FF000071B
:100DF0004FF000084FF0000B21F00701AC46ACE8C3
:100E0000C009ACE8C009ACE8C009ACE8C0098D462F
:100E1000704710B50446AFF300802046BDE810408F
:100E2000FFF733BA01491820ABBEFEE726000200E7
:100E300070475FEA400C08BF91F0000F4FEA8C2327
:100E40004FEAC12243EA51514FEA1C5018BF00F546
:100E5000F0404FEA300018BF41F000415FEA6C5C9F
:100E600000F02980BCF1FF3F08BF40F08040704790
:100E7000130C06BF12044FF0100C4FF0000C130EB1
:100E800004BF12020CF1080C130F04BF12010CF185
:100E9000040C930F04BF92000CF1020CD30F04BF9B
:100EA00052000CF1010C11464FF00002A0F11F009E
:100EB000A0EB0C00704711F0004F08BF704731F0F5
:100EC00000413FF4D5AF0B0C06BF09044FF0100CE6
:100ED0004FF0000C0B0E04BF09020CF1080C0B0FB5
:100EE00004BF09010CF1040C8B0F04BF89000CF145
:100EF000020CCB0F04BF49000CF1010CCCF1200314
:100F0000A0EB0C0022FA03F302FA0CF241EA03010F
:100F100000F10100704720F07F4C80EA030023F0CD
:100F20007F47ACEB070303F57C5300F0004003F16F
:100F3000FF032DE980494FEA154B09B44FEA1443EA
:100F400025EA0B4E24EA03480FF2042606EB13278A
:100F500049083E785FEA320203FB0667C7F50007DF
:100F600007FB06F64FEA54374FEAD64606F102066B
:100F700007FB066CCCF1005C4FEA1C472CEA074CDF
:100F800007FB06F40CFB06F504EB15464FEA961634
:100F900034BF00204FF000404FEAD13706FB07FC7A
:100FA0004FEA1C4C0CFB0BF7D21B03FB0CF761EB5D
:100FB00007010CFB0EF7B0EB074072EB17420CFB7E
:100FC00008F734BFA2EB0742B2EB074261EB1741CF
:100FD0004FEA0C444FEA910706FB07FC4FEA1C4C12
:100FE0000CFB0BF7B0EBC74072EB573203FB0CF76F
:100FF00034BFA2EBC742B2EBC74261EB57310CFBE7
:101000000EF7B0EBC70072EB57720CFB08F734BF5A
:10101000A2EBC702B2EBC70261EB5771039F4FEA25
:10102000816141EA921104EBCC044FEAD1374FEAD7
:10103000826206FB07FC42EA90124FEA80604FEAA8
:101040001C4C0CFB0BF7D21B03FB0CF761EB0701ED
:101050000CFB0EF7B0EB074072EB17420CFB08F7E6
:1010600034BFA2EB0742B2EB074261EB17414FEAF4
:101070008C554FEA910704EB9C2406FB07FC4FEAD2
:101080001C4C0CFB0BF7B0EBC74072EB573203FB69
:101090000CF734BFA2EBC742B2EBC74261EB57314A
:1010A0000CFB0EF7B0EBC70072EB57720CFB08F7A6
:1010B00034BFA2EBC702B2EBC70261EB577115EB6D
:1010C0004C254FEA816141EA92114FEA82624FEA70
:1010D000D13742EA901206FB07FC44F100044FEAC4
:1010E00080604FEA1C4C0CFB0BF7D21B03FB0CF788
:1010F00061EB07010CFB0EF7B0EB074072EB1742F8
:101100000CFB08F734BFA2EB0742B2EB074261EBDE
:10111000174115EB1C154FEA813141EA92414FEA24
:10112000823242EA90424FEA80304FEA0C7644F134
:10113000000448EA03434EEA0B484FF0000EB2EBBE
:10114000080C71EB030724BF624639464EEB0E0EC6
:101150004FF0000B0018524149414BEB0B0BB2EB27
:10116000080C71EB03077BF1000B24BF6246394684
:101170004EEB0E0E4FF0000B0018524149414BEB65
:101180000B0BB2EB080C71EB03077BF1000B24BFD8
:10119000624639464EEB0E0E51EA020718BF46F082
:1011A000010616EB0E7655F1000254F1000103D54D
:1011B000BDE88901BDE80088BDE88901BDE80048B7
:1011C000B619524141EB0101A3F101037047808040
:1011D0007F7E7D7C7B7A7978777676757473727191
:1011E00071706F6E6E6D6C6C6B6A6A696868676649
:1011F00066656464636362616160605F5F5E5E5DDB
:101200005D5C5C5B5B5A5A5959585857575656554E
:1012100055555454535352525251515050504F4FB0
:101220004F4E4E4D4D4D4C4C4C4B4B4B4A4A4A4900
:101230004949484848474747474646464545454443
:101240004444444343434342424242414141002BD0
:101250009C4630D477002BD01CB54FEA370703B437
:101260004FF010004FF01001BAF1000F06D0BCF1A2
:10127000000FDCBF40F0080040F008014FF0000014
:101280000FBCBDE810400BF1010BBBF1010F08BF13
:101290005FEA170722BF12F1010211F101014FF0BD
:1012A000004143F1000300F0004043EA00007047B2
:1012B000F9D35708D0E746EA064613F1400F4FEA44
:1012C00016461FDD13F1200FDFBF16430A4600212B
:1012D00020335B42BED0C3F1200746EA064602FA3D
:1012E00007F74FEA164646EA0706C3F1200722FA37
:1012F00003F201FA07F721FA03F14FF0000342EA83
:101300000702A7E746EA020646EA06464FEA1646FD
:1013100046EA0106BCBF46EA0646360C4FF000031B
:101320004FF000024FF0000194E72DE9804C9A46FF
:10133000934670B491E8380007C831EA400C48BFC2
:1013400034EA430C03D5FFF7E6FDFFF780FFF0BC5E
:10135000BDE8008C2DE9804C9A46934670B491E824
:10136000380007C810F0804F08BF13F0804F03D13A
:1013700000F005F8FFF76BFFF0BCBDE8008C20F033
:101380007F4780EA030023F07F4C07EB0C03A3F5B3
:101390007C5300F00040A3F1FE0392F0000F00F038
:1013A000B38095F0000F00F077802DE901494FEAF6
:1013B00011404FEA144621EA004800FB06FC24EAEB
:1013C000064708FB06F607FB08F800FB07F718EBD3
:1013D00006484CEB164C4FEA124B18EB07484FEA05
:1013E00015464CEB174022EA0B4E0BFB06FC25EA98
:1013F00006470EFB06F607FB0EFE0BFB07F71EEB80
:10140000064E4CEB164C4FF000061EEB074E4CEB15
:10141000174B18EB0B0840F1000018EB0E0B58EBC4
:10142000000840F100008F1A4FF000013CBFC94393
:10143000661B14BFB5EB040C00213CBFC943F61B6F
:101440004FEA17444EEA8E0E27EA04454FEA1C473E
:1014500004FB07622CEA074C05FB07F70CFB05F6BB
:1014600004FB0CFC16EB074642EB174216EB0C464E
:1014700042EB1C421BEB060658EB0202414146EAD6
:101480009E0601D5BDE80189B619524141EB010123
:10149000A3F10103BDE801894FEA14454FEA114762
:1014A00024EA054621EA074C05FB07F406FB07F78B
:1014B0000CFB06F105FB0CFC11EB074144EB174458
:1014C0004FEA124711EB0C4144EB1C4422EA074C53
:1014D00005FB07F206FB07F70CFB06F605FB0CFC09
:1014E00016EB074642EB174216EB0C4642EB1C4547
:1014F0006A1854F1000148BF7047B619524141EBD8
:101500000101A3F10103704795F0000F37D04FEAB6
:1015100011424FEA144721EA024624EA074C02FB33
:1015200007F106FB07F70CFB06F402FB0CFC14EBBF
:10153000074441EB17414FEA154714EB0C4441EBCC
:101540001C4125EA074C02FB07F506FB07F70CFBDD
:1015500006F602FB0CFC16EB074645EB174516EBAF
:101560000C4645EB1C42121951F1000148BF70476F
:10157000B619524141EB0101A3F1010370474FEA53
:1015800014454FEA114724EA054621EA074C05FBBA
:1015900007F106FB07F70CFB06F24FF0000605FB10
:1015A0000CFC12EB074241EB174112EB0C4251EBE2
:1015B0001C4148BF7047921841EB0101A3F10103A0
:1015C0007047000070B504460068816811F0010F93
:1015D0002DD18168174A11421AD18168D54329401B
:1015E000491C816000F000FE06461BE0816811F096
:1015F000010F03D181682940491C816000F0F4FD8E
:10160000801B02280ED920680068C043C00709D09B
:10161000E06D40F01000E065206E40F001002066B3
:10162000012070BD20680168C943C907DED10020D0
:1016300070BD00003F000080FEE77047002240F6CA
:10164000B83306E00021491C89B29942FBD3521CF1
:1016500092B28242F6D3704772B6FEE770B5134875
:101660001349154CC678134842F2107502680F48AA
:101670008369086896B1012E0FD1066A26F0A0068C
:101680000662B2FBF3F0B4FBF0F000BFB0FBF5F282
:101690000868016A41EA0211016270BD066A26F01B
:1016A000A00606625A43B4FBF2F0EFE70000002008
:1016B000940100209000002000B4C40410B504463A
:1016C00000F066FB204600F025FA05F0EDF99FEDED
:1016D000071B53EC112B05F04DFA9FED061B53EC45
:1016E000112B05F047FA41EC100B10BD66666666DB
:1016F00066660A40000000000000303F2DE9F84F08
:1017000000270446009790F85800DFF8D8930D465C
:10171000B846012811D0012684F85860206802F0EC
:1017200087FE60B1E06D40F02000E0655FF00107EA
:1017300084F858803846BDE8F88F0220FBE7D5E9E9
:1017400000210C23206803EA91131844036B01F075
:101750001F014FF01F0C0CFA01FCC2F3846223EA54
:101760000C038A4013430363206802F061FE824643
:10177000206802F059FE5AEA00003CD1AA682968A4
:101780002068B2F1004F37D002F056FE2068416960
:1017900021F00041416120686969C268C2F3C10259
:1017A000520091402A69042A31D000EB82002B6854
:1017B000026EDFF834C303F0F84302EA0C020B4375
:1017C0001A4342F00041016620682A69A96900EBCA
:1017D0008200026E22F080720A430266297F22682C
:1017E0002869012910D0002102EB8000026E22F04E
:1017F00000720A4302667DE0002202F01DFE2068AE
:10180000416941F00041C5E74FF00071ECE700216C
:1018100002F004FE400320684FF0000172D002F095
:10182000FDFD90FAA0F0B0FA80F1286842036ED076
:1018300090FAA0F0B0FA80F0814204D10022114663
:10184000206802F008FE0121206802F0E7FD400355
:1018500020684FF001015DD002F0E0FD90FAA0F0A9
:10186000B0FA80F12868420359D090FAA0F0B0FA9B
:1018700080F0814204D100220121206802F0EBFDBA
:101880000221206802F0CAFD400320684FF00201E7
:1018900048D002F0C3FD90FAA0F0B0FA80F12868B9
:1018A000420344D090FAA0F0B0FA80F0814204D113
:1018B00000220221206802F0CEFD0321206802F000
:1018C000ADFD400320684FF0030133D002F0A6FDC8
:1018D00090FAA0F0B0FA80F1286842032FD090FA75
:1018E000A0F0B0FA80F0814204D1002203212068E8
:1018F00002F0B1FD2068816811F0010F22D0A8E04C
:1019000000E004E002F08AFDC0F384618DE7C0F3DB
:10191000846091E702F082FDC0F38461A2E7C0F326
:101920008460A6E702F07AFDC0F38461B7E7C0F3F4
:101930008460BBE702F072FDC0F38461CCE7C0F3C2
:101940008460D0E7EB6829684B4550F8B03FC1F39D
:10195000120101D10B4300E08B430360E868484566
:1019600077D1286841031CD090FAA0F1B1FA81F137
:10197000491C01F01F0109294FEA403132D80029E2
:1019800012D000BF90FAA0F1B1FA81F101F101018A
:1019900001F01F0106FA01F609D100BFC0F384610E
:1019A00009E0C0F38461E3E7C0F38461EEE790FAF5
:1019B000A0F1B1FA81F101F1010101F01F0146EA44
:1019C000816102D1C0F3846003E090FAA0F0B0FA24
:1019D00080F000F1010000F01F0000EB400041EA40
:1019E000005132E000290ED090FAA0F1B1FA81F155
:1019F00001F1010101F01F0106FA01F606D100BF55
:101A0000C0F3846106E0C0F38461F1E790FAA0F1CD
:101A1000B1FA81F101F1010101F01F0146EA816192
:101A200002D1C0F3846003E090FAA0F0B0FA80F035
:101A300000F1010000F01F002C4A00EB400002EB17
:101A4000005041EA000141F00071AA68206802F0EC
:101A5000F3FC27482A6802423FF46AAE25488168B1
:101A6000254B01F0E0719A4202D0244B9A421CD1DE
:101A70000B021AD42268B2F1A04F7FF459AE8268EB
:101A800041F4000122F0E0720A4382601C481D49C3
:101A90000068B0FBF1F0401C00EB4000800000E06B
:101AA000401E00900028FBD142E6174D174BAA427A
:101AB00007D1CD0105D422689A42F5D041F080715A
:101AC00009E0134DAA42EFD14A02EDD422689A42AE
:101AD000EAD041F48001826822F0E0720A43826019
:101AE00026E6000000007F4000F0FF03000020FE1B
:101AF0000000088000030050000021C31000C090C7
:101B00007C000020400D0300000052C7000100507F
:101B1000000084CB0068006C70470000F8B54FF0FF
:101B2000000504002E46009502D0E06D10B107E0DC
:101B30000120F8BD204600F0EFF8266684F85860D2
:101B400020688168C1F3407119B181686A4A114007
:101B5000816020688168C1F3007189B98168674A32
:101B6000114041F080518160654866490068B0FBD2
:101B7000F1F04000801C00E0401E00900028FBD1E6
:101B800020688168C1F3007141B9E16D41F0100135
:101B9000E165216E41F001012166012502F048FC5A
:101BA000E16DC90600D430B1E06D40F01000E06591
:101BB00001252846F8BDE06D20F4807040F0020059
:101BC000E0652068806810F0010F11D14FF0A0404F
:101BD00080684D4900F00100896801F00101084367
:101BE00006D14A486168826822F47C120A43826006
:101BF000E168E06B627F0843A16841EA4231084333
:101C000094F8241040EA0140012904D1218D404A72
:101C100002EB41410843E16A29B101F47871226B7A
:101C2000014342EA01002168CA683A4B1A40024364
:101C3000CA6020680169626B21F040611143016153
:101C4000206802F0F5FB0646206802F0EDFB304309
:101C50002ED1207F94F83810800340EA410220689A
:101C6000C16844F2020399431143C160206900280E
:101C7000206801690AD041F480310161206850F880
:101C8000C01F22696FF30D01114307E021F4803179
:101C90000161206850F8C01F6FF30D01016094F8D6
:101CA000400001280CD02068016921F00101016188
:101CB000606901282068016B21F00F0111D013E049
:101CC000D4E911010843D4E91312114308432168F0
:101CD0000A6940F2FC739A43104340F00100086126
:101CE000E6E7226A521E11430163E06D20F0020014
:101CF00040F00100E0655CE7C0FFFF5FC0FFFF7FD1
:101D00007C000020400D0300000100500003005043
:101D10000000FEFF0740F0FF10B598B00446142104
:101D200011A8FEF75FFC44216846FEF75BFC1649EC
:101D30002068884225D1C001009080030F9068463A
:101D400000F050FB08B1FFF787FC1048C16C41F46C
:101D50000051C164C16C01F400511691C16C41F095
:101D60000101C164C06C11A900F00100169030207F
:101D7000119003201290002013904FF0904000F03B
:101D800005F918B010BD000000010050001002401D
:101D90002DE9F04104463848806800F01F052068AE
:101DA00002F046FB18B102210846BDE8F08194F824
:101DB000580001280CD0012084F858002046FFF775
:101DC00001FC01004FF0000304D084F85830EBE729
:101DD0000220EAE7E06D40F60162904340F4807033
:101DE000E065264A20684FF0A046904201D1374670
:101DF00000E00746874200D01DB9E76D27F4801741
:101E0000E765E76DFF0404D5276E27F00607276610
:101E100000E023661C27076084F858302068904251
:101E200001D1334600E00346834215D0A5B1052D0C
:101E300012D0092D10D0E36D43F48013E365904276
:101E400000D13046C0688001AED5E06D20F400506E
:101E500040F48050E065A7E7C268920105D5E26DC5
:101E600022F4005242F48052E2658268044B1A4028
:101E7000121D826098E7000000030050000100502E
:101E8000C0FFFF7F10B590F8253000210122022B02
:101E900003D00421C163012122E003681C6824F0FF
:101EA0000E041C60836C1C6824F480741C6003683E
:101EB0001C6824F001041C6090F84430046C03F0AA
:101EC0001F0302FA03F36360D0E913345C60436DCF
:101ED00033B11C6824F480741C60D0E916345C6053
:101EE00080F82520002280F82420084610BD70B517
:101EF00090F82520002401212346022A07D004223D
:101F0000C26380F8251080F82430012429E002689B
:101F1000156825F00E0515600268156825F00105A5
:101F20001560826C156825F48075156090F8442062
:101F3000056C02F01F0201FA02F26A60D0E9132573
:101F40005560426D32B1156825F480751560D0E991
:101F50001625556080F8251080F82430816B01B17A
:101F60008847204670BD000070B5044600F03CF97B
:101F70000546601C02D004484068044400F034F96F
:101F8000401BA042FAD370BD700000202DE9F04F35
:101F9000DFF82092002301260324A9F1040B85B069
:101FA0000F2709F1040AABF1040EFAE006FA03F573
:101FB0002A407CD091F804C00CF0030CBCF1010F56
:101FC00002D0BCF1020F26D1D0F808C0CDF800C075
:101FD0004FEA430C04FA0CF8CDF810C0DDF800C04D
:101FE0002CEA080CCDF800C0D1F80C80DDF810C048
:101FF00008FA0CF8DDF800C048EA0C08C0F80880C0
:10200000D0F804C02CEA050C0D79C5F300159D40ED
:1020100045EA0C0545600D79ED43AD070ED0C56866
:102020004FEA430804FA08FC25EA0C05D1F808C079
:102030000CFA08FC4CEA050CC0F80CC00D7905F050
:102040000305022D16D1DD0800EB850CCDF808C084
:10205000DCF820805D074FEAD56C07FA0CF528EA1A
:1020600005080D6905FA0CF5DDF808C045EA080514
:10207000CCF8205005684FEA430CCDF808C004FAAC
:102080000CFC25EA0C0591F804C00CF00308DDF8FF
:1020900008C008FA0CF848EA0508C0F800804D6846
:1020A00015F4403F7CD0444DD5F860C000E077E0A7
:1020B0004CF0010CC5F860C02D6E23F0030C05F048
:1020C000010500953D4D65440295AD684FEA837C5E
:1020D0004FEA1C7807FA08FC25EA0C05B0F1904F8E
:1020E00006D0DFF8DCC0604505D14FF0010C20E0E0
:1020F0004FF0000C1DE0DFF8CCC0604502D14FF07E
:10210000020C16E0DFF8C0C0604502D14FF0030CAE
:102110000FE0DFF8B8C0604502D14FF0040C08E0D2
:10212000DFF8ACC0604502D14FF0050C01E04FF084
:10213000060C0CFA08FC4CEA050C029DC5F808C018
:10214000D9F80050CC46D1F8048095435FEAC828FE
:1021500000D51543CCF80050DAF80050D446D1F839
:10216000048095435FEA882800D51543CCF80050D9
:10217000DBF80050DC46D1F8048095435FEA8838EC
:1021800000D51543CCF80050DEF80050F446D1F8E5
:10219000048095435FEAC83800D51543CCF8005059
:1021A0005B1C0A6832FA03F57FF400AF05B0BDE8A6
:1021B000F08F0000080401400010024000000140C0
:1021C0000004004800080048000C004800100048C7
:1021D000001400480069084000D0012070470AB18F
:1021E00081617047816270470148806870470000D4
:1021F0007000002002488168426811448160704785
:102200007000002010B50024032000F073F80F20A8
:1022100000F008F808B1012401E000F025F820469C
:1022200010BD000070B50E4E05460024706898B1D0
:102230004FF47A71B1FBF0F00A490968B1FBF0F094
:1022400000F064FD40B9102D06D200222946501E30
:1022500000F030F8356000E00124204670BD000039
:10226000700000207C0000200A4882B0016E41F01E
:1022700001010166016E01F001010091816D41F0E3
:1022800080518165806D00F08050009002B000F0B8
:10229000A1B8000000100240002809DB00F01F0276
:1022A000012191404009800000F1E020C0F80011B8
:1022B00070470000F0B40E4B1B680C46C3F30223BA
:1022C000C3F10705042D00D90425191D072901D2E2
:1022D000002300E0DB1E012606FA05F1491E21401D
:1022E00099409E40761E16403143F0BC03F095BCE9
:1022F0000CED00E0064900F0070208684FF6FF0306
:10230000184040EA0220034A10430860704700006A
:102310000CED00E00000FA052B492C4B0A68322135
:102320004A432B4940B1B0F5007F086829D020F41A
:10233000C06040F480602CE00868C0F341200228AF
:1023400004D051F8800F20F4807022E0D1F8800092
:1023500020F48070C1F88000086820F4C06040F468
:1023600000700860B2FBF3F0401C00E0401E4A69B8
:10237000520501D50028F9D1486940050AD5032046
:102380007047C0F34120022806D051F8800F40F476
:102390008070086000207047D1F8800040F48070A1
:1023A000C1F88000086820F4C06040F40070086044
:1023B000B2FBF3F0401C00E0401E4A695205DBD539
:1023C0000028F9D1D8E700007C00002040420F002F
:1023D000007000400248816841F48041816070478C
:1023E000007000402DE9F8430446006800269D4D2A
:1023F00000035ED5A86D0027C00008D4A86D40F08A
:102400008050A865A86D012700F080500090DFF88B
:102410005892D9F8001041F48071C9F80010FFF704
:10242000E3FE804606E000BFFFF7DEFEA0EB0800FB
:1024300002282BD8D9F80000C005F5D5D5F89000B2
:1024400010F4407014D0216C814211D0D5F8900066
:10245000D5F8901020F4407041F48031C5F8901008
:10246000D5F8901021F48031C5F89010C5F890008F
:10247000C00711D0FFF7B8FE804641F2883907E067
:10248000FFF7B2FEA0EB0801494501D903260BE096
:10249000D5F890008007F3D5D5F89000216C20F492
:1024A00040700843C5F890001FB1A86D20F080501F
:1024B000A8652078C00707D0D5F88800616820F0AB
:1024C00003000843C5F888002078800707D5D5F8B1
:1024D0008800A16820F00C000843C5F88800207827
:1024E000400707D5D5F88800E16820F030000843A0
:1024F000C5F888002078000707D5D5F8880021693D
:1025000020F0C0000843C5F888002078800607D571
:10251000D5F88800616920F440600843C5F8880058
:102520002078400607D5D5F88800A16920F44050EE
:102530000843C5F888002078000607D5D5F888003C
:10254000E16920F440400843C5F888002088C005B0
:1025500007D5D5F88800216A20F440300843C5F833
:1025600088002088800507D5D5F88800616A20F4A6
:1025700040200843C5F88800208840050FD5D5F8CD
:102580008800A16A20F440100843C5F88800A06ABA
:10259000B0F5801F03D1E86840F48010E86020881F
:1025A00000050FD5D5F88800E16A20F44000084303
:1025B000C5F88800E06AB0F5800F03D1E86840F400
:1025C0008010E8602088C0040FD5D5F88800216B02
:1025D00020F040700843C5F88800206BB0F1807F80
:1025E00003D1E86840F48010E86020884FF0006173
:1025F00080040ED5D5F88800626B20F0406010434F
:10260000C5F88800606B884203D1E86840F4801008
:10261000E860208840040ED5D5F88800A26B20F031
:1026200040601043C5F88800A06B884203D1E86879
:1026300040F48010E860208800040FD5D5F88800A9
:10264000E16B20F040500843C5F88800E06BB0F122
:10265000805F03D1E86840F48030E8603046BDE830
:10266000F883000000100240007000402DE9F047A0
:102670000E4605004FF0000725D0DFF8AC81D8F8F2
:10268000000000F00F00B0420CD2D8F8001021F08A
:102690000F013143C8F80010D8F8000000F00F0017
:1026A000B04210D12968614CC80741F2883A5AD02B
:1026B0006868DFF87C91032808D0022820682DD0B4
:1026C000400500282CDB0120BDE8F0872068800150
:1026D000F9D5E06800F00302E068C0F30310401C85
:1026E000032A19D0534A00BFB2FBF0F0E268C2F3EC
:1026F00006225043E268C2F34162521C5200B0FB12
:10270000F2F0484517D9A06810F0F00F0CD08807F8
:1027100011D5A86840B10EE0474AE5E78003D0E74D
:1027200000F0B6F8484506D9A06820F0F00040F067
:102730008000A0608027A068696820F0030008433B
:10274000A060FFF751FD814606E000BFFFF74CFD9A
:10275000A0EB090151453AD8A068696800F00C0067
:10276000B0EB810FF2D12868810714D5400703D55B
:10277000A06840F4E060A0602878000705D5A06854
:1027800020F4605040F4E060A060A068A96820F0E8
:10279000F000084304E0802F03D1A06820F0F0008F
:1027A000A060D8F80010404601F00F01B14216D9E0
:1027B000016821F00F0131430160FFF715FD074665
:1027C00007E000BFFFF710FDC11B514501D90320F1
:1027D0007AE7D8F8000000F00F00B042F2D1287874
:1027E000400705D5A068E96820F4E0600843A060D0
:1027F0002878000706D5A068296920F4605040EACF
:10280000C100A06000F044F8A1680C4AC1F30311B4
:10281000515C01F01F01C84009490860094800687F
:10282000BDE8F047FFF7FEBC002002400010024068
:1028300000B4C4040024F40000366E01E66F000802
:102840007C00002070000020054806490068896867
:10285000054AC1F30221515C01F01F01C8407047D5
:102860007C00002000100240F66F00080548064971
:1028700000688968054AC1F3C221515C01F01F015B
:10288000C84070477C00002000100240F66F00082E
:10289000184910B58868C0F381021748012A0BD087
:1028A0008A68164BC2F38102022A06D08A68C2F3F4
:1028B0008102032A03D0002010BD184610BDCA684B
:1028C00002F00304CA68C2F30312521C032C02D0A4
:1028D000B0FBF2F001E0B3FBF2F0CA68C968C2F3E2
:1028E00006225043C1F34161491C4900B0FBF1F09D
:1028F00010BD0000001002400024F40000366E01FC
:102900002DE9F84304007AD02078FA4DC00747D06B
:10291000A868E96800F00C0001F003010C2802D05F
:10292000082817D001E0032914D06068B0F5803F73
:1029300017D0B0F5A02F286817D020F48030286079
:10294000286820F4802028606068E0B1FFF74CFC24
:10295000064614E02868800322D560680028D2D09B
:102960001EE0286840F48030EDE740F480202860C5
:10297000F7E700BFFFF738FC801B642870D8286891
:102980008003F7D50CE0FFF72FFC064605E000BFFB
:10299000FFF72AFC801B6428F0D828688003F7D44E
:1029A000207880074CD5A868E96800F00C0001F099
:1029B00003010C2802D004280DD001E002290AD01E
:1029C000E068002828682BD040F480702860FFF76A
:1029D0000BFC064619E02868400502D5E06800288F
:1029E00091D06868217C20F0FE4040EA0160686078
:1029F000C1480068FFF716FC002800D120E076E10E
:102A0000FFF7F2FB801B0228B8D828684005F7D5ED
:102A10006868217C20F0FE4040EA016068600FE0B9
:102A200020F480702860FFF7DFFB064605E000BF5A
:102A3000FFF7DAFB801B0228A0D828684005F7D4EE
:102A40002078000729D560690028D5F8940013D0B4
:102A500040F00100C5F89400FFF7C6FB064606E00B
:102A600090E000BFFFF7C0FB801B022886D8D5F896
:102A700094008007F6D510E020F00100C5F894001E
:102A8000FFF7B2FB064604E0FFF7AEFB801B02280F
:102A900078D8D5F894008007F6D42078400761D51F
:102AA000A86D0026C00008D4A86D40F08050A8652D
:102AB000A86D012600F08050009090480168C9057B
:102AC00011D40168804641F480710160FFF78CFBEE
:102AD000074604E0FFF788FBC01B022852D8D8F84D
:102AE0000000C005F6D5A068012815D00528D5F846
:102AF000900016D020F00100C5F89000D5F89000A5
:102B000020F00400C5F89000A06841F28838B8B100
:102B1000FFF76AFB07460EE0D5F8900040F0010091
:102B2000F0E740F00400C5F89000F5E7FFF75CFB24
:102B3000C11B414526D8D5F890008007F6D50CE09A
:102B4000FFF752FB074604E0FFF74EFBC11B414570
:102B500018D8D5F890008007F6D41EB1A86D20F0E3
:102B60008050A8652078800629D5A0690028D5F86E
:102B7000980013D040F00100C5F89800FFF734FB2F
:102B8000064606E077E000BFFFF72EFB801B022819
:102B900077D8D5F898008007F6D510E020F001002E
:102BA000C5F89800FFF720FB064604E0FFF71CFB82
:102BB000801B022865D8D5F898008007F6D4E06914
:102BC000F0B3A968C1F38101032961D00228286804
:102BD00020F0807028600BD0E86820F00300E860E7
:102BE000E86847490840E860FFF7FEFA04464BE012
:102BF000FFF7FAFA064604E0FFF7F6FA801B022810
:102C00003FD828688001F7D4F4E908016FF00F027B
:102C100002EB01110843218A5204490802EB415199
:102C2000A26841EA02210843217D4FF07E42490813
:102C300002EB41610843217B40EAC160E96800E0A2
:102C400062E0304A11400843E860286840F0807034
:102C50002860E86840F08070E860FFF7C5FA044635
:102C600005E000BFFFF7C0FA001B022809D828685A
:102C70008001F7D548E004E0FFF7B6FA001B022810
:102C800002D90320BDE8F88328688001F4D43BE032
:102C90000128F7D0E868226A00F00301914226D1AA
:102CA000616A00F0F0020901103991421FD1A26A55
:102CB00000F4FE41B1EB022F19D194F82C2000F062
:102CC0007841B1EBC26F12D1218E00F4C0024908E5
:102CD0004905A1F50011914209D194F8341000F092
:102CE000C06049084906A1F1007181420CD0012061
:102CF000C8E7000000100240700000200070004093
:102D0000FFFFEEFE0C809F010020BBE710B5401EC8
:102D1000B0F1807F01D3012010BD4FF0E02460614D
:102D20000F21601702F079FF0020A06107202061C9
:102D3000002010BD7047704770477047704770475C
:102D4000F0B590F83C20012A3AD0012580F83C509B
:102D5000022280F83D2003685A689C68194E1A4F79
:102D6000B34201D0BB4204D122F4700C4A6842EA5B
:102D70000C02DFF858C002EA0C02D1F800C04CEA9D
:102D8000020CC3F804C00268B2420DD0B2F1804F09
:102D90000AD00F4B9A4207D00E4B9A4204D0BA4247
:102DA00002D00D4B9A4204D1896824F08003194364
:102DB000916080F83D50002180F83C100846F0BD3D
:102DC0000220F0BD002C0140003401408FFFFFFDC8
:102DD000000400400008004000400140704710B56A
:102DE000040003D094F83D0010B107E0012010BDAD
:102DF000002084F83C00204600F022F8022084F8ED
:102E00003D00211D206801F037FF012084F84800B3
:102E100084F83E0084F83F0084F8400084F84100C4
:102E200084F8420084F8430084F8440084F84500A4
:102E300084F8460084F8470084F83D00002010BD67
:102E400010B586B0044614216846FDF7CBFB216817
:102E50002448B1F1804F0CD0234A91422DD1816D8D
:102E600041F002018165806D00F00200059006B01E
:102E700010BD816D41F001018165816D01F001019D
:102E80000591C16C41F00101C164C06C694600F05C
:102E90000100059002200090019000200290039014
:102EA000012004904FF09040FFF770F80022114687
:102EB0001C20FFF7FFF91C2010E00C4A9142D6D1EC
:102EC000816D41F004018165806D002200F00400F5
:102ED000059011461E20FFF7EDF91E20FFF7DCF9E3
:102EE000C5E7000000100240000400400008004058
:102EF00090F83D10012901D001207047022180F88F
:102F00003D100168CA6842F00102CA6000681049B9
:102F100088420ED0B0F1804F0BD00E49884208D0C5
:102F20000D49884205D00D49884202D00C4988429B
:102F300007D181680B4A1140062906D0B1F5803FC0
:102F400003D0016841F001010160002070470000DA
:102F5000002C014000040040000800400034014003
:102F6000004001400700010070B5044690F83C00A5
:102F70000025012814D0012684F83C60022084F842
:102F80003D0022689068364B184020F47F409060E6
:102F9000086870282ED010DC10F00F0F03D021E04D
:102FA0004FF0020070BD4FEA2012072A1AD2DFE864
:102FB00002F0525252524A3840002A4BC21A9842EA
:102FC00049D009DCB0F5805F0DD0B0F5005F1CD0B2
:102FD000B0F1101F06D13EE0102A3CD0202A3AD092
:102FE000502A38D0012584F83D60002084F83C0048
:102FF000284670BDCB68D1E90121206801F0A1FE0F
:103000002068816841F0770109E0CB68D1E90121AE
:10301000206801F096FE2068816841F4804181605B
:10302000E1E7CA684968206802F036F85021206854
:1030300006E0CA684968206802F076F860212068D6
:1030400001F08AFECFE7CA684968206802F024F8D8
:1030500040212068F4E7226801461046F0E70000AE
:1030600088FFCEFF2000100010B50168B1F1804F3D
:1030700027D1017F022924D1124C217859B101298D
:103080001FD1042100F034FC2061E168884209D995
:10309000A0EB01000AE04FF0040100F029FCE06021
:1030A00001200DE004D26FEA01010844606102E0F2
:1030B000FEF7D2FA60690449B1FBF0F0A06000208D
:1030C000207010BD8800002040420F002DE9F04123
:1030D000054690F83C0000260C46012810D001203F
:1030E00085F83C0072B1042A1CD0082A2CD00C2A86
:1030F00050D00126002085F83C003046BDE8F08124
:103100000220FBE7D4E90012E368286801F0D6FF4B
:103110002868816921F00C01816128688169A268B1
:1031200011430FE0D4E90012E368286802F00EF8BA
:103130002868816921F44061816128688169A268F9
:1031400041EA02218161D5E72868D4E9002C277B78
:10315000016A21F480710162C169036A21F00301EF
:1031600041EA0C0121F0F00C39074FF420674CEADA
:10317000116123F4206307EA02221A43C16102624B
:103180002868C16921F00C01C1612868C169A26881
:10319000114328E02868D4E90027E168036A23F492
:1031A00080530362D0F81CC0036A2CF4407C4CEAC4
:1031B00007274FF6FF7C27F470470CEA01313943AB
:1031C0004FF4204723F4204307EA02321A43C16137
:1031D00002622868C16921F44061C1612868C1693F
:1031E000A26841EA0221C16184E710B5040003D05E
:1031F00094F83D0010B107E0012010BD002084F8D4
:103200003C00204600F022F8022084F83D00211DF9
:10321000206801F031FD012084F8480084F83E0068
:1032200084F83F0084F8400084F8410084F84200AC
:1032300084F8430084F8440084F8450084F846008C
:1032400084F8470084F83D00002010BD704700005E
:1032500030B50446002571B1042911D0082914D0D5
:103260000C2917D0102918D094F8430094F847205F
:10327000012817D114E094F83E0094F84420F7E7B1
:1032800094F83F0094F84520F2E794F8400094F851
:103290004620EDE794F84100E8E794F84200E5E7BE
:1032A000012A01D0012030BD022079B1042916D0B5
:1032B00008291DD00C2949D010294AD084F8430090
:1032C00084F847000C2947D001253DE084F83E00F2
:1032D00084F844002068C26842F0020210E084F8DA
:1032E0003F0084F845002068C26842F0040207E00D
:1032F00084F8400084F846002068C26842F0080262
:10330000C2600122206801F00FFD16492068884242
:103310000ED0B0F1804F0BD01349884208D013492A
:10332000884205D01249884202D01249884207D10A
:103330008168114A1140062906D0B1F5803F03D0BB
:10334000016841F001010160284630BD84F8410068
:10335000B6E784F84200B3E72068C26842F0100282
:10336000CEE70000002C01400004004000080040AF
:1033700000340140004001400700010070B50446E0
:10338000006801694FF00005C943890715D4C16879
:10339000C943890711D4E91E016101202077206803
:1033A00080698007204602D0FFF75EFE04E000F04F
:1033B0000BF9204600F0CDF9257720680169C94353
:1033C000490717D4C168C943490713D46FF00401F2
:1033D0000161022020772068806910F4407F204638
:1033E00002D0FFF741FE04E000F0EEF8204600F0C6
:1033F000B0F9257720680169C943090716D4C16867
:10340000C943090712D46FF0080101610420207735
:103410002068C0698007204602D0FFF725FE04E03F
:1034200000F0D2F8204600F094F925772068016971
:10343000C943C90617D4C168C943C90613D46FF07C
:1034400010010161082020772068C06910F4407FD6
:10345000204602D0FFF708FE04E000F0B5F8204651
:1034600000F077F9257720680169C943C90708D1B9
:10347000C168C943C90704D1891E0161204600F013
:10348000E7F920680169C943090609D4C168C9433D
:10349000090605D46FF0800101612046FFF74BFC5F
:1034A00020680169C943C90509D4C168C94309062F
:1034B00005D46FF4807101612046FFF73BFC206862
:1034C0000169C943490609D4C168C943490605D4FD
:1034D0006FF040010161204600F01FFA2068016989
:1034E000C943890609D4C168C943890605D46FF068
:1034F000200101612046FFF71FFC20680169C943D4
:10350000C90209D4C168C943C90205D46FF4801146
:1035100001612046FFF712FC20680169C943890256
:1035200009D4C168C943890205D46FF4001101614F
:103530002046FFF702FC20680169C943490209D40B
:10354000C168C943490205D46FF480010161204676
:10355000FFF7F5FB20680169C94309020BD4C16874
:10356000C943090207D46FF4000101612046BDE898
:103570007040FFF733BC70BD10B586B0044614210F
:103580006846FDF72FF80E492068884215D10D488E
:10359000C16C41F00101C164C06C002100F0010068
:1035A0000590802000900220CDE90101CDE90310B3
:1035B00069464FF09040FEF7E9FC06B010BD0000F0
:1035C0000004004000100240704770B5044690F8B7
:1035D0003C0000260D4601280BD0012084F83C0059
:1035E0000C2A4AD007DC82B1042A20D0082A06D14E
:1035F00031E0022070BD102A53D0142A63D0012676
:10360000002084F83C00304670BD206801F0AEFB1D
:103610002068816941F0080181612068816921F099
:1036200004018161206881692A69114311E02068E1
:1036300001F0EAFB2068816941F400618161206842
:10364000816921F480618161206881692A6941EA88
:1036500002218161D4E7206801F01EFC2068C16965
:1036600041F00801C1612068C16921F00401C16114
:103670002068C1692A69114311E0206801F054FCF7
:103680002068C16941F40061C1612068C16921F409
:103690008061C1612068C1692A6941EA0221C16172
:1036A000AEE7206801F088FC2068016D41F0080158
:1036B00001652068016D21F0040101652068016D3C
:1036C0002A69114311E0206801F0AEFC2068016D09
:1036D00041F4006101652068016D21F4806101659C
:1036E0002068016D2A6941EA0221016588E710B569
:1036F000040003D094F83D0010B107E0012010BD94
:10370000002084F83C00204600F022F8022084F8D3
:103710003D00211D206801F0AFFA012084F8480027
:1037200084F83E0084F83F0084F8400084F84100AB
:1037300084F8420084F8430084F8440084F845008B
:1037400084F8460084F8470084F83D00002010BD4E
:103750007047704730B50446022269B1042912D07F
:10376000082917D00C291CD0102921D094F8430027
:10377000012824D0012030BD94F83E000128F9D161
:1037800084F83E201DE094F83F000128F2D184F82F
:103790003F2016E094F840000128EBD184F8402047
:1037A0000FE094F841000128E4D184F8412008E0BA
:1037B00094F842000128DDD184F8422001E084F829
:1037C00043200122206801F0AFFA194B2068194903
:1037D000194A984209D0884207D0904205D0174D27
:1037E000A84202D0164DA84203D1456C45F40045CD
:1037F0004564206898420CD0B0F1804F09D0114B3D
:10380000984206D0104B984203D0884201D0904293
:1038100007D181680D4A1140062906D0B1F5803FD5
:1038200003D0016841F001010160002030BD0000BB
:10383000002C0140003401400040014000440140A0
:10384000004801400004004000080040070001005B
:1038500070B500682049884233D1204D01212846A7
:10386000FEF7B8FC00B101201D4C02212070284653
:10387000FEF7B0FC00B10120607104212846FEF77C
:10388000A9FC00B10120A07201214FF09040FEF789
:10389000A1FC00B10120E07302F038FB114801786F
:1038A0001148012903D0017801F0FB0108E00F491C
:1038B0004A68521C4A60642A04D8017841F0040125
:1038C000017070BD0378C82A03F0FB030370F8D1C0
:1038D0000020486070BD000000080040000400485F
:1038E000DA020020040000200000002088000020F0
:1038F0000246002041B1042909D008290AD00C2928
:1039000001D11068006C70471068406B70471068F8
:10391000806B70471068C06B7047704790F88010DC
:10392000012918D0012180F880102421C0F88410CA
:1039300050F8641B0A680B6823F001030B6022F047
:1039400000510022026050F8643C1960202101629D
:10395000027710467047022070477047704770B575
:10396000044690F8800001281DD0012084F88000D2
:103970002420C4F8840020680568026822F001024F
:1039800002602068826822F060620A4382602046FA
:1039900001F0F8FB206805602020C4F884000020B6
:1039A00084F8800070BD022070BD70B5044690F8A8
:1039B000800001281DD0012084F880002420C4F854
:1039C000840020680568026822F001020260206815
:1039D000826822F060420A438260204601F0D2FBF6
:1039E000206805602020C4F88400002084F880004E
:1039F00070BD022070BD7047704770472DE9F041DF
:103A000003680446D86919689A6840F60F05284289
:103A10004FF0000509D186067ED501F0200602F0A0
:103A200080573E4378D0216F27E1A94EA94F164019
:103A30000F40374370D0C70709D0CF0507D50127FE
:103A40001F62D4F88C3043F00103C4F88C30830734
:103A50000AD5D30708D0276802233B62D4F88C30FC
:103A600043F00403C4F88C3043070AD5D30708D0C9
:103A7000276804233B62D4F88C3043F00203C4F877
:103A80008C3003070CD501F02003334308D026689F
:103A900008233362D4F88C3043F00803C4F88C3028
:103AA00003050BD54B0109D526684FF4006333623B
:103AB000D4F88C3043F02003C4F88C30D4F88C3028
:103AC000002B3AD0800609D501F0200002F0805189
:103AD000084303D0216F09B120468847D4F88C00F1
:103AE00021688968490602D410F0280F27D02046A3
:103AF00001F008FC2068806840061BD5206808306B
:103B000050E8001F21F0400140E80012002AF5D1E2
:103B1000E06F78B1704900E017E08163E06FFEF775
:103B2000E6F9002809D0E06F816B00E02046BDE88F
:103B3000F04108472046FFF760FFBDE8F0812046CE
:103B4000FFF75BFFC4F88C50F7E7E76E2026012FE4
:103B50007ED1C7067CD5CF067AD5102018622068A2
:103B60008068400642D5E16F086840680004000C98
:103B7000E3D0B4F85C208242DFD9A4F85E00086884
:103B8000006880062BD4206850E8001F21F4807163
:103B900040E80012002AF6D12068083050E8001FE3
:103BA00021F0010140E80012002AF5D12068083018
:103BB00050E8001F21F0400140E80012002AF5D132
:103BC000C4F88860E566216851E8000F20F0100015
:103BD00041E80002002AF6D1E06FFEF753F9B4F88D
:103BE0005C00B4F85E10401A81B22CE0B4F85C00BE
:103BF000B4F85E10401A81B2B4F85E0000289CD080
:103C000000299AD0226852E8000F20F4907042E810
:103C10000003002BF6D12E4BDB432068083050E820
:103C2000002F1A4040E80027002FF6D1C4F8886022
:103C3000E5662567226852E8000F20F0100042E890
:103C40000003002BF6D12046FFF787FE75E7FFE75C
:103C5000C70209D5570207D54FF4801018622046D5
:103C6000BDE8F041FFF7C8BE03060AD501F08003A6
:103C700002F40002134304D0616F00297FF456AFB1
:103C80005BE7420611D54A060FD52046016851E888
:103C9000002F22F0400241E80023002BF6D1C0F8AB
:103CA0008460456700F030F947E7020206D54A0014
:103CB00004D52046BDE8F041FFF79DBEC001C5D543
:103CC0000029C3DA2046BDE8F041FFF747BE0000F7
:103CD0000100001020010004F152000810B504009A
:103CE00003D0D4F8840010B107E0012010BD0020FB
:103CF00084F88000204600F027F82420C4F88400CF
:103D00002068016821F001010160204601F03CFDBE
:103D10000128EBD0A06A10B1204601F055FA2068C6
:103D2000416821F4904141602068816821F02A01B6
:103D300081602068016841F0010101602046BDE812
:103D4000104001F0A5BA000010B598B00446142147
:103D500011A8FCF747FC44216846FCF743FC1B49CB
:103D60002068884230D101200024CDE90004684653
:103D7000FEF738FB08B1FDF76FFC1548016E41F402
:103D800080410166016E01F480411691C16C41F0E1
:103D90000101C164C06C11A900F0010016904FF43C
:103DA000C06011900220CDE912040720CDE9144033
:103DB0004FF09040FEF7EAF8002211462520FEF76A
:103DC00079FA2520FEF768FA18B010BD00380140D6
:103DD0000010024030B4D0F88830202B20D1E1B15F
:103DE000DAB190F88030012B1AD0012380F88030AE
:103DF0000023C3660B4C0368A3420BD05B681B0215
:103E000008D5046854E8003F43F0806344E8003577
:103E1000002DF6D130BC01F0F1BD012030BC70475F
:103E20000220FBE7008000400549064B08784A78ED
:103E30001A54401C08700122491C0348FFF7CABFEE
:103E400086000020BC0200202C0200202DE9F8434F
:103E50000446D0F884001F4616460D46202851D14E
:103E6000DDB1D6B194F8800001284BD0012084F850
:103E700080004FF00008C4F88C802120C4F8840032
:103E80001834FEF7B1F9A6878146E68754F8100C7E
:103E9000183CB0F5805F03D004E00120BDE8F88352
:103EA000206920B12E46002584F8808010E000268D
:103EB000FAE78021204601F02DFEB8B9C6B116F808
:103EC000010B21688862B4F85600401EA4F8560021
:103ED000B4F856004B464FF0000200970028E8D196
:103EE0004FF04001204601F015FE30B10320D5E728
:103EF00035F8020BC0F30800E3E72020C4F8840083
:103F00000020CBE70220C9E77047FEE770B5082420
:103F1000002500F02FFE13E06806050E002000F0DB
:103F200011FE142001F090FE142001F08DFE0120FE
:103F300000F008FE142001F087FE00F00FFE05439C
:103F4000641EE4B2E8D2002000F0FCFD142001F071
:103F50007BFE00F031FE284670BD70B50446082592
:103F600016E000F0EFFD142001F06EFE04F080007A
:103F700000F016FE142001F067FE6006040E142007
:103F800001F062FE012000F0DDFD142001F05CFE76
:103F90006D1EEDB24FF00000E3D200F0D3FDBDE89E
:103FA0007040142001F050BE10B5012000F0F8FD63
:103FB000142001F049FE012000F0C4FD142001F09E
:103FC00043FE002000F0ECFD142001F03DFE002037
:103FD00000F0B8FDBDE81040142001F035BE10B56A
:103FE000002000F0AFFD142001F02EFE002000F0B4
:103FF000D7FD142001F028FE012000F0A3FD1420BD
:1040000001F022FE012000F0CBFDBDE8104014209D
:1040100001F01ABE10B5052400F0ACFD142001F02B
:1040200013FE012000F08EFD142001F00DFE05E0CE
:10403000641EA4B2142001F007FE6CB100F08EFDE6
:104040000028F5D100F0B8FD002000F07BFD142021
:1040500001F0FAFD002010BD00F0AEFDFFF7BFFF3C
:10406000012010BD00B585B014216846FCF7BAFAEE
:104070004FF6FF70009000200321CDE9020101906E
:1040800069460248FDF782FF05B000BD0008004800
:1040900000B585B014216846FCF7A4FA4FF6FF700E
:1040A00000900120019003200390002002906946B7
:1040B0000248FDF76BFF05B000BD00000008004896
:1040C00070B5002406462146204600F003F900F0B2
:1040D00041F94FF49635304600F010F9641CAC42BB
:1040E000F9D370BD30B587B014216846FCF77AFA71
:1040F0001E48C16C41F00401C164C16C01F00401AF
:104100000591C16C41F00101C164C16C01F0010174
:104110000591C16C41F00201C164C06C012500F041
:10412000020005904FF44870CDE900050024039487
:10413000694602940E48FDF729FF28020394009077
:10414000CDE901544FF0904469462046FDF71EFF2B
:10415000FFF79EFFA06940F48070A061044818300A
:10416000016841F40871016007B030BD00100240E1
:1041700000040048203AD2B2034B02EB420203EBA8
:10418000021200F019B80000FE6F0008F0B50E46EC
:104190000746002540F23F1407E021463846FFF766
:1041A000E9FF103C6D1CA4B2761C3278002A01D0C5
:1041B000142DF2D3F0BD00002DE9F04791468A4658
:1041C0000026044600F086F8DFF84080012700BF93
:1041D00000F0C0F85FF0000539F8160007FA05F1A5
:1041E0000842404601D1408800E0008800F086F88F
:1041F0006D1C102DF0D3641CE4B25146204600F033
:1042000069F8761C182EE3D3BDE8F0878000002003
:1042100010B5FFF767FF002000F014F8084CA080ED
:10422000A088A0F50241303906D000F089FB0020BB
:1042300000F008F8A08010BD00F0F9FAF7E70000E0
:104240008000002070B51D490A6842F400720A60BF
:104250000A6842F480720A60184C103C226842F0EE
:1042600020022260164A1060086840F020000860B2
:1042700000BF00BF00BF206840F020002060206821
:1042800040F480702060FFF7EDFE4FF09041886AA7
:1042900040F48070886200BF00BF00BF0848001F64
:1042A000006885B2886940F480708861FFF7F0FE8D
:1042B000206840F400702060284670BD2804004843
:1042C0001408004801B5BDF800000149488008BD48
:1042D0008000002010B50C460146202000F068F850
:1042E0002146BDE81040212000F062B801B5BDF8BC
:1042F00000000149088008BD80000020134A1168B1
:1043000041F400711160114910390B6843F4807356
:104310000B600B6843F020030B600D4B18601068B6
:1043200040F02000106000BF00BF00BF086840F0F0
:1043300020000860086840F48070086000BF00BF7B
:1043400000BF086840F40070086070472804004807
:10435000140800481449086840F4007008600868B0
:1043600040F48070086010481038026842F0200263
:1043700002600E4B22221A600A6842F020020A6094
:1043800000BF00BF00BF016841F02001016001686B
:1043900041F48071016000BF00BF00BF016841F4BB
:1043A00000710160704700002804004814080048AC
:1043B000184B10B51A6842F400721A601A6842F479
:1043C00080721A60134A103A146844F02004146092
:1043D000114C2060186840F02000186000BF00BF3A
:1043E00000BF106840F020001060106840F480703A
:1043F00010602160186840F02000186000BF00BF06
:1044000000BF106840F020001060106840F4807019
:10441000106010BD280400481408004800EB81001B
:10442000006E00F0F84070478068C0F3C00070472D
:104430008068C0F380007047042303EAD15310B5AD
:1044400018444369C1F3045107248C40A3438A40B4
:104450001343436110BD00EB8100016E21F0004168
:10446000114301667047000030B589B020216846CD
:10447000FCF7B8F81F481E49002401604902C0E952
:104480000114042585610121C460C0E90441047759
:1044900044770221016280F82440C462046380F8FA
:1044A0003840C46380F84040FDF738FB08B1FDF7A1
:1044B000D3F81148009006200190072002907F2039
:1044C0000594CDE9030569460A48FDF717F908B1D7
:1044D000FDF7C2F8094800900C2001906946054894
:1044E000FDF70CF9002801D0FDF7B6F809B030BD92
:1044F00000010050DC0000200000524700209036F0
:104500002DE9F04F87B014216846FCF76BF842485C
:10451000C16C41F00401C164C16C01F0040105915A
:10452000C16C41F02001C164C16C01F02001059112
:10453000C16C41F00101C164C16C01F00101059140
:10454000C16C41F00201C164C16C01F0020105912E
:10455000C16C41F00801C164C06CDFF8C08000F09C
:104560000800059001224FF47F414046FDF737FED9
:104570000022FF214046FDF732FE4FF480764FF0D7
:104580009049002231464846FDF729FEDFF890A009
:10459000002204215046FDF722FEDFF888B04FF4D8
:1045A0007877002239465846FDF719FE4FF6FF701E
:1045B000009001250024CDE901546946404603944A
:1045C000FDF7E4FCCDE90054694648460295FDF745
:1045D000DDFC07208DE8310069465846FDF7D6FC22
:1045E0000096CDE90154694648460394FDF7CEFC98
:1045F00004200090CDE90154694650460394FDF72C
:10460000C5FC0097CDE90154694658460394FDF76F
:10461000BDFC07B0BDE8F08F001002400008004864
:10462000000C00480004004810B58CB0002405942C
:10463000214804940694079408940A9409940094D9
:10464000019402944FF08041039401604F21C0E92E
:104650000114611EC0E903148461FEF7C0FB08B1B8
:10466000FCF7FAFF4FF48050049004A91248FEF7BB
:104670007BFC08B1FCF7F0FF0F48FEF7B6FD08B170
:10468000FCF7EAFF089408A90B480A94FEF758FBC8
:1046900008B1FCF7E1FF0120CDE9004002940422BB
:1046A000694605480394FEF711FD002801D0FCF788
:1046B000D3FF0CB010BD00004801002010B58EB033
:1046C00000240794089409940A940B940C941C21D8
:1046D00068460D94FBF786FF1E481D4901604F2177
:1046E000C0E9011442F20F71C0E903148461FEF7BE
:1046F00076FB08B1FCF7B0FF4FF48050079007A994
:104700001448FEF731FC08B1FCF7A6FF1148FEF78C
:10471000EEFF08B1FCF7A0FF0B940BA90D480D9418
:10472000FEF70EFB08B1FCF797FF6020CDE900040F
:1047300002940422694607480494FEF746FF08B134
:10474000FCF78AFF0348FEF717FF0EB010BD00000C
:10475000000400409401002010B588B000241748E0
:1047600000940194029403940494059412490694CD
:1047700001604F21C0E9011442F20F71C0E9031436
:104780008461FEF72CFB08B1FCF766FF4FF4805004
:10479000009069460948FEF7E7FB08B1FCF75CFFAB
:1047A000049404A905480694FEF7CAFA002801D02B
:1047B000FCF752FF08B010BD00080040E0010020E7
:1047C000184810B5164901604FF416514160002198
:1047D00081600C22C160C0E904128161C161016283
:1047E00041628162FFF77AFA08B1FCF735FF0021D8
:1047F0000C48FFF7DAF808B1FCF72EFF0021094852
:10480000FFF7ADF808B1FCF727FF0648FFF786F879
:10481000002803D0BDE81040FCF71EBF10BD00000B
:10482000003801402C020020FEE7FEE7704730B55B
:1048300001210020FFF7BCFD4FF47A70FCF7FEFE6B
:1048400000210120FFF7B4FD41F290711020FFF725
:10485000AFFD4FF41C516020FFF7AAFD012161203C
:10486000FFF7A6FD02214620FFF7A2FD48F2100146
:104870001320FFF79DFD48F2FE011220FFF798FD7F
:104880004FF4A0610220FFF793FD41F230010320B5
:10489000FFF78EFD40F2033421463020FFF788FDFC
:1048A00021463120FFF784FD21463220FFF780FDAD
:1048B000E51E29463320FFF77BFD03213420FFF757
:1048C00077FD21463520FFF773FD14213620FFF7D1
:1048D0006FFD21463720FFF76BFD21463820FFF79B
:1048E00067FD21463920FFF763FD29463A20FFF78F
:1048F0005FFD03213B20FFF75BFD21463C20FFF7D6
:1049000057FD4FF4A0513D20FFF752FD4FF40071C9
:104910009220FFF74DFD21469320FFF749FD40F619
:104920000D019020FFF744FD41F218010320FFF72D
:104930003FFDBDE8304040F273110720FFF738BD5E
:1049400010B543F20801E320FFF732FD1221E72002
:10495000FFF72EFD41F23121EF20FFF729FD002165
:104960000120FFF725FD4FF4E0610220FFF720FD55
:1049700041F230010320FFF71BFD00210420FFF767
:1049800017FD40F207210820FFF712FD0021092042
:10499000FFF70EFD00210A20FFF70AFD00210C2081
:1049A000FFF706FD00210D20FFF702FD00210F207B
:1049B000FFF7FEFC00211020FFF7FAFC0721112071
:1049C000FFF7F6FC00211220FFF7F2FC0021132074
:1049D000FFF7EEFCC820FDF7C7FA41F29061102006
:1049E000FFF7E6FC40F227211120FFF7E1FC32201F
:1049F000FDF7BAFA1D211220FFF7DAFC3220FDF78D
:104A0000B3FA4FF400611320FFF7D2FC14212920E0
:104A1000FFF7CEFC0B212B20FFF7CAFC3220FDF75D
:104A2000A3FA00212020FFF7C3FC00212120FFF77B
:104A3000BFFC07213020FFF7BBFC40F2077131209B
:104A4000FFF7B6FC06213220FFF7B2FC40F20471FA
:104A50003520FFF7ADFC41F604713620FFF7A8FCC6
:104A600004213720FFF7A4FC00213820FFF7A0FC29
:104A700040F206713920FFF79BFC40F201713C20A7
:104A8000FFF796FC0F213D20FFF792FC00215020FC
:104A9000FFF78EFCEF215120FFF78AFC0021522006
:104AA000FFF786FC40F23F115320FFF781FC4FF4E3
:104AB0001C516020FFF77CFC01216120FFF778FC8E
:104AC00000216A20FFF774FC00218020FFF770FCB2
:104AD00000218120FFF76CFC00218220FFF768FC99
:104AE00000218320FFF764FC00218420FFF760FC95
:104AF00000218520FFF75CFC10219020FFF758FC77
:104B000000219220FFF754FC03219320FFF750FC73
:104B10004FF488719520FFF74BFC00219720FFF799
:104B200047FC00219820FFF743FC41F218010320C5
:104B3000FFF73EFCBDE8104040F273110720FFF77D
:104B400037BC000008B1044801E003481030016898
:104B500041F04001016070471804004810B5802101
:104B60000348FDF737FB012800D0002010BD0000EE
:104B70000004004800B585B014216846FBF732FDFB
:104B800080200090002001900120029002200390DC
:104B900069460248FDF7FAF905B000BD0004004877
:104BA00008B1044801E003481030016841F0800179
:104BB000016070471804004800B585B014216846AC
:104BC000FBF710FD80200090112001900020029042
:104BD0000220039069460248FDF7D8F905B000BDF0
:104BE000000400487047FDF705BB10B594B03821AC
:104BF0006846FBF7F7FC14210EA8FBF7F3FC4FF413
:104C00000070FDF789FB0120009000040190022054
:104C10000324CDE907041421CDE90A100C900D906E
:104C200009946846FDF76CFE08B172B6FEE70F20E6
:104C3000CDE90E04002010901190129002210EA8D0
:104C4000FDF714FD002801D072B6FEE714B010BDC8
:104C50000248016841F470010160704788ED00E08E
:104C60000148FEF78BBB0000480100200148FEF719
:104C700085BB0000E00100202DE9F0430268234BD2
:104C8000234D244E244C4FF08049984207D048458C
:104C900005D0A84203D0B04201D0A04203D122F0F7
:104CA00070074A683A431D4FDFF874C0DFF874801C
:104CB00098420DD048450BD0A84209D0B04207D049
:104CC000A04205D0B84203D0604501D0404503D191
:104CD00022F44075CA682A434D6922F080022A43B3
:104CE00002608A68C2620A688262984207D0A04263
:104CF00005D0B84203D0604501D0404501D10969D3
:104D0000016301214161BDE8F0830000002C0140F6
:104D10000004004000080040003401400040014011
:104D2000004401400048014010B501F01F0301217B
:104D3000046A99408C430462016A9A4011430162FB
:104D400010BD10B5846842EA032224F47F440A436C
:104D50002243826010BD00008268034B1A400A4360
:104D600042F00701816070478FFFCFFF2DE9F043CC
:104D7000026A22F001020262056A436882691C4CE1
:104D800025F0020522400C6822F0030214438A68D1
:104D9000194E2A43174D194FDFF864C0DFF86490AD
:104DA000A84207D0B04205D0B84203D0604501D038
:104DB000484506D122F00808CA6842EA080222F0F3
:104DC0000402A84207D0B04205D0B84203D06045E3
:104DD00001D0484505D14D6923F440731D438B69CB
:104DE0002B4343608461496841630262BDE8F083FC
:104DF0008FFFFEFF002C01400034014000400140C5
:104E00000044014000480140F0B5026A22F010025F
:104E10000262056A42688369194C1B4E23400C6884
:104E200023F4407343EA042425F020038D6843EA09
:104E30000513144DA84201D0B04206D1CF6823F02B
:104E4000800343EA071323F04003A8420AD0B0428C
:104E500008D00E4DA84205D00D4DA84202D00D4DF0
:104E6000A84207D14D6922F4406242EA85028D6969
:104E700042EA850242608461496881630362F0BD51
:104E8000FF8FFFFE002C0140003401400040014034
:104E90000044014000480140F0B5026A22F48072EB
:104EA0000262056A4368C269194C1B4E22400C68B5
:104EB00022F00302144325F400728D6842EA0522B1
:104EC000144DA84201D0B04206D1CF6822F400624E
:104ED00042EA072222F48062A8420AD0B04208D0F7
:104EE0000E4DA84205D00E4DA84202D00D4DA8424D
:104EF00007D14D6923F4405343EA05138D6943EA12
:104F000005134360C4614968C1630262F0BD0000DB
:104F10008FFFFEFF002C01400034014000400140A3
:104F20000044014000480140F0B5026A22F480527A
:104F30000262056A4268C369194C1B4E23400C6823
:104F400023F4407343EA042425F400538D6843EAB4
:104F50000533144DA84201D0B04206D1CF6823F4E6
:104F6000004343EA073323F48043A8420AD0B04207
:104F700008D00E4DA84205D00D4DA84202D00D4DCF
:104F8000A84207D14D6922F4404242EA85128D6958
:104F900042EA85124260C461496801640362F0BD5F
:104FA000FF8FFFFE002C0140003401400040014013
:104FB000004401400048014030B5026A22F48032CA
:104FC0000262046A4268036D114D2B400D681D4357
:104FD00024F400330C8943EA04430E4CA0420BD066
:104FE0000D4CA04208D00D4CA04205D00C4CA04264
:104FF00002D00C4CA04204D14C6922F4803242EA27
:1050000004224260056549688164036230BD000086
:105010008FFFFEFF002C01400034014000400140A2
:10502000004401400048014030B5026A22F4801279
:105030000262046A4268036D114D24F400142B408F
:105040000D6843EA05230D8944EA05540D4DA84235
:105050000BD00D4DA84208D00C4DA84205D00C4DE8
:10506000A84202D00B4DA84204D14D6922F48022FF
:1050700042EA8522426003654968C164046230BD2A
:10508000FF8FFFFE002C0140003401400040014032
:10509000004401400048014010B5036A046A24F04E
:1050A00001040462846924F0F00444EA021423F049
:1050B0000A020A438461026210BD000070B5046AEE
:1050C00024F0010404628469056A124EB0420ED0D5
:1050D000B0F1804F0BD0104EB04208D00F4EB0420E
:1050E00005D00F4EB04202D00E4EB04203D124F094
:1050F0000304144301E044F001041A0724F0F0040F
:1051000044EA126225F00A0301F00A0119438261A0
:10511000016270BD002C0140000400400008004006
:10512000003401400040014010B5036A23F0100331
:1051300003628369046A23F4704343EA023224F071
:10514000A00343EA01118261016210BD30B5046A17
:1051500024F0100404628469056A24F4407444EA6B
:10516000022222F470444FF6FF7202EA0332224315
:10517000A02425F0A00304EA011119438261016211
:1051800030BD000030B5416EB9B1026891689268D7
:10519000C1F342610B4B520F9C5CE50003F1080424
:1051A000A25CB5FBF2F2A0F86A205A5C615CD20006
:1051B000B2FBF1F1A0F8681030BD0121A0F86A102F
:1051C000F8E70000D66F000890F82810C90706D04D
:1051D00001684A68C36A22F400321A434A6090F8B0
:1051E0002810890706D501684A68036B22F48032CB
:1051F0001A434A6090F82810490706D501684A68A2
:10520000436B22F480221A434A6090F82810090761
:1052100006D501684A68836B22F400421A434A604B
:1052200090F82810C90606D501688A68C36B22F475
:1052300080521A438A6090F82810890606D50168C2
:105240008A68036C22F400521A438A6090F828108E
:10525000490611D501684A68436C22F480121A434A
:105260004A60416CB1F5801F06D101684A68836CC1
:1052700022F4C0021A434A6090F82810090606D5A5
:1052800001684A68C06C22F4002202434A607047F9
:10529000F8B500260446C0F88C60FCF7A5FF05466B
:1052A000206800686FF07E47000708D52B46002273
:1052B0004FF400112046009700F02CFC60B92068E4
:1052C000006840070AD52B4600224FF48001204693
:1052D000009700F01FFC08B10320F8BD2020C4F89F
:1052E0008400C4F8880044F86C6F00202675F8BD6F
:1052F00010B5806A0021A0F85E10A0F85610FEF7E5
:105300007CFB10BD10B5026852E8001F21F49071BB
:1053100042E80013002BF6D10E4B0268083252E827
:10532000001F194042E80014002CF6D1C16E01297B
:1053300008D1016851E8002F22F0100241E8002353
:10534000002BF6D12021C0F888100021C16601672A
:1053500010BD0000FEFFFFEF10B5B0F86020D0F8E0
:1053600088300168222B04D0886940F008008861E9
:1053700010BD496A836D11401980816D891C81655A
:10538000B0F85E10491EA0F85E10B0F85E1000295B
:10539000EED1026852E8001F21F4907142E8001338
:1053A000002BF6D10168083151E8002F22F00102EC
:1053B00041E80023002BF5D12021C0F888100021FE
:1053C0000167C26E012A02D0FEF72EFD10BDC16634
:1053D000026852E8001F21F0100142E80013002B80
:1053E000F6D10168CA69D243D20601D410220A62FA
:1053F000B0F85C10FEF7B1FA10BD00002DE9F047DF
:105400000446B0F860600068C569D0F800A0D0F824
:105410000880D4F88810222905D0816941F008015C
:105420008161BDE8F087B4F868704FF0000963E06F
:105430002068406AA16D30400880A06D801CA06586
:10544000B4F85E00401EA4F85E002068C5696907D4
:1054500030D0E9070AD05FEACA5107D501210162BD
:10546000D4F88C0040F00100C4F88C00A8070BD5DC
:105470005FEAC87008D0216802200862D4F88C0066
:1054800040F00400C4F88C0068070BD55FEAC870D0
:1054900008D0216804200862D4F88C0040F0020093
:1054A000C4F88C00D4F88C0020B12046FEF7A5FA91
:1054B000C4F88C90B4F85E00F0B9216851E8000F90
:1054C00020F4807041E80002002AF6D1264A2068C4
:1054D000083050E8001F114040E80013002BF6D1BF
:1054E0002020C4F88800C4F87090E16E4846012975
:1054F00023D02046FEF798FC0FB1A80698D4B4F844
:105500005E0000288DD0B4F86810814289D92068E7
:10551000083050E8001F21F0805140E80012002AB6
:10552000F5D112482067206850E8001F41F02001A3
:1055300040E80012002AF6D173E7E066216851E8DE
:10554000000F20F0100041E80002002AF6D1206888
:10555000C169C943C90601D410210162B4F85C10C5
:105560002046FEF7FAF9C7E7FEFFFFEF59530008A0
:1055700010B5B0F86020D0F888300168222B04D034
:10558000886940F00800886110BD496A1140826D49
:105590001170816D491C8165B0F85E10491EA0F83C
:1055A0005E10B0F85E100029EED1026852E8001FCC
:1055B00021F4907142E80013002BF6D10168083104
:1055C00051E8002F22F0010241E80023002BF5D121
:1055D0002021C0F8881000210167C26E012A02D084
:1055E000FEF722FC10BDC166026852E8001F21F0E0
:1055F000100142E80013002BF6D10168CA69D243BA
:10560000D20601D410220A62B0F85C10FEF7A5F9A8
:1056100010BD00002DE9F0470446B0F86060006856
:10562000C569D0F800A0D0F80880D4F888102229E5
:1056300005D0816941F008018161BDE8F087B4F8C7
:1056400068704FF0000963E02068406AA16D304047
:105650000870A06D401CA065B4F85E00401EA4F860
:105660005E002068C569690730D0E9070AD05FEAA3
:10567000CA5107D501210162D4F88C0040F0010025
:10568000C4F88C00A8070BD55FEAC87008D0216861
:1056900002200862D4F88C0040F00400C4F88C00AA
:1056A00068070BD55FEAC87008D02168042008623B
:1056B000D4F88C0040F00200C4F88C00D4F88C00C0
:1056C00020B12046FEF799F9C4F88C90B4F85E003A
:1056D000F0B9216851E8000F20F4807041E8000221
:1056E000002AF6D1264A2068083050E8001F1140F1
:1056F00040E80013002BF6D12020C4F88800C4F83D
:105700007090E16E4846012923D02046FEF78CFBBD
:105710000FB1A80698D4B4F85E0000288DD0B4F874
:105720006810814289D92068083050E8001F21F0B4
:10573000805140E80012002AF5D112482067216804
:1057400051E8000F40F0200041E80002002AF6D1A5
:1057500073E7E066216851E8000F20F0100041E88F
:105760000002002AF6D12068C169C943C90601D4E4
:1057700010210162B4F85C102046FEF7EEF8C7E78E
:10578000FEFFFFEF715500082DE9F0410446016866
:1057900080682269E3691043626900251A43104357
:1057A000DFF82CC20A688B4B1A4002430A6020685B
:1057B0004168E26821F44051114341602168A069C9
:1057C000614501D0226A10438A68834B1A40024324
:1057D0008A602068C16A626A21F00F011143C162C8
:1057E0007E4923687E488B420DD1D0F8880010F0A6
:1057F000030006D0012855D0022842D003283FD10B
:1058000052E001203DE077498B420BD1D0F888006F
:1058100010F00C0035D0042833D0082840D00C28D4
:105820002ED141E070498B420BD1D0F8880010F0A6
:10583000300026D0102835D0202831D030281FD174
:1058400032E06A498B420BD1D0F8880010F0C000DA
:1058500017D0402826D0802822D0C02810D123E09D
:1058600063450DD1D0F8880010F4406009D0B0F540
:10587000806F17D0B0F5006F12D0B0F5406F13D025
:1058800010205B495B4F00264FF4004263453BD13B
:1058900060B1022813D004280BD0082872D10DE083
:1058A0000220EEE70420ECE70820EAE7FCF7CCFF53
:1058B00001E0FCF7EDFF010001D17CE01146606AD8
:1058C00037F810206768B1FBF2F007EB470383421B
:1058D00070D8B0EB073F6DD8002308461946FAF799
:1058E000FBFC090241EA10610202780810187141BC
:1058F0003A460023FAF7F0FC3F4AA0F54071914286
:1059000058D82168C86056E0E3694FF6EF789342B3
:105910002CD109284ED2DFE800F00508114D0D4DBD
:105920004D4D1000FCF790FF01E0FCF79FFF0100D8
:1059300004D140E0FCF7ACFFF9E71146606A37F8A4
:105940001000B1FBF0F04100606801EB5001B1FBC9
:10595000F0F0A0F1100141452CD84FF6F071014054
:10596000C0F3420001432068C16024E0092821D22D
:10597000DFE800F0050912200E2020201100FCF7BE
:1059800063FF02E016E0FCF771FF010004D112E0B2
:10599000FCF77EFFF9E71146606A37F81000B1FBAB
:1059A000F0F1606801EB5001B1FBF0F0A0F11001E3
:1059B00041450AD901250120A4F86A0024F8680F9E
:1059C0002846A660E660BDE8F08180B299E7000055
:1059D00000800040F369FFCFFFF4FF110038014061
:1059E000001002400044004000480040004C0040CD
:1059F0000024F400BE6F0008FFFC0F0070B5816545
:105A0000A0F85C20A0F85E200021016783684FF4B5
:105A10008055FF24AB4204D10369FBB940F2FF1368
:105A200022E07F26C3B1B3F1805F1AD0A0F86010E6
:105A3000C0F88C102223C0F888300368083353E87C
:105A4000004F44F0010443E80046002EF5D1436EB8
:105A5000B3F1005F0ED032E0036943B9A0F86040B3
:105A6000E6E703691BB13F23A0F86030E0E7A0F848
:105A70006060DDE7B0F86830934220D88268AA42BF
:105A800001D10269CAB11F4A026780F8801001691A
:105A900041B1026852E8001F41F4807142E80013EE
:105AA000002BF6D10168083151E8002F42F08052F6
:105AB00041E80023002BF5D121E0134AE4E7826896
:105AC000AA4201D102697AB1104A026780F88010B7
:105AD000016959B1026852E8001F41F4907142E82F
