:020000040800F2
:10000000F00900209D0200081B4D00082342000853
:10001000194D000875160008E56000080000000092
:10002000000000000000000000000000D5500008A3
:1000300077160008000000001D4D0008D75000088A
:10004000B7020008B7020008B7020008B7020008AC
:10005000B7020008B7020008B7020008B70200089C
:10006000B7020008B7020008B7020008B70200088C
:10007000B7020008B7020008B7020008B70200087C
:10008000B702000800000000B7020008B70200082D
:10009000B7020008B7020008B7020008B70200085C
:1000A000B7020008B7020008B7020008B70200084C
:1000B000515100085D51000869510008B70200085D
:1000C000B7020008B7020008B7020008B70200082C
:1000D000B7020008D9600008B7020008B70200089C
:1000E000B7020008B7020008B7020008B70200080C
:1000F000B7020008B7020008B702000800000000BD
:1001000000000000B702000800000000B70200086D
:10011000B702000800000000B7020008B70200089C
:10012000B7020008B7020008B7020008B7020008CB
:10013000B70200080000000000000000B70200083D
:10014000B7020008B702000800000000000000002D
:10015000000000000000000000000000000000009F
:10016000000000000000000000000000B7020008CE
:10017000B7020008000000000000000000000000BE
:1001800000000000B70200080000000000000000AE
:10019000000000000000000000000000000000005F
:1001A0000000000000000000B7020008B7020008CD
:1001B000B7020008B7020008B702000800000000FC
:1001C00000000000B702000800000000000000006E
:1001D000B7020008B702000800F002F800F04FF87C
:1001E0000AA090E8000C82448344AAF10107DA4592
:1001F00001D100F044F8AFF2090EBAE80F0013F095
:10020000010F18BFFB1A43F001031847487D000097
:10021000687D0000103A24BF78C878C1FAD8520728
:1002200024BF30C830C144BF04680C607047000070
:100230000023002400250026103A28BF78C1FBD8EF
:10024000520728BF30C148BF0B607047662906F0CF
:100250002485642900F0F880732900F08E84002042
:1002600070471FB506F00FFD00F08CFC0400002065
:10027000002106F0B9F9E0601FBD10B510BD00F017
:1002800081FD1146FFF7EDFF06F058F900F09FFDE4
:1002900003B4FFF7F2FF03BC00F0E2FD094880471A
:1002A00009480047FEE7FEE7FEE7FEE7FEE7FEE758
:1002B000FEE7FEE7FEE7FEE704480549054A064B70
:1002C0007047000041510008D9010008F0030020E8
:1002D000F0090020F0050020F005002053EA020C90
:1002E00000F069802DE9F04B4FF00006002B1FBF96
:1002F000B3FA83F503FA05F424FA05F65E4012BF5B
:100300001643B2FA82F502FA05F4C5F120051EBFC4
:1003100022FA05FC44EA0C04203556EA044C4FEA64
:10032000144418BF641C4FF000084FF000099042BD
:1003300071EB030C39D3002919BFB1FA81F701FA27
:1003400007F6B0FA80F700FA07F6C7F120071EBFDC
:1003500020FA07FC46EA0C062037B6FBF4FCA7EBB4
:100360000507103F07F01F0BCBF120060CFA0BFB23
:100370002CFA06F644BFB3460026202FA4BF5E46E3
:100380004FF0000B5BEA060C08BF4FF0010B19EBB6
:100390000B09ABFB027C48EB0608C01B06FB02CC3A
:1003A0000BFB03CC71EB0C01C1E70B460246414647
:1003B0004846BDE8F08B13B54FF000004FF0000148
:1003C000AFF30080BDE81C40704700000FB41CB5BF
:1003D000074B06AA7B4469460090059800F0A3FBF2
:1003E0000020694600F0B2FB1CBC5DF814FB000065
:1003F0007507000070B50C460546012A05D028781F
:10040000800600D5EA69002302E0012305E05B1CB9
:10041000934202D2E05C0028F9D1A869E618C01A1C
:10042000A861286A184428622846AFF3008004E0D7
:10043000D5E9012114F8010B9047B442F8D32846BE
:10044000AFF3008070BD00002DE9F04106460024A6
:1004500010687529314616A510D0AFF3008000282A
:1004600002DA404213A507E031688A0701D512A5D8
:1004700002E0490704D511A5012401E0AFF3008093
:1004800000210A2206F1240709E0B0FBF2FCB0FBD0
:10049000F2F302FB1C00303078541846491C002847
:1004A000F3D123462A463046BDE8F04100F0CEB8ED
:1004B000000000002D0000002B00000020000000C4
:1004C0002DE9F05F894604464FF0000ADFF824B1B9
:1004D000FB44C0F820A02046E168884700287DD072
:1004E000252806D0D4E901219047206A401C2062CB
:1004F000F1E700255F462046E16888472028064648
:1005000007DB312E05D2B81910F8200C08B10543CD
:10051000F1E7A80701D525F00405C4F81CA00027C1
:10052000C4F818A02A2E09D0304605F004FE38B3CE
:1005300004EB8708303EC8F8186019E059F8041B2E
:10054000204604EB87029161E1688847012F064647
:1005500018D1E069002820DA25F020051DE0D8F840
:10056000180000EB800006EB40003038C8F8180097
:100570002046E1688847064605F0DDFD0028EED1FB
:10058000012F0AD02E2E08D12046E16888477F1C13
:100590000646022F45F02005C4DBA069002803DAD7
:1005A000404245F00105A061E80701D025F01005A3
:1005B000A6B1A6F14100192802D8203645F40065FD
:1005C0004A463146204625604D46FFF73FFE60B162
:1005D000012807D0ED1D25F0070000E007E000F13D
:1005E000080978E705F1040975E730467AE7206ADB
:1005F000BDE8F09FDA7900004FF0000200B5134625
:1006000094469646203922BFA0E80C50A0E80C5032
:10061000B1F12001BFF4F7AF090728BFA0E80C50E3
:1006200048BF0CC05DF804EB890028BF40F8042BDC
:1006300008BF704748BF20F8022B11F0804F18BF49
:1006400000F8012B70477047704770472DE9F0475D
:100650000D4699469246044600F124080168880632
:1006600004D5E06921F01001216000E00120A842DA
:1006700001DD471B00E00027A1697A1902EB0900A0
:10068000081AA0612078C00602D42046AFF300808B
:10069000002608E0D4E901211AF806009047206AF4
:1006A000401C761C20624E45F4DB2078C0060AD53B
:1006B0002046AFF3008006E0D4E9012130209047C6
:1006C000206A401C2062381EA7F10107F4DC07E015
:1006D000D4E9012118F805009047206A401C2062E7
:1006E000281EA5F10105F3DC2046AFF30080207839
:1006F000000602D50220BDE8F0870120FBE7704725
:100700002DE9FF4F0C461E464FF0FF378BB0D2E964
:100710000001DDF860800A908A46C1F30A5505B9E8
:100720003D46002108464FF00000BAF1000F00F4EA
:10073000400005DA00EB80004FF4400101EA500070
:100740004FEA9059B9F1010F00DDB9460A9850EA15
:100750004A000ED044F61050A5F2FF3545432F1441
:10076000B8F1000F1ED07542291E1EDDC9F100022E
:100770001CE0B8F1010F4FF0000001D0302103E080
:10078000F24305E02154401CB042FBDB304600221E
:10079000002121540B99C1F80880C1E900200FB055
:1007A000BDE8F08FBD1B6D1CDEE74A4600DA6942EA
:1007B00006A800F071FA06AB93E8070003AB83E8E4
:1007C000070050460A9900F052FB8DE80700A0F59B
:1007D00000501F3800900398002D0ADD42F21F01DF
:1007E0004A460844002303A90390684600F0BBFD75
:1007F00009E0A0F500504A461F38002303A90390E2
:10080000684600F0C5FD8DE807000004000C03D029
:100810004FF0FF30410800E01046B8F1000F03D060
:100820000022009215461EE0751E05D400F0AEF9B8
:10083000303262556D1EF9D5B3460122084302D00D
:1008400000227F1C04E02078302801D100227F1E86
:10085000002A099784D01DE0112D07DA00F096F9DF
:10086000303262556D1C50EA0102F5D1084302D0C6
:100870000098C8B10EE00021681E05E0235C625CB0
:1008800063542254401E491C8142F7DBAB46A81B2F
:10089000401E0990002004F80B000B98099AC0F83C
:1008A0000880C0E9002B7AE711264FF0000857E7CF
:1008B0002DE9F04F88460446D21D22F0070191B081
:1008C000D1E90001CDE90A0105F00DFC02460B98C3
:1008D000C00F01D02D2007E02068810701D52B2013
:1008E00002E0202101EAC000032A099001D0072A72
:1008F00005DB03464146204600F08EF90BE12078E7
:10090000800601D5E06900E00620B8F1650F814658
:1009100006D0B8F1660F18D0B8F1670F70D131E08A
:100920000020B9F1110F009001DB112301E009F162
:1009300001030AAA01A90CA8FFF7E2FEDDE90C7089
:10094000002609F10105834647E001204B4600904F
:100950004FF000470AAA01A90CA8FFF7D1FEDDE974
:100960000DB00C995D46002610B909F101000D1873
:10097000B9EB050003D4C0F1FF3609F10105A5EB81
:1009800009002BE0B9F1010F01DA4FF00109002055
:10099000B9F1110F0090484601DD112300E0034634
:1009A0000AAA01A90CA8FFF7ABFEDDE90C704D46C1
:1009B00000268346207800070AD4AB4500DA5D465E
:1009C00001A8012D04DD411911F8011C302907D0BF
:1009D0004F4502DA17F1040F04DA012082460FE0D6
:1009E0006D1EEEE7002F02DCED1B3E4403E0781C99
:1009F000A84200DD7D1CB81B00F1010A4FF0004742
:100A00002078000703D4AA4501DB4FF0FF3A00210C
:100A1000B7F1004F0DF143088DF8431024D00220A8
:100A20002B23002F01DA7F422D230A21021EA0F181
:100A3000010000DC5FB197FBF1FC97FBF1F201FBD9
:100A40001C7C17460CF1300C08F801CDEEE7A8F13C
:100A5000010003702188090501D5452100E06521C9
:100A6000A0F1010800F8011C09980FA9A1EB0807E3
:100A7000FF1D00B10120411901EBEA70A169384462
:100A8000081A401EA0612078C00602D42046AFF3A9
:100A90000080099828B1D4E901219047206A401CC0
:100AA00020622078C00622D52046AFF300801EE0E9
:100AB000002E04DBB34502DD01A8805D00E030209C
:100AC000D4E901219047206A401C2062761CAAF1DB
:100AD00001005FEA000A0AD100F054F8C06801681A
:100AE000405CD4E901219047206A401C2062281E06
:100AF000A5F10105DCDC07E0D4E9012118F8010BC0
:100B00009047206A401C2062381EA7F10107F3DCE1
:100B10002046AFF30080032011B041E601694A1C72
:100B200002610878704700B58FB0CDE9013100212E
:100B3000059105497944CDE9031011466846FFF750
:100B4000BFFC0FB000BD0000E5FFFFFF0A6802F820
:100B5000010B0A60704710B5436913B1AFF3008011
:100B600001E0FFF747FC012010BD127800F12401DD
:100B70000A7000224A700122EDE711684FF0FF323F
:100B8000E9E7000000487047B003002030B5B0F13D
:100B90000A024FEA900E71F100034EEA817EB0EB3B
:100BA0000E0061EB91014FEA101E4EEA017E10EB40
:100BB0000E0041EB11114FEA102E4EEA016E10EBC0
:100BC0000E0041EB11214FEA104E4EEA014E10EBA0
:100BD0000E0041EB1141401841F100014FEAD000F5
:100BE00040EA41704FEAD10110EB80054FEA8104E1
:100BF00044EA907444EB01046D1944EB0404521B65
:100C0000A3414FF0000348BF0A3200D530BD401C5D
:100C100041F1000130BD00002DE9F0411F460446BE
:100C200003260168072A01F4006004DB08B116A559
:100C300005E016A503E008B115A500E015A521F013
:100C400010002060A069C01EA0610FB1401EA0610D
:100C50002046AFF300804FB1D4E9012138469047D8
:100C6000206A401C2062C01C206206E0206AFAE76D
:100C7000D4E9012115F8010B9047761EF8D22046E1
:100C8000AFF30080BDE8F0814E414E006E616E0012
:100C9000494E4600696E66002DE9F04781461646CA
:100CA0008AB0354878440DC88DE80D003248784444
:100CB000801C03AC0DC884E80D0041F69B3008444D
:100CC000372190FBF1F290FBF1F5A5F1800501FBD6
:100CD00012041B3C02D56442012000E00020DFF832
:100CE00098A080460027FA44AAF1BE0A0EE0E00769
:100CF0000AD03246684607EB470101230AEB81011F
:100D000000F046FB8DE8070064107F1C002CEED13C
:100D1000194F7F44AE3F19E0E80715D007EB0410E8
:100D20000DF1180A90E80E008AE80E00C068F04243
:100D300001D1981908903246012306A903A800F0B2
:100D400027FB03AB83E807006D10641C002DE3D183
:100D50004FF0010332466946B8F1000F03A802D0F4
:100D600000F001FB01E000F013FBC9E90001C9F844
:100D700008200AB0BDE8F087947200000048704770
:100D8000900300207546FFF7F9FFAE46050069465F
:100D9000534620F00700854618B020B5FFF78CFABF
:100DA000BDE820404FF000064FF000074FF000086C
:100DB0004FF0000B21F00701AC46ACE8C009ACE8ED
:100DC000C009ACE8C009ACE8C0098D46704710B551
:100DD0000446AFF300802046BDE81040FFF758BA44
:100DE0004FF0013C50F8042B51F8043B9A4221D1BA
:100DF000A2EB0C03934313EACC1317D150F8042B46
:100E000051F8043B9A4215D1A2EB0C03934313EA29
:100E1000CC130BD150F8042B51F8043B9A4209D162
:100E2000A2EB0C03934313EACC13DBD04FF000008A
:100E3000704700BFD01A01BAB1FA81F101F0180170
:100E400022FA01F0CB40C1F12001DBB2C0B2C01ADE
:100E50002CFA01F3D11A914311EAC311E6D170477C
:100E600001491820ABBEFEE72600020070475FEA8A
:100E7000400C08BF91F0000F4FEA8C234FEAC122CB
:100E800043EA51514FEA1C5018BF00F5F0404FEAB9
:100E9000300018BF41F000415FEA6C5C00F029802F
:100EA000BCF1FF3F08BF40F080407047130C06BF05
:100EB00012044FF0100C4FF0000C130E04BF12027E
:100EC0000CF1080C130F04BF12010CF1040C930F6A
:100ED00004BF92000CF1020CD30F04BF52000CF1BE
:100EE000010C11464FF00002A0F11F00A0EB0C0016
:100EF000704711F0004F08BF704731F000413FF4D8
:100F0000D5AF0B0C06BF09044FF0100C4FF0000CCE
:100F10000B0E04BF09020CF1080C0B0F04BF0901F2
:100F20000CF1040C8B0F04BF89000CF1020CCB0FE9
:100F300004BF49000CF1010CCCF12003A0EB0C0024
:100F400022FA03F302FA0CF241EA030100F1010074
:100F5000704720F07F4C80EA030023F07F47ACEB22
:100F6000070303F57C5300F0004003F1FF032DE974
:100F700080494FEA154B09B44FEA144325EA0B4E5A
:100F800024EA03480FF2042606EB132749083E78AB
:100F90005FEA320203FB0667C7F5000707FB06F6A8
:100FA0004FEA54374FEAD64606F1020607FB066CB5
:100FB000CCF1005C4FEA1C472CEA074C07FB06F417
:100FC0000CFB06F504EB15464FEA961634BF0020DD
:100FD0004FF000404FEAD13706FB07FC4FEA1C4CAC
:100FE0000CFB0BF7D21B03FB0CF761EB07010CFBAF
:100FF0000EF7B0EB074072EB17420CFB08F734BF5B
:10100000A2EB0742B2EB074261EB17414FEA0C44F7
:101010004FEA910706FB07FC4FEA1C4C0CFB0BF751
:10102000B0EBC74072EB573203FB0CF734BFA2EBB7
:10103000C742B2EBC74261EB57310CFB0EF7B0EB86
:10104000C70072EB57720CFB08F734BFA2EBC70264
:10105000B2EBC70261EB5771039F4FEA816141EA2E
:10106000921104EBCC044FEAD1374FEA826206FBBF
:1010700007FC42EA90124FEA80604FEA1C4C0CFBDE
:101080000BF7D21B03FB0CF761EB07010CFB0EF710
:10109000B0EB074072EB17420CFB08F734BFA2EB32
:1010A0000742B2EB074261EB17414FEA8C554FEA1A
:1010B000910704EB9C2406FB07FC4FEA1C4C0CFB3D
:1010C0000BF7B0EBC74072EB573203FB0CF734BFA2
:1010D000A2EBC742B2EBC74261EB57310CFB0EF7F4
:1010E000B0EBC70072EB57720CFB08F734BFA2EBF2
:1010F000C702B2EBC70261EB577115EB4C254FEA03
:10110000816141EA92114FEA82624FEAD13742EAA5
:10111000901206FB07FC44F100044FEA80604FEA9E
:101120001C4C0CFB0BF7D21B03FB0CF761EB07010C
:101130000CFB0EF7B0EB074072EB17420CFB08F705
:1011400034BFA2EB0742B2EB074261EB174115EB4C
:101150001C154FEA813141EA92414FEA823242EA5C
:1011600090424FEA80304FEA0C7644F1000448EA9E
:1011700003434EEA0B484FF0000EB2EB080C71EB44
:10118000030724BF624639464EEB0E0E4FF0000BAC
:101190000018524149414BEB0B0BB2EB080C71EBC1
:1011A00003077BF1000B24BF624639464EEB0E0E5F
:1011B0004FF0000B0018524149414BEB0B0BB2EBC7
:1011C000080C71EB03077BF1000B24BF6246394624
:1011D0004EEB0E0E51EA020718BF46F0010616EB61
:1011E0000E7655F1000254F1000103D5BDE88901E6
:1011F000BDE80088BDE88901BDE80048B619524144
:1012000041EB0101A3F10103704780807F7E7D7C6B
:101210007B7A7978777676757473727171706F6E88
:101220006E6D6C6C6B6A6A69686867666665646433
:10123000636362616160605F5F5E5E5D5D5C5C5BBD
:101240005B5A5A595958585757565655555554542C
:10125000535352525251515050504F4F4F4E4E4D8A
:101260004D4D4C4C4C4B4B4B4A4A4A4949494848D6
:101270004847474747464646454545444444444316
:1012800043434342424242414141002B9C4630D4B9
:1012900077002BD01CB54FEA370703B44FF010008E
:1012A0004FF01001BAF1000F06D0BCF1000FDCBF07
:1012B00040F0080040F008014FF000000FBCBDE80E
:1012C00010400BF1010BBBF1010F08BF5FEA1707DC
:1012D00022BF12F1010211F101014FF0004143F16F
:1012E000000300F0004043EA00007047F9D35708BC
:1012F000D0E746EA064613F1400F4FEA16461FDDD7
:1013000013F1200FDFBF16430A46002120335B4252
:10131000BED0C3F1200746EA064602FA07F74FEAB5
:10132000164646EA0706C3F1200722FA03F201FA3D
:1013300007F721FA03F14FF0000342EA0702A7E79B
:1013400046EA020646EA06464FEA164646EA01061D
:10135000BCBF46EA0646360C4FF000034FF00002D1
:101360004FF0000194E72DE9804C9A46934670B403
:1013700091E8380007C831EA400C48BF34EA430C12
:1013800003D5FFF7E6FDFFF780FFF0BCBDE8008C5A
:101390002DE9804C9A46934670B491E8380007C80E
:1013A00010F0804F08BF13F0804F03D100F005F814
:1013B000FFF76BFFF0BCBDE8008C20F07F4780EAB0
:1013C000030023F07F4C07EB0C03A3F57C5300F0E4
:1013D0000040A3F1FE0392F0000F00F0B38095F0FF
:1013E000000F00F077802DE901494FEA11404FEAE4
:1013F000144621EA004800FB06FC24EA064708FBE5
:1014000006F607FB08F800FB07F718EB06484CEB5D
:10141000164C4FEA124B18EB07484FEA15464CEBB7
:10142000174022EA0B4E0BFB06FC25EA06470EFB93
:1014300006F607FB0EFE0BFB07F71EEB064E4CEB0A
:10144000164C4FF000061EEB074E4CEB174B18EBFB
:101450000B0840F1000018EB0E0B58EB000840F1B0
:1014600000008F1A4FF000013CBFC943661B14BF38
:10147000B5EB040C00213CBFC943F61B4FEA1744EF
:101480004EEA8E0E27EA04454FEA1C4704FB07622A
:101490002CEA074C05FB07F70CFB05F604FB0CFCDC
:1014A00016EB074642EB174216EB0C4642EB1C428A
:1014B0001BEB060658EB0202414146EA9E0601D5A7
:1014C000BDE80189B619524141EB0101A3F10103C5
:1014D000BDE801894FEA14454FEA114724EA054661
:1014E00021EA074C05FB07F406FB07F70CFB06F1A6
:1014F00005FB0CFC11EB074144EB17444FEA124784
:1015000011EB0C4144EB1C4422EA074C05FB07F2AB
:1015100006FB07F70CFB06F605FB0CFC16EB074673
:1015200042EB174216EB0C4642EB1C456A1854F18D
:10153000000148BF7047B619524141EB0101A3F1C8
:101540000103704795F0000F37D04FEA11424FEA80
:10155000144721EA024624EA074C02FB07F106FB86
:1015600007F70CFB06F402FB0CFC14EB074441EB01
:1015700017414FEA154714EB0C4441EB1C4125EA97
:10158000074C02FB07F506FB07F70CFB06F602FB10
:101590000CFC16EB074645EB174516EB0C4645EBE6
:1015A0001C42121951F1000148BF7047B61952414F
:1015B00041EB0101A3F1010370474FEA14454FEAE3
:1015C000114724EA054621EA074C05FB07F106FB13
:1015D00007F70CFB06F24FF0000605FB0CFC12EBC4
:1015E000074241EB174112EB0C4251EB1C4148BF43
:1015F0007047921841EB0101A3F10103704700000D
:1016000070B504460068816811F0010F2DD1816822
:10161000174A11421AD18168D5432940491C81607B
:1016200000F052FE06461BE0816811F0010F03D165
:1016300081682940491C816000F046FE801B022819
:101640000ED920680068C043C00709D0E06D40F0A3
:101650001000E065206E40F001002066012070BDA2
:1016600020680168C943C907DED1002070BD0000B1
:101670003F000080FEE77047002240F6B83306E0E6
:101680000021491C89B29942FBD3521C92B282427A
:10169000F6D3704772B6FEE72DE9F047044690F89E
:1016A00058009CB00E464FF00009012815D00120CB
:1016B00084F8580000251795189520684FF0A04829
:1016C00040450ED1284F0097384603F041F8824636
:1016D000206803F03DF860B10EE002201CB0BDE8C8
:1016E000F087E06D40F02000E06584F8585001205C
:1016F000F4E7BAF1000F09D0E06D40F02000E0659A
:101700004FF0010984F858504846E7E71748326817
:1017100040F61F71002A826822F4604216D094F8C5
:10172000383042EA433273681A438260D8F808209E
:10173000BB6802F0010203F001031A43E2D1B3686F
:1017400032681A4383688B431A430BE08260D8F8EF
:101750000820BB6802F0010203F001031A43D1D153
:1017600082688A438260CDE7000100500003005088
:101770002DE9F84F00270446009790F85800DFF84D
:10178000D8930D46B846012811D0012684F8586038
:10179000206802F0D9FF60B1E06D40F02000E06504
:1017A0005FF0010784F858803846BDE8F88F0220C2
:1017B000FBE7D5E900210C23206803EA91131844C4
:1017C000036B01F01F014FF01F0C0CFA01FCC2F378
:1017D000846223EA0C038A4013430363206802F007
:1017E000B3FF8246206802F0ABFF5AEA00003CD10A
:1017F000AA6829682068B2F1004F37D002F0ACFF28
:101800002068416921F00041416120686969C2682E
:10181000C2F3C102520091402A69042A31D000EB80
:1018200082002B68026EDFF834C303F0F84302EA4B
:101830000C020B431A4342F00041016620682A69FA
:10184000A96900EB8200026E22F080720A430266F0
:10185000297F22682869012910D0002102EB80002D
:10186000026E22F000720A4302667DE0002202F05E
:1018700073FF2068416941F00041C5E74FF00071F6
:10188000ECE7002102F056FF400320684FF0000112
:1018900072D002F04FFF90FAA0F0B0FA80F1286801
:1018A00042036ED090FAA0F0B0FA80F0814204D1E9
:1018B00000221146206802F05EFF0121206802F03C
:1018C00039FF400320684FF001015DD002F032FF84
:1018D00090FAA0F0B0FA80F12868420359D090FA4B
:1018E000A0F0B0FA80F0814204D1002201212068EA
:1018F00002F041FF0221206802F01CFF4003206833
:101900004FF0020148D002F015FF90FAA0F0B0FAB3
:1019100080F12868420344D090FAA0F0B0FA80F039
:10192000814204D100220221206802F024FF032119
:10193000206802F0FFFE400320684FF0030133D01F
:1019400002F0F8FE90FAA0F0B0FA80F128684203A5
:101950002FD090FAA0F0B0FA80F0814204D100229A
:101960000321206802F007FF2068816811F0010F51
:1019700022D0A8E000E004E002F0DCFEC0F38461C5
:101980008DE7C0F3846091E702F0D4FEC0F3846178
:10199000A2E7C0F38460A6E702F0CCFEC0F3846146
:1019A000B7E7C0F38460BBE702F0C4FEC0F3846114
:1019B000CCE7C0F38460D0E7EB6829684B4550F86A
:1019C000B03FC1F3120101D10B4300E08B43036030
:1019D000E868484577D1286841031CD090FAA0F107
:1019E000B1FA81F1491C01F01F0109294FEA403188
:1019F00032D8002912D000BF90FAA0F1B1FA81F1DB
:101A000001F1010101F01F0106FA01F609D100BF41
:101A1000C0F3846109E0C0F38461E3E7C0F384614B
:101A2000EEE790FAA0F1B1FA81F101F1010101F0C4
:101A30001F0146EA816102D1C0F3846003E090FA9D
:101A4000A0F0B0FA80F000F1010000F01F0000EB00
:101A5000400041EA005132E000290ED090FAA0F196
:101A6000B1FA81F101F1010101F01F0106FA01F65D
:101A700006D100BFC0F3846106E0C0F38461F1E7E2
:101A800090FAA0F1B1FA81F101F1010101F01F0119
:101A900046EA816102D1C0F3846003E090FAA0F0CD
:101AA000B0FA80F000F1010000F01F002C4A00EBBA
:101AB000400002EB005041EA000141F00071AA68C9
:101AC000206802F049FE27482A6802423FF46AAEC5
:101AD00025488168254B01F0E0719A4202D0244BE1
:101AE0009A421CD10B021AD42268B2F1A04F7FF4A3
:101AF00059AE826841F4000122F0E0720A4382602C
:101B00001C481D490068B0FBF1F0401C00EB400090
:101B1000800000E0401E00900028FBD142E6174DF7
:101B2000174BAA4207D1CD0105D422689A42F5D0BD
:101B300041F0807109E0134DAA42EFD14A02EDD481
:101B400022689A42EAD041F48001826822F0E07271
:101B50000A43826026E6000000007F4000F0FF0399
:101B6000000020FE0000088000030050000021C398
:101B70001000C09028000020400D0300000052C754
:101B800000010050000084CB0068006C704700002A
:101B9000F8B54FF0000504002E46009502D0E06D28
:101BA00010B107E00120F8BD204600F0EFF82666EE
:101BB00084F8586020688168C1F3407119B1816868
:101BC0006A4A1140816020688168C1F3007189B957
:101BD0008168674A114041F08051816065486649DB
:101BE0000068B0FBF1F04000801C00E0401E009057
:101BF0000028FBD120688168C1F3007141B9E16D13
:101C000041F01001E165216E41F0010121660125DD
:101C100002F09AFDE16DC90600D430B1E06D40F0EC
:101C20001000E06501252846F8BDE06D20F48070C5
:101C300040F00200E0652068806810F0010F11D1CB
:101C40004FF0A04080684D4900F00100896801F024
:101C50000101084306D14A486168826822F47C1277
:101C60000A438260E168E06B627F0843A16841EA51
:101C70004231084394F8241040EA0140012904D17C
:101C8000218D404A02EB41410843E16A29B101F448
:101C90007871226B014342EA01002168CA683A4B1D
:101CA0001A400243CA6020680169626B21F04061FA
:101CB00011430161206802F047FD0646206802F0EA
:101CC0003FFD30432ED1207F94F83810800340EA46
:101CD00041022068C16844F2020399431143C16084
:101CE00020690028206801690AD041F4803101612F
:101CF000206850F8C01F22696FF30D01114307E0FF
:101D000021F480310161206850F8C01F6FF30D018C
:101D1000016094F8400001280CD02068016921F08E
:101D200001010161606901282068016B21F00F0148
:101D300011D013E0D4E911010843D4E9131211437F
:101D4000084321680A6940F2FC739A43104340F04B
:101D500001000861E6E7226A521E11430163E06D4B
:101D600020F0020040F00100E0655CE7C0FFFF5F8B
:101D7000C0FFFF7F28000020400D0300000100503D
:101D8000000300500000FEFF0740F0FF2DE9F04384
:101D900097B00446142111A8FEF72EFC4421684692
:101DA000FEF72AFC4FF0005021682D4D0327DFF885
:101DB000B49086132C4C4FF00008B1F1A04F10D016
:101DC0002A4A914248D100960F90684600F07AFB6B
:101DD00008B1FFF75FFC2868401C2860012824D068
:101DE0002BE000960F90684600F06CFB08B1FFF7FF
:101DF00051FC2868401C2860012807D1E06C40F4A1
:101E00000050E064E06C00F400501690E06C40F08C
:101E10000200E064E06C11A900F0020016904FF49B
:101E2000805081E88101484614E0E06C40F40050A5
:101E3000E064E06C00F400501690E06C40F00200AA
:101E4000E064E06C11AA00F00200169082E8C00184
:101E500011A9484600F00AF917B0BDE8F083000068
:101E6000180000200004004800100240000100504B
:101E70002DE9F04104463848806800F01F052068CD
:101E800002F062FC18B102210846BDE8F08194F826
:101E9000580001280CD0012084F858002046FFF794
:101EA000AFFB01004FF0000304D084F85830EBE79B
:101EB0000220EAE7E06D40F60162904340F4807052
:101EC000E065264A20684FF0A046904201D137468F
:101ED00000E00746874200D01DB9E76D27F4801760
:101EE000E765E76DFF0404D5276E27F00607276630
:101EF00000E023661C27076084F858302068904271
:101F000001D1334600E00346834215D0A5B1052D2B
:101F100012D0092D10D0E36D43F48013E365904295
:101F200000D13046C0688001AED5E06D20F400508D
:101F300040F48050E065A7E7C268920105D5E26DE4
:101F400022F4005242F48052E2658268044B1A4047
:101F5000121D826098E7000000030050000100504D
:101F6000C0FFFF7F10B590F8253000210122022B21
:101F700003D00421C163012122E003681C6824F01E
:101F80000E041C60836C1C6824F480741C6003685D
:101F90001C6824F001041C6090F84430046C03F0C9
:101FA0001F0302FA03F36360D0E913345C60436DEE
:101FB00033B11C6824F480741C60D0E916345C6072
:101FC00080F82520002280F82420084610BD70B536
:101FD00090F82520002401212346022A07D004225C
:101FE000C26380F8251080F82430012429E00268BB
:101FF000156825F00E0515600268156825F00105C5
:102000001560826C156825F48075156090F8442081
:10201000056C02F01F0201FA02F26A60D0E9132592
:102020005560426D32B1156825F480751560D0E9B0
:102030001625556080F8251080F82430816B01B199
:102040008847204670BD000070B5044600F03CF99A
:102050000546601C02D004484068044400F034F98E
:10206000401BA042FAD370BD1C0000202DE9F04FA8
:10207000DFF82092002301260324A9F1040B85B088
:102080000F2709F1040AABF1040EFAE006FA03F592
:102090002A407CD091F804C00CF0030CBCF1010F75
:1020A00002D0BCF1020F26D1D0F808C0CDF800C094
:1020B0004FEA430C04FA0CF8CDF810C0DDF800C06C
:1020C0002CEA080CCDF800C0D1F80C80DDF810C067
:1020D00008FA0CF8DDF800C048EA0C08C0F80880DF
:1020E000D0F804C02CEA050C0D79C5F300159D400D
:1020F00045EA0C0545600D79ED43AD070ED0C56886
:102100004FEA430804FA08FC25EA0C05D1F808C098
:102110000CFA08FC4CEA050CC0F80CC00D7905F06F
:102120000305022D16D1DD0800EB850CCDF808C0A3
:10213000DCF820805D074FEAD56C07FA0CF528EA39
:1021400005080D6905FA0CF5DDF808C045EA080533
:10215000CCF8205005684FEA430CCDF808C004FACB
:102160000CFC25EA0C0591F804C00CF00308DDF81E
:1021700008C008FA0CF848EA0508C0F800804D6865
:1021800015F4403F7CD0444DD5F860C000E077E0C6
:102190004CF0010CC5F860C02D6E23F0030C05F067
:1021A000010500953D4D65440295AD684FEA837C7D
:1021B0004FEA1C7807FA08FC25EA0C05B0F1904FAD
:1021C00006D0DFF8DCC0604505D14FF0010C20E0FF
:1021D0004FF0000C1DE0DFF8CCC0604502D14FF09D
:1021E000020C16E0DFF8C0C0604502D14FF0030CCE
:1021F0000FE0DFF8B8C0604502D14FF0040C08E0F2
:10220000DFF8ACC0604502D14FF0050C01E04FF0A3
:10221000060C0CFA08FC4CEA050C029DC5F808C037
:10222000D9F80050CC46D1F8048095435FEAC8281D
:1022300000D51543CCF80050DAF80050D446D1F858
:10224000048095435FEA882800D51543CCF80050F8
:10225000DBF80050DC46D1F8048095435FEA88380B
:1022600000D51543CCF80050DEF80050F446D1F804
:10227000048095435FEAC83800D51543CCF8005078
:102280005B1C0A6832FA03F57FF400AF05B0BDE8C5
:10229000F08F0000080401400010024000000140DF
:1022A0000004004800080048000C004800100048E6
:1022B000001400480069084000D0012070470AB1AE
:1022C00081617047816270470148806870470000F3
:1022D0001C000020024881684268114481607047F8
:1022E0001C00002010B50024032000F073F80F201C
:1022F00000F008F808B1012401E000F025F82046BC
:1023000010BD000070B50E4E05460024706898B1EF
:102310004FF47A71B1FBF0F00A490968B1FBF0F0B3
:1023200000F064FD40B9102D06D200222946501E4F
:1023300000F030F8356000E00124204670BD000058
:102340001C000020280000200A4882B0016E41F0E5
:1023500001010166016E01F001010091816D41F002
:1023600080518165806D00F08050009002B000F0D7
:10237000A1B8000000100240002809DB00F01F0295
:10238000012191404009800000F1E020C0F80011D7
:1023900070470000F0B40E4B1B680C46C3F30223D9
:1023A000C3F10705042D00D90425191D072901D201
:1023B000002300E0DB1E012606FA05F1491E21403C
:1023C00099409E40761E16403143F0BC03F0A3BEF8
:1023D0000CED00E0064900F0070208684FF6FF0325
:1023E000184040EA0220034A10430860704700008A
:1023F0000CED00E00000FA052B492C4B0A68322155
:102400004A432B4940B1B0F5007F086829D020F439
:10241000C06040F480602CE00868C0F341200228CE
:1024200004D051F8800F20F4807022E0D1F88000B1
:1024300020F48070C1F88000086820F4C06040F487
:1024400000700860B2FBF3F0401C00E0401E4A69D7
:10245000520501D50028F9D1486940050AD5032065
:102460007047C0F34120022806D051F8800F40F495
:102470008070086000207047D1F8800040F48070C0
:10248000C1F88000086820F4C06040F40070086063
:10249000B2FBF3F0401C00E0401E4A695205DBD558
:1024A0000028F9D1D8E700002800002040420F00A2
:1024B000007000400248816841F4804181607047AB
:1024C000007000402DE9F8430446006800269D4D49
:1024D00000035ED5A86D0027C00008D4A86D40F0A9
:1024E0008050A865A86D012700F080500090DFF8AB
:1024F0005892D9F8001041F48071C9F80010FFF724
:10250000E3FE804606E000BFFFF7DEFEA0EB08001A
:1025100002282BD8D9F80000C005F5D5D5F89000D1
:1025200010F4407014D0216C814211D0D5F8900085
:10253000D5F8901020F4407041F48031C5F8901027
:10254000D5F8901021F48031C5F89010C5F89000AE
:10255000C00711D0FFF7B8FE804641F2883907E086
:10256000FFF7B2FEA0EB0801494501D903260BE0B5
:10257000D5F890008007F3D5D5F89000216C20F4B1
:1025800040700843C5F890001FB1A86D20F080503E
:10259000A8652078C00707D0D5F88800616820F0CA
:1025A00003000843C5F888002078800707D5D5F8D0
:1025B0008800A16820F00C000843C5F88800207846
:1025C000400707D5D5F88800E16820F030000843BF
:1025D000C5F888002078000707D5D5F8880021695C
:1025E00020F0C0000843C5F888002078800607D591
:1025F000D5F88800616920F440600843C5F8880078
:102600002078400607D5D5F88800A16920F440500D
:102610000843C5F888002078000607D5D5F888005B
:10262000E16920F440400843C5F888002088C005CF
:1026300007D5D5F88800216A20F440300843C5F852
:1026400088002088800507D5D5F88800616A20F4C5
:1026500040200843C5F88800208840050FD5D5F8EC
:102660008800A16A20F440100843C5F88800A06AD9
:10267000B0F5801F03D1E86840F48010E86020883E
:1026800000050FD5D5F88800E16A20F44000084322
:10269000C5F88800E06AB0F5800F03D1E86840F41F
:1026A0008010E8602088C0040FD5D5F88800216B21
:1026B00020F040700843C5F88800206BB0F1807F9F
:1026C00003D1E86840F48010E86020884FF0006192
:1026D00080040ED5D5F88800626B20F0406010436E
:1026E000C5F88800606B884203D1E86840F4801028
:1026F000E860208840040ED5D5F88800A26B20F051
:1027000040601043C5F88800A06B884203D1E86898
:1027100040F48010E860208800040FD5D5F88800C8
:10272000E16B20F040500843C5F88800E06BB0F141
:10273000805F03D1E86840F48030E8603046BDE84F
:10274000F883000000100240007000402DE9F047BF
:102750000E4605004FF0000725D0DFF8AC81D8F811
:10276000000000F00F00B0420CD2D8F8001021F0A9
:102770000F013143C8F80010D8F8000000F00F0036
:10278000B04210D12968614CC80741F2883A5AD04A
:102790006868DFF87C91032808D0022820682DD0D3
:1027A000400500282CDB0120BDE8F087206880016F
:1027B000F9D5E06800F00302E068C0F30310401CA4
:1027C000032A19D0534A00BFB2FBF0F0E268C2F30B
:1027D00006225043E268C2F34162521C5200B0FB31
:1027E000F2F0484517D9A06810F0F00F0CD0880718
:1027F00011D5A86840B10EE0474AE5E78003D0E76D
:1028000000F0B6F8484506D9A06820F0F00040F086
:102810008000A0608027A068696820F0030008435A
:10282000A060FFF751FD814606E000BFFFF74CFDB9
:10283000A0EB090151453AD8A068696800F00C0086
:10284000B0EB810FF2D12868810714D5400703D57A
:10285000A06840F4E060A0602878000705D5A06873
:1028600020F4605040F4E060A060A068A96820F007
:10287000F000084304E0802F03D1A06820F0F000AE
:10288000A060D8F80010404601F00F01B14216D9FF
:10289000016821F00F0131430160FFF715FD074684
:1028A00007E000BFFFF710FDC11B514501D9032010
:1028B0007AE7D8F8000000F00F00B042F2D1287893
:1028C000400705D5A068E96820F4E0600843A060EF
:1028D0002878000706D5A068296920F4605040EAEE
:1028E000C100A06000F044F8A1680C4AC1F30311D4
:1028F000515C01F01F01C84009490860094800689F
:10290000BDE8F047FFF7FEBC002002400010024087
:1029100000B4C4040024F40000366E01C66C000844
:10292000280000201C00002005480649006889682E
:10293000054AC1F30221515C01F01F01C8407047F4
:102940002800002000100240D66C00080548064907
:1029500000688968054AC1F3C221515C01F01F017A
:10296000C84070472800002000100240D66C0008C4
:10297000184910B58868C0F381021748012A0BD0A6
:102980008A68164BC2F38102022A06D08A68C2F313
:102990008102032A03D0002010BD184610BDCA686A
:1029A00002F00304CA68C2F30312521C032C02D0C3
:1029B000B0FBF2F001E0B3FBF2F0CA68C968C2F301
:1029C00006225043C1F34161491C4900B0FBF1F0BC
:1029D00010BD0000001002400024F40000366E011B
:1029E0002DE9F84304007AD02078FA4DC00747D08B
:1029F000A868E96800F00C0001F003010C2802D07F
:102A0000082817D001E0032914D06068B0F5803F92
:102A100017D0B0F5A02F286817D020F48030286098
:102A2000286820F4802028606068E0B1FFF74CFC43
:102A3000064614E02868800322D560680028D2D0BA
:102A40001EE0286840F48030EDE740F480202860E4
:102A5000F7E700BFFFF738FC801B642870D82868B0
:102A60008003F7D50CE0FFF72FFC064605E000BF1A
:102A7000FFF72AFC801B6428F0D828688003F7D46D
:102A8000207880074CD5A868E96800F00C0001F0B8
:102A900003010C2802D004280DD001E002290AD03D
:102AA000E068002828682BD040F480702860FFF789
:102AB0000BFC064619E02868400502D5E0680028AE
:102AC00091D06868217C20F0FE4040EA0160686097
:102AD000C1480068FFF716FC002800D120E076E12D
:102AE000FFF7F2FB801B0228B8D828684005F7D50D
:102AF0006868217C20F0FE4040EA016068600FE0D9
:102B000020F480702860FFF7DFFB064605E000BF79
:102B1000FFF7DAFB801B0228A0D828684005F7D40D
:102B20002078000729D560690028D5F8940013D0D3
:102B300040F00100C5F89400FFF7C6FB064606E02A
:102B400090E000BFFFF7C0FB801B022886D8D5F8B5
:102B500094008007F6D510E020F00100C5F894003D
:102B6000FFF7B2FB064604E0FFF7AEFB801B02282E
:102B700078D8D5F894008007F6D42078400761D53E
:102B8000A86D0026C00008D4A86D40F08050A8654C
:102B9000A86D012600F08050009090480168C9059A
:102BA00011D40168804641F480710160FFF78CFB0D
:102BB000074604E0FFF788FBC01B022852D8D8F86C
:102BC0000000C005F6D5A068012815D00528D5F865
:102BD000900016D020F00100C5F89000D5F89000C4
:102BE00020F00400C5F89000A06841F28838B8B120
:102BF000FFF76AFB07460EE0D5F8900040F00100B1
:102C0000F0E740F00400C5F89000F5E7FFF75CFB43
:102C1000C11B414526D8D5F890008007F6D50CE0B9
:102C2000FFF752FB074604E0FFF74EFBC11B41458F
:102C300018D8D5F890008007F6D41EB1A86D20F002
:102C40008050A8652078800629D5A0690028D5F88D
:102C5000980013D040F00100C5F89800FFF734FB4E
:102C6000064606E077E000BFFFF72EFB801B022838
:102C700077D8D5F898008007F6D510E020F001004D
:102C8000C5F89800FFF720FB064604E0FFF71CFBA1
:102C9000801B022865D8D5F898008007F6D4E06933
:102CA000F0B3A968C1F38101032961D00228286823
:102CB00020F0807028600BD0E86820F00300E86006
:102CC000E86847490840E860FFF7FEFA04464BE031
:102CD000FFF7FAFA064604E0FFF7F6FA801B02282F
:102CE0003FD828688001F7D4F4E908016FF00F029B
:102CF00002EB01110843218A5204490802EB4151B9
:102D0000A26841EA02210843217D4FF07E42490832
:102D100002EB41610843217B40EAC160E96800E0C1
:102D200062E0304A11400843E860286840F0807053
:102D30002860E86840F08070E860FFF7C5FA044654
:102D400005E000BFFFF7C0FA001B022809D8286879
:102D50008001F7D548E004E0FFF7B6FA001B02282F
:102D600002D90320BDE8F88328688001F4D43BE051
:102D70000128F7D0E868226A00F00301914226D1C9
:102D8000616A00F0F0020901103991421FD1A26A74
:102D900000F4FE41B1EB022F19D194F82C2000F081
:102DA0007841B1EBC26F12D1218E00F4C002490804
:102DB0004905A1F50011914209D194F8341000F0B1
:102DC000C06049084906A1F1007181420CD0012080
:102DD000C8E70000001002401C0000200070004006
:102DE000FFFFEEFE0C809F010020BBE710B5401EE8
:102DF000B0F1807F01D3012010BD4FF0E02460616D
:102E00000F21601703F087F90020A06107202061DF
:102E1000002010BD7047704770470000F0B590F873
:102E20003C20012A4AD0012280F83C20CA688B68E5
:102E300022F440721A434B6822F480621A430B68F2
:102E400022F400621A430B6922F480521A434B6940
:102E500022F400521A430B6B22F480421A430B8B6C
:102E600022F4702242EA0342154C03680026154DF5
:102E7000A34201D0AB4203D1CF6922F080523A4342
:102E8000A34201D0AB4214D10F8D22F4700242EA6A
:102E900007520F6A22F080723A434F6A22F00072A2
:102EA0003A43A34201D0AB4203D1C96A22F0005297
:102EB0000A435A6480F83C600020F0BD0220F0BD57
:102EC000002C0140003401407047704770470000FB
:102ED000F0B590F83C20012A3AD0012580F83C500A
:102EE000022280F83D2003685A689C68194E1A4FE8
:102EF000B34201D0BB4204D122F4700C4A6842EACA
:102F00000C02DFF858C002EA0C02D1F800C04CEA0B
:102F1000020CC3F804C00268B2420DD0B2F1804F77
:102F20000AD00F4B9A4207D00E4B9A4204D0BA42B5
:102F300002D00D4B9A4204D1896824F080031943D2
:102F4000916080F83D50002180F83C100846F0BDAB
:102F50000220F0BD002C0140003401408FFFFFFD36
:102F6000000400400008004000400140704710B5D8
:102F7000040003D094F83D0010B107E0012010BD1B
:102F8000002084F83C00204600F022F8022084F85B
:102F90003D00211D206802F0EDF8012084F8480072
:102FA00084F83E0084F83F0084F8400084F8410033
:102FB00084F8420084F8430084F8440084F8450013
:102FC00084F8460084F8470084F83D00002010BDD6
:102FD00010B586B0044614216846FDF70DFB216844
:102FE00000223D480223B1F1804F27D03B4CA14243
:102FF00048D1816D41F002018165816D01F00201CE
:103000000591C16C41F00201C164C06C694600F0D9
:103010000200059010200090CDE901323048CDE942
:103020000323FFF723F8002211461D20FFF7B2F912
:103030005FF01D00FFF7A0F906B010BD816D41F0F3
:1030400001018165816D01F001010591C16C41F0C3
:103050000101C164C06C694600F0010005904FF4A5
:1030600000400090CDE901320120CDE903204FF06E
:103070009040FEF7FBFF002211461C20FFF78AF963
:103080001C20D7E7174A91420ED1816D41F004010F
:103090008165806D002200F00400059011461E201D
:1030A000FFF778F91E20C5E70F4A914207D1016E5C
:1030B00041F400310166006E00F4003009E00B4A73
:1030C0009142B9D1016E41F480210166006E00F495
:1030D00080200590B0E7000000100240000400408E
:1030E000000400480008004000440140004801403E
:1030F00090F83D10012901D001207047022180F88D
:103100003D100168CA6842F00102CA6000681049B7
:1031100088420ED0B0F1804F0BD00E49884208D0C3
:103120000D49884205D00D49884202D00C49884299
:1031300007D181680B4A1140062906D0B1F5803FBE
:1031400003D0016841F001010160002070470000D8
:10315000002C014000040040000800400034014001
:10316000004001400700010070B5044690F83C00A3
:103170000025012814D0012684F83C60022084F840
:103180003D0022689068364B184020F47F409060E4
:10319000086870282ED010DC10F00F0F03D021E04B
:1031A0004FF0020070BD4FEA2012072A1AD2DFE862
:1031B00002F0525252524A3840002A4BC21A9842E8
:1031C00049D009DCB0F5805F0DD0B0F5005F1CD0B0
:1031D000B0F1101F06D13EE0102A3CD0202A3AD090
:1031E000502A38D0012584F83D60002084F83C0046
:1031F000284670BDCB68D1E90121206802F01FF894
:103200002068816841F0770109E0CB68D1E90121AC
:10321000206802F014F82068816841F480418160E0
:10322000E1E7CA684968206802F0B4F950212068D3
:1032300006E0CA684968206802F0F4F96021206855
:1032400002F008F8CFE7CA684968206802F0A2F9DE
:1032500040212068F4E7226801461046F0E70000AC
:1032600088FFCEFF200010002DE9F04105462DED2E
:10327000068B002700683D4C9FED3D9B9FED3E8BEC
:10328000B0F1804F33D1287F01286BD1002128462F
:1032900000F018FD03F075FBC4E90601042128467F
:1032A00000F010FD064620612868476294ED06ABE9
:1032B00051EC190B53EC1A2B03F0DEF903F034FB3D
:1032C000A060304603F05DFB53EC1A2B03F0D4F9F9
:1032D00053EC182B03F068FB03F09CF920600021ED
:1032E000284600F011F90421284600F00DF9244980
:1032F0002868884236D1287F012833D1002128460A
:1033000000F0E0FC03F03DFBC4E90801042128467D
:1033100000F0D8FC60612868476294ED08AB51EC7E
:10332000190B53EC1A2B03F0A7F903F0FDFAE06038
:10333000206903F026FB53EC1A2B03F09DF953ECA4
:10334000182B03F031FB03F065F96060002128467B
:1033500000F0DAF8BDEC068B28460421BDE8F04108
:1033600000F0D2B8BDEC068BBDE8F081380000203B
:103370000000000080842E41000000000000594041
:10338000000400402DE9F041054690F83C0000267D
:103390000C46012810D0012085F83C0072B1042AA7
:1033A0001CD0082A2CD00C2A50D00126002085F8E9
:1033B0003C003046BDE8F0810220FBE7D4E9001272
:1033C000E368286802F0F8F82868816921F00C01A8
:1033D000816128688169A26811430FE0D4E9001275
:1033E000E368286802F030F92868816921F44061B7
:1033F000816128688169A26841EA02218161D5E77B
:103400002868D4E9002C277B016A21F480710162CD
:10341000C169036A21F0030141EA0C0121F0F00CBB
:1034200039074FF420674CEA116123F4206307EA5F
:1034300002221A43C16102622868C16921F00C01AD
:10344000C1612868C169A268114328E02868D4E9ED
:103450000027E168036A23F480530362D0F81CC09C
:10346000036A2CF4407C4CEA07274FF6FF7C27F4D4
:1034700070470CEA013139434FF4204723F42043CD
:1034800007EA02321A43C16102622868C16921F465
:103490004061C1612868C169A26841EA0221C16135
:1034A00084E710B5040003D094F83D0010B107E0A4
:1034B000012010BD002084F83C00204600F022F8D6
:1034C000022084F83D00211D206801F053FE0120F8
:1034D00084F8480084F83E0084F83F0084F84000F7
:1034E00084F8410084F8420084F8430084F84400E2
:1034F00084F8450084F8460084F8470084F83D00CD
:10350000002010BD7047000010B5044679B10429B1
:1035100012D0082915D00C2918D0102919D094F8E8
:10352000430000BF94F84720012817D114E094F815
:103530003E0094F84420F7E794F83F0094F84520C3
:10354000F2E794F8400094F84620EDE794F8410043
:10355000E8E794F84200E5E7012A01D0012010BD18
:10356000022081B3042934D0082937D00C293AD05D
:1035700010293BD084F8430084F8470001222068DA
:1035800001F050FE1B49206888420ED0B0F1804FF8
:103590000BD01949884208D01849884205D01849EB
:1035A000884202D01749884207D18168164A1140E3
:1035B000062906D0B1F5803F03D0016841F0010132
:1035C0000160002010BDFFE784F83E0084F844004D
:1035D000D4E784F83F0084F84500CFE784F8400042
:1035E00084F84600CAE784F84100C5E784F8420041
:1035F000C2E70000002C0140000400400008004029
:1036000000340140004001400700010030B504468D
:10361000002571B1042911D0082914D00C2917D024
:10362000102918D094F8430094F84720012817D1A6
:1036300014E094F83E0094F84420F7E794F83F0033
:1036400094F84520F2E794F8400094F84620EDE71E
:1036500094F84100E8E794F84200E5E7012A01D038
:10366000012030BD022079B1042916D008291DD0CF
:103670000C2949D010294AD084F8430084F8470027
:103680000C2947D001253DE084F83E0084F8440031
:103690002068C26842F0020210E084F83F0084F81B
:1036A00045002068C26842F0040207E084F8400048
:1036B00084F846002068C26842F00802C260012215
:1036C000206801F0AFFD1649206888420ED0B0F1A5
:1036D000804F0BD01349884208D01349884205D047
:1036E0001249884202D01249884207D18168114AA2
:1036F0001140062906D0B1F5803F03D0016841F0A2
:1037000001010160284630BD84F84100B6E784F825
:103710004200B3E72068C26842F01002CEE7000022
:10372000002C01400004004000080040003401402B
:10373000004001400700010070B5044600680169BF
:103740004FF00005C943890715D4C168C9438907EB
:1037500011D4E91E0161012020772068806980076B
:10376000204602D0FFF780FD04E000F01BF9204660
:1037700000F0DDF9257720680169C943490717D4AE
:10378000C168C943490713D46FF0040101610220E5
:1037900020772068806910F4407F204602D0FFF730
:1037A00063FD04E000F0FEF8204600F0C0F9257744
:1037B00020680169C943090716D4C168C9430907CC
:1037C00012D46FF008010161042020772068C069DD
:1037D0008007204602D0FFF747FD04E000F0E2F842
:1037E000204600F0A4F9257720680169C943C9067D
:1037F00017D4C168C943C90613D46FF01001016121
:10380000082020772068C06910F4407F204602D04D
:10381000FFF72AFD04E000F0C5F8204600F087F924
:10382000257720680169C943C90708D1C168C94320
:10383000C90704D1891E0161204600F0F7F920680C
:103840000169C943090609D4C168C943090605D4F9
:103850006FF0800101612046FFF7DDFA2068016901
:10386000C943C90509D4C168C943090605D46FF421
:10387000807101612046FFF7CDFA20680169C943D4
:10388000490609D4C168C943490605D46FF040010F
:103890000161204600F02BFA20680169C9438906BE
:1038A00009D4C168C943890605D46FF020010161BC
:1038B0002046FFF7B1FA20680169C943C90209D45B
:1038C000C168C943C90205D46FF480110161204663
:1038D000FFF7FBFA20680169C943890209D4C1686E
:1038E000C943890205D46FF4001101612046FFF736
:1038F000EBFA20680169C943490209D4C168C94388
:10390000490205D46FF4800101612046FFF7DEFA19
:1039100020680169C94309020BD4C168C94309027F
:1039200007D46FF4000101612046BDE87040FFF745
:103930001DBB70BD70B586B0044614216846FCF707
:103940005BFE154E256800221449022401234FF026
:103950009040B54209D1CD6C45F00105CD64C96CEC
:1039600001F00101059140210BE00D4EB54210D14F
:10397000CD6C45F00105CD64C96C01F001010591E4
:1039800080210091CDE901426946CDE90323FEF78C
:103990006DFB06B070BD0000004401400010024005
:1039A00000480140704770B5044690F83C0000267E
:1039B0000D4601280BD0012084F83C000C2A4AD087
:1039C00007DC82B1042A20D0082A06D131E0022087
:1039D00070BD102A53D0142A63D00126002084F829
:1039E0003C00304670BD206801F03EFC20688169D3
:1039F00041F0080181612068816921F00401816141
:103A0000206881692A69114311E0206801F07AFC7D
:103A10002068816941F4006181612068816921F435
:103A200080618161206881692A6941EA022181619E
:103A3000D4E7206801F0AEFC2068C16941F00801BC
:103A4000C1612068C16921F00401C1612068C169B8
:103A50002A69114311E0206801F0E4FC2068C16983
:103A600041F40061C1612068C16921F48061C161D4
:103A70002068C1692A6941EA0221C161AEE7206874
:103A800001F018FD2068016D41F008010165206812
:103A9000016D21F0040101652068016D2A6911435F
:103AA00011E0206801F03EFD2068016D41F40061E5
:103AB00001652068016D21F4806101652068016D58
:103AC0002A6941EA0221016588E710B5040003D0A4
:103AD00094F83D0010B107E0012010BD002084F8EB
:103AE0003C00204600F022F8022084F83D00211D11
:103AF000206801F03FFB012084F8480084F83E0074
:103B000084F83F0084F8400084F8410084F84200C3
:103B100084F8430084F8440084F8450084F84600A3
:103B200084F8470084F83D00002010BD70477047BE
:103B300030B50446022269B1042912D0082917D0F1
:103B40000C291CD0102921D094F84300012824D03E
:103B5000012030BD94F83E000128F9D184F83E20C0
:103B60001DE094F83F000128F2D184F83F2016E0D0
:103B700094F840000128EBD184F840200FE094F83D
:103B800041000128E4D184F8412008E094F8420083
:103B90000128DDD184F8422001E084F8432001228D
:103BA000206801F03FFB194B20681949194A9842D7
:103BB00009D0884207D0904205D0174DA84202D0C4
:103BC000164DA84203D1456C45F400454564206874
:103BD00098420CD0B0F1804F09D0114B984206D0DA
:103BE000104B984203D0884201D0904207D181689F
:103BF0000D4A1140062906D0B1F5803F03D0016877
:103C000041F001010160002030BD0000002C0140A6
:103C100000340140004001400044014000480140A0
:103C200000040040000800400700010070B5006873
:103C3000214988423FD1214D01212846FEF73AFB18
:103C400000B101201E4C022160702846FEF732FBB5
:103C500000B10120207104212846FEF72BFB00B1A2
:103C60000120E07101214FF09040FEF723FB00B1ED
:103C700001200021A07201224FEA010301EB410063
:103C8000255C25B1012D07D0022D11D10BE00519BE
:103C90006D786DB922540BE005196E783EB9AA70A3
:103CA0000225255404E005196D78012D00D1235417
:103CB000491C0429E2DB70BD0008004000040048F4
:103CC000820300200246002041B1042909D00829BE
:103CD0000AD00C2901D11068006C70471068406B45
:103CE00070471068806B70471068C06B70477047F2
:103CF00090F88010012918D0012180F8801024212B
:103D0000C0F8841050F8641B0A680B6823F00103A4
:103D10000B6022F000510022026050F8643C1960F0
:103D200020210162027710467047022070477047D9
:103D3000704770B5044690F8800001281DD001201E
:103D400084F880002420C4F8840020680568026894
:103D500022F0010202602068826822F060620A4359
:103D60008260204601F08CFC206805602020C4F8A9
:103D70008400002084F8800070BD022070BD70B502
:103D8000044690F8800001281DD0012084F88000AE
:103D90002420C4F8840020680568026822F001022B
:103DA00002602068826822F060420A4382602046F6
:103DB00001F066FC206805602020C4F88400002023
:103DC00084F8800070BD022070BD70477047704756
:103DD0002DE9F04103680446D86919689A6840F6ED
:103DE0000F0528424FF0000509D186067ED501F067
:103DF000200602F080573E4378D0216F27E1A94E7C
:103E0000A94F16400F40374370D0C70709D0CF05E0
:103E100007D501271F62D4F88C3043F00103C4F8A2
:103E20008C3083070AD5D30708D0276802233B626A
:103E3000D4F88C3043F00403C4F88C3043070AD51F
:103E4000D30708D0276804233B62D4F88C3043F0B2
:103E50000203C4F88C3003070CD501F02003334370
:103E600008D0266808233362D4F88C3043F0080366
:103E7000C4F88C3003050BD54B0109D526684FF4E7
:103E800000633362D4F88C3043F02003C4F88C30E4
:103E9000D4F88C30002B3AD0800609D501F02000F0
:103EA00002F08051084303D0216F09B120468847B2
:103EB000D4F88C0021688968490602D410F0280FD4
:103EC00027D0204601F09CFC2068806840061BD566
:103ED0002068083050E8001F21F0400140E800123F
:103EE000002AF5D1E06F78B1704900E017E08163F6
:103EF000E06FFEF76CF8002809D0E06F816B00E0FE
:103F00002046BDE8F04108472046FFF760FFBDE8C6
:103F1000F0812046FFF75BFFC4F88C50F7E7E76EAF
:103F20002026012F7ED1C7067CD5CF067AD510205A
:103F3000186220688068400642D5E16F08684068D2
:103F40000004000CE3D0B4F85C208242DFD9A4F86E
:103F50005E000868006880062BD4206850E8001FC7
:103F600021F4807140E80012002AF6D12068083060
:103F700050E8001F21F0010140E80012002AF5D1AD
:103F80002068083050E8001F21F0400140E800128E
:103F9000002AF5D1C4F88860E566216851E8000F71
:103FA00020F0100041E80002002AF6D1E06FFDF792
:103FB000D9FFB4F85C00B4F85E10401A81B22CE06E
:103FC000B4F85C00B4F85E10401A81B2B4F85E0038
:103FD00000289CD000299AD0226852E8000F20F4D3
:103FE000907042E80003002BF6D12E4BDB43206893
:103FF000083050E8002F1A4040E80027002FF6D183
:10400000C4F88860E5662567226852E8000F20F052
:10401000100042E80003002BF6D12046FFF787FE90
:1040200075E7FFE7C70209D5570207D54FF480109F
:1040300018622046BDE8F041FFF7C8BE03060AD566
:1040400001F0800302F40002134304D0616F0029E1
:104050007FF456AF5BE7420611D54A060FD52046DE
:10406000016851E8002F22F0400241E80023002BB4
:10407000F6D1C0F88460456700F0D2F847E7020245
:1040800006D54A0004D52046BDE8F041FFF79DBEA5
:10409000C001C5D50029C3DA2046BDE8F041FFF7CD
:1040A00047BE00000100001020010004ED57000889
:1040B00010B5040003D0D4F8840010B107E001204B
:1040C00010BD002084F88000204600F027F824204E
:1040D000C4F884002068016821F0010101602046D5
:1040E00001F0D0FD0128EBD0A06A10B1204601F00C
:1040F000E9FA2068416821F49041416020688168B4
:1041000021F02A0181602068016841F0010101600D
:104110002046BDE8104001F039BB000010B598B052
:104120000446142111A8FCF767FA44216846FCF7FD
:1041300063FA1B492068884230D101200024CDE970
:1041400000046846FEF7BEF908B1FDF7A3FA15486A
:10415000016E41F480410166016E01F480411691C7
:10416000C16C41F00101C164C06C11A900F00100F3
:1041700016904FF4C06011900220CDE91204072080
:10418000CDE914404FF09040FDF770FF002211463A
:104190002520FEF7FFF82520FEF7EEF818B010BD39
:1041A000003801400010024030B4D0F88830202B95
:1041B00020D1E1B1DAB190F88030012B1AD001237F
:1041C00080F880300023C3660B4C0368A3420BD0F9
:1041D0005B681B0208D5046854E8003F43F0806325
:1041E00044E80035002DF6D130BC01F085BE012039
:1041F00030BC70470220FBE7008000400549064BB9
:1042000008784A781A54401C08700122491C034857
:10421000FFF7CABF3200002064030020D402002050
:104220007047FEE770B50824002500F01BFF13E07F
:104230006806050E002000F0FDFE142001F082FF4C
:10424000142001F07FFF012000F0F4FE142001F0A3
:1042500079FF00F0FBFE0543641EE4B2E8D20020C3
:1042600000F0E8FE142001F06DFF00F01DFF28466D
:1042700070BD70B50446082516E000F0DBFE142082
:1042800001F060FF04F0800000F002FF142001F054
:1042900059FF6006040E142001F054FF012000F0C5
:1042A000C9FE142001F04EFF6D1EEDB24FF000006C
:1042B000E3D200F0BFFEBDE87040142001F042BF21
:1042C00010B5012000F0E4FE142001F03BFF0120B6
:1042D00000F0B0FE142001F035FF002000F0D8FE01
:1042E000142001F02FFF002000F0A4FEBDE81040D4
:1042F000142001F027BF10B5002000F09BFE142011
:1043000001F020FF002000F0C3FE142001F01AFF8E
:10431000012000F08FFE142001F014FF012000F0B6
:10432000B7FEBDE81040142001F00CBF10B5052405
:1043300000F098FE142001F005FF012000F07AFE45
:10434000142001F0FFFE05E0641EA4B2142001F069
:10435000F9FE6CB100F07AFE0028F5D100F0A4FE61
:10436000002000F067FE142001F0ECFE002010BDDC
:1043700000F09AFEFFF7BFFF012010BD00B585B029
:1043800014216846FCF738F94FF6FF7000900020C2
:104390000321CDE90201019069460248FDF766FE5E
:1043A00005B000BD0008004800B585B0142168467E
:1043B000FCF722F94FF6FF700090012001900320D6
:1043C00003900020029069460248FDF74FFE05B0B9
:1043D00000BD00000008004870B5002406462146D4
:1043E000204600F003F900F041F94FF496353046CD
:1043F00000F010F9641CAC42F9D370BD30B587B041
:1044000014216846FCF7F8F81E48C16C41F004011D
:10441000C164C16C01F004010591C16C41F001015E
:10442000C164C16C01F001010591C16C41F0020150
:10443000C164C06C012500F0020005904FF4487083
:10444000CDE9000500240394694602940E48FDF767
:104450000DFE280203940090CDE901544FF09044E2
:1044600069462046FDF702FEFFF79EFFA06940F473
:104470008070A06104481830016841F4087101603F
:1044800007B030BD0010024000040048203AD2B20C
:10449000034B02EB420203EB021200F019B80000DA
:1044A000DE6C0008F0B50E460746002540F23F14CA
:1044B00007E021463846FFF7E9FF103C6D1CA4B227
:1044C000761C3278002A01D0142DF2D3F0BD000002
:1044D0002DE9F04791468A460026044600F086F80A
:1044E000DFF84080012700BF00F0C0F85FF0000552
:1044F00039F8160007FA05F10842404601D1408814
:1045000000E0008800F086F86D1C102DF0D3641CCC
:10451000E4B25146204600F069F8761C182EE3D329
:10452000BDE8F0872C00002010B5FFF767FF0020E2
:1045300000F014F8084CA080A088A0F502413039A2
:1045400006D000F075FC002000F008F8A08010BD37
:1045500000F0E5FBF7E700002C00002070B51D49D6
:104560000A6842F400720A600A6842F480720A60C3
:10457000184C103C226842F020022260164A10605B
:10458000086840F02000086000BF00BF00BF20683E
:1045900040F020002060206840F480702060FFF729
:1045A000EDFE4FF09041886A40F48070886200BF51
:1045B00000BF00BF0848001F006885B2886940F44A
:1045C00080708861FFF7F0FE206840F40070206082
:1045D000284670BD280400481408004801B5BDF8FD
:1045E00000000149488008BD2C00002010B50C4691
:1045F0000146202000F068F82146BDE81040212047
:1046000000F062B801B5BDF800000149088008BD9E
:104610002C000020134A116841F400711160114907
:1046200010390B6843F480730B600B6843F0200370
:104630000B600D4B1860106840F02000106000BF48
:1046400000BF00BF086840F020000860086840F420
:104650008070086000BF00BF00BF086840F40070B1
:104660000860704728040048140800481449086886
:1046700040F400700860086840F4807008601048DA
:104680001038026842F0200202600E4B22221A60AB
:104690000A6842F020020A6000BF00BF00BF016844
:1046A00041F020010160016841F48071016000BFA8
:1046B00000BF00BF016841F4007101607047000055
:1046C0002804004814080048184B10B51A6842F432
:1046D00000721A601A6842F480721A60134A103A23
:1046E000146844F020041460114C2060186840F0F5
:1046F0002000186000BF00BF00BF106840F020001D
:104700001060106840F4807010602160186840F0FC
:104710002000186000BF00BF00BF106840F02000FC
:104720001060106840F48070106010BD28040048CC
:104730001408004800EB8100006E00F0F84070475C
:104740008068C0F3C00070478068C0F38000704785
:104750008068C0F380007047042303EAD15310B58A
:1047600018444369C1F3045107248C40A3438A4091
:104770001343436110BD00EB8100016E21F0004145
:10478000114301667047000030B58BB000240894D7
:104790000994202168460A94FBF72EFF1C484FF02D
:1047A000A041042501604FF40031C0E90114C46048
:1047B0000461C0E90545047744770121016280F86E
:1047C0002440C462046380F83840C46380F84040E9
:1047D000FDF7DEF908B1FCF75DFF08A90C48089465
:1047E000FCF75AFF08B1FCF755FF0A480090062075
:1047F000CDE901047F200594CDE90305694604480D
:10480000FCF7B6FF002801D0FCF744FF0BB030BD29
:10481000800000200008302E30B589B02021684685
:10482000FBF7EAFE19481849002401604902C0E973
:104830000114C46004250461C0E905450477447788
:104840000121016280F82440C462046380F838408A
:10485000C46380F84040FDF79BF908B1FCF71AFFEC
:104860000B4800900620CDE901047F200594CDE996
:10487000030569460548FCF77BFF002801D0FCF7DB
:1048800009FF09B030BD000000010050EC0000201D
:104890000080F03E2DE9F04F87B014216846FBF709
:1048A000ABFE4248C16C41F00401C164C16C01F02F
:1048B00004010591C16C41F02001C164C16C01F09B
:1048C00020010591C16C41F00101C164C16C01F08E
:1048D00001010591C16C41F00201C164C16C01F09C
:1048E00002010591C16C41F00801C164C06CDFF8A0
:1048F000C08000F00800059001224FF47B41404643
:10490000FDF7DDFC0022FF214046FDF7D8FC4FF407
:1049100080764FF09049002231464846FDF7CFFCA3
:10492000DFF890A0002204215046FDF7C8FCDFF814
:1049300088B04FF47877002239465846FDF7BFFC1F
:104940004FF6FF30009001250024CDE9015469465F
:1049500040460394FDF78AFBCDE90054694648467A
:104960000295FDF783FB07208DE831006946584624
:10497000FDF77CFB0096CDE9015469464846039457
:10498000FDF774FB04200090CDE9015469465046C0
:104990000394FDF76BFB0097CDE901546946584637
:1049A0000394FDF763FB07B0BDE8F08F00100240F1
:1049B00000080048000C00480004004810B594B0FE
:1049C0001C210DA8FBF718FE34216846FBF714FEE6
:1049D00020481F490024016041F63F71C0E90114DD
:1049E0006321C0E9031444618461FEF7C0FA08B191
:1049F000FCF750FE1748FFF768F808B1FCF74AFECD
:104A000060200D900A20CDE90E04109411941294A8
:104A100000220DA90F481394FEF7C5FF08B1FCF75B
:104A200039FE00944FF40050CDE904400194029403
:104A300003940694694607480C94FEF7EFF908B111
:104A4000FCF728FE0348FEF775FF14B010BD000008
:104A5000004401403C02002010B594B01C210DA878
:104A6000FBF7CAFD34216846FBF7C6FD20481F4905
:104A70000024016040F69F71C0E901146321C0E980
:104A8000031444618461FEF772FA08B1FCF702FE78
:104A90001748FFF71AF808B1FCF7FCFD60200D90ED
:104AA0000A20CDE90E0410941194129400220DA94D
:104AB0000F481394FEF777FF08B1FCF7EBFD009465
:104AC0004FF40050CDE904400194029403940694FD
:104AD000694607480C94FEF7A1F908B1FCF7DAFD26
:104AE0000348FEF727FF14B010BD00000048014046
:104AF0008802002010B58CB0002405942648049448
:104B00000694079408940A940994009401940294DA
:104B10004FF08041039401604F21C0E90114611EF0
:104B2000C0E903148461FEF722FA08B1FCF7B2FD74
:104B30004FF48050049004A91748FEF715FB08B104
:104B4000FCF7A8FD1448FEF7ACFC08B1FCF7A2FD89
:104B5000089408A910480A94FEF7BAF908B1FCF7BE
:104B600099FD0120CDE900400294002269460A48DF
:104B70000394FEF707FC08B1FCF78CFD02200090BF
:104B80000190042269460448FEF7FCFB002801D08E
:104B9000FCF780FD0CB010BD5801002010B58CB0A2
:104BA00000240594274804940694079408940A94D2
:104BB00009940094019402942149039401604F21C7
:104BC000C0E901144FF6FF71C0E903148461FEF7D8
:104BD000CEF908B1FCF75EFD4FF48050049004A9B3
:104BE0001848FEF7C1FA08B1FCF754FD1548FEF766
:104BF00058FC08B1FCF74EFD089408A911480A9426
:104C0000FEF766F908B1FCF745FD0120CDE900404B
:104C10000294002269460B480394FEF7B3FB08B1E7
:104C2000FCF738FD022000900190042269460548F7
:104C3000FEF7A8FB002801D0FCF72CFD0CB010BD3E
:104C400000040040A401002010B588B000241748DB
:104C500000940194029403940494059412490694D8
:104C600001604F21C0E9011442F20F71C0E9031441
:104C70008461FEF77CF908B1FCF70CFD4FF480501D
:104C8000009069460948FEF76FFA08B1FCF702FD8B
:104C9000049404A905480694FEF71AF9002801D0E7
:104CA000FCF7F8FC08B010BD00080040F00100203F
:104CB000184810B5164901604FF4165141600021A3
:104CC00081600C22C160C0E904128161C16101628E
:104CD00041628162FFF7ECF908B1FCF7DBFC0021CF
:104CE0000C48FFF74CF808B1FCF7D4FC0021094848
:104CF000FFF71FF808B1FCF7CDFC0648FEF7F8FFF8
:104D0000002803D0BDE81040FCF7C4BC10BD000073
:104D100000380140D4020020FEE7FEE7704730B5BE
:104D200001210020FFF7D0FC4FF47A70FCF7A4FCBF
:104D300000210120FFF7C8FC41F290711020FFF71D
:104D4000C3FC4FF41C516020FFF7BEFC0121612021
:104D5000FFF7BAFC02214620FFF7B6FC48F210012B
:104D60001320FFF7B1FC48F2FE011220FFF7ACFC64
:104D70004FF4A0610220FFF7A7FC41F230010320AD
:104D8000FFF7A2FC40F2033421463020FFF79CFCE1
:104D900021463120FFF798FC21463220FFF794FC92
:104DA000E51E29463320FFF78FFC03213420FFF74F
:104DB0008BFC21463520FFF787FC14213620FFF7B6
:104DC00083FC21463720FFF77FFC21463820FFF780
:104DD0007BFC21463920FFF777FC29463A20FFF774
:104DE00073FC03213B20FFF76FFC21463C20FFF7BB
:104DF0006BFC4FF4A0513D20FFF766FC4FF40071AF
:104E00009220FFF761FC21469320FFF75DFC40F6FE
:104E10000D019020FFF758FC41F218010320FFF725
:104E200053FCBDE8304040F273110720FFF74CBC43
:104E300010B543F20801E320FFF746FC1221E720FA
:104E4000FFF742FC41F23121EF20FFF73DFC00214A
:104E50000120FFF739FC4FF4E0610220FFF734FC3A
:104E600041F230010320FFF72FFC00210420FFF75F
:104E70002BFC40F207210820FFF726FC0021092027
:104E8000FFF722FC00210A20FFF71EFC00210C2066
:104E9000FFF71AFC00210D20FFF716FC00210F2060
:104EA000FFF712FC00211020FFF70EFC0721112054
:104EB000FFF70AFC00211220FFF706FC0021132057
:104EC000FFF702FCC820FDF7BFF841F29061102007
:104ED000FFF7FAFB40F227211120FFF7F5FB322004
:104EE000FDF7B2F81D211220FFF7EEFB3220FDF78F
:104EF000ABF84FF400611320FFF7E6FB14212920E3
:104F0000FFF7E2FB0B212B20FFF7DEFB3220FDF742
:104F10009BF800212020FFF7D7FB00212120FFF77D
:104F2000D3FB07213020FFF7CFFB40F20771312080
:104F3000FFF7CAFB06213220FFF7C6FB40F20471DF
:104F40003520FFF7C1FB41F604713620FFF7BCFBAB
:104F500004213720FFF7B8FB00213820FFF7B4FB0E
:104F600040F206713920FFF7AFFB40F201713C209F
:104F7000FFF7AAFB0F213D20FFF7A6FB00215020E1
:104F8000FFF7A2FBEF215120FFF79EFB00215220EB
:104F9000FFF79AFB40F23F115320FFF795FB4FF4C8
:104FA0001C516020FFF790FB01216120FFF78CFB73
:104FB00000216A20FFF788FB00218020FFF784FB97
:104FC00000218120FFF780FB00218220FFF77CFB7E
:104FD00000218320FFF778FB00218420FFF774FB7A
:104FE00000218520FFF770FB10219020FFF76CFB5C
:104FF00000219220FFF768FB03219320FFF764FB59
:105000004FF488719520FFF75FFB00219720FFF791
:105010005BFB00219820FFF757FB41F218010320AA
:10502000FFF752FBBDE8104040F273110720FFF775
:105030004BBB000008B1044801E003481030016890
:1050400041F04001016070471804004810B580210C
:105050000348FDF72FF9012800D0002010BD000003
:105060000004004800B585B014216846FBF7C4FA77
:1050700080200090002001900120029002200390E7
:1050800069460248FCF7F2FF05B000BD0004004885
:1050900008B1044801E003481030016841F0800184
:1050A000016070471804004800B585B014216846B7
:1050B000FBF7A2FA802000901120019000200290BE
:1050C0000220039069460248FCF7D0FF05B000BDFE
:1050D000000400487047FDF7FDB810B594B03821C2
:1050E0006846FBF789FA14210EA8FBF785FA4FF4FE
:1050F0000070FDF781F9012000900004019002206A
:105100000324CDE907041421CDE90A100C900D9079
:1051100009946846FDF764FC08B172B6FEE70F20FB
:10512000CDE90E04002010901190129002210EA8DB
:10513000FDF70CFB002801D072B6FEE714B010BDDD
:105140000248016841F470010160704788ED00E099
:105150000148FEF7F1BA0000580100200148FEF7AF
:10516000EBBA0000A40100200148FEF7E5BA0000F8
:10517000F00100202DE9F0430268234B234D244E1B
:10518000244C4FF08049984207D0484505D0A842AA
:1051900003D0B04201D0A04203D122F070074A6888
:1051A0003A431D4FDFF874C0DFF8748098420DD089
:1051B00048450BD0A84209D0B04207D0A04205D044
:1051C000B84203D0604501D0404503D122F4407578
:1051D000CA682A434D6922F080022A4302608A6825
:1051E000C2620A688262984207D0A04205D0B842E3
:1051F00003D0604501D0404501D109690163012117
:105200004161BDE8F0830000002C01400004004033
:1052100000080040003401400040014000440140CB
:105220000048014010B501F01F030121046A9940B4
:105230008C430462016A9A401143016210BD10B5AB
:10524000846842EA032224F47F440A4322438260B2
:1052500010BD00008268034B1A400A4342F0070168
:10526000816070478FFFCFFF2DE9F043026A22F083
:1052700001020262056A436882691C4C25F002053E
:1052800022400C6822F0030214438A68194E2A4314
:10529000174D194FDFF864C0DFF86490A84207D0BB
:1052A000B04205D0B84203D0604501D0484506D190
:1052B00022F00808CA6842EA080222F00402A84262
:1052C00007D0B04205D0B84203D0604501D0484570
:1052D00005D14D6923F440731D438B692B43436013
:1052E0008461496841630262BDE8F0838FFFFEFF7D
:1052F000002C0140003401400040014000440140C6
:1053000000480140F0B5026A22F010020262056A0C
:1053100042688369194C1B4E23400C6823F4407388
:1053200043EA042425F020038D6843EA0513144D55
:10533000A84201D0B04206D1CF6823F0800343EAEF
:10534000071323F04003A8420AD0B04208D00E4D04
:10535000A84205D00D4DA84202D00D4DA84207D15C
:105360004D6922F4406242EA85028D6942EA850273
:1053700042608461496881630362F0BDFF8FFFFE74
:10538000002C014000340140004001400044014035
:1053900000480140F0B5026A22F480720262056A98
:1053A0004368C269194C1B4E22400C6822F003026C
:1053B000144325F400728D6842EA0522144DA84278
:1053C00001D0B04206D1CF6822F4006242EA07223F
:1053D00022F48062A8420AD0B04208D00E4DA84202
:1053E00005D00E4DA84202D00D4DA84207D14D69FF
:1053F00023F4405343EA05138D6943EA05134360E0
:10540000C4614968C1630262F0BD00008FFFFEFF06
:10541000002C0140003401400040014000440140A4
:1054200000480140F0B5026A22F480520262056A27
:105430004268C369194C1B4E23400C6823F4407327
:1054400043EA042425F400538D6843EA0533144DE0
:10545000A84201D0B04206D1CF6823F4004343EA0A
:10546000073323F48043A8420AD0B04208D00E4D3F
:10547000A84205D00D4DA84202D00D4DA84207D13B
:105480004D6922F4404242EA85128D6942EA851252
:105490004260C461496801640362F0BDFF8FFFFE92
:1054A000002C014000340140004001400044014014
:1054B0000048014030B5026A22F480320262046A78
:1054C0004268036D114D2B400D681D4324F40033D9
:1054D0000C8943EA04430E4CA0420BD00D4CA04271
:1054E00008D00D4CA04205D00C4CA04202D00C4C70
:1054F000A04204D14C6922F4803242EA0422426084
:10550000056549688164036230BD00008FFFFEFFBE
:10551000002C0140003401400040014000440140A3
:105520000048014030B5026A22F480120262046A27
:105530004268036D114D24F400142B400D6843EABA
:1055400005230D8944EA05540D4DA8420BD00D4D9D
:10555000A84208D00C4DA84205D00C4DA84202D05C
:105560000B4DA84204D14D6922F4802242EA8522E3
:10557000426003654968C164046230BDFF8FFFFE6D
:10558000002C014000340140004001400044014033
:105590000048014010B5036A046A24F00104046263
:1055A000846924F0F00444EA021423F00A020A4356
:1055B0008461026210BD000070B5046A24F0010429
:1055C00004628469056A124EB0420ED0B0F1804F79
:1055D0000BD0104EB04208D00F4EB04205D00F4E47
:1055E000B04202D00E4EB04203D124F00304144363
:1055F00001E044F001041A0724F0F00444EA1262C6
:1056000025F00A0301F00A0119438261016270BDAD
:10561000002C01400004004000080040003401401C
:105620000040014010B5036A23F010030362836950
:10563000046A23F4704343EA023224F0A00343EAED
:1056400001118261016210BD30B5046A24F01004BA
:1056500004628469056A24F4407444EA022222F454
:1056600070444FF6FF7202EA03322243A02425F071
:10567000A00304EA011119438261016230BD0000F8
:1056800030B5416EB9B1026891689268C1F3426168
:105690000B4B520F9C5CE50003F10804A25CB5FBC8
:1056A000F2F2A0F86A205A5C615CD200B2FBF1F120
:1056B000A0F8681030BD0121A0F86A10F8E70000DA
:1056C000B66C000890F82810C90706D001684A682F
:1056D000C36A22F400321A434A6090F828108907FE
:1056E00006D501684A68036B22F480321A434A6087
:1056F00090F82810490706D501684A68436B22F4E0
:1057000080221A434A6090F82810090706D50168DC
:105710004A68836B22F400421A434A6090F82810CA
:10572000C90606D501688A68C36B22F480521A4301
:105730008A6090F82810890606D501688A68036C8B
:1057400022F400521A438A6090F82810490611D5B5
:1057500001684A68436C22F480121A434A60416C23
:10576000B1F5801F06D101684A68836C22F4C0023B
:105770001A434A6090F82810090606D501684A685D
:10578000C06C22F4002202434A607047F8B500263C
:105790000446C0F88C60FCF797FD05462068006859
:1057A0006FF07E47000708D52B4600224FF400110A
:1057B0002046009700F02CFC60B920680068400784
:1057C0000AD52B4600224FF480012046009700F0B6
:1057D0001FFC08B10320F8BD2020C4F88400C4F8E1
:1057E000880044F86C6F00202675F8BD10B5806AFB
:1057F0000021A0F85E10A0F85610FEF7E8FA10BDE0
:1058000010B5026852E8001F21F4907142E80013BD
:10581000002BF6D10E4B0268083252E8001F1940E7
:1058200042E80014002CF6D1C16E012908D10168AC
:1058300051E8002F22F0100241E80023002BF6D19E
:105840002021C0F888100021C166016710BD00004A
:10585000FEFFFFEF10B5B0F86020D0F88830016887
:10586000222B04D0886940F00800886110BD496A85
:10587000836D11401980816D891C8165B0F85E10BF
:10588000491EA0F85E10B0F85E100029EED1026843
:1058900052E8001F21F4907142E80013002BF6D16A
:1058A0000168083151E8002F22F0010241E800238D
:1058B000002BF5D12021C0F8881000210167C26EAD
:1058C000012A02D0FEF79AFC10BDC166026852E8B8
:1058D000001F21F0100142E80013002BF6D10168EF
:1058E000CA69D243D20601D410220A62B0F85C1011
:1058F000FEF71DFA10BD00002DE9F0470446B0F890
:1059000060600068C569D0F800A0D0F80880D4F8BD
:105910008810222905D0816941F008018161BDE824
:10592000F087B4F868704FF0000963E02068406ABF
:10593000A16D30400880A06D801CA065B4F85E00A9
:10594000401EA4F85E002068C569690730D0E907E9
:105950000AD05FEACA5107D501210162D4F88C0050
:1059600040F00100C4F88C00A8070BD55FEAC870AE
:1059700008D0216802200862D4F88C0040F00400AE
:10598000C4F88C0068070BD55FEAC87008D021689E
:1059900004200862D4F88C0040F00200C4F88C00A7
:1059A000D4F88C0020B12046FEF711FAC4F88C9090
:1059B000B4F85E00F0B9216851E8000F20F480705F
:1059C00041E80002002AF6D1264A2068083050E853
:1059D000001F114040E80013002BF6D12020C4F82E
:1059E0008800C4F87090E16E4846012923D0204613
:1059F000FEF704FC0FB1A80698D4B4F85E000028A6
:105A00008DD0B4F86810814289D92068083050E8F8
:105A1000001F21F0805140E80012002AF5D1124801
:105A20002067206850E8001F41F0200140E8001284
:105A3000002AF6D173E7E066216851E8000F20F0F4
:105A4000100041E80002002AF6D12068C169C9436C
:105A5000C90601D410210162B4F85C102046FEF79B
:105A600066F9C7E7FEFFFFEF5558000810B5B0F81C
:105A70006020D0F888300168222B04D0886940F07B
:105A80000800886110BD496A1140826D1170816DF6
:105A9000491C8165B0F85E10491EA0F85E10B0F890
:105AA0005E100029EED1026852E8001F21F49071C7
:105AB00042E80013002BF6D10168083151E8002FAD
:105AC00022F0010241E80023002BF5D12021C0F88B
:105AD000881000210167C26E012A02D0FEF78EFBFA
