:020000040800F2
:100000002009002099020008DB440008553A000846
:10001000D9440008D9140008434E0008000000002D
:1000200000000000000000000000000095480008EB
:10003000DB14000800000000DD44000897480008B9
:10004000B3020008B3020008B3020008B3020008BC
:10005000B3020008B3020008B3020008B3020008AC
:10006000B3020008B3020008B3020008B30200089C
:10007000B3020008B3020008B3020008B30200088C
:10008000B302000800000000B3020008B302000839
:10009000B3020008B3020008B3020008B30200086C
:1000A000B3020008B3020008B3020008B30200085C
:1000B00015490008214900082D490008B30200082D
:1000C000B3020008B3020008B3020008B30200083C
:1000D000B3020008B3020008B3020008B30200082C
:1000E000B3020008B3020008B3020008B30200081C
:1000F000B3020008B3020008B302000800000000C9
:1001000000000000B302000800000000B302000875
:10011000B302000800000000B3020008B3020008A8
:10012000B3020008B3020008B3020008B3020008DB
:10013000B30200080000000000000000B302000845
:10014000B3020008B3020008000000000000000035
:10015000000000000000000000000000000000009F
:10016000000000000000000000000000B3020008D2
:10017000B3020008000000000000000000000000C2
:1001800000000000B30200080000000000000000B2
:10019000000000000000000000000000000000005F
:1001A0000000000000000000B3020008B3020008D5
:1001B000B3020008B3020008B30200080000000008
:1001C00000000000B3020008000000000000000072
:1001D000B3020008B302000800F002F800F04CF887
:1001E0000AA090E8000C82448344AAF10107DA4592
:1001F00001D100F041F8AFF2090EBAE80F0013F098
:10020000010F18BFFB1A43F001031847006A0000F2
:10021000206A0000103A24BF78C878C1FAD8520783
:1002200024BF30C830C144BF04680C607047000070
:100230000023002400250026103A28BF78C1FBD8EF
:10024000520728BF30C148BF0B607047662905F0D0
:10025000A083642900F05480002070471FB505F08A
:100260008EFB00F0C1FB04000020002105F038F8EF
:10027000E0601FBD10B510BD00F0B6FC1146FFF7E1
:10028000EDFF04F0D9FF00F0D4FC03B4FFF7F2FF58
:1002900003BC00F017FD00000948804709480047EB
:1002A000FEE7FEE7FEE7FEE7FEE7FEE7FEE7FEE726
:1002B000FEE7FEE704480549054A064B7047000083
:1002C00005490008D901000820030020200900206A
:1002D00020050020200500200FB41CB5074B06AAFE
:1002E0007B4469460090059800F065FB0020694654
:1002F00000F074FB1CBC5DF814FB0000F906000064
:100300002DE9F0410646002410687529314616A5EE
:1003100010D0AFF30080002802DA404213A507E0B6
:1003200031688A0701D512A502E0490704D511A555
:10033000012401E0AFF3008000210A2206F1240726
:1003400009E0B0FBF2FCB0FBF2F302FB1C00303022
:1003500078541846491C0028F3D123462A463046D3
:10036000BDE8F04100F0B9B8000000002D00000029
:100370002B000000200000002DE9F0474FF0000A9C
:1003800089460446C0F820A02046E1688847002836
:1003900076D0252806D0D4E901219047206A401C58
:1003A0002062F1E7E168204600258847C4F81CA0D8
:1003B00006460027C4F818A02A2E09D0304604F0BB
:1003C00069FD38B304EB8708303EC8F8186019E0BF
:1003D00059F8041B204604EB87029161E1688847C5
:1003E000012F064618D1E069002820DA25F0200503
:1003F0001DE0D8F8180000EB800006EB4000303814
:10040000C8F818002046E1688847064604F042FD17
:100410000028EED1012F0AD02E2E08D12046E16807
:1004200088477F1C0646022F45F02005C4DBA069E3
:10043000002803DA404245F00105A061E80701D039
:1004400025F01005B6B1A6F14100192802D82036D2
:1004500045F400654A463146204625604D46FFF783
:10046000F5FE58B1012806D0ED1D25F0070000F17A
:10047000080989E704E005F1040985E730468AE7C1
:10048000206ABDE8F0874FF0000200B5134694469D
:100490009646203922BFA0E80C50A0E80C50B1F1DC
:1004A0002001BFF4F7AF090728BFA0E80C5048BFF0
:1004B0000CC05DF804EB890028BF40F8042B08BF8E
:1004C000704748BF20F8022B11F0804F18BF00F88A
:1004D000012B70477047704770472DE9F0470D4674
:1004E00099469246044600F124080168880604D51E
:1004F000E06921F01001216000E00120A84201DD47
:10050000471B00E00027A1697A1902EB0900081ACD
:10051000A0612078C00602D42046AFF300800026F8
:1005200008E0D4E901211AF806009047206A401C2F
:10053000761C20624E45F4DB2078C0060AD52046A2
:10054000AFF3008006E0D4E9012130209047206A13
:10055000401C2062381EA7F10107F4DC07E0D4E953
:10056000012118F805009047206A401C2062281ECF
:10057000A5F10105F3DC2046AFF3008020780006EA
:1005800002D50220BDE8F0870120FBE770472DE986
:10059000FF4F0C461E464FF0FF378BB0D2E90001EB
:1005A000DDF860800A908A46C1F30A5505B93D46D8
:1005B000002108464FF00000BAF1000F00F440009F
:1005C00005DA00EB80004FF4400101EA50004FEAE9
:1005D0009059B9F1010F00DDB9460A9850EA4A0076
:1005E0000ED044F61050A5F2FF3545432F14B8F154
:1005F000000F1ED07542291E1EDDC9F100021CE04D
:10060000B8F1010F4FF0000001D0302103E0F243B8
:1006100005E02154401CB042FBDB304600220021A3
:1006200021540B99C1F80880C1E900200FB0BDE842
:10063000F08FBD1B6D1CDEE74A4600DA694206A852
:1006400000F05CFA06AB93E8070003AB83E8070011
:1006500050460A9900F03DFB8DE80700A0F50050D8
:100660001F3800900398002D0ADD42F21F014A4610
:100670000844002303A90390684600F0A6FD09E0A2
:10068000A0F500504A461F38002303A9039068468E
:1006900000F0B0FD8DE807000004000C03D04FF01F
:1006A000FF30410800E01046B8F1000F03D00022EF
:1006B000009215461EE0751E05D400F099F93032FF
:1006C00062556D1EF9D5B3460122084302D00022BF
:1006D0007F1C04E02078302801D100227F1E002AF0
:1006E000099784D01DE0112D07DA00F081F930322E
:1006F00062556D1C50EA0102F5D1084302D0009802
:10070000C8B10EE00021681E05E0235C625C635402
:100710002254401E491C8142F7DBAB46A81B401EF9
:100720000990002004F80B000B98099AC0F8088083
:10073000C0E9002B7AE711264FF0000857E72DE9B2
:10074000F04F88460446D21D22F0070191B0D1E94E
:100750000001CDE90A0104F075FB02460B98C00FB9
:1007600001D02D2007E02068810701D52B2002E071
:10077000202101EAC000032A099001D0072A05DBE5
:1007800003464146204600F079F90BE120788006C7
:1007900001D5E06900E00620B8F1650F814606D07A
:1007A000B8F1660F18D0B8F1670F70D131E00020B2
:1007B000B9F1110F009001DB112301E009F10103F0
:1007C0000AAA01A90CA8FFF7E2FEDDE90C700026D9
:1007D00009F10105834647E001204B4600904FF0A8
:1007E00000470AAA01A90CA8FFF7D1FEDDE90DB068
:1007F0000C995D46002610B909F101000D18B9EBFE
:10080000050003D4C0F1FF3609F10105A5EB09008D
:100810002BE0B9F1010F01DA4FF001090020B9F125
:10082000110F0090484601DD112300E003460AAA9B
:1008300001A90CA8FFF7ABFEDDE90C704D460026C0
:100840008346207800070AD4AB4500DA5D4601A84C
:10085000012D04DD411911F8011C302907D04F4545
:1008600002DA17F1040F04DA012082460FE06D1E50
:10087000EEE7002F02DCED1B3E4403E0781CA842AB
:1008800000DD7D1CB81B00F1010A4FF00047207805
:10089000000703D4AA4501DB4FF0FF3A0021B7F16E
:1008A000004F0DF143088DF8431024D002202B2374
:1008B000002F01DA7F422D230A21021EA0F1010040
:1008C00000DC5FB197FBF1FC97FBF1F201FB1C7CB4
:1008D00017460CF1300C08F801CDEEE7A8F1010045
:1008E00003702188090501D5452100E06521A0F1AB
:1008F000010800F8011C09980FA9A1EB0807FF1DCA
:1009000000B10120411901EBEA70A1693844081ACD
:10091000401EA0612078C00602D42046AFF30080BC
:10092000099828B1D4E901219047206A401C20622F
:100930002078C00622D52046AFF300801EE0002EAE
:1009400004DBB34502DD01A8805D00E03020D4E97E
:1009500001219047206A401C2062761CAAF1010008
:100960005FEA000A0AD100F03FF8C0680168405C05
:10097000D4E901219047206A401C2062281EA5F17D
:100980000105DCDC07E0D4E9012118F8010B9047F0
:10099000206A401C2062381EA7F10107F3DC2046C4
:1009A000AFF30080032011B041E6000001694A1C4A
:1009B00002610878704700B58FB0CDE901310021A0
:1009C000059105497944CDE9031011466846FFF7C2
:1009D000D3FC0FB000BD0000E5FFFFFF0A6802F87E
:1009E000010B0A607047000000487047DC020020DD
:1009F00030B5B0F10A024FEA900E71F100034EEAF1
:100A0000817EB0EB0E0061EB91014FEA101E4EEAC1
:100A1000017E10EB0E0041EB11114FEA102E4EEA51
:100A2000016E10EB0E0041EB11214FEA104E4EEA21
:100A3000014E10EB0E0041EB1141401841F1000155
:100A40004FEAD00040EA41704FEAD10110EB800537
:100A50004FEA810444EA907444EB01046D1944EBBD
:100A60000404521BA3414FF0000348BF0A3200D5D3
:100A700030BD401C41F1000130BD00002DE9F041C6
:100A80001F46044603260168072A01F4006004DBC0
:100A900008B116A505E016A503E008B115A500E00C
:100AA00015A521F010002060A069C01EA0610FB143
:100AB000401EA0612046AFF300804FB1D4E9012170
:100AC00038469047206A401C2062C01C206206E025
:100AD000206AFAE7D4E9012115F8010B9047761E48
:100AE000F8D22046AFF30080BDE8F0814E414E00C1
:100AF0006E616E00494E4600696E66002DE9F04752
:100B0000814616468AB0354878440DC88DE80D00F8
:100B100032487844801C03AC0DC884E80D0041F6CF
:100B20009B300844372190FBF1F290FBF1F5A5F1E1
:100B3000800501FB12041B3C02D56442012000E049
:100B40000020DFF898A080460027FA44AAF1BE0AE8
:100B50000EE0E0070AD03246684607EB4701012362
:100B60000AEB810100F046FB8DE8070064107F1C52
:100B7000002CEED1194F7F44AE3F19E0E80715D0A5
:100B800007EB04100DF1180A90E80E008AE80E0039
:100B9000C068F04201D1981908903246012306A995
:100BA00003A800F027FB03AB83E807006D10641C6B
:100BB000002DE3D14FF0010332466946B8F1000F32
:100BC00003A802D000F001FB01E000F013FBC9E92B
:100BD0000001C9F808200AB0BDE8F087E86000000D
:100BE00000487047BC0200207546FFF7F9FFAE468B
:100BF00005006946534620F00700854618B020B529
:100C0000FFF758FBBDE820404FF000064FF000070B
:100C10004FF000084FF0000B21F00701AC46ACE8A4
:100C2000C009ACE8C009ACE8C009ACE8C0098D4611
:100C3000704710B50446AFF300802046BDE8104071
:100C4000FFF723BB4FF0013C50F8042B51F8043B55
:100C50009A4221D1A2EB0C03934313EACC1317D190
:100C600050F8042B51F8043B9A4215D1A2EB0C0327
:100C7000934313EACC130BD150F8042B51F8043BE7
:100C80009A4209D1A2EB0C03934313EACC13DBD0B5
:100C90004FF00000704700BFD01A01BAB1FA81F1DD
:100CA00001F0180122FA01F0CB40C1F12001DBB2C2
:100CB000C0B2C01A2CFA01F3D11A914311EAC31140
:100CC000E6D1704701491820ABBEFEE726000200BE
:100CD00070475FEA400C08BF91F0000F4FEA8C2389
:100CE0004FEAC12243EA51514FEA1C5018BF00F5A8
:100CF000F0404FEA300018BF41F000415FEA6C5C01
:100D000000F02980BCF1FF3F08BF40F080407047F1
:100D1000130C06BF12044FF0100C4FF0000C130E12
:100D200004BF12020CF1080C130F04BF12010CF1E6
:100D3000040C930F04BF92000CF1020CD30F04BFFC
:100D400052000CF1010C11464FF00002A0F11F00FF
:100D5000A0EB0C00704711F0004F08BF704731F056
:100D600000413FF4D5AF0B0C06BF09044FF0100C47
:100D70004FF0000C0B0E04BF09020CF1080C0B0F16
:100D800004BF09010CF1040C8B0F04BF89000CF1A6
:100D9000020CCB0F04BF49000CF1010CCCF1200375
:100DA000A0EB0C0022FA03F302FA0CF241EA030171
:100DB00000F10100704720F07F4C80EA030023F02F
:100DC0007F47ACEB070303F57C5300F0004003F1D1
:100DD000FF032DE980494FEA154B09B44FEA14434C
:100DE00025EA0B4E24EA03480FF2042606EB1327EC
:100DF00049083E785FEA320203FB0667C7F5000741
:100E000007FB06F64FEA54374FEAD64606F10206CC
:100E100007FB066CCCF1005C4FEA1C472CEA074C40
:100E200007FB06F40CFB06F504EB15464FEA961695
:100E300034BF00204FF000404FEAD13706FB07FCDB
:100E40004FEA1C4C0CFB0BF7D21B03FB0CF761EBBE
:100E500007010CFB0EF7B0EB074072EB17420CFBDF
:100E600008F734BFA2EB0742B2EB074261EB174130
:100E70004FEA0C444FEA910706FB07FC4FEA1C4C73
:100E80000CFB0BF7B0EBC74072EB573203FB0CF7D0
:100E900034BFA2EBC742B2EBC74261EB57310CFB48
:100EA0000EF7B0EBC70072EB57720CFB08F734BFBC
:100EB000A2EBC702B2EBC70261EB5771039F4FEA87
:100EC000816141EA921104EBCC044FEAD1374FEA39
:100ED000826206FB07FC42EA90124FEA80604FEA0A
:100EE0001C4C0CFB0BF7D21B03FB0CF761EB07014F
:100EF0000CFB0EF7B0EB074072EB17420CFB08F748
:100F000034BFA2EB0742B2EB074261EB17414FEA55
:100F10008C554FEA910704EB9C2406FB07FC4FEA33
:100F20001C4C0CFB0BF7B0EBC74072EB573203FBCA
:100F30000CF734BFA2EBC742B2EBC74261EB5731AB
:100F40000CFB0EF7B0EBC70072EB57720CFB08F707
:100F500034BFA2EBC702B2EBC70261EB577115EBCE
:100F60004C254FEA816141EA92114FEA82624FEAD1
:100F7000D13742EA901206FB07FC44F100044FEA25
:100F800080604FEA1C4C0CFB0BF7D21B03FB0CF7E9
:100F900061EB07010CFB0EF7B0EB074072EB174259
:100FA0000CFB08F734BFA2EB0742B2EB074261EB40
:100FB000174115EB1C154FEA813141EA92414FEA86
:100FC000823242EA90424FEA80304FEA0C7644F196
:100FD000000448EA03434EEA0B484FF0000EB2EB20
:100FE000080C71EB030724BF624639464EEB0E0E28
:100FF0004FF0000B0018524149414BEB0B0BB2EB89
:10100000080C71EB03077BF1000B24BF62463946E5
:101010004EEB0E0E4FF0000B0018524149414BEBC6
:101020000B0BB2EB080C71EB03077BF1000B24BF39
:10103000624639464EEB0E0E51EA020718BF46F0E3
:10104000010616EB0E7655F1000254F1000103D5AE
:10105000BDE88901BDE80088BDE88901BDE8004818
:10106000B619524141EB0101A3F1010370478080A1
:101070007F7E7D7C7B7A79787776767574737271F2
:1010800071706F6E6E6D6C6C6B6A6A6968686766AA
:1010900066656464636362616160605F5F5E5E5D3C
:1010A0005D5C5C5B5B5A5A595958585757565655B0
:1010B00055555454535352525251515050504F4F12
:1010C0004F4E4E4D4D4D4C4C4C4B4B4B4A4A4A4962
:1010D00049494848484747474746464645454544A5
:1010E0004444444343434342424242414141002B32
:1010F0009C4630D477002BD01CB54FEA370703B499
:101100004FF010004FF01001BAF1000F06D0BCF103
:10111000000FDCBF40F0080040F008014FF0000075
:101120000FBCBDE810400BF1010BBBF1010F08BF74
:101130005FEA170722BF12F1010211F101014FF01E
:10114000004143F1000300F0004043EA0000704713
:10115000F9D35708D0E746EA064613F1400F4FEAA5
:1011600016461FDD13F1200FDFBF16430A4600218C
:1011700020335B42BED0C3F1200746EA064602FA9E
:1011800007F74FEA164646EA0706C3F1200722FA98
:1011900003F201FA07F721FA03F14FF0000342EAE4
:1011A0000702A7E746EA020646EA06464FEA16465F
:1011B00046EA0106BCBF46EA0646360C4FF000037D
:1011C0004FF000024FF0000194E72DE9804C9A4661
:1011D000934670B491E8380007C831EA400C48BF24
:1011E00034EA430C03D5FFF7E6FDFFF780FFF0BCC0
:1011F000BDE8008C2DE9804C9A46934670B491E886
:10120000380007C810F0804F08BF13F0804F03D19B
:1012100000F005F8FFF76BFFF0BCBDE8008C20F094
:101220007F4780EA030023F07F4C07EB0C03A3F514
:101230007C5300F00040A3F1FE0392F0000F00F099
:10124000B38095F0000F00F077802DE901494FEA57
:1012500011404FEA144621EA004800FB06FC24EA4C
:10126000064708FB06F607FB08F800FB07F718EB34
:1012700006484CEB164C4FEA124B18EB07484FEA66
:1012800015464CEB174022EA0B4E0BFB06FC25EAF9
:1012900006470EFB06F607FB0EFE0BFB07F71EEBE1
:1012A000064E4CEB164C4FF000061EEB074E4CEB77
:1012B000174B18EB0B0840F1000018EB0E0B58EB26
:1012C000000840F100008F1A4FF000013CBFC943F5
:1012D000661B14BFB5EB040C00213CBFC943F61BD1
:1012E0004FEA17444EEA8E0E27EA04454FEA1C47A0
:1012F00004FB07622CEA074C05FB07F70CFB05F61D
:1013000004FB0CFC16EB074642EB174216EB0C46AF
:1013100042EB1C421BEB060658EB0202414146EA37
:101320009E0601D5BDE80189B619524141EB010184
:10133000A3F10103BDE801894FEA14454FEA1147C3
:1013400024EA054621EA074C05FB07F406FB07F7EC
:101350000CFB06F105FB0CFC11EB074144EB1744B9
:101360004FEA124711EB0C4144EB1C4422EA074CB4
:1013700005FB07F206FB07F70CFB06F605FB0CFC6A
:1013800016EB074642EB174216EB0C4642EB1C45A8
:101390006A1854F1000148BF7047B619524141EB39
:1013A0000101A3F10103704795F0000F37D04FEA18
:1013B00011424FEA144721EA024624EA074C02FB95
:1013C00007F106FB07F70CFB06F402FB0CFC14EB21
:1013D000074441EB17414FEA154714EB0C4441EB2E
:1013E0001C4125EA074C02FB07F506FB07F70CFB3F
:1013F00006F602FB0CFC16EB074645EB174516EB11
:101400000C4645EB1C42121951F1000148BF7047D0
:10141000B619524141EB0101A3F1010370474FEAB4
:1014200014454FEA114724EA054621EA074C05FB1B
:1014300007F106FB07F70CFB06F24FF0000605FB71
:101440000CFC12EB074241EB174112EB0C4251EB43
:101450001C4148BF7047921841EB0101A3F1010301
:101460007047000070B504460068816811F0010FF4
:101470002DD18168174A11421AD18168D54329407C
:10148000491C816000F0E0FD06461BE0816811F018
:10149000010F03D181682940491C816000F0D4FD0F
:1014A000801B02280ED920680068C043C00709D0FD
:1014B000E06D40F01000E065206E40F00100206615
:1014C000012070BD20680168C943C907DED1002032
:1014D00070BD00003F000080FEE77047002240F62C
:1014E000B83306E00021491C89B29942FBD3521C53
:1014F00092B28242F6D3704772B6FEE72DE9F0470A
:10150000044690F858009CB00E464FF000090128A0
:1015100015D0012084F858000025179518952068EB
:101520004FF0A04840450ED1284F0097384602F0B2
:1015300049FD8246206802F045FD60B10EE00220C0
:101540001CB0BDE8F087E06D40F02000E06584F855
:1015500058500120F4E7BAF1000F09D0E06D40F0D7
:101560002000E0654FF0010984F858504846E7E74D
:101570001748326840F61F71002A826822F46042E0
:1015800016D094F8383042EA433273681A438260C6
:10159000D8F80820BB6802F0010203F001031A43E7
:1015A000E2D1B36832681A4383688B431A430BE075
:1015B0008260D8F80820BB6802F0010203F0010342
:1015C0001A43D1D182688A438260CDE7000100507E
:1015D000000300502DE9F84F00270446009790F8CB
:1015E0005800DFF8D8930D46B846012811D00126DF
:1015F00084F85860206802F0E1FC60B1E06D40F0D2
:101600002000E0655FF0010784F858803846BDE8A7
:10161000F88F0220FBE7D5E900210C23206803EABC
:1016200091131844036B01F01F014FF01F0C0CFACB
:1016300001FCC2F3846223EA0C038A401343036370
:10164000206802F0BBFC8246206802F0B3FC5AEA34
:1016500000003CD1AA6829682068B2F1004F37D059
:1016600002F0B4FC2068416921F00041416120682A
:101670006969C268C2F3C102520091402A69042A12
:1016800031D000EB82002B68026EDFF834C303F028
:10169000F84302EA0C020B431A4342F00041016690
:1016A00020682A69A96900EB8200026E22F080722C
:1016B0000A430266297F22682869012910D0002187
:1016C00002EB8000026E22F000720A4302667DE0A7
:1016D000002202F07BFC2068416941F00041C5E72F
:1016E0004FF00071ECE7002102F05EFC400320683F
:1016F0004FF0000172D002F057FC90FAA0F0B0FA5F
:1017000080F1286842036ED090FAA0F0B0FA80F021
:10171000814204D100221146206802F066FC0121BA
:10172000206802F041FC400320684FF001015DD0C9
:1017300002F03AFC90FAA0F0B0FA80F12868420377
:1017400059D090FAA0F0B0FA80F0814204D1002282
:101750000121206802F049FC0221206802F024FCEB
:10176000400320684FF0020148D002F01DFC90FABF
:10177000A0F0B0FA80F12868420344D090FAA0F0BB
:10178000B0FA80F0814204D100220221206802F0E8
:101790002CFC0321206802F007FC400320684FF076
:1017A000030133D002F000FC90FAA0F0B0FA80F10F
:1017B000286842032FD090FAA0F0B0FA80F081425E
:1017C00004D100220321206802F00FFC2068816808
:1017D00011F0010F22D0A8E000E004E002F0E4FBE9
:1017E000C0F384618DE7C0F3846091E702F0DCFB15
:1017F000C0F38461A2E7C0F38460A6E702F0D4FBE3
:10180000C0F38461B7E7C0F38460BBE702F0CCFBB0
:10181000C0F38461CCE7C0F38460D0E7EB6829684B
:101820004B4550F8B03FC1F3120101D10B4300E02A
:101830008B430360E868484577D1286841031CD092
:1018400090FAA0F1B1FA81F1491C01F01F010929B8
:101850004FEA403132D8002912D000BF90FAA0F1EF
:10186000B1FA81F101F1010101F01F0106FA01F65F
:1018700009D100BFC0F3846109E0C0F38461E3E7EC
:10188000C0F38461EEE790FAA0F1B1FA81F101F1C1
:10189000010101F01F0146EA816102D1C0F38460B9
:1018A00003E090FAA0F0B0FA80F000F1010000F03F
:1018B0001F0000EB400041EA005132E000290ED049
:1018C00090FAA0F1B1FA81F101F1010101F01F01DB
:1018D00006FA01F606D100BFC0F3846106E0C0F34A
:1018E0008461F1E790FAA0F1B1FA81F101F101010F
:1018F00001F01F0146EA816102D1C0F3846003E078
:1019000090FAA0F0B0FA80F000F1010000F01F00A2
:101910002C4A00EB400002EB005041EA000141F08C
:101920000071AA68206802F051FB27482A68024229
:101930003FF46AAE25488168254B01F0E0719A4278
:1019400002D0244B9A421CD10B021AD42268B2F165
:10195000A04F7FF459AE826841F4000122F0E0729A
:101960000A4382601C481D490068B0FBF1F0401C2E
:1019700000EB4000800000E0401E00900028FBD1FA
:1019800042E6174D174BAA4207D1CD0105D4226874
:101990009A42F5D041F0807109E0134DAA42EFD18F
:1019A0004A02EDD422689A42EAD041F4800182686A
:1019B00022F0E0720A43826026E6000000007F40C9
:1019C00000F0FF03000020FE00000880000300502C
:1019D000000021C31000C09014000020400D03003F
:1019E000000052C700010050000084CB0068006C6A
:1019F00070470000F8B54FF0000504002E46009532
:101A000002D0E06D10B107E00120F8BD204600F0E3
:101A1000EFF8266684F8586020688168C1F3407149
:101A200019B181686A4A1140816020688168C1F3F8
:101A3000007189B98168674A114041F08051816025
:101A4000654866490068B0FBF1F04000801C00E08A
:101A5000401E00900028FBD120688168C1F300710E
:101A600041B9E16D41F01001E165216E41F00101E4
:101A70002166012502F0A2FAE16DC90600D430B159
:101A8000E06D40F01000E06501252846F8BDE06DEE
:101A900020F4807040F00200E0652068806810F05B
:101AA000010F11D14FF0A04080684D4900F00100B6
:101AB000896801F00101084306D14A4861688268DB
:101AC00022F47C120A438260E168E06B627F084383
:101AD000A16841EA4231084394F8241040EA0140E9
:101AE000012904D1218D404A02EB41410843E16ABA
:101AF00029B101F47871226B014342EA01002168A7
:101B0000CA683A4B1A400243CA6020680169626B96
:101B100021F0406111430161206802F04FFA06464E
:101B2000206802F047FA30432ED1207F94F8381015
:101B3000800340EA41022068C16844F202039943ED
:101B40001143C16020690028206801690AD041F46E
:101B500080310161206850F8C01F22696FF30D01C8
:101B6000114307E021F480310161206850F8C01F63
:101B70006FF30D01016094F8400001280CD020683B
:101B8000016921F001010161606901282068016B90
:101B900021F00F0111D013E0D4E911010843D4E979
:101BA00013121143084321680A6940F2FC739A43F7
:101BB000104340F001000861E6E7226A521E11431B
:101BC0000163E06D20F0020040F00100E0655CE799
:101BD000C0FFFF5FC0FFFF7F14000020400D030027
:101BE00000010050000300500000FEFF0740F0FF1E
:101BF0002DE9F04397B00446142111A8FEF743FCE9
:101C000044216846FEF73FFC4FF0005021682D4DFF
:101C10000327DFF8B49086132C4C4FF00008B1F185
:101C2000A04F10D02A4A914248D100960F906846A2
:101C300000F008FB08B1FFF75FFC2868401C286033
:101C4000012824D02BE000960F90684600F0FAFAA5
:101C500008B1FFF751FC2868401C2860012807D113
:101C6000E06C40F40050E064E06C00F4005016902A
:101C7000E06C40F00200E064E06C11A900F00200AA
:101C800016904FF4805081E88101484614E0E06CE2
:101C900040F40050E064E06C00F400501690E06CFA
:101CA00040F00200E064E06C11AA00F0020016901F
:101CB00082E8C00111A9484600F098F817B0BDE8C5
:101CC000F0830000040000200004004800100240DF
:101CD000000100502DE9F04104463848806800F0CA
:101CE0001F05206802F06AF918B102210846BDE814
:101CF000F08194F8580001280CD0012084F8580095
:101D00002046FFF7AFFB01004FF0000304D084F83A
:101D10005830EBE70220EAE7E06D40F601629043BD
:101D200040F48070E065264A20684FF0A04690425B
:101D300001D1374600E00746874200D01DB9E76D64
:101D400027F48017E765E76DFF0404D5276E27F0B9
:101D50000607276600E023661C27076084F85830D2
:101D60002068904201D1334600E00346834215D0FB
:101D7000A5B1052D12D0092D10D0E36D43F48013C9
:101D8000E365904200D13046C0688001AED5E06D79
:101D900020F4005040F48050E065A7E7C26892014B
:101DA00005D5E26D22F4005242F48052E265826869
:101DB000044B1A40121D826098E700000003005097
:101DC00000010050C0FFFF7F70B5044600F03CF9F1
:101DD0000546601C02D004484068044400F034F911
:101DE000401BA042FAD370BD080000202DE9F04F3F
:101DF000DFF82092002301260324A9F1040B85B00B
:101E00000F2709F1040AABF1040EFAE006FA03F514
:101E10002A407CD091F804C00CF0030CBCF1010FF7
:101E200002D0BCF1020F26D1D0F808C0CDF800C016
:101E30004FEA430C04FA0CF8CDF810C0DDF800C0EE
:101E40002CEA080CCDF800C0D1F80C80DDF810C0E9
:101E500008FA0CF8DDF800C048EA0C08C0F8088061
:101E6000D0F804C02CEA050C0D79C5F300159D408F
:101E700045EA0C0545600D79ED43AD070ED0C56808
:101E80004FEA430804FA08FC25EA0C05D1F808C01B
:101E90000CFA08FC4CEA050CC0F80CC00D7905F0F2
:101EA0000305022D16D1DD0800EB850CCDF808C026
:101EB000DCF820805D074FEAD56C07FA0CF528EABC
:101EC00005080D6905FA0CF5DDF808C045EA0805B6
:101ED000CCF8205005684FEA430CCDF808C004FA4E
:101EE0000CFC25EA0C0591F804C00CF00308DDF8A1
:101EF00008C008FA0CF848EA0508C0F800804D68E8
:101F000015F4403F7CD0444DD5F860C000E077E048
:101F10004CF0010CC5F860C02D6E23F0030C05F0E9
:101F2000010500953D4D65440295AD684FEA837CFF
:101F30004FEA1C7807FA08FC25EA0C05B0F1904F2F
:101F400006D0DFF8DCC0604505D14FF0010C20E081
:101F50004FF0000C1DE0DFF8CCC0604502D14FF01F
:101F6000020C16E0DFF8C0C0604502D14FF0030C50
:101F70000FE0DFF8B8C0604502D14FF0040C08E074
:101F8000DFF8ACC0604502D14FF0050C01E04FF026
:101F9000060C0CFA08FC4CEA050C029DC5F808C0BA
:101FA000D9F80050CC46D1F8048095435FEAC828A0
:101FB00000D51543CCF80050DAF80050D446D1F8DB
:101FC000048095435FEA882800D51543CCF800507B
:101FD000DBF80050DC46D1F8048095435FEA88388E
:101FE00000D51543CCF80050DEF80050F446D1F887
:101FF000048095435FEAC83800D51543CCF80050FB
:102000005B1C0A6832FA03F57FF400AF05B0BDE847
:10201000F08F000008040140001002400000014061
:102020000004004800080048000C00480010004868
:10203000001400480069084000D0012070470AB130
:102040008161704781627047014880687047000075
:10205000080000200248816842681144816070478E
:102060000800002010B50024032000F073F80F20B2
:1020700000F008F808B1012401E000F025F820463E
:1020800010BD000070B50E4E05460024706898B172
:102090004FF47A71B1FBF0F00A490968B1FBF0F036
:1020A00000F040FD40B9102D06D200222946501EF6
:1020B00000F030F8356000E00124204670BD0000DB
:1020C00008000020140000200A4882B0016E41F090
:1020D00001010166016E01F001010091816D41F085
:1020E00080518165806D00F08050009002B000F05A
:1020F000A1B8000000100240002809DB00F01F0218
:10210000012191404009800000F1E020C0F8001159
:1021100070470000F0B40E4B1B680C46C3F302235B
:10212000C3F10705042D00D90425191D072901D283
:10213000002300E0DB1E012606FA05F1491E2140BE
:1021400099409E40761E16403143F0BC02F092BE8C
:102150000CED00E0064900F0070208684FF6FF03A7
:10216000184040EA0220034A10430860704700000C
:102170000CED00E00000FA052B492C4B0A683221D7
:102180004A432B4940B1B0F5007F086829D020F4BC
:10219000C06040F480602CE00868C0F34120022851
:1021A00004D051F8800F20F4807022E0D1F8800034
:1021B00020F48070C1F88000086820F4C06040F40A
:1021C00000700860B2FBF3F0401C00E0401E4A695A
:1021D000520501D50028F9D1486940050AD50320E8
:1021E0007047C0F34120022806D051F8800F40F418
:1021F0008070086000207047D1F8800040F4807043
:10220000C1F88000086820F4C06040F400700860E5
:10221000B2FBF3F0401C00E0401E4A695205DBD5DA
:102220000028F9D1D8E700001400002040420F0038
:10223000007000400248816841F48041816070472D
:10224000007000402DE9F8430446006800269D4DCB
:1022500000035ED5A86D0027C00008D4A86D40F02B
:102260008050A865A86D012700F080500090DFF82D
:102270005892D9F8001041F48071C9F80010FFF7A6
:10228000E3FE804606E000BFFFF7DEFEA0EB08009D
:1022900002282BD8D9F80000C005F5D5D5F8900054
:1022A00010F4407014D0216C814211D0D5F8900008
:1022B000D5F8901020F4407041F48031C5F89010AA
:1022C000D5F8901021F48031C5F89010C5F8900031
:1022D000C00711D0FFF7B8FE804641F2883907E009
:1022E000FFF7B2FEA0EB0801494501D903260BE038
:1022F000D5F890008007F3D5D5F89000216C20F434
:1023000040700843C5F890001FB1A86D20F08050C0
:10231000A8652078C00707D0D5F88800616820F04C
:1023200003000843C5F888002078800707D5D5F852
:102330008800A16820F00C000843C5F888002078C8
:10234000400707D5D5F88800E16820F03000084341
:10235000C5F888002078000707D5D5F888002169DE
:1023600020F0C0000843C5F888002078800607D513
:10237000D5F88800616920F440600843C5F88800FA
:102380002078400607D5D5F88800A16920F4405090
:102390000843C5F888002078000607D5D5F88800DE
:1023A000E16920F440400843C5F888002088C00552
:1023B00007D5D5F88800216A20F440300843C5F8D5
:1023C00088002088800507D5D5F88800616A20F448
:1023D00040200843C5F88800208840050FD5D5F86F
:1023E0008800A16A20F440100843C5F88800A06A5C
:1023F000B0F5801F03D1E86840F48010E8602088C1
:1024000000050FD5D5F88800E16A20F440000843A4
:10241000C5F88800E06AB0F5800F03D1E86840F4A1
:102420008010E8602088C0040FD5D5F88800216BA3
:1024300020F040700843C5F88800206BB0F1807F21
:1024400003D1E86840F48010E86020884FF0006114
:1024500080040ED5D5F88800626B20F040601043F0
:10246000C5F88800606B884203D1E86840F48010AA
:10247000E860208840040ED5D5F88800A26B20F0D3
:1024800040601043C5F88800A06B884203D1E8681B
:1024900040F48010E860208800040FD5D5F888004B
:1024A000E16B20F040500843C5F88800E06BB0F1C4
:1024B000805F03D1E86840F48030E8603046BDE8D2
:1024C000F883000000100240007000402DE9F04742
:1024D0000E4605004FF0000725D0DFF8AC81D8F894
:1024E000000000F00F00B0420CD2D8F8001021F02C
:1024F0000F013143C8F80010D8F8000000F00F00B9
:10250000B04210D12968614CC80741F2883A5AD0CC
:102510006868DFF87C91032808D0022820682DD055
:10252000400500282CDB0120BDE8F08720688001F1
:10253000F9D5E06800F00302E068C0F30310401C26
:10254000032A19D0534A00BFB2FBF0F0E268C2F38D
:1025500006225043E268C2F34162521C5200B0FBB3
:10256000F2F0484517D9A06810F0F00F0CD088079A
:1025700011D5A86840B10EE0474AE5E78003D0E7EF
:1025800000F092F8484506D9A06820F0F00040F02D
:102590008000A0608027A068696820F003000843DD
:1025A000A060FFF751FD814606E000BFFFF74CFD3C
:1025B000A0EB090151453AD8A068696800F00C0009
:1025C000B0EB810FF2D12868810714D5400703D5FD
:1025D000A06840F4E060A0602878000705D5A068F6
:1025E00020F4605040F4E060A060A068A96820F08A
:1025F000F000084304E0802F03D1A06820F0F00031
:10260000A060D8F80010404601F00F01B14216D981
:10261000016821F00F0131430160FFF715FD074606
:1026200007E000BFFFF710FDC11B514501D9032092
:102630007AE7D8F8000000F00F00B042F2D1287815
:10264000400705D5A068E96820F4E0600843A06071
:102650002878000706D5A068296920F4605040EA70
:10266000C100A06000F020F8A1680C4AC1F303117A
:10267000515C01F01F01C840094908600948006821
:10268000BDE8F047FFF7FEBC00200240001002400A
:1026900000B4C4040024F40000366E01965900080A
:1026A0001400002008000020184910B58868C0F305
:1026B00081021748012A0BD08A68164BC2F38102A7
:1026C000022A06D08A68C2F38102032A03D00020BE
:1026D00010BD184610BDCA6802F00304CA68C2F3F0
:1026E0000312521C032C02D0B0FBF2F001E0B3FB4A
:1026F000F2F0CA68C968C2F306225043C1F34161CF
:10270000491C4900B0FBF1F010BD00000010024070
:102710000024F40000366E012DE9F84304007AD05D
:102720002078FA4DC00747D0A868E96800F00C008F
:1027300001F003010C2802D0082817D001E003297A
:1027400014D06068B0F5803F17D0B0F5A02F28688E
:1027500017D020F480302860286820F4802028607A
:102760006068E0B1FFF770FC064614E0286880035B
:1027700022D560680028D2D01EE0286840F480305E
:10278000EDE740F480202860F7E700BFFFF75CFC2E
:10279000801B642870D828688003F7D50CE0FFF709
:1027A00053FC064605E000BFFFF74EFC801B642883
:1027B000F0D828688003F7D4207880074CD5A86823
:1027C000E96800F00C0001F003010C2802D0042895
:1027D0000DD001E002290AD0E068002828682BD03B
:1027E00040F480702860FFF72FFC064619E0286847
:1027F000400502D5E068002891D06868217C20F06F
:10280000FE4040EA01606860C1480068FFF73AFC9A
:10281000002800D120E076E1FFF716FC801B02289B
:10282000B8D828684005F7D56868217C20F0FE40BC
:1028300040EA016068600FE020F480702860FFF7D4
:1028400003FC064605E000BFFFF7FEFB801B0228E5
:10285000A0D828684005F7D42078000729D56069FA
:102860000028D5F8940013D040F00100C5F894007A
:10287000FFF7EAFB064606E090E000BFFFF7E4FB47
:10288000801B022886D8D5F894008007F6D510E082
:1028900020F00100C5F89400FFF7D6FB064604E0DF
:1028A000FFF7D2FB801B022878D8D5F89400800768
:1028B000F6D42078400761D5A86D0026C00008D462
:1028C000A86D40F08050A865A86D012600F08050EA
:1028D000009090480168C90511D40168804641F410
:1028E00080710160FFF7B0FB074604E0FFF7ACFB27
:1028F000C01B022852D8D8F80000C005F6D5A06841
:10290000012815D00528D5F8900016D020F0010038
:10291000C5F89000D5F8900020F00400C5F89000AC
:10292000A06841F28838B8B1FFF78EFB07460EE089
:10293000D5F8900040F00100F0E740F00400C5F841
:102940009000F5E7FFF780FBC11B414526D8D5F87D
:1029500090008007F6D50CE0FFF776FB074604E011
:10296000FFF772FBC11B414518D8D5F890008007CE
:10297000F6D41EB1A86D20F08050A865207880069E
:1029800029D5A0690028D5F8980013D040F001009F
:10299000C5F89800FFF758FB064606E077E000BF51
:1029A000FFF752FB801B022877D8D5F898008007E4
:1029B000F6D510E020F00100C5F89800FFF744FBC1
:1029C000064604E0FFF740FB801B022865D8D5F8D7
:1029D00098008007F6D4E069F0B3A968C1F38101DB
:1029E000032961D00228286820F0807028600BD06D
:1029F000E86820F00300E860E86847490840E860BC
:102A0000FFF722FB04464BE0FFF71EFB064604E0FF
:102A1000FFF71AFB801B02283FD828688001F7D4F3
:102A2000F4E908016FF00F0202EB01110843218A5B
:102A30005204490802EB4151A26841EA02210843CD
:102A4000217D4FF07E42490802EB41610843217B22
:102A500040EAC160E96800E062E0304A11400843A2
:102A6000E860286840F080702860E86840F0807076
:102A7000E860FFF7E9FA044605E000BFFFF7E4FA73
:102A8000001B022809D828688001F7D548E004E037
:102A9000FFF7DAFA001B022802D90320BDE8F88309
:102AA00028688001F4D43BE00128F7D0E868226A66
:102AB00000F00301914226D1616A00F0F0020901A1
:102AC000103991421FD1A26A00F4FE41B1EB022FEE
:102AD00019D194F82C2000F07841B1EBC26F12D1DB
:102AE000218E00F4C00249084905A1F50011914268
:102AF00009D194F8341000F0C06049084906A1F1EA
:102B0000007181420CD00120C8E700000010024093
:102B10000800002000700040FFFFEEFE0C809F01C7
:102B20000020BBE710B5401EB0F1807F01D301202B
:102B300010BD4FF0E02460610F21601702F09AF998
:102B40000020A06107202061002010BD7047704761
:102B500070470000F0B590F83C20012A4AD00122CD
:102B600080F83C20CA688B6822F440721A434B6894
:102B700022F480621A430B6822F400621A430B6944
:102B800022F480521A434B6922F400521A430B6B11
:102B900022F480421A430B8B22F4702242EA034251
:102BA000154C03680026154DA34201D0AB4203D15A
:102BB000CF6922F080523A43A34201D0AB4214D1F4
:102BC0000F8D22F4700242EA07520F6A22F08072DF
:102BD0003A434F6A22F000723A43A34201D0AB421B
:102BE00003D1C96A22F000520A435A6480F83C605B
:102BF0000020F0BD0220F0BD002C01400034014057
:102C00007047704770470000F0B590F83C20012AEB
:102C10003AD0012580F83C50022280F83D2003681C
:102C20005A689C68194E1A4FB34201D0BB4204D176
:102C300022F4700C4A6842EA0C02DFF858C002EA3B
:102C40000C02D1F800C04CEA020CC3F804C00268C0
:102C5000B2420DD0B2F1804F0AD00F4B9A4207D04A
:102C60000E4B9A4204D0BA4202D00D4B9A4204D184
:102C7000896824F080031943916080F83D50002159
:102C800080F83C100846F0BD0220F0BD002C014049
:102C9000003401408FFFFFFD0004004000080040A9
:102CA00000400140704710B5040003D094F83D0087
:102CB00010B107E0012010BD002084F83C00204640
:102CC00000F022F8022084F83D00211D206801F068
:102CD00033FE012084F8480084F83E0084F83F0069
:102CE00084F8400084F8410084F8420084F84300EE
:102CF00084F8440084F8450084F8460084F84700CE
:102D000084F83D00002010BD08B5174A0168174837
:102D1000914211D1816D41F004018165806D0022E5
:102D200000F00400009011461E20FFF7F3F9BDE803
:102D300008401E20FFF7E0B90D4A914207D1016E0D
:102D400041F400310166006E00F4003009E0094AE8
:102D5000914207D1016E41F480210166006E00F4BA
:102D60008020009008BD00000008004000100240D4
:102D7000004401400048014090F83D10012901D075
:102D800001207047022180F83D100168CA6842F0B6
:102D90000102CA600068104988420ED0B0F1804F2D
:102DA0000BD00E49884208D00D49884205D00D4904
:102DB000884202D00C49884207D181680B4A1140F1
:102DC000062906D0B1F5803F03D0016841F001012A
:102DD0000160002070470000002C0140000400400A
:102DE000000800400034014000400140070001009D
:102DF00070B5044690F83C000025012814D0012647
:102E000084F83C60022084F83D0022689068364BCC
:102E1000184020F47F409060086870282ED010DCA5
:102E200010F00F0F03D021E04FF0020070BD4FEA09
:102E30002012072A1AD2DFE802F0525252524A38C0
:102E400040002A4BC21A984249D009DCB0F5805F95
:102E50000DD0B0F5005F1CD0B0F1101F06D13EE0E0
:102E6000102A3CD0202A3AD0502A38D0012584F8A4
:102E70003D60002084F83C00284670BDCB68D1E955
:102E80000121206801F0BDFD2068816841F07701D3
:102E900009E0CB68D1E90121206801F0B2FD20688A
:102EA000816841F480418160E1E7CA68496820682F
:102EB00001F052FF5021206806E0CA684968206886
:102EC00001F092FF6021206801F0A6FDCFE7CA68FB
:102ED0004968206801F040FF40212068F4E722683B
:102EE00001461046F0E7000088FFCEFF20001000EA
:102EF0002DE9F04105462DED068B002700683B4C7F
:102F00009FED3B9B9FED3C8BB0F1804F30D100217A
:102F1000284600F089FD02F0B0FBC4E90601042157
:102F2000284600F081FD064620602868476294ED3F
:102F300006AB51EC190B53EC1A2B02F019FA02F004
:102F40006FFBA060304602F098FB53EC1A2B02F0A6
:102F50000FFA53EC182B02F0A3FB02F0D7F9206113
:102F60000021284600F06EF90421284600F06AF995
:102F700023492868884234D10021284600F054FDB6
:102F800002F07BFBC4E908010421284600F04CFD57
:102F9000064660602868476294ED08AB51EC190B57
:102FA00053EC1A2B02F0E4F902F03AFBE0603046F1
:102FB00002F063FB53EC1A2B02F0DAF953EC182BF6
:102FC00002F06EFB02F0A2F960610021284600F0D9
:102FD00039F9BDEC068B28460421BDE8F04100F02C
:102FE00031B9BDEC068BBDE8F0810000180000206F
:102FF0000000000080842E410000000000005940C5
:10300000000400402DE9F041054690F83C00002600
:103010000C46012810D0012085F83C0072B1042A2A
:103020001CD0082A2CD00C2A50D00126002085F86C
:103030003C003046BDE8F0810220FBE7D4E90012F5
:10304000E368286801F09AFE2868816921F00C0184
:10305000816128688169A26811430FE0D4E90012F8
:10306000E368286801F0D2FE2868816921F4406194
:10307000816128688169A26841EA02218161D5E7FE
:103080002868D4E9002C277B016A21F48071016251
:10309000C169036A21F0030141EA0C0121F0F00C3F
:1030A00039074FF420674CEA116123F4206307EAE3
:1030B00002221A43C16102622868C16921F00C0131
:1030C000C1612868C169A268114328E02868D4E971
:1030D0000027E168036A23F480530362D0F81CC020
:1030E000036A2CF4407C4CEA07274FF6FF7C27F458
:1030F00070470CEA013139434FF4204723F4204351
:1031000007EA02321A43C16102622868C16921F4E8
:103110004061C1612868C169A26841EA0221C161B8
:1031200084E710B5040003D094F83D0010B107E027
:10313000012010BD002084F83C00204600F022F859
:10314000022084F83D00211D206801F0F5FB0120DC
:1031500084F8480084F83E0084F83F0084F840007A
:1031600084F8410084F8420084F8430084F8440065
:1031700084F8450084F8460084F8470084F83D0050
:10318000002010BD10B586B0044614216846FDF736
:103190007AF92368002128480222B3F1804F27D012
:1031A000264CA34222D1836D43F002038365836DD5
:1031B00003F002030593C36C43F00203C364C06CC5
:1031C00000F00200059010200090CDE90121CDE92A
:1031D000031269461A48FEF709FE002211461D2017
:1031E000FEF798FF5FF01D00FEF786FF06B010BDEA
:1031F000836D43F001038365836D03F00103059341
:10320000C36C43F00103C364C06C00F0010005907F
:103210004FF400400090CDE901210120CDE90310D9
:1032200069464FF09040FEF7E1FD002211461C2058
:10323000FEF770FF1C20D7E700100240000400409A
:103240000004004810B5044679B1042912D00829B9
:1032500015D00C2918D0102919D094F8430000BFBC
:1032600094F84720012817D114E094F83E0094F810
:103270004420F7E794F83F0094F84520F2E794F8EB
:10328000400094F84620EDE794F84100E8E794F810
:103290004200E5E7012A01D0012010BD022081B3E0
:1032A000042934D0082937D00C293AD010293BD032
:1032B00084F8430084F847000122206801F094FB61
:1032C0001B49206888420ED0B0F1804F0BD01949BD
:1032D000884208D01849884205D01849884202D04F
:1032E0001749884207D18168164A1140062906D03D
:1032F000B1F5803F03D0016841F001010160002079
:1033000010BDFFE784F83E0084F84400D4E784F859
:103310003F0084F84500CFE784F8400084F8460079
:10332000CAE784F84100C5E784F84200C2E700001C
:10333000002C01400004004000080040003401401F
:10334000004001400700010030B50446002571B17E
:10335000042911D0082914D00C2917D0102918D00D
:1033600094F8430094F84720012817D114E094F80A
:103370003E0094F84420F7E794F83F0094F8452085
:10338000F2E794F8400094F84620EDE794F8410005
:10339000E8E794F84200E5E7012A01D0012030BDBA
:1033A000022079B1042916D008291DD00C2949D052
:1033B00010294AD084F8430084F847000C2947D0EC
:1033C00001253DE084F83E0084F844002068C2688E
:1033D00042F0020210E084F83F0084F845002068C3
:1033E000C26842F0040207E084F8400084F8460016
:1033F0002068C26842F00802C2600122206801F021
:10340000F3FA1649206888420ED0B0F1804F0BD0F5
:103410001349884208D01349884205D0124988428E
:1034200002D01249884207D18168114A1140062909
:1034300006D0B1F5803F03D0016841F00101016081
:10344000284630BD84F84100B6E784F84200B3E76F
:103450002068C26842F01002CEE70000002C014054
:1034600000040040000800400034014000400140DA
:103470000700010070B50446006801694FF00005BF
:10348000C943890715D4C168C943890711D4E91E06
:10349000016101202077206880698007204602D0E2
:1034A000FFF726FD04E000F01BF9204600F0DDF9EF
:1034B000257720680169C943490717D4C168C94302
:1034C000490713D46FF004010161022020772068BE
:1034D000806910F4407F204602D0FFF709FD04E028
:1034E00000F0FEF8204600F0C0F925772068016959
:1034F000C943090716D4C168C943090712D46FF03C
:1035000008010161042020772068C06980072046F7
:1035100002D0FFF7EDFC04E000F0E2F8204600F0F6
:10352000A4F9257720680169C943C90617D4C16881
:10353000C943C90613D46FF0100101610820207738
:103540002068C06910F4407F204602D0FFF7D0FC0D
:1035500004E000F0C5F8204600F087F925772068E0
:103560000169C943C90708D1C168C943C90704D162
:10357000891E0161204600F0F7F920680169C943FE
:10358000090609D4C168C943090605D46FF0800152
:1035900001612046FFF7DBFA20680169C943C905CC
:1035A00009D4C168C943090605D46FF4807101616B
:1035B0002046FFF7CBFA20680169C943490609D4C0
:1035C000C168C943490605D46FF040010161204636
:1035D00000F03FFA20680169C943890609D4C1682F
:1035E000C943890605D46FF0200101612046FFF729
:1035F000AFFA20680169C943C90209D4C168C94347
:10360000C90205D46FF4801101612046FFF7F9FA71
:1036100020680169C943890209D4C168C943890284
:1036200005D46FF4001101612046FFF7E9FA206824
:103630000169C943490209D4C168C943490205D493
:103640006FF4800101612046FFF7DCFA2068016910
:10365000C94309020BD4C168C943090207D46FF4F6
:10366000000101612046BDE87040FFF71BBB70BD43
:1036700070B586B0044614216846FCF704FF154E69
:10368000256800221449022401234FF09040B542DE
:1036900009D1CD6C45F00105CD64C96C01F0010183
:1036A000059140210BE00D4EB54210D1CD6C45F097
:1036B0000105CD64C96C01F00101059180210091E3
:1036C000CDE901426946CDE90323FEF78FFB06B041
:1036D00070BD00000044014000100240004801405D
:1036E000704770B5044690F83C0000260D4601284E
:1036F0000BD0012084F83C000C2A4AD007DC82B1B0
:10370000042A20D0082A06D131E0022070BD102AF8
:1037100053D0142A63D00126002084F83C003046A0
:1037200070BD206801F082F92068816941F00801CC
:1037300081612068816921F00401816120688169CB
:103740002A69114311E0206801F0BEF920688169FF
:1037500041F4006181612068816921F480618161A7
:10376000206881692A6941EA02218161D4E72068E1
:1037700001F0F2F92068C16941F00801C1612068D7
:10378000C16921F00401C1612068C1692A6911433E
:1037900011E0206801F028FA2068C16941F4006155
:1037A000C1612068C16921F48061C1612068C1697B
:1037B0002A6941EA0221C161AEE7206801F05CFAA2
:1037C0002068016D41F0080101652068016D21F05C
:1037D000040101652068016D2A69114311E0206828
:1037E00001F082FA2068016D41F4006101652068F2
:1037F000016D21F4806101652068016D2A6941EA4B
:103800000221016588E710B5040003D094F83D005B
:1038100010B107E0012010BD002084F83C002046D4
:1038200000F022F8022084F83D00211D206801F0FC
:1038300083F8012084F8480084F83E0084F83F00B3
:1038400084F8400084F8410084F8420084F8430082
:1038500084F8440084F8450084F8460084F8470062
:1038600084F83D00002010BD7047704730B5044615
:10387000022269B1042912D0082917D00C291CD0C2
:10388000102921D094F84300012824D0012030BD14
:1038900094F83E000128F9D184F83E201DE094F808
:1038A0003F000128F2D184F83F2016E094F8400050
:1038B0000128EBD184F840200FE094F84100012862
:1038C000E4D184F8412008E094F842000128DDD1D9
:1038D00084F8422001E084F843200122206801F0AE
:1038E00083F8194B20681949194A984209D088422F
:1038F00007D0904205D0174DA84202D0164DA842DD
:1039000003D1456C45F400454564206898420CD0CD
:10391000B0F1804F09D0114B984206D0104B98421D
:1039200003D0884201D0904207D181680D4A1140EE
:10393000062906D0B1F5803F03D0016841F00101AE
:103940000160002030BD0000002C01400034014027
:103950000040014000440140004801400004004094
:10396000000800400700010070B501682B48814243
:103970004BD12B4D01212846FEF75CFB00B1012005
:10398000284C022160702846FEF754FB00B101204C
:10399000607204212846FEF74DFB00B101206074DF
:1039A00001214FF09040FEF745FB00B10120607609
:1039B000002001465FF0010214F8303023B1012BE2
:1039C0000AD0022B1ED112E004EBC0035D78CDB902
:1039D000596004F8302015E004EBC0035B7813B1A4
:1039E00004F830100EE0022304F830300AE004EB53
:1039F000C0056B78012B09D06B685B1C6B60462B94
:103A000000D9EA70401C0428D6DB70BD04F83010E1
:103A10006B68462BF6D2AA70F4E70000000800405D
:103A2000000400489C0200200246002041B1042905
:103A300009D008290AD00C2901D11068006C704700
:103A40001068406B70471068806B70471068C06BDF
:103A500070477047FEE770B50824002500F0E2FECD
:103A600013E06806050E002000F0C4FE142001F0EB
:103A700018FA142001F015FA012000F0BBFE142002
:103A800001F00FFA00F0C2FE0543641EE4B2E8D272
:103A9000002000F0AFFE142001F003FA00F0E4FE75
:103AA000284670BD70B50446082516E000F0A2FE59
:103AB000142001F0F6F904F0800000F0C9FE142093
:103AC00001F0EFF96006040E142001F0EAF901207C
:103AD00000F090FE142001F0E4F96D1EEDB24FF0FD
:103AE0000000E3D200F086FEBDE87040142001F033
:103AF000D8B910B5012000F0ABFE142001F0D1F9C7
:103B0000012000F077FE142001F0CBF9002000F036
:103B10009FFE142001F0C5F9002000F06BFEBDE807
:103B20001040142001F0BDB910B5002000F062FE75
:103B3000142001F0B6F9002000F08AFE142001F0F4
:103B4000B0F9012000F056FE142001F0AAF901207E
:103B500000F07EFEBDE81040142001F0A2B910B5BF
:103B6000052400F05FFE142001F09BF9012000F015
:103B700041FE142001F095F905E0641EA4B2142062
:103B800001F08FF96CB100F041FE0028F5D100F092
:103B90006BFE002000F02EFE142001F082F90020C0
:103BA00010BD00F061FEFFF7BFFF012010BD000057
:103BB00000B585B014216846FCF765FC4FF6FF7030
:103BC000009000200321CDE90201019069460248DE
:103BD000FEF70CF905B000BD0008004800B585B03F
:103BE00014216846FCF74FFC4FF6FF70009001204F
:103BF0000190032003900020029069460248FEF7DE
:103C0000F5F805B000BD00000008004870B50024BC
:103C100006462146204600F003F900F041F94FF432
:103C20009635304600F010F9641CAC42F9D370BDF3
:103C300030B587B014216846FCF725FC1E48C16CDE
:103C400041F00401C164C16C01F004010591C16C33
:103C500041F00101C164C16C01F001010591C16C29
:103C600041F00201C164C06C012500F00200059022
:103C70004FF44870CDE9000500240394694602948E
:103C80000E48FEF7B3F8280203940090CDE90154E2
:103C90004FF0904469462046FEF7A8F8FFF79EFFD4
:103CA000A06940F48070A06104481830016841F4B4
:103CB0000871016007B030BD0010024000040048E8
:103CC000203AD2B2034B02EB420203EB021200F0A5
:103CD00019B80000A6590008F0B50E4607460025A1
:103CE00040F23F1407E021463846FFF7E9FF103C59
:103CF0006D1CA4B2761C3278002A01D0142DF2D3A8
:103D0000F0BD00002DE9F04791468A4600260446A2
:103D100000F086F8DFF84080012700BF00F0C0F80F
:103D20005FF0000539F8160007FA05F10842404631
:103D300001D1408800E0008800F086F86D1C102D4D
:103D4000F0D3641CE4B25146204600F069F8761CBA
:103D5000182EE3D3BDE8F0874000002010B5FFF730
:103D600067FF002000F014F8084CA080A088A0F5A0
:103D70000241303906D000F03BFC002000F008F88A
:103D8000A08010BD00F0ABFBF7E700004000002072
:103D900070B51D490A6842F400720A600A6842F46C
:103DA00080720A60184C103C226842F020022260A7
:103DB000164A1060086840F02000086000BF00BF8D
:103DC00000BF206840F020002060206840F4807030
:103DD0002060FFF7EDFE4FF09041886A40F480705C
:103DE000886200BF00BF00BF0848001F006885B29E
:103DF000886940F480708861FFF7F0FE206840F425
:103E000000702060284670BD28040048140800484F
:103E100001B5BDF800000149488008BD4000002000
:103E200010B50C460146202000F068F82146BDE898
:103E30001040212000F062B801B5BDF80000014932
:103E4000088008BD40000020134A116841F4007149
:103E50001160114910390B6843F480730B600B68D3
:103E600043F020030B600D4B1860106840F02000F9
:103E7000106000BF00BF00BF086840F0200008606D
:103E8000086840F48070086000BF00BF00BF086889
:103E900040F4007008607047280400481408004887
:103EA0001449086840F400700860086840F48070A5
:103EB000086010481038026842F0200202600E4B81
:103EC00022221A600A6842F020020A6000BF00BF86
:103ED00000BF016841F020010160016841F4807178
:103EE000016000BF00BF00BF016841F400710160C4
:103EF000704700002804004814080048184B10B50B
:103F00001A6842F400721A601A6842F480721A60E9
:103F1000134A103A146844F020041460114C2060D5
:103F2000186840F02000186000BF00BF00BF106894
:103F300040F020001060106840F480701060216034
:103F4000186840F02000186000BF00BF00BF106874
:103F500040F020001060106840F48070106010BDC8
:103F6000280400481408004870B50D4D044601228D
:103F70004FF6FF712846FEF762F82102002228461C
:103F8000FEF75DF8074C012204212046FEF757F8A2
:103F90002046BDE8704000220421FEF750B8000022
:103FA00000080048000C004800EB8100006E00F0A3
:103FB000F84070478068C0F3C00070478068C0F365
:103FC000800070478068C0F380007047042303EAD4
:103FD000D15310B518444369C1F3045107248C40F0
:103FE000A3438A401343436110BD00EB8100016E7F
:103FF00021F00041114301667047000030B58BB0DD
:10400000002408940994202168460A94FCF73BFA9E
:104010001C484FF0A041042501604FF40031C0E975
:104020000114C4600461C0E90545047744770121A7
:10403000016280F82440C462046380F83840C4639D
:1040400080F84040FDF7D6FC08B1FDF755FA08A905
:104050000C480894FDF752FA08B1FDF74DFA0A48EA
:1040600000900620CDE901047F200594CDE90305E9
:1040700069460448FDF7AEFA002801D0FDF73CFA86
:104080000BB030BD480000200008302E30B589B09C
:1040900020216846FCF7F7F9194818490024016007
:1040A0004902C0E90114C46004250461C0E9054562
:1040B000047744770121016280F82440C4620463DC
:1040C00080F83840C46380F84040FDF793FC08B1A5
:1040D000FDF712FA0B4800900620CDE901047F207D
:1040E0000594CDE9030569460548FDF773FA0028F4
:1040F00001D0FDF701FA09B030BD00000001005009
:10410000B40000200080F03E2DE9F04F87B014216C
:104110006846FCF7B8F94348C16C41F00401C1643A
:10412000C16C01F004010591C16C41F02001C16432
:10413000C16C01F020010591C16C41F00101C16425
:10414000C16C01F001010591C16C41F00201C16433
:10415000C16C01F002010591C16C41F00801C1641C
:10416000C06C314E00F00800059001224FF47F41F1
:104170003046FDF764FF0022FF213046FDF75FFF68
:104180004FF480774FF09049002239464846FDF7BA
:1041900056FFDFF898A0002204215046FDF74FFF9C
:1041A000DFF88CB04FF47878002241465846FDF78E
:1041B00046FF4FF6FF70009001250024CDE9015421
:1041C000694630460394FDF711FECDE900540226FE
:1041D000694648460296FDF709FE07208DE8510022
:1041E00069465846FDF702FE0097CDE9015469463D
:1041F00048460394FDF7FAFD04200090CDE90154F0
:10420000694650460394FDF7F1FDCDF80080CDE9F5
:104210000154694658460394FDF7E8FD07B0BDE830
:10422000F08F00000010024000080048000C004819
:104230000004004810B594B01C210DA8FCF723F928
:1042400034216846FCF71FF920481F49002401600B
:1042500041F63F71C0E901146321C0E903144461D0
:104260008461FEF720FD08B1FDF746F91748FFF716
:10427000CAFA08B1FDF740F960200D901420CDE98D
:104280000E0410941194129400220DA90F48139457
:10429000FFF727FA08B1FDF72FF900944FF400500B
:1042A000CDE90440019402940394069469460748BA
:1042B0000C94FEF74FFC08B1FDF71EF90348FFF719
:1042C000D7F914B010BD00000044014004020020E2
:1042D00010B594B01C210DA8FCF7D5F83421684620
:1042E000FCF7D1F820481F490024016040F69F7177
:1042F000C0E901146321C0E9031444618461FEF73D
:10430000D2FC08B1FDF7F8F81748FFF77CFA08B1BE
:10431000FDF7F2F860200D901420CDE90E04109402
:104320001194129400220DA90F481394FFF7D9F9A4
:1043300008B1FDF7E1F800944FF40050CDE90440D6
:104340000194029403940694694607480C94FEF77E
:1043500001FC08B1FDF7D0F80348FFF789F914B064
:1043600010BD0000004801405002002010B588B088
:1043700000241D480594069404940094019402942A
:104380004FF08041039401604F21C0E90114611E88
:10439000C0E903148461FEF7C4FE08B1FDF7ACF870
:1043A000049404A910480694FEF72EFC08B1FDF70A
:1043B000A3F80120CDE900400294002269460A4892
:1043C0000394FEF71FFE08B1FDF796F80220009057
:1043D0000190042269460448FEF714FE002801D02B
:1043E000FDF78AF808B010BD2001002010B588B094
:1043F00000241E48059406940494009401940294A9
:104400001949039401604F21C0E901144FF6FF716F
:10441000C0E903148461FEF784FE08B1FDF76CF86F
:10442000049404A911480694FEF7EEFB08B1FDF7C9
:1044300063F80120CDE900400294002269460B4850
:104440000394FEF7DFFD08B1FDF756F80220009057
:104450000190042269460548FEF7D4FD002801D0EA
:10446000FDF74AF808B010BD000400406C010020C0
:1044700010B588B000241748009401940294039466
:10448000049405941249069401604F21C0E9011477
:1044900042F20F71C0E903148461FEF704FC08B115
:1044A000FDF72AF84FF48050009069460948FEF75E
:1044B0009FFC08B1FDF720F8049404A90548069470
:1044C000FEF7A2FB002801D0FDF716F808B010BDDA
:1044D00000080040B8010020FEE7FEE7704730B555
:1044E00001210020FFF70AFD4FF47A70FCF7F6FF78
:1044F00000210120FFF702FD41F290711020FFF72B
:10450000FDFC4FF41C516020FFF7F8FC01216120F5
:10451000FFF7F4FC02214620FFF7F0FC48F21001FF
:104520001320FFF7EBFC48F2FE011220FFF7E6FC38
:104530004FF4A0610220FFF7E1FC41F230010320BB
:10454000FFF7DCFC40F2033421463020FFF7D6FCB5
:1045500021463120FFF7D2FC21463220FFF7CEFC66
:10456000E51E29463320FFF7C9FC03213420FFF75D
:10457000C5FC21463520FFF7C1FC14213620FFF78A
:10458000BDFC21463720FFF7B9FC21463820FFF754
:10459000B5FC21463920FFF7B1FC29463A20FFF748
:1045A000ADFC03213B20FFF7A9FC21463C20FFF78F
:1045B000A5FC4FF4A0513D20FFF7A0FC4FF4007183
:1045C0009220FFF79BFC21469320FFF797FC40F6D3
:1045D0000D019020FFF792FC41F218010320FFF734
:1045E0008DFCBDE8304040F273110720FFF786BC18
:1045F00010B543F20801E320FFF780FC1221E72009
:10460000FFF77CFC41F23121EF20FFF777FC00211E
:104610000120FFF773FC4FF4E0610220FFF76EFC0E
:1046200041F230010320FFF769FC00210420FFF76D
:1046300065FC40F207210820FFF760FC00210920FB
:10464000FFF75CFC00210A20FFF758FC00210C203A
:10465000FFF754FC00210D20FFF750FC00210F2034
:10466000FFF74CFC00211020FFF748FC0721112028
:10467000FFF744FC00211220FFF740FC002113202B
:10468000FFF73CFCC820FDF79FFB41F29061102032
:10469000FFF734FC40F227211120FFF72FFC3220D6
:1046A000FDF792FB1D211220FFF728FC3220FDF7B9
:1046B0008BFB4FF400611320FFF720FC142129200D
:1046C000FFF71CFC0B212B20FFF718FC3220FDF715
:1046D0007BFB00212020FFF711FC00212120FFF7A8
:1046E0000DFC07213020FFF709FC40F20771312053
:1046F000FFF704FC06213220FFF700FC40F20471B2
:104700003520FFF7FBFB41F604713620FFF7F6FB7F
:1047100004213720FFF7F2FB00213820FFF7EEFBE2
:1047200040F206713920FFF7E9FB40F201713C20AD
:10473000FFF7E4FB0F213D20FFF7E0FB00215020B5
:10474000FFF7DCFBEF215120FFF7D8FB00215220BF
:10475000FFF7D4FB40F23F115320FFF7CFFB4FF49C
:104760001C516020FFF7CAFB01216120FFF7C6FB47
:1047700000216A20FFF7C2FB00218020FFF7BEFB6B
:1047800000218120FFF7BAFB00218220FFF7B6FB52
:1047900000218320FFF7B2FB00218420FFF7AEFB4E
:1047A00000218520FFF7AAFB10219020FFF7A6FB30
:1047B00000219220FFF7A2FB03219320FFF79EFB2D
:1047C0004FF488719520FFF799FB00219720FFF7A0
:1047D00095FB00219820FFF791FB41F2180103207F
:1047E000FFF78CFBBDE8104040F273110720FFF784
:1047F00085BB000008B1044801E00348103001689F
:1048000041F04001016070471804004810B5802154
:104810000348FDF70FFC012800D0002010BD000068
:104820000004004800B585B014216846FBF72BFE54
:10483000802000900020019001200290022003902F
:1048400069460248FDF7D2FA05B000BD00040048F1
:1048500008B1044801E003481030016841F08001CC
:10486000016070471804004800B585B014216846FF
:10487000FBF709FE8020009011200190002002909B
:104880000220039069460248FDF7B0FA05B000BD6A
:10489000000400487047FDF7DDBB00B593B0382138
:1048A0006846FBF7F0FD14210EA8FBF7ECFD4FF472
:1048B0000070FDF761FC0220C101039140210491C9
:1048C0000121CDE9080100900A21CDE90A100790E5
:1048D0000C900D906846FDF71FFF08B172B6FEE719
:1048E0000F200E9003200F90002010901190129036
:1048F00002210EA8FDF7EAFD002801D072B6FEE7FE
:1049000013B000BD0248016841F4700101607047B6
:1049100088ED00E00148FEF7ADBD00002001002059
:104920000148FEF7A7BD00006C0100200148FEF71A
:10493000A1BD0000B80100202DE9F0430268234B1F
:10494000234D244E244C4FF08049984207D04845CF
:1049500005D0A84203D0B04201D0A04203D122F03A
:1049600070074A683A431D4FDFF874C0DFF874805F
:1049700098420DD048450BD0A84209D0B04207D08C
:10498000A04205D0B84203D0604501D0404503D1D4
:1049900022F44075CA682A434D6922F080022A43F6
:1049A00002608A68C2620A688262984207D0A042A6
:1049B00005D0B84203D0604501D0404501D1096916
:1049C000016301214161BDE8F0830000002C01403A
:1049D0000004004000080040003401400040014055
:1049E000004401400048014010B501F01F030121BF
:1049F000046A99408C430462016A9A40114301623F
:104A000010BD10B5846842EA032224F47F440A43AF
:104A10002243826010BD00008268034B1A400A43A3
:104A200042F00701816070478FFFCFFF2DE9F0430F
:104A3000026A22F001020262056A436882691C4C24
:104A400025F0020522400C6822F0030214438A6814
:104A5000194E2A43174D194FDFF864C0DFF86490F0
:104A6000A84207D0B04205D0B84203D0604501D07B
:104A7000484506D122F00808CA6842EA080222F036
:104A80000402A84207D0B04205D0B84203D0604526
:104A900001D0484505D14D6923F440731D438B690E
:104AA0002B4343608461496841630262BDE8F0833F
:104AB0008FFFFEFF002C0140003401400040014008
:104AC0000044014000480140F0B5026A22F01002A3
:104AD0000262056A42688369194C1B4E23400C68C8
:104AE00023F4407343EA042425F020038D6843EA4D
:104AF0000513144DA84201D0B04206D1CF6823F06F
:104B0000800343EA071323F04003A8420AD0B042CF
:104B100008D00E4DA84205D00D4DA84202D00D4D33
:104B2000A84207D14D6922F4406242EA85028D69AC
:104B300042EA850242608461496881630362F0BD94
:104B4000FF8FFFFE002C0140003401400040014077
:104B50000044014000480140F0B5026A22F480722E
:104B60000262056A4368C269194C1B4E22400C68F8
:104B700022F00302144325F400728D6842EA0522F4
:104B8000144DA84201D0B04206D1CF6822F4006291
:104B900042EA072222F48062A8420AD0B04208D03A
:104BA0000E4DA84205D00E4DA84202D00D4DA84290
:104BB00007D14D6923F4405343EA05138D6943EA55
:104BC00005134360C4614968C1630262F0BD00001F
:104BD0008FFFFEFF002C01400034014000400140E7
:104BE0000044014000480140F0B5026A22F48052BE
:104BF0000262056A4268C369194C1B4E23400C6867
:104C000023F4407343EA042425F400538D6843EAF7
:104C10000533144DA84201D0B04206D1CF6823F429
:104C2000004343EA073323F48043A8420AD0B0424A
:104C300008D00E4DA84205D00D4DA84202D00D4D12
:104C4000A84207D14D6922F4404242EA85128D699B
:104C500042EA85124260C461496801640362F0BDA2
:104C6000FF8FFFFE002C0140003401400040014056
:104C7000004401400048014030B5026A22F480320D
:104C80000262046A4268036D114D2B400D681D439A
:104C900024F400330C8943EA04430E4CA0420BD0A9
:104CA0000D4CA04208D00D4CA04205D00C4CA042A7
:104CB00002D00C4CA04204D14C6922F4803242EA6A
:104CC00004224260056549688164036230BD0000CA
:104CD0008FFFFEFF002C01400034014000400140E6
:104CE000004401400048014030B5026A22F48012BD
:104CF0000262046A4268036D114D24F400142B40D3
:104D00000D6843EA05230D8944EA05540D4DA84278
:104D10000BD00D4DA84208D00C4DA84205D00C4D2B
:104D2000A84202D00B4DA84204D14D6922F4802242
:104D300042EA8522426003654968C164046230BD6D
:104D4000FF8FFFFE002C0140003401400040014075
:104D5000004401400048014010B5036A046A24F091
:104D600001040462846924F0F00444EA021423F08C
:104D70000A020A438461026210BD000070B5046A31
:104D800024F0010404628469056A124EB0420ED018
:104D9000B0F1804F0BD0104EB04208D00F4EB04251
:104DA00005D00F4EB04202D00E4EB04203D124F0D7
:104DB0000304144301E044F001041A0724F0F00452
:104DC00044EA126225F00A0301F00A0119438261E4
:104DD000016270BD002C014000040040000800404A
:104DE000003401400040014010B5036A23F0100375
:104DF00003628369046A23F4704343EA023224F0B5
:104E0000A00343EA01118261016210BD30B5046A5A
:104E100024F0100404628469056A24F4407444EAAE
:104E2000022222F470444FF6FF7202EA0332224358
:104E3000A02425F0A00304EA011119438261016254
:104E400030BDFEE703B401984100009850EAC1204C
:104E500018BF04204A0D18BF40F0010040F2FF7255
:104E6000B2EB515F08BF40F00200012808BF0520E7
:104E700002B070470907090E002804DB00F1E020AA
:104E800080F80014704700F00F0000F1E02080F877
:104E9000141D704730380A2801D2012070470020C5
:104EA0007047002100E0491C8142FCD3704700009C
:104EB00030B5454C89B02078002866D143A16846BA
:104EC000FBF70AFA69461820FEF706FF444845A199
:104ED00002686846FBF700FA69463020FEF7FCFEE0
:104EE0004648006800F0DAFC41EC100B44A153EC9A
:104EF000102B6846FBF7F0F969464820FEF7ECFEF8
:104F0000454846A102686846FBF7E6F96946602015
:104F1000FEF7E2FE4748006800F0C0FC41EC100BD1
:104F200045A153EC102B6846FBF7D6F9694678206B
:104F3000FEF7D2FE464800F007F953EC102B45A1CE
:104F40006846FBF7C9F969469020FEF7C5FE474859
:104F500000F0FAF853EC102B45A16846FBF7BCF9BA
:104F60006946A820FEF7B8FE022000F0B5F8054615
:104F7000012000F0B1F805EB002242A16846FBF7E2
:104F8000ABF96946C020FEF7A7FE2078012819D1A9
:104F900042A16846FBF7A0F969461820FEF79CFE7F
:104FA000627843A16846FBF797F969463020FEF71F
:104FB00093FEA27843A16846FBF78EF9694660200C
:104FC000FEF78AFE09B030BD00000020202020201E
:104FD0002020446174612020202020202000000037
:104FE00020000020202020202020465251313D2545
:104FF0006420202020202020000000002800002025
:1050000020202020202064757479313D252E3366C0
:1050100020202020202020002400002020202020EC
:105020002020465251323D2564202020202020207F
:10503000000000002C00002020202020202064758B
:105040007479323D252E3366202020202020200038
:1050500048000020202020202020563A252E3266AD
:10506000207620202020202000000000B400002016
:10507000202020202020563A252E3266207620201F
:10508000202020002020202020204652515F6565EE
:10509000703D2564202020202000000020202020BA
:1050A000202050617261202020202020200000005C
:1050B000202020205041363A256420202020202026
:1050C00020000000202020205041373A2564202075
:1050D000202020202000000010B50446FEF709FD26
:1050E000A020FEF7DFFCFEF73AFD2046FEF7DAFCD3
:1050F000FEF735FDFEF718FDFEF7FBFCA120FEF7DD
:10510000D1FCFEF72CFDFEF7A6FC0446FEF727FDBA
:10511000FEF70AFD204610BD70B50D460446FEF7A9
:10512000E8FCA020FEF7BEFCFEF719FD2046FEF7C6
:10513000B9FCFEF714FD2846FEF7B4FCFEF70FFDA0
:10514000BDE87040FEF7F0BC10B50446FCF7C2FDA8
:105150002046FCF74BFC00F090FA9FED071B53EC48
:10516000112B00F09DFA9FED061B53EC112B00F064
:1051700097FA41EC100B10BD6666666666660A40DB
:10518000000000000000303F2DE9F041254D264C85
:105190000026A878012807D1207850B1002020707F
:1051A0000020FEF733FDAE70A87A0A27012802D04E
:1051B00010E00120F3E760780A30C0B26070642824
:1051C00000D3677019496078096848630020FEF7CA
:1051D0001DFDAE72A87C01280ED1A0780A30C0B2A5
:1051E000A070642800D3A7701149A07809684863AB
:1051F0000020FEF70BFDAE74A87E01280FD10D48EC
:105200000088C0F30721C4B20120FFF785FF0A2000
:10521000FCF7DAFD21460220FFF77EFFAE76BDE8FF
:10522000F08100009C020020000000200402002009
:105230005002002020000020FCF714FFFFF72DFB98
:10524000FEF762FFFFF792F8FFF7D0F8FFF710F9CB
:10525000FEF7F0FFFFF73CF8FEF7D0FEFEF716FF73
:105260000020FEF781FEFEF779FD0020FEF7CEFC60
:105270000020FEF7CDFD4FF6FF70FEF7DDFD134871
:10528000FDF77AFD00211248FEF7F0FA00211148DF
:10529000FEF7ECFA00211048FEF756F800210F48FF
:1052A000FEF752F84FF4FA740120FEF75DFE204637
:1052B000FCF78AFD0020FEF757FE2046FCF784FD30
:1052C000FFF762FFFFF7F4FDEEE70000B8010020F2
:1052D0000402002050020020200100206C01002068
:1052E00010B500290AD00878002807D0054878446E
:1052F000FBF7A8FC002801D0002010BD024878442C
:1053000010BD00003E1900003619000021F00042D7
:10531000A2F16052B2F5801F01F0004328BFD2F124
:105320007F6C0BD95FEA001C43EAC20242EB50706B
:1053300018BF704728BF20F001007047B2F5801FEA
:10534000BCBF184670474FEA410C1CF5001F02D243
:10535000084600F019BB70B500F04CFA0000008957
:10536000FFF7F6BF4FF00040A0F580007047000047
:105370002DE9C04130B4DFF8A0C23CEA111418BFD7
:105380003CEA131400F0EC8081EA03051CEA1114D6
:1053900044EAD57418BF1CEA131500F0C780A4EBCB
:1053A00005044FF0004545EAC12145EAC32341EA1F
:1053B000505143EA525304F17F74994204F500348A
:1053C0004FEAC0204FEAC22208BF904200F09C8002
:1053D0004FEA13650FF24016765D4FEA134506FB60
:1053E00005F7C7F1807706FB07F74FEAD737A7FB2A
:1053F00003687642C8F58038A7FB06CE38BFA8F10F
:10540000010807FB08E64FF0000EA6FB028CE6FB46
:1054100003CEDCF1000CCEF1004E38BFAEF1010E30
:10542000A6FB0C584FF000074FF00005E6FB0E8777
:10543000A1FB08C6A0FB07CE16EB0E0645F1000542
:10544000E1FB076515F1E04E7EBFA4F580345FEA0D
:1054500046066D4116F1800745F100054FEA172712
:105460004FEA066647EA0567A6F1DE46B6F1805FB9
:105470004FEA15251FD9384624F0010C05EBC471FD
:10548000BCF1FE6F01EB0C1102D8F0BCBDE800814D
:1054900024425CBF01F5801E9EEAC47F02D4F0BCAA
:1054A000BDE80081244238D4F0BCA1F1C041BDE880
:1054B000004100F0EDB94FEAD22242EA43524FEAEE
:1054C000D323A7FB02864FEAD02040EA415007FBD6
:1054D00003661EEA0E0F4FEAD12105FB026658BF94
:1054E000A6EB0056B6EB00564FEA520E4EEAC37ECC
:1054F00018EB0E0E56EB530EBDD518EB02085E41AD
:105500007F1C55F10005B6E74FF480154FF00007FA
:105510004FF000064FF00008ADE7F0BC4FF0000080
:1055200001F1C04101F00041BDE8008111EA0C1F0A
:105530000CEA131500D00CE013EA0C1F00F02580D4
:105540004FF00000F0BC81EA030101F00041BDE82A
:105550000081F0BCBDE8004181EA030100F098B988
:10556000F0BCBDE8004170B500F044F9097EFC3E96
:1055700000F007B881EA03014FF0000001F000419C
:10558000704781EA030100F083B9F0BCBDE8004137
:105590004FF0000021497047FFFDFBF9F7F5F4F2E9
:1055A000F0EEEDEBE9E8E6E4E3E1E0DEDDDBDAD8BE
:1055B000D7D5D4D3D1D0CFCDCCCBCAC8C7C6C5C41C
:1055C000C2C1C0BFBEBDBCBBBAB9B8B7B6B5B4B333
:1055D000B2B1B0AFAEADACABAAA9A8A8A7A6A5A41E
:1055E000A3A3A2A1A09F9F9E9D9C9C9B9A999998E2
:1055F0009797969595949393929191908F8F8E8E85
:105600008D8C8C8B8B8A8989888887878685858411
:1056100084838382828181800000FF070000F87FFD
:105620004FEA1153A3F58063D3F11E03A8BFD3F152
:10563000200C08DB4FF0004242EAC12252EA5052ED
:1056400032FA03F0704709420BD4102BC4BF00207C
:10565000704703F5787CBCF1FF3F05D04FF0FF3079
:1056600070474FF00000704770B500F0C3F800BFFE
:105670004992248000207047F0E7B0FA80F310FAD6
:1056800003F10AD0C3F11D0303F580634FEA4150D3
:105690004FEA035202EBD12170474FF000007047F0
:1056A000DFF848C170B51CEA111E1EBF1CEA1315B5
:1056B0009EEA0C0F95EA0C0F00F06F8081EA03045C
:1056C00023EA4C134EEAD47E21EA4C1141F48011B6
:1056D00043F48013AE44A1FB024CA0FB0365AEF182
:1056E0007F7E361955EB0C05A1FB034C4CF10003F2
:1056F000A0FB021C16EB0C06654153F100030942A6
:1057000018BF46F0010613F4007F0BD14FEA0331B6
:105710004FEA0530340341EA155140EA16506FF064
:1057200003020AE04FEAC3214FEAC520F40241EA2E
:10573000555140EA56506FF0020202EB2E4201EB47
:10574000025585EACE710AD05FEA440C18BF24F0F6
:10575000004450F1000041F1000120EAD47040F211
:10576000FE7C624500D270BDA84214BF4FF0804459
:105770004FF04044002E08BF0024BEF1806FA8BF48
:10578000A1F1C041BDE8704080F282804FF000007E
:1057900001F1C04101F0004170479EEA0C0F0CEA94
:1057A000131518BF95EA0C0F06D04FF0000081EAE0
:1057B000030E0EF0004170BD00F01CF88900013EA0
:1057C00000F007B800F009B84FEA430C5FEA5C5CF0
:1057D00008D081EA030100F05BB84FEA410C5FEAB0
:1057E0005C5CF6D14FF00000014970470000FF07F4
:1057F0000000F87F0EF1020E2EF0030E5EF8046B2F
:10580000364205D4012A43EB030515F5001F12D8D3
:10581000012841EB010C1CF5001F0CD80ED14FEAFA
:10582000D17C15F5001F0CEB4C0C0CF1020C08BFE1
:105830004CEBD37C04E04FF0080C01E04FEAD37C42
:105840000CEB4C0526FA05F606F00706B6F1040C3B
:1058500006D20EEB860CBDE870404CF0010C6047A0
:10586000DFE80CF0090B02024FF000414FF000009E
:10587000A1F5002170BD19461046012851EB010425
:1058800018BFD4F5001484BF002001F0004170BDA2
:105890000808A0F500114FEA3101704743004FEAB4
:1058A000D30C4FEA3C0C43401FBF40070CF1605142
:1058B00013F0FE4F70471CF0006F03D100200CF076
:1058C000004170470CF0004343EA507010B540EAC5
:1058D000CC0000F00EF800BF000000924FEA00017B
:1058E000FFF7D6BF4FF000414FF00000A1F50021B7
:1058F00070470EF1020E2EF0030E5EF8044B2442A8
:1059000004D44FEA4102B2F17F4F11D84FEA40036D
:10591000B3F17F4F0CD80ED14FEAD07CB2F17F4F5C
:105920000CEB4C0C0CF1020C08BF4CEBD17C04E0EE
:105930004FF0080C01E04FEAD17C0CEB4C0324FA49
:1059400003F404F00704B4F1040C06D20EEB840C4B
:10595000BDE810404CF0010C6047DFE80CF0070890
:1059600002024FF00040A0F5800010BD0846420042
:1059700018BFD2F1807288BF00F0004010BD4FF018
:105980004070E1EE100A7047FF2141EAD050C00597
:105990007047FAF7D4BE00000000000000000102CA
:1059A00003040607080900000000000000000000D2
:1059B00000000000000000000000000000000000E7
:1059C00000000000000000000000000000000000D7
:1059D00000000000000000008001800180018001C3
:1059E00080018001800180018001800180018001AF
:1059F0008001000000008001800100000000000024
:105A000000000000000000000000CC00CC00CC0032
:105A1000CC00CC00CC000000000000000000000022
:105A20000000000000000000000000000000000076
:105A30000000000000000000000000000000000066
:105A40000000600C600C600C30063006FE1FFE1F6C
:105A5000300638071803FE1FFE1F180318038C01B9
:105A60008C018C01000000008000E003F80F9C0E08
:105A70008C1C8C188C009800F801E007800E801CAC
:105A80008C188C189C18B80CF00FE0038000800074
:105A90000000000000000000000000000E181B0CB9
:105AA000110C11061106110311039B018E01C03860
:105AB000C06C60446044304430441844186C0C3866
:105AC0000000000000000000E001F00338071806A5
:105AD00018063003F001F000F8009C310E33061E6A
