:020000040800F2
:100000006009002099020008AB4A00087B41000803
:10001000A94A00088D170008AD5E00080000000026
:10002000000000000000000000000000A94E0008D1
:100030008F17000800000000F14A0008AB4E0008CE
:10004000B3020008B3020008B3020008B3020008BC
:10005000B3020008B3020008B3020008B3020008AC
:10006000B3020008B3020008B3020008B30200089C
:10007000B3020008B3020008B3020008B30200088C
:10008000B302000800000000B3020008B302000839
:10009000B3020008B3020008B3020008B30200086C
:1000A000B3020008B3020008B3020008B30200085C
:1000B000254F0008B3020008314F0008B3020008C2
:1000C000B3020008B3020008B3020008B30200083C
:1000D000B3020008A15E0008B3020008B3020008E2
:1000E000B3020008B3020008B3020008B30200081C
:1000F000B3020008B3020008B302000800000000C9
:1001000000000000B302000800000000B302000875
:10011000B302000800000000B3020008B3020008A8
:10012000B3020008B3020008B3020008B3020008DB
:10013000B30200080000000000000000B302000845
:10014000B3020008B3020008000000000000000035
:10015000000000000000000000000000000000009F
:10016000000000000000000000000000B3020008D2
:10017000B3020008000000000000000000000000C2
:1001800000000000B30200080000000000000000B2
:10019000000000000000000000000000000000005F
:1001A0000000000000000000B3020008B3020008D5
:1001B000B3020008B3020008B30200080000000008
:1001C00000000000B3020008000000000000000072
:1001D000B3020008B302000800F002F800F04CF887
:1001E0000AA090E8000C82448344AAF10107DA4592
:1001F00001D100F041F8AFF2090EBAE80F0013F098
:10020000010F18BFFB1A43F0010318475483000085
:1002100074830000103A24BF78C878C1FAD8520716
:1002200024BF30C830C144BF04680C607047000070
:100230000023002400250026103A28BF78C1FBD8EF
:10024000520728BF30C148BF0B607047662907F0CE
:100250002A80642900F0CC80002070471FB507F089
:100260001DF800F0B1FC04000020002106F034FB72
:10027000E0601FBD10B510BD00F0A6FD1146FFF7F0
:10028000EDFF06F0F3F900F0C4FD03B4FFF7F2FF51
:1002900003BC00F0C7FD000009488047094800473B
:1002A000FEE7FEE7FEE7FEE7FEE7FEE7FEE7FEE726
:1002B000FEE7FEE704480549054A064B7047000083
:1002C000154F0008D90100086003002060090020D4
:1002D000600500206005002053EA020C00F06980F0
:1002E0002DE9F04B4FF00006002B1FBFB3FA83F54A
:1002F00003FA05F424FA05F65E4012BF1643B2FA7B
:1003000082F502FA05F4C5F120051EBF22FA05FCAC
:1003100044EA0C04203556EA044C4FEA144418BF52
:10032000641C4FF000084FF00009904271EB030C81
:1003300039D3002919BFB1FA81F701FA07F6B0FAEB
:1003400080F700FA07F6C7F120071EBF20FA07FC66
:1003500046EA0C062037B6FBF4FCA7EB0507103F76
:1003600007F01F0BCBF120060CFA0BFB2CFA06F65C
:1003700044BFB3460026202FA4BF5E464FF0000BBB
:100380005BEA060C08BF4FF0010B19EB0B09ABFB46
:10039000027C48EB0608C01B06FB02CC0BFB03CC1F
:1003A00071EB0C01C1E70B46024641464846BDE8E9
:1003B000F08B13B54FF000004FF00001AFF3008059
:1003C000BDE81C40704700000FB41CB5074B06AADF
:1003D0007B4469460090059800F0DDFB00206946EB
:1003E00000F0ECFB1CBC5DF814FB0000E90700000A
:1003F0002DE9F0410646002410687529314616A5FE
:1004000010D0AFF30080002802DA404213A507E0C5
:1004100031688A0701D512A502E0490704D511A564
:10042000012401E0AFF3008000210A2206F1240735
:1004300009E0B0FBF2FCB0FBF2F302FB1C00303031
:1004400078541846491C0028F3D123462A463046E2
:10045000BDE8F04100F031B9000000002D000000BF
:100460002B000000200000002DE9F05F89460446C3
:100470004FF0000ADFF824B1FB44C0F820A020466A
:10048000E168884700287DD0252806D0D4E90121DD
:100490009047206A401C2062F1E700255F46204615
:1004A000E16888472028064607DB312E05D2B819B7
:1004B00010F8200C08B10543F1E7A80701D525F095
:1004C0000405C4F81CA00027C4F818A02A2E09D0DF
:1004D000304605F014FD38B304EB8708303EC8F809
:1004E000186019E059F8041B204604EB870291615B
:1004F000E1688847012F064618D1E069002820DA14
:1005000025F020051DE0D8F8180000EB800006EB70
:1005100040003038C8F818002046E1688847064691
:1005200005F0EDFC0028EED1012F0AD02E2E08D1C7
:100530002046E16888477F1C0646022F45F02005CB
:10054000C4DBA069002803DA404245F00105A06140
:10055000E80701D025F01005A6B1A6F14100192841
:1005600002D8203645F400654A46314620462560CB
:100570004D46FFF76BFE60B1012807D0ED1D25F059
:10058000070000E007E000F1080978E705F1040939
:1005900075E730467AE7206ABDE8F09F3E800000AC
:1005A0004FF000020429C0F0128010F0030C00F09C
:1005B0001B80CCF1040CBCF1020F18BF00F8012B1A
:1005C000A8BF20F8022BA1EB0C0100F00DB85FEAE8
:1005D000C17C24BF00F8012B00F8012B48BF00F8B4
:1005E000012B70474FF0000200B513469446964623
:1005F000203922BFA0E80C50A0E80C50B1F1200136
:10060000BFF4F7AF090728BFA0E80C5048BF0CC0E3
:100610005DF804EB890028BF40F8042B08BF704741
:1006200048BF20F8022B11F0804F18BF00F8012BB3
:10063000704700004FF0013C50F8042B51F8043B88
:100640009A4221D1A2EB0C03934313EACC1317D1A6
:1006500050F8042B51F8043B9A4215D1A2EB0C033D
:10066000934313EACC130BD150F8042B51F8043BFD
:100670009A4209D1A2EB0C03934313EACC13DBD0CB
:100680004FF00000704700BFD01A01BAB1FA81F1F3
:1006900001F0180122FA01F0CB40C1F12001DBB2D8
:1006A000C0B2C01A2CFA01F3D11A914311EAC31156
:1006B000E6D170477047704770472DE9F0470D4607
:1006C00099469246044600F124080168880604D53C
:1006D000E06921F01001216000E00120A84201DD65
:1006E000471B00E00027A1697A1902EB0900081AEC
:1006F000A0612078C00602D42046AFF30080002617
:1007000008E0D4E901211AF806009047206A401C4D
:10071000761C20624E45F4DB2078C0060AD52046C0
:10072000AFF3008006E0D4E9012130209047206A31
:10073000401C2062381EA7F10107F4DC07E0D4E971
:10074000012118F805009047206A401C2062281EED
:10075000A5F10105F3DC2046AFF300802078000608
:1007600002D50220BDE8F0870120FBE770472DE9A4
:10077000FF4F0C461E464FF0FF378BB0D2E9000109
:10078000DDF860800A908A46C1F30A5505B93D46F6
:10079000002108464FF00000BAF1000F00F44000BD
:1007A00005DA00EB80004FF4400101EA50004FEA07
:1007B0009059B9F1010F00DDB9460A9850EA4A0094
:1007C0000ED044F61050A5F2FF3545432F14B8F172
:1007D000000F1ED07542291E1EDDC9F100021CE06B
:1007E000B8F1010F4FF0000001D0302103E0F243D7
:1007F00005E02154401CB042FBDB304600220021C2
:1008000021540B99C1F80880C1E900200FB0BDE860
:10081000F08FBD1B6D1CDEE74A4600DA694206A870
:1008200000F05CFA06AB93E8070003AB83E807002F
:1008300050460A9900F0FDFA8DE80700A0F5005037
:100840001F3800900398002D0ADD42F21F014A462E
:100850000844002303A90390684600F066FD09E000
:10086000A0F500504A461F38002303A903906846AC
:1008700000F070FD8DE807000004000C03D04FF07D
:10088000FF30410800E01046B8F1000F03D000220D
:10089000009215461EE0751E05D400F099F930321D
:1008A00062556D1EF9D5B3460122084302D00022DD
:1008B0007F1C04E02078302801D100227F1E002A0E
:1008C000099784D01DE0112D07DA00F081F930324C
:1008D00062556D1C50EA0102F5D1084302D0009820
:1008E000C8B10EE00021681E05E0235C625C635421
:1008F0002254401E491C8142F7DBAB46A81B401E18
:100900000990002004F80B000B98099AC0F80880A1
:10091000C0E9002B7AE711264FF0000857E72DE9D0
:10092000F04F88460446D21D22F0070191B0D1E96C
:100930000001CDE90A0105F0BAFA02460B98C00F92
:1009400001D02D2007E02068810701D52B2002E08F
:10095000202101EAC000032A099001D0072A05DB03
:1009600003464146204600F079F90BE120788006E5
:1009700001D5E06900E00620B8F1650F814606D098
:10098000B8F1660F18D0B8F1670F70D131E00020D0
:10099000B9F1110F009001DB112301E009F101030E
:1009A0000AAA01A90CA8FFF7E2FEDDE90C700026F7
:1009B00009F10105834647E001204B4600904FF0C6
:1009C00000470AAA01A90CA8FFF7D1FEDDE90DB086
:1009D0000C995D46002610B909F101000D18B9EB1C
:1009E000050003D4C0F1FF3609F10105A5EB0900AC
:1009F0002BE0B9F1010F01DA4FF001090020B9F144
:100A0000110F0090484601DD112300E003460AAAB9
:100A100001A90CA8FFF7ABFEDDE90C704D460026DE
:100A20008346207800070AD4AB4500DA5D4601A86A
:100A3000012D04DD411911F8011C302907D04F4563
:100A400002DA17F1040F04DA012082460FE06D1E6E
:100A5000EEE7002F02DCED1B3E4403E0781CA842C9
:100A600000DD7D1CB81B00F1010A4FF00047207823
:100A7000000703D4AA4501DB4FF0FF3A0021B7F18C
:100A8000004F0DF143088DF8431024D002202B2392
:100A9000002F01DA7F422D230A21021EA0F101005E
:100AA00000DC5FB197FBF1FC97FBF1F201FB1C7CD2
:100AB00017460CF1300C08F801CDEEE7A8F1010063
:100AC00003702188090501D5452100E06521A0F1C9
:100AD000010800F8011C09980FA9A1EB0807FF1DE8
:100AE00000B10120411901EBEA70A1693844081AEC
:100AF000401EA0612078C00602D42046AFF30080DB
:100B0000099828B1D4E901219047206A401C20624D
:100B10002078C00622D52046AFF300801EE0002ECC
:100B200004DBB34502DD01A8805D00E03020D4E99C
:100B300001219047206A401C2062761CAAF1010026
:100B40005FEA000A0AD100F03FF8C0680168405C23
:100B5000D4E901219047206A401C2062281EA5F19B
:100B60000105DCDC07E0D4E9012118F8010B90470E
:100B7000206A401C2062381EA7F10107F3DC2046E2
:100B8000AFF30080032011B041E6000001694A1C68
:100B900002610878704700B58FB0CDE901310021BE
:100BA000059105497944CDE9031011466846FFF7E0
:100BB0005BFC0FB000BD0000E5FFFFFF0A6802F814
:100BC000010B0A60704700000048704720030020B6
:100BD00030B5B0F10A024FEA900E71F100034EEA0F
:100BE000817EB0EB0E0061EB91014FEA101E4EEAE0
:100BF000017E10EB0E0041EB11114FEA102E4EEA70
:100C0000016E10EB0E0041EB11214FEA104E4EEA3F
:100C1000014E10EB0E0041EB1141401841F1000173
:100C20004FEAD00040EA41704FEAD10110EB800555
:100C30004FEA810444EA907444EB01046D1944EBDB
:100C40000404521BA3414FF0000348BF0A3200D5F1
:100C500030BD401C41F1000130BD00002DE9F041E4
:100C60001F46044603260168072A01F4006004DBDE
:100C700008B116A505E016A503E008B115A500E02A
:100C800015A521F010002060A069C01EA0610FB161
:100C9000401EA0612046AFF300804FB1D4E901218E
:100CA00038469047206A401C2062C01C206206E043
:100CB000206AFAE7D4E9012115F8010B9047761E66
:100CC000F8D22046AFF30080BDE8F0814E414E00DF
:100CD0006E616E00494E4600696E66002DE9F04770
:100CE000814616468AB0354878440DC88DE80D0017
:100CF00032487844801C03AC0DC884E80D0041F6EE
:100D00009B300844372190FBF1F290FBF1F5A5F1FF
:100D1000800501FB12041B3C02D56442012000E067
:100D20000020DFF898A080460027FA44AAF1BE0A06
:100D30000EE0E0070AD03246684607EB4701012380
:100D40000AEB810100F006FB8DE8070064107F1CB0
:100D5000002CEED1194F7F44AE3F19E0E80715D0C3
:100D600007EB04100DF1180A90E80E008AE80E0057
:100D7000C068F04201D1981908903246012306A9B3
:100D800003A800F0E7FA03AB83E807006D10641CCA
:100D9000002DE3D14FF0010332466946B8F1000F50
:100DA00003A802D000F0C1FA01E000F0D3FAC9E9CB
:100DB0000001C9F808200AB0BDE8F0875C7800009F
:100DC00000487047000300207546FFF7F9FFAE4664
:100DD00005006946534620F00700854618B020B547
:100DE000FFF768FABDE820404FF000064FF000071B
:100DF0004FF000084FF0000B21F00701AC46ACE8C3
:100E0000C009ACE8C009ACE8C009ACE8C0098D462F
:100E1000704710B50446AFF300802046BDE810408F
:100E2000FFF733BA01491820ABBEFEE726000200E7
:100E300070475FEA400C08BF91F0000F4FEA8C2327
:100E40004FEAC12243EA51514FEA1C5018BF00F546
:100E5000F0404FEA300018BF41F000415FEA6C5C9F
:100E600000F02980BCF1FF3F08BF40F08040704790
:100E7000130C06BF12044FF0100C4FF0000C130EB1
:100E800004BF12020CF1080C130F04BF12010CF185
:100E9000040C930F04BF92000CF1020CD30F04BF9B
:100EA00052000CF1010C11464FF00002A0F11F009E
:100EB000A0EB0C00704711F0004F08BF704731F0F5
:100EC00000413FF4D5AF0B0C06BF09044FF0100CE6
:100ED0004FF0000C0B0E04BF09020CF1080C0B0FB5
:100EE00004BF09010CF1040C8B0F04BF89000CF145
:100EF000020CCB0F04BF49000CF1010CCCF1200314
:100F0000A0EB0C0022FA03F302FA0CF241EA03010F
:100F100000F10100704720F07F4C80EA030023F0CD
:100F20007F47ACEB070303F57C5300F0004003F16F
:100F3000FF032DE980494FEA154B09B44FEA1443EA
:100F400025EA0B4E24EA03480FF2042606EB13278A
:100F500049083E785FEA320203FB0667C7F50007DF
:100F600007FB06F64FEA54374FEAD64606F102066B
:100F700007FB066CCCF1005C4FEA1C472CEA074CDF
:100F800007FB06F40CFB06F504EB15464FEA961634
:100F900034BF00204FF000404FEAD13706FB07FC7A
:100FA0004FEA1C4C0CFB0BF7D21B03FB0CF761EB5D
:100FB00007010CFB0EF7B0EB074072EB17420CFB7E
:100FC00008F734BFA2EB0742B2EB074261EB1741CF
:100FD0004FEA0C444FEA910706FB07FC4FEA1C4C12
:100FE0000CFB0BF7B0EBC74072EB573203FB0CF76F
:100FF00034BFA2EBC742B2EBC74261EB57310CFBE7
:101000000EF7B0EBC70072EB57720CFB08F734BF5A
:10101000A2EBC702B2EBC70261EB5771039F4FEA25
:10102000816141EA921104EBCC044FEAD1374FEAD7
:10103000826206FB07FC42EA90124FEA80604FEAA8
:101040001C4C0CFB0BF7D21B03FB0CF761EB0701ED
:101050000CFB0EF7B0EB074072EB17420CFB08F7E6
:1010600034BFA2EB0742B2EB074261EB17414FEAF4
:101070008C554FEA910704EB9C2406FB07FC4FEAD2
:101080001C4C0CFB0BF7B0EBC74072EB573203FB69
:101090000CF734BFA2EBC742B2EBC74261EB57314A
:1010A0000CFB0EF7B0EBC70072EB57720CFB08F7A6
:1010B00034BFA2EBC702B2EBC70261EB577115EB6D
:1010C0004C254FEA816141EA92114FEA82624FEA70
:1010D000D13742EA901206FB07FC44F100044FEAC4
:1010E00080604FEA1C4C0CFB0BF7D21B03FB0CF788
:1010F00061EB07010CFB0EF7B0EB074072EB1742F8
:101100000CFB08F734BFA2EB0742B2EB074261EBDE
:10111000174115EB1C154FEA813141EA92414FEA24
:10112000823242EA90424FEA80304FEA0C7644F134
:10113000000448EA03434EEA0B484FF0000EB2EBBE
:10114000080C71EB030724BF624639464EEB0E0EC6
:101150004FF0000B0018524149414BEB0B0BB2EB27
:10116000080C71EB03077BF1000B24BF6246394684
:101170004EEB0E0E4FF0000B0018524149414BEB65
:101180000B0BB2EB080C71EB03077BF1000B24BFD8
:10119000624639464EEB0E0E51EA020718BF46F082
:1011A000010616EB0E7655F1000254F1000103D54D
:1011B000BDE88901BDE80088BDE88901BDE80048B7
:1011C000B619524141EB0101A3F101037047808040
:1011D0007F7E7D7C7B7A7978777676757473727191
:1011E00071706F6E6E6D6C6C6B6A6A696868676649
:1011F00066656464636362616160605F5F5E5E5DDB
:101200005D5C5C5B5B5A5A5959585857575656554E
:1012100055555454535352525251515050504F4FB0
:101220004F4E4E4D4D4D4C4C4C4B4B4B4A4A4A4900
:101230004949484848474747474646464545454443
:101240004444444343434342424242414141002BD0
:101250009C4630D477002BD01CB54FEA370703B437
:101260004FF010004FF01001BAF1000F06D0BCF1A2
:10127000000FDCBF40F0080040F008014FF0000014
:101280000FBCBDE810400BF1010BBBF1010F08BF13
:101290005FEA170722BF12F1010211F101014FF0BD
:1012A000004143F1000300F0004043EA00007047B2
:1012B000F9D35708D0E746EA064613F1400F4FEA44
:1012C00016461FDD13F1200FDFBF16430A4600212B
:1012D00020335B42BED0C3F1200746EA064602FA3D
:1012E00007F74FEA164646EA0706C3F1200722FA37
:1012F00003F201FA07F721FA03F14FF0000342EA83
:101300000702A7E746EA020646EA06464FEA1646FD
:1013100046EA0106BCBF46EA0646360C4FF000031B
:101320004FF000024FF0000194E72DE9804C9A46FF
:10133000934670B491E8380007C831EA400C48BFC2
:1013400034EA430C03D5FFF7E6FDFFF780FFF0BC5E
:10135000BDE8008C2DE9804C9A46934670B491E824
:10136000380007C810F0804F08BF13F0804F03D13A
:1013700000F005F8FFF76BFFF0BCBDE8008C20F033
:101380007F4780EA030023F07F4C07EB0C03A3F5B3
:101390007C5300F00040A3F1FE0392F0000F00F038
:1013A000B38095F0000F00F077802DE901494FEAF6
:1013B00011404FEA144621EA004800FB06FC24EAEB
:1013C000064708FB06F607FB08F800FB07F718EBD3
:1013D00006484CEB164C4FEA124B18EB07484FEA05
:1013E00015464CEB174022EA0B4E0BFB06FC25EA98
:1013F00006470EFB06F607FB0EFE0BFB07F71EEB80
:10140000064E4CEB164C4FF000061EEB074E4CEB15
:10141000174B18EB0B0840F1000018EB0E0B58EBC4
:10142000000840F100008F1A4FF000013CBFC94393
:10143000661B14BFB5EB040C00213CBFC943F61B6F
:101440004FEA17444EEA8E0E27EA04454FEA1C473E
:1014500004FB07622CEA074C05FB07F70CFB05F6BB
:1014600004FB0CFC16EB074642EB174216EB0C464E
:1014700042EB1C421BEB060658EB0202414146EAD6
:101480009E0601D5BDE80189B619524141EB010123
:10149000A3F10103BDE801894FEA14454FEA114762
:1014A00024EA054621EA074C05FB07F406FB07F78B
:1014B0000CFB06F105FB0CFC11EB074144EB174458
:1014C0004FEA124711EB0C4144EB1C4422EA074C53
:1014D00005FB07F206FB07F70CFB06F605FB0CFC09
:1014E00016EB074642EB174216EB0C4642EB1C4547
:1014F0006A1854F1000148BF7047B619524141EBD8
:101500000101A3F10103704795F0000F37D04FEAB6
:1015100011424FEA144721EA024624EA074C02FB33
:1015200007F106FB07F70CFB06F402FB0CFC14EBBF
:10153000074441EB17414FEA154714EB0C4441EBCC
:101540001C4125EA074C02FB07F506FB07F70CFBDD
:1015500006F602FB0CFC16EB074645EB174516EBAF
:101560000C4645EB1C42121951F1000148BF70476F
:10157000B619524141EB0101A3F1010370474FEA53
:1015800014454FEA114724EA054621EA074C05FBBA
:1015900007F106FB07F70CFB06F24FF0000605FB10
:1015A0000CFC12EB074241EB174112EB0C4251EBE2
:1015B0001C4148BF7047921841EB0101A3F10103A0
:1015C000704700002DE9F041044600270D460068F1
:1015D00003F066F80646206803F05EF830435DD0FD
:1015E0002068C1682E4E890105D5617F012902D18D
:1015F000217F01290BD0022D1DD0206803F050F867
:10160000B8B120688168C1F3400169B111E00125DA
:10161000244902E08F4232D27F1C0268D243520634
:10162000F8D440210160E8E78168314041F01001C1
:101630008160012D11D0206803F02EF848B1206898
:101640008168C1F3400121B98168314041F0200136
:101650008160022D08D0032D04D0042500F0EEFE99
:10166000064617E00C25F9E70825F7E700F0E6FE47
:10167000801B05280ED92068806828420AD0E06DBA
:1016800040F01000E065206E40F00100206601206F
:10169000BDE8F081206880682842E7D10020F7E7A4
:1016A000C0FFFF7F000040A370B50446006881685A
:1016B0008268C1F3400112F0010F28D039BB816864
:1016C00001F00D01012914D18168124A1140891CD1
:1016D000816021680320086000F0B0FE054612E03A
:1016E00000F0ACFE401B02280DD920688068C007BE
:1016F00009D0E06D40F01000E065206E40F0010080
:101700002066012070BD20688068C007E8D10020F5
:1017100070BD0000C0FFFF7F70B50446006881689F
:1017200011F0010F2DD18168174A11421AD1816839
:10173000D5432940491C816000F080FE06461BE02D
:10174000816811F0010F03D181682940491C816033
:1017500000F074FE801B02280ED920680068C04388
:10176000C00709D0E06D40F01000E065206E40F049
:1017700001002066012070BD20680168C943C907C7
:10178000DED1002070BD00003F000080FEE7704702
:10179000002240F6B83306E00021491C89B2994284
:1017A000FBD3521C92B28242F6D3704772B6FEE768
:1017B00070B50D462DED048B064600249FED128B6F
:1017C0009FED139B304600F0EFFB3221304600F0D6
:1017D0006DFB304600F02CFA05F0DCFA53EC182BC8
:1017E00005F03EFB53EC192B05F03AFB05EBC40268
:1017F000641CC2E90001022CE4DBBDEC048B304622
:10180000BDE8704000F04ABC6666666666660A40DF
:10181000000000000000303F2DE9F84F002704468B
:10182000009790F85800DFF8D8930D46B846012885
:1018300011D0012684F85860206802F031FF60B1B1
:10184000E06D40F02000E0655FF0010784F858800B
:101850003846BDE8F88F0220FBE7D5E900210C23CC
:10186000206803EA91131844036B01F01F014FF045
:101870001F0C0CFA01FCC2F3846223EA0C038A40B9
:1018800013430363206802F00BFF8246206802F0D6
:1018900003FF5AEA00003CD1AA6829682068B2F127
:1018A000004F37D002F008FF2068416921F0004165
:1018B000416120686969C268C2F3C1025200914067
:1018C0002A69042A31D000EB82002B68026EDFF80F
:1018D00034C303F0F84302EA0C020B431A4342F00C
:1018E0000041016620682A69A96900EB8200026E46
:1018F00022F080720A430266297F22682869012942
:1019000010D0002102EB8000026E22F000720A4328
:1019100002667DE0002202F0CFFE2068416941F0BE
:101920000041C5E74FF00071ECE7002102F0AEFE88
:10193000400320684FF0000172D002F0A7FE90FA39
:10194000A0F0B0FA80F1286842036ED090FAA0F0BF
:10195000B0FA80F0814204D100221146206802F0E2
:10196000BAFE0121206802F091FE400320684FF08A
:1019700001015DD002F08AFE90FAA0F0B0FA80F189
:101980002868420359D090FAA0F0B0FA80F0814262
:1019900004D100220121206802F09DFE022120686E
:1019A00002F074FE400320684FF0020148D002F0BC
:1019B0006DFE90FAA0F0B0FA80F12868420344D09E
:1019C00090FAA0F0B0FA80F0814204D10022022106
:1019D000206802F080FE0321206802F057FE4003D9
:1019E00020684FF0030133D002F050FE90FAA0F0CF
:1019F000B0FA80F1286842032FD090FAA0F0B0FA34
:101A000080F0814204D100220321206802F063FEAD
:101A10002068816811F0010F22D0A8E000E004E006
:101A200002F034FEC0F384618DE7C0F3846091E777
:101A300002F02CFEC0F38461A2E7C0F38460A6E745
:101A400002F024FEC0F38461B7E7C0F38460BBE713
:101A500002F01CFEC0F38461CCE7C0F38460D0E7E1
:101A6000EB6829684B4550F8B03FC1F3120101D132
:101A70000B4300E08B430360E868484577D1286852
:101A800041031CD090FAA0F1B1FA81F1491C01F098
:101A90001F0109294FEA403132D8002912D000BF76
:101AA00090FAA0F1B1FA81F101F1010101F01F01F9
:101AB00006FA01F609D100BFC0F3846109E0C0F362
:101AC0008461E3E7C0F38461EEE790FAA0F1B1FA34
:101AD00081F101F1010101F01F0146EA816102D1AA
:101AE000C0F3846003E090FAA0F0B0FA80F000F157
:101AF000010000F01F0000EB400041EA005132E01D
:101B000000290ED090FAA0F1B1FA81F101F10101A2
:101B100001F01F0106FA01F606D100BFC0F384618F
:101B200006E0C0F38461F1E790FAA0F1B1FA81F127
:101B300001F1010101F01F0146EA816102D1C0F308
:101B4000846003E090FAA0F0B0FA80F000F10100A8
:101B500000F01F002C4A00EB400002EB005041EA6D
:101B6000000141F00071AA68206802F0A5FD274835
:101B70002A6802423FF46AAE25488168254B01F08D
:101B8000E0719A4202D0244B9A421CD10B021AD423
:101B90002268B2F1A04F7FF459AE826841F400018F
:101BA00022F0E0720A4382601C481D490068B0FBC5
:101BB000F1F0401C00EB4000800000E0401E00906F
:101BC0000028FBD142E6174D174BAA4207D1CD01A1
:101BD00005D422689A42F5D041F0807109E0134D96
:101BE000AA42EFD14A02EDD422689A42EAD041F4E7
:101BF0008001826822F0E0720A43826026E60000DB
:101C000000007F4000F0FF03000020FE000008807D
:101C100000030050000021C31000C0907400002099
:101C2000400D0300000052C700010050000084CBAB
:101C30000068006C70470000F8B54FF00005040024
:101C40002E46009502D0E06D10B107E00120F8BDEE
:101C5000204600F0EFF8266684F858602068816816
:101C6000C1F3407119B181686A4A114081602068EE
:101C70008168C1F3007189B98168674A114041F0F8
:101C800080518160654866490068B0FBF1F0400012
:101C9000801C00E0401E00900028FBD12068816875
:101CA000C1F3007141B9E16D41F01001E165216EB0
:101CB00041F001012166012502F0F2FCE16DC90647
:101CC00000D430B1E06D40F01000E06501252846F9
:101CD000F8BDE06D20F4807040F00200E0652068FF
:101CE000806810F0010F11D14FF0A04080684D497D
:101CF00000F00100896801F00101084306D14A485B
:101D00006168826822F47C120A438260E168E06BB9
:101D1000627F0843A16841EA4231084394F82410E5
:101D200040EA0140012904D1218D404A02EB4141A2
:101D30000843E16A29B101F47871226B014342EA58
:101D400001002168CA683A4B1A400243CA60206801
:101D50000169626B21F0406111430161206802F06A
:101D60009FFC0646206802F097FC30432ED1207F6E
:101D700094F83810800340EA41022068C16844F2B8
:101D8000020399431143C16020690028206801695A
:101D90000AD041F480310161206850F8C01F2269E7
:101DA0006FF30D01114307E021F4803101612068D8
:101DB00050F8C01F6FF30D01016094F84000012836
:101DC0000CD02068016921F00101016160690128DE
:101DD0002068016B21F00F0111D013E0D4E911014B
:101DE0000843D4E913121143084321680A6940F2F9
:101DF000FC739A43104340F001000861E6E7226A51
:101E0000521E11430163E06D20F0020040F001001A
:101E1000E0655CE7C0FFFF5FC0FFFF7F740000204C
:101E2000400D030000010050000300500000FEFFC1
:101E30000740F0FF10B598B00446142111A8FEF732
:101E4000D1FB44216846FEF7CDFB16492068884245
:101E500025D1C001009080030F90684600F0ECFB94
:101E600008B1FFF7A3FC1048C16C41F40051C164F4
:101E7000C16C01F400511691C16C41F00101C164C3
:101E8000C06C11A900F001001690302011900320C1
:101E90001290002013904FF0904000F0A1F918B07C
:101EA00010BD000000010050001002402DE9F0417B
:101EB00004463B480F46816801F01F05A1690829C7
:101EC0000FD085B1052D0ED0092D0CD0806800F4FF
:101ED000604060B1E06D40F02000E0650120BDE8A9
:101EE000F081082604E02068C068C007F1E70426F6
:101EF00000F0A4FA804615E0781C13D000F09EFA9A
:101F0000A0EB0800B84200D867B9206800683042EA
:101F100008D1E06D40F00400E065002084F858002E
:101F20000320DCE7206800683042E5D0E06D40F433
:101F30000070E065206802F0B7FB80B1607F70B987
:101F40002068006800070AD5E06D20F48070E06525
:101F5000E06DC00403D4E06D40F00100E065114A7B
:101F600020684FF0A041904201D10B4600E00346AB
:101F7000834210D07DB1052D0DD0092D0BD090429C
:101F800000D00146C968082E07D0490401D40C21AD
:101F900001600020A3E7C168F5E70821F8E7000029
:101FA00000030050000100502DE9F041044638487C
:101FB000806800F01F05206802F072FB18B1022152
:101FC0000846BDE8F08194F8580001280CD00120A3
:101FD00084F858002046FFF79FFB01004FF00003F4
:101FE00004D084F85830EBE70220EAE7E06D40F6D1
:101FF0000162904340F48070E065264A20684FF00B
:10200000A046904201D1374600E00746874200D003
:102010001DB9E76D27F48017E765E76DFF0404D568
:10202000276E27F00607276600E023661C27076057
:1020300084F858302068904201D1334600E00346CE
:10204000834215D0A5B1052D12D0092D10D0E36D16
:1020500043F48013E365904200D13046C0688001AC
:10206000AED5E06D20F4005040F48050E065A7E765
:10207000C268920105D5E26D22F4005242F480520A
:10208000E2658268044B1A40121D826098E70000E6
:102090000003005000010050C0FFFF7F10B5044650
:1020A00090F85800012808D0012084F85800032136
:1020B0002046FFF787FA10B10BE0022010BD204642
:1020C000FFF7F2FA28B9E16D21F4885141F00101DE
:1020D000E165002184F8581010BD10B590F8253046
:1020E00000210122022B03D00421C163012122E03F
:1020F00003681C6824F00E041C60836C1C6824F4C4
:1021000080741C6003681C6824F001041C6090F853
:102110004430046C03F01F0302FA03F36360D0E958
:1021200013345C60436D33B11C6824F480741C600C
:10213000D0E916345C6080F82520002280F8242045
:10214000084610BD70B590F82520002401212346D3
:10215000022A07D00422C26380F8251080F82430B8
:10216000012429E00268156825F00E051560026853
:10217000156825F001051560826C156825F48075D9
:10218000156090F84420056C02F01F0201FA02F27B
:102190006A60D0E913255560426D32B1156825F4A7
:1021A00080751560D0E91625556080F8251080F8F7
:1021B0002430816B01B18847204670BD70B504465C
:1021C00000F03CF90546601C02D004484068044415
:1021D00000F034F9401BA042FAD370BD6800002023
:1021E0002DE9F04FDFF82092002301260324A9F106
:1021F000040B85B00F2709F1040AABF1040EFAE0D5
:1022000006FA03F52A407CD091F804C00CF0030CC8
:10221000BCF1010F02D0BCF1020F26D1D0F808C0EA
:10222000CDF800C04FEA430C04FA0CF8CDF810C00A
:10223000DDF800C02CEA080CCDF800C0D1F80C8005
:10224000DDF810C008FA0CF8DDF800C048EA0C0808
:10225000C0F80880D0F804C02CEA050C0D79C5F34D
:1022600000159D4045EA0C0545600D79ED43AD072D
:102270000ED0C5684FEA430804FA08FC25EA0C05AD
:10228000D1F808C00CFA08FC4CEA050CC0F80CC0E8
:102290000D7905F00305022D16D1DD0800EB850C44
:1022A000CDF808C0DCF820805D074FEAD56C07FA4E
:1022B0000CF528EA05080D6905FA0CF5DDF808C0EB
:1022C00045EA0805CCF8205005684FEA430CCDF8E4
:1022D00008C004FA0CFC25EA0C0591F804C00CF0C7
:1022E0000308DDF808C008FA0CF848EA0508C0F849
:1022F00000804D6815F4403F7CD0444DD5F860C057
:1023000000E077E04CF0010CC5F860C02D6E23F0C2
:10231000030C05F0010500953D4D65440295AD683F
:102320004FEA837C4FEA1C7807FA08FC25EA0C0583
:10233000B0F1904F06D0DFF8DCC0604505D14FF01A
:10234000010C20E04FF0000C1DE0DFF8CCC0604530
:1023500002D14FF0020C16E0DFF8C0C0604502D198
:102360004FF0030C0FE0DFF8B8C0604502D14FF02A
:10237000040C08E0DFF8ACC0604502D14FF0050C5A
:1023800001E04FF0060C0CFA08FC4CEA050C029D2B
:10239000C5F808C0D9F80050CC46D1F80480954360
:1023A0005FEAC82800D51543CCF80050DAF8005091
:1023B000D446D1F8048095435FEA882800D51543B8
:1023C000CCF80050DBF80050DC46D1F8048095438F
:1023D0005FEA883800D51543CCF80050DEF800508D
:1023E000F446D1F8048095435FEAC83800D5154318
:1023F000CCF800505B1C0A6832FA03F57FF400AF9A
:1024000005B0BDE8F08F0000080401400010024054
:10241000000001400004004800080048000C00488B
:1024200000100048001400480069084000D0012056
:1024300070470AB1816170478162704701488068C6
:10244000704700006800002002488168426811441B
:10245000816070476800002010B50024032000F060
:1024600073F80F2000F008F808B1012401E000F033
:1024700025F8204610BD000070B50E4E054600241C
:10248000706898B14FF47A71B1FBF0F00A490968AD
:10249000B1FBF0F000F064FD40B9102D06D200222F
:1024A0002946501E00F030F8356000E00124204637
:1024B00070BD000068000020740000200A4882B04F
:1024C000016E41F001010166016E01F00101009110
:1024D000816D41F080518165806D00F080500090E9
:1024E00002B000F0A1B8000000100240002809DB93
:1024F00000F01F02012191404009800000F1E0201E
:10250000C0F8001170470000F0B40E4B1B680C4679
:10251000C3F30223C3F10705042D00D90425191DB7
:10252000072901D2002300E0DB1E012606FA05F18F
:10253000491E214099409E40761E16403143F0BC12
:1025400003F0CDBC0CED00E0064900F0070208687E
:102550004FF6FF03184040EA0220034A1043086088
:10256000704700000CED00E00000FA052B492C4BF1
:102570000A6832214A432B4940B1B0F5007F086810
:1025800029D020F4C06040F480602CE00868C0F3DB
:102590004120022804D051F8800F20F4807022E0FE
:1025A000D1F8800020F48070C1F88000086820F421
:1025B000C06040F400700860B2FBF3F0401C00E023
:1025C000401E4A69520501D50028F9D148694005E5
:1025D0000AD503207047C0F34120022806D051F8E5
:1025E000800F40F48070086000207047D1F88000B0
:1025F00040F48070C1F88000086820F4C06040F4A6
:1026000000700860B2FBF3F0401C00E0401E4A6915
:102610005205DBD50028F9D1D8E70000740000206E
:1026200040420F00007000400248816841F4804140
:1026300081607047007000402DE9F843044600684F
:1026400000269D4D00035ED5A86D0027C00008D46C
:10265000A86D40F08050A865A86D012700F080505B
:102660000090DFF85892D9F8001041F48071C9F851
:102670000010FFF7E3FE804606E000BFFFF7DEFE36
:10268000A0EB080002282BD8D9F80000C005F5D52A
:10269000D5F8900010F4407014D0216C814211D014
:1026A000D5F89000D5F8901020F4407041F48031B6
:1026B000C5F89010D5F8901021F48031C5F890102D
:1026C000C5F89000C00711D0FFF7B8FE804641F270
:1026D000883907E0FFF7B2FEA0EB0801494501D9B0
:1026E00003260BE0D5F890008007F3D5D5F89000CD
:1026F000216C20F440700843C5F890001FB1A86D0C
:1027000020F08050A8652078C00707D0D5F8880051
:10271000616820F003000843C5F88800207880072E
:1027200007D5D5F88800A16820F00C000843C5F84B
:1027300088002078400707D5D5F88800E16820F0A8
:1027400030000843C5F888002078000707D5D5F881
:102750008800216920F0C0000843C5F8880020786F
:10276000800607D5D5F88800616920F440600843E9
:10277000C5F888002078400607D5D5F88800A169FB
:1027800020F440500843C5F888002078000607D59B
:10279000D5F88800E16920F440400843C5F8880076
:1027A0002088C00507D5D5F88800216A20F440307C
:1027B0000843C5F888002088800507D5D5F888002B
:1027C000616A20F440200843C5F88800208840054D
:1027D0000FD5D5F88800A16A20F440100843C5F849
:1027E0008800A06AB0F5801F03D1E86840F480102B
:1027F000E860208800050FD5D5F88800E16A20F44C
:1028000040000843C5F88800E06AB0F5800F03D1A6
:10281000E86840F48010E8602088C0040FD5D5F83F
:102820008800216B20F040700843C5F88800206BB9
:10283000B0F1807F03D1E86840F48010E860208820
:102840004FF0006180040ED5D5F88800626B20F04F
:1028500040601043C5F88800606B884203D1E86887
:1028600040F48010E860208840040ED5D5F8880038
:10287000A26B20F040601043C5F88800A06B88422E
:1028800003D1E86840F48010E860208800040FD588
:10289000D5F88800E16B20F040500843C5F8880067
:1028A000E06BB0F1805F03D1E86840F48030E8600D
:1028B0003046BDE8F8830000001002400070004080
:1028C0002DE9F0470E4605004FF0000725D0DFF850
:1028D000AC81D8F8000000F00F00B0420CD2D8F85C
:1028E000001021F00F013143C8F80010D8F80000A3
:1028F00000F00F00B04210D12968614CC80741F2C6
:10290000883A5AD06868DFF87C91032808D00228FA
:1029100020682DD0400500282CDB0120BDE8F08781
:1029200020688001F9D5E06800F00302E068C0F398
:102930000310401C032A19D0534A00BFB2FBF0F029
:10294000E268C2F306225043E268C2F34162521CBD
:102950005200B0FBF2F0484517D9A06810F0F00F14
:102960000CD0880711D5A86840B10EE0474AE5E7CA
:102970008003D0E700F0B6F8484506D9A06820F0FB
:10298000F00040F08000A0608027A068696820F017
:1029900003000843A060FFF751FD814606E000BF39
:1029A000FFF74CFDA0EB090151453AD8A0686968D2
:1029B00000F00C00B0EB810FF2D12868810714D52C
:1029C000400703D5A06840F4E060A06028780007C5
:1029D00005D5A06820F4605040F4E060A060A068D5
:1029E000A96820F0F000084304E0802F03D1A0681C
:1029F00020F0F000A060D8F80010404601F00F0170
:102A0000B14216D9016821F00F0131430160FFF78F
:102A100015FD074607E000BFFFF710FDC11B51453C
:102A200001D903207AE7D8F8000000F00F00B04287
:102A3000F2D12878400705D5A068E96820F4E06065
:102A40000843A0602878000706D5A068296920F40B
:102A5000605040EAC100A06000F044F8A1680C4A50
:102A6000C1F30311515C01F01F01C840094908601E
:102A700009480068BDE8F047FFF7FEBC00200240AF
:102A80000010024000B4C4040024F40000366E01BB
:102A9000D272000874000020680000200548064932
:102AA00000688968054AC1F30221515C01F01F01E9
:102AB000C84070477400002000100240E272000815
:102AC0000548064900688968054AC1F3C221515C7E
:102AD00001F01F01C8407047740000200010024040
:102AE000E2720008184910B58868C0F381021748DF
:102AF000012A0BD08A68164BC2F38102022A06D043
:102B00008A68C2F38102032A03D0002010BD184650
:102B100010BDCA6802F00304CA68C2F30312521C53
:102B2000032C02D0B0FBF2F001E0B3FBF2F0CA6874
:102B3000C968C2F306225043C1F34161491C4900F0
:102B4000B0FBF1F010BD0000001002400024F400C2
:102B500000366E012DE9F84304007AD02078FA4D52
:102B6000C00747D0A868E96800F00C0001F0030135
:102B70000C2802D0082817D001E0032914D060687F
:102B8000B0F5803F17D0B0F5A02F286817D020F4FB
:102B900080302860286820F4802028606068E0B1D8
:102BA000FFF74CFC064614E02868800322D56068D5
:102BB0000028D2D01EE0286840F48030EDE740F4D1
:102BC00080202860F7E700BFFFF738FC801B6428EF
:102BD00070D828688003F7D50CE0FFF72FFC064675
:102BE00005E000BFFFF72AFC801B6428F0D82868A6
:102BF0008003F7D4207880074CD5A868E96800F0F6
:102C00000C0001F003010C2802D004280DD001E0D3
:102C100002290AD0E068002828682BD040F4807090
:102C20002860FFF70BFC064619E02868400502D52E
:102C3000E068002891D06868217C20F0FE4040EADE
:102C400001606860C1480068FFF716FC002800D1E9
:102C500020E076E1FFF7F2FB801B0228B8D8286855
:102C60004005F7D56868217C20F0FE4040EA01600D
:102C700068600FE020F480702860FFF7DFFB0646F5
:102C800005E000BFFFF7DAFB801B0228A0D8286808
:102C90004005F7D42078000729D560690028D5F8C9
:102CA000940013D040F00100C5F89400FFF7C6FB74
:102CB000064606E090E000BFFFF7C0FB801B02283D
:102CC00086D8D5F894008007F6D510E020F00100F2
:102CD000C5F89400FFF7B2FB064604E0FFF7AEFB31
:102CE000801B022878D8D5F894008007F6D4207885
:102CF000400761D5A86D0026C00008D4A86D40F03B
:102D00008050A865A86D012600F080500090904882
:102D10000168C90511D40168804641F480710160E1
:102D2000FFF78CFB074604E0FFF788FBC01B022877
:102D300052D8D8F80000C005F6D5A068012815D0F3
:102D40000528D5F8900016D020F00100C5F89000B5
:102D5000D5F8900020F00400C5F89000A06841F27A
:102D60008838B8B1FFF76AFB07460EE0D5F8900047
:102D700040F00100F0E740F00400C5F89000F5E7EE
:102D8000FFF75CFBC11B414526D8D5F890008007B2
:102D9000F6D50CE0FFF752FB074604E0FFF74EFBC9
:102DA000C11B414518D8D5F890008007F6D41EB154
:102DB000A86D20F08050A8652078800629D5A069EC
:102DC0000028D5F8980013D040F00100C5F898000D
:102DD000FFF734FB064606E077E000BFFFF72EFB67
:102DE000801B022877D8D5F898008007F6D510E028
:102DF00020F00100C5F89800FFF720FB064604E02C
:102E0000FFF71CFB801B022865D8D5F898008007C7
:102E1000F6D4E069F0B3A968C1F38101032961D058
:102E20000228286820F0807028600BD0E86820F025
:102E30000300E860E86847490840E860FFF7FEFAE9
:102E400004464BE0FFF7FAFA064604E0FFF7F6FA0D
:102E5000801B02283FD828688001F7D4F4E90801D4
:102E60006FF00F0202EB01110843218A5204490856
:102E700002EB4151A26841EA02210843217D4FF053
:102E80007E42490802EB41610843217B40EAC16070
:102E9000E96800E062E0304A11400843E8602868D1
:102EA00040F080702860E86840F08070E860FFF7CC
:102EB000C5FA044605E000BFFFF7C0FA001B022870
:102EC00009D828688001F7D548E004E0FFF7B6FA92
:102ED000001B022802D90320BDE8F883286880017E
:102EE000F4D43BE00128F7D0E868226A00F003013F
:102EF000914226D1616A00F0F00209011039914235
:102F00001FD1A26A00F4FE41B1EB022F19D194F84F
:102F10002C2000F07841B1EBC26F12D1218E00F469
:102F2000C00249084905A1F50011914209D194F860
:102F3000341000F0C06049084906A1F100718142D7
:102F40000CD00120C8E700000010024068000020FB
:102F500000700040FFFFEEFE0C809F010020BBE7E9
:102F600010B5401EB0F1807F01D3012010BD4FF09D
:102F7000E02460610F21601702F0B1FF0020A06122
:102F800007202061002010BD7047704770477047D0
:102F900070477047F0B590F83C20012A3AD00125DF
:102FA00080F83C50022280F83D2003685A689C68F3
:102FB000194E1A4FB34201D0BB4204D122F4700C17
:102FC0004A6842EA0C02DFF858C002EA0C02D1F863
:102FD00000C04CEA020CC3F804C00268B2420DD033
:102FE000B2F1804F0AD00F4B9A4207D00E4B9A4253
:102FF00004D0BA4202D00D4B9A4204D1896824F021
:1030000080031943916080F83D50002180F83C1006
:103010000846F0BD0220F0BD002C01400034014004
:103020008FFFFFFD00040040000800400040014009
:10303000704710B5040003D094F83D0010B107E0CC
:10304000012010BD002084F83C00204600F022F84A
:10305000022084F83D00211D206801F06FFF01204F
:1030600084F8480084F83E0084F83F0084F840006B
:1030700084F8410084F8420084F8430084F8440056
:1030800084F8450084F8460084F8470084F83D0041
:10309000002010BD10B586B0044614216846FDF727
:1030A000A1FA21682448B1F1804F0CD0234A914203
:1030B0002DD1816D41F002018165806D00F002002B
:1030C000059006B010BD816D41F001018165816DF3
:1030D00001F001010591C16C41F00101C164C06CB6
:1030E000694600F001000590022000900190002048
:1030F00002900390012004904FF09040FFF770F889
:10310000002211461C20FFF7FFF91C2010E00C4A9A
:103110009142D6D1816D41F004018165806D00221C
:1031200000F00400059011461E20FFF7EDF91E2067
:10313000FFF7DCF9C5E70000001002400004004082
:103140000008004090F83D10012901D0012070478F
:10315000022180F83D100168CA6842F00102CA608D
:103160000068104988420ED0B0F1804F0BD00E4954
:10317000884208D00D49884205D00D49884202D0C6
:103180000C49884207D181680B4A1140062906D0B4
:10319000B1F5803F03D0016841F0010101600020DA
:1031A00070470000002C014000040040000800406F
:1031B00000340140004001400700010070B50446A2
:1031C00090F83C000025012814D0012684F83C60CA
:1031D000022084F83D0022689068364B184020F4A5
:1031E0007F409060086870282ED010DC10F00F0F20
:1031F00003D021E04FF0020070BD4FEA2012072AF1
:103200001AD2DFE802F0525252524A3840002A4B9A
:10321000C21A984249D009DCB0F5805F0DD0B0F5F4
:10322000005F1CD0B0F1101F06D13EE0102A3CD048
:10323000202A3AD0502A38D0012584F83D60002059
:1032400084F83C00284670BDCB68D1E90121206894
:1032500001F0D9FE2068816841F0770109E0CB6870
:10326000D1E90121206801F0CEFE2068816841F497
:1032700080418160E1E7CA684968206802F06EF821
:103280005021206806E0CA684968206802F0AEF85C
:103290006021206801F0C2FECFE7CA684968206853
:1032A00002F05CF840212068F4E7226801461046ED
:1032B000F0E7000088FFCEFF2000100090F83C20CF
:1032C000012A0CD0012200F83C2F0223437050F851
:1032D0003C3C596142700021017008467047022051
:1032E0007047000010B504460068B0F1804F1FD150
:1032F000207F02281CD10421204600F031FC0D491A
:103300000D4A4860B2FBF0F08860642802D2642065
:10331000886004E042F21072904200D98A6021680D
:10332000002048622046BDE81040042100F0C8B8E3
:1033300010BD00008000002040420F002DE9F04148
:10334000054690F83C0000260C46012810D00120CC
:1033500085F83C0072B1042A1CD0082A2CD00C2A13
:1033600050D00126002085F83C003046BDE8F081B1
:103370000220FBE7D4E90012E368286802F000F8B5
:103380002868816921F00C01816128688169A2683F
:1033900011430FE0D4E90012E368286802F038F81E
:1033A0002868816921F44061816128688169A26887
:1033B00041EA02218161D5E72868D4E9002C277B06
:1033C000016A21F480710162C169036A21F003017D
:1033D00041EA0C0121F0F00C39074FF420674CEA68
:1033E000116123F4206307EA02221A43C1610262D9
:1033F0002868C16921F00C01C1612868C169A2680F
:10340000114328E02868D4E90027E168036A23F41F
:1034100080530362D0F81CC0036A2CF4407C4CEA51
:1034200007274FF6FF7C27F470470CEA0131394338
:103430004FF4204723F4204307EA02321A43C161C4
:1034400002622868C16921F44061C1612868C169CC
:10345000A26841EA0221C16184E710B5040003D0EB
:1034600094F83D0010B107E0012010BD002084F861
:103470003C00204600F022F8022084F83D00211D87
:10348000206801F05BFD012084F8480084F83E00CC
:1034900084F83F0084F8400084F8410084F842003A
:1034A00084F8430084F8440084F8450084F846001A
:1034B00084F8470084F83D00002010BD70470000EC
:1034C00030B50446002571B1042911D0082914D063
:1034D0000C2917D0102918D094F8430094F84720ED
:1034E000012817D114E094F83E0094F84420F7E73F
:1034F00094F83F0094F84520F2E794F8400094F8DF
:103500004620EDE794F84100E8E794F84200E5E74B
:10351000012A01D0012030BD022079B1042916D042
:1035200008291DD00C2949D010294AD084F843001D
:1035300084F847000C2947D001253DE084F83E007F
:1035400084F844002068C26842F0020210E084F867
:103550003F0084F845002068C26842F0040207E09A
:1035600084F8400084F846002068C26842F00802EF
:10357000C2600122206801F039FD164920688842A6
:103580000ED0B0F1804F0BD01349884208D01349B8
:10359000884205D01249884202D01249884207D198
:1035A0008168114A1140062906D0B1F5803F03D049
:1035B000016841F001010160284630BD84F84100F6
:1035C000B6E784F84200B3E72068C26842F0100210
:1035D000CEE70000002C014000040040000800403D
:1035E00000340140004001400700010070B504466E
:1035F000006801694FF00005C943890715D4C16807
:10360000C943890711D4E91E016101202077206890
:1036100080698007204602D0FFF764FE04E000F0D6
:103620000BF9204600F0CDF9257720680169C943E0
:10363000490717D4C168C943490713D46FF004017F
:103640000161022020772068806910F4407F2046C5
:1036500002D0FFF747FE04E000F0EEF8204600F04D
:10366000B0F9257720680169C943090716D4C168F4
:10367000C943090712D46FF00801016104202077C3
:103680002068C0698007204602D0FFF72BFE04E0C7
:1036900000F0D2F8204600F094F9257720680169FF
:1036A000C943C90617D4C168C943C90613D46FF00A
:1036B00010010161082020772068C06910F4407F64
:1036C000204602D0FFF70EFE04E000F0B5F82046D9
:1036D00000F077F9257720680169C943C90708D147
:1036E000C168C943C90704D1891E0161204600F0A1
:1036F000E7F920680169C943090609D4C168C943CB
:10370000090605D46FF0800101612046FFF73DFCFA
:1037100020680169C943C90509D4C168C9430906BC
:1037200005D46FF4807101612046FFF72DFC2068FD
:103730000169C943490609D4C168C943490605D48A
:103740006FF040010161204600F01FFA2068016916
:10375000C943890609D4C168C943890605D46FF0F5
:10376000200101612046FFF711FC20680169C9436F
:10377000C90209D4C168C943C90205D46FF48011D4
:1037800001612046FFF704FC20680169C9438902F2
:1037900009D4C168C943890205D46FF400110161DD
:1037A0002046FFF7F4FB20680169C943490209D4A8
:1037B000C168C943490205D46FF480010161204604
:1037C000FFF7E7FB20680169C94309020BD4C16810
:1037D000C943090207D46FF4000101612046BDE826
:1037E0007040FFF725BC70BD10B586B004461421AB
:1037F0006846FCF7F7FE0E492068884215D10D484F
:10380000C16C41F00101C164C06C002100F00100F5
:103810000590802000900220CDE90101CDE9031040
:1038200069464FF09040FEF7DBFC06B010BD00008B
:103830000004004000100240704770B5044690F844
:103840003C0000260D4601280BD0012084F83C00E6
:103850000C2A4AD007DC82B1042A20D0082A06D1DB
:1038600031E0022070BD102A53D0142A63D0012603
:10387000002084F83C00304670BD206801F0D8FB81
:103880002068816941F0080181612068816921F027
:1038900004018161206881692A69114311E020686F
:1038A00001F014FC2068816941F4006181612068A5
:1038B000816921F480618161206881692A6941EA16
:1038C00002218161D4E7206801F048FC2068C169C9
:1038D00041F00801C1612068C16921F00401C161A2
:1038E0002068C1692A69114311E0206801F07EFC5B
:1038F0002068C16941F40061C1612068C16921F497
:103900008061C1612068C1692A6941EA0221C161FF
:10391000AEE7206801F0B2FC2068016D41F00801BB
:1039200001652068016D21F0040101652068016DC9
:103930002A69114311E0206801F0D8FC2068016D6C
:1039400041F4006101652068016D21F48061016529
:103950002068016D2A6941EA0221016588E710B5F6
:10396000040003D094F83D0010B107E0012010BD21
:10397000002084F83C00204600F022F8022084F861
:103980003D00211D206801F0D9FA012084F848008B
:1039900084F83E0084F83F0084F8400084F8410039
:1039A00084F8420084F8430084F8440084F8450019
:1039B00084F8460084F8470084F83D00002010BDDC
:1039C0007047704730B50446022269B1042912D00D
:1039D000082917D00C291CD0102921D094F84300B5
:1039E000012824D0012030BD94F83E000128F9D1EF
:1039F00084F83E201DE094F83F000128F2D184F8BD
:103A00003F2016E094F840000128EBD184F84020D4
:103A10000FE094F841000128E4D184F8412008E047
:103A200094F842000128DDD184F8422001E084F8B6
:103A300043200122206801F0D9FA194B2068194966
:103A4000194A984209D0884207D0904205D0174DB4
:103A5000A84202D0164DA84203D1456C45F400455A
:103A60004564206898420CD0B0F1804F09D0114BCA
:103A7000984206D0104B984203D0884201D0904221
:103A800007D181680D4A1140062906D0B1F5803F63
:103A900003D0016841F001010160002030BD000049
:103AA000002C01400034014000400140004401402E
:103AB00000480140000400400008004007000100E9
:103AC00070B500682049884234D1204D0121284634
:103AD000FEF7AAFC00B101201D4C022120702846EF
:103AE000FEF7A2FC00B10120207204212846FEF757
:103AF0009BFC00B10120207401214FF09040FEF7A3
:103B000093FC00B10120207602F05AFB11480178A5
:103B10001148012903D0017801F0FB0109E00F49A8
:103B20000A78521CD2B20A700A2A04D2017841F0F3
:103B30000401017070BD0378142A03F0FB030370C5
:103B4000F8D10020087070BD000800400004004853
:103B5000E002002003000020000000208000002080
:103B60000246002041B1042909D008290AD00C29B5
:103B700001D11068006C70471068406B7047106886
:103B8000806B70471068C06B7047704790F880106A
:103B9000012918D0012180F880102421C0F8841058
:103BA00050F8641B0A680B6823F001030B6022F0D5
:103BB00000510022026050F8643C1960202101622B
:103BC000027710467047022070477047704770B503
:103BD000044690F8800001281DD0012084F8800060
:103BE0002420C4F8840020680568026822F00102DD
:103BF00002602068826822F060620A438260204688
:103C000001F022FC206805602020C4F88400002018
:103C100084F8800070BD022070BD70B5044690F835
:103C2000800001281DD0012084F880002420C4F8E1
:103C3000840020680568026822F0010202602068A2
:103C4000826822F060420A438260204601F0FCFB59
:103C5000206805602020C4F88400002084F88000DB
:103C600070BD022070BD7047704770472DE9F0416C
:103C700003680446D86919689A6840F60F05284217
:103C80004FF0000509D186067ED501F0200602F02E
:103C900080573E4378D0216F27E1A94EA94F1640A7
:103CA0000F40374370D0C70709D0CF0507D501278C
:103CB0001F62D4F88C3043F00103C4F88C308307C2
:103CC0000AD5D30708D0276802233B62D4F88C308A
:103CD00043F00403C4F88C3043070AD5D30708D057
:103CE000276804233B62D4F88C3043F00203C4F805
:103CF0008C3003070CD501F02003334308D026682D
:103D000008233362D4F88C3043F00803C4F88C30B5
:103D100003050BD54B0109D526684FF400633362C8
:103D2000D4F88C3043F02003C4F88C30D4F88C30B5
:103D3000002B3AD0800609D501F0200002F0805116
:103D4000084303D0216F09B120468847D4F88C007E
:103D500021688968490602D410F0280F27D0204630
:103D600001F032FC2068806840061BD520680830CE
:103D700050E8001F21F0400140E80012002AF5D170
:103D8000E06F78B1704900E017E08163E06FFEF703
:103D9000D9F9002809D0E06F816B00E02046BDE82A
:103DA000F04108472046FFF760FFBDE8F08120465C
:103DB000FFF75BFFC4F88C50F7E7E76E2026012F72
:103DC0007ED1C7067CD5CF067AD510201862206830
:103DD0008068400642D5E16F086840680004000C26
:103DE000E3D0B4F85C208242DFD9A4F85E00086812
:103DF000006880062BD4206850E8001F21F48071F1
:103E000040E80012002AF6D12068083050E8001F70
:103E100021F0010140E80012002AF5D120680830A5
:103E200050E8001F21F0400140E80012002AF5D1BF
:103E3000C4F88860E566216851E8000F20F01000A2
:103E400041E80002002AF6D1E06FFEF746F9B4F827
:103E50005C00B4F85E10401A81B22CE0B4F85C004B
:103E6000B4F85E10401A81B2B4F85E0000289CD00D
:103E700000299AD0226852E8000F20F4907042E89E
:103E80000003002BF6D12E4BDB432068083050E8AE
:103E9000002F1A4040E80027002FF6D1C4F88860B0
:103EA000E5662567226852E8000F20F0100042E81E
:103EB0000003002BF6D12046FFF787FE75E7FFE7EA
:103EC000C70209D5570207D54FF480101862204663
:103ED000BDE8F041FFF7C8BE03060AD501F0800334
:103EE00002F40002134304D0616F00297FF456AF3F
:103EF0005BE7420611D54A060FD52046016851E816
:103F0000002F22F0400241E80023002BF6D1C0F838
:103F10008460456700F030F947E7020206D54A00A1
:103F200004D52046BDE8F041FFF79DBEC001C5D5D0
:103F30000029C3DA2046BDE8F041FFF747BE000084
:103F40000100001020010004B555000810B5040060
:103F500003D0D4F8840010B107E0012010BD002088
:103F600084F88000204600F027F82420C4F884005C
:103F70002068016821F001010160204601F066FD22
:103F80000128EBD0A06A10B1204601F07FFA20682A
:103F9000416821F4904141602068816821F02A0144
:103FA00081602068016841F0010101602046BDE8A0
:103FB000104001F0CFBA000010B598B004461421AB
:103FC00011A8FCF70FFB44216846FCF70BFB1B49CB
:103FD0002068884230D101200024CDE900046846E1
:103FE000FEF72AFB08B1FDF7E1FB1548016E41F42D
:103FF00080410166016E01F480411691C16C41F06F
:104000000101C164C06C11A900F0010016904FF4C9
:10401000C06011900220CDE912040720CDE91440C0
:104020004FF09040FEF7DCF8002211462520FEF705
:104030006BFA2520FEF75AFA18B010BD003801407F
:104040000010024030B4D0F88830202B20D1E1B1EC
:10405000DAB190F88030012B1AD0012380F880303B
:104060000023C3660B4C0368A3420BD05B681B02A2
:1040700008D5046854E8003F43F0806344E8003505
:10408000002DF6D130BC01F01BBE012030BC7047C2
:104090000220FBE7008000400549064B08784A787B
:1040A0001A54401C08700122491C0348FFF7CABF7C
:1040B0007E000020C0020020300200202DE9F843DD
:1040C0000446D0F884001F4616460D46202851D1DC
:1040D000DDB1D6B194F8800001284BD0012084F8DE
:1040E00080004FF00008C4F88C802120C4F88400C0
:1040F0001834FEF7A3F9A6878146E68754F8100C1A
:10410000183CB0F5805F03D004E00120BDE8F883DF
:10411000206920B12E46002584F8808010E000261A
:10412000FAE78021204601F057FEB8B9C6B116F86B
:10413000010B21688862B4F85600401EA4F85600AE
:10414000B4F856004B464FF0000200970028E8D123
:104150004FF04001204601F03FFE30B10320D5E78B
:1041600035F8020BC0F30800E3E72020C4F8840010
:104170000020CBE70220C9E77047FEE770B50824AE
:10418000002500F059FE13E06806050E002000F03F
:104190003BFE142001F0BAFE142001F0B7FE01200E
:1041A00000F032FE142001F0B1FE00F039FE0543AC
:1041B000641EE4B2E8D2002000F026FE142001F0D4
:1041C000A5FE00F05BFE284670BD70B504460825CC
:1041D00016E000F019FE142001F098FE04F08000B3
:1041E00000F040FE142001F091FE6006040E142041
:1041F00001F08CFE012000F007FE142001F086FE85
:104200006D1EEDB24FF00000E3D200F0FDFDBDE801
:104210007040142001F07ABE10B5012000F022FE9B
:10422000142001F073FE012000F0EEFD142001F0D7
:104230006DFE002000F016FE142001F067FE002045
:1042400000F0E2FDBDE81040142001F05FBE10B5A3
:10425000002000F0D9FD142001F058FE002000F0ED
:1042600001FE142001F052FE012000F0CDFD1420CB
:1042700001F04CFE012000F0F5FDBDE810401420D7
:1042800001F044BE10B5052400F0D6FD142001F065
:104290003DFE012000F0B8FD142001F037FE05E0DE
:1042A000641EA4B2142001F031FE64B100F0B8FD28
:1042B0000028F5D100F0A8FD00F0E0FD142001F089
:1042C00025FE002010BD00F0D9FDFFF7C0FF012042
:1042D00010BD000000B585B014216846FCF782F9D6
:1042E0004FF6FF70009000200321CDE902010190FC
:1042F00069460248FDF774FF05B000BD000800489C
:1043000000B585B014216846FCF76CF94FF6FF70D4
:104310000090012001900320039000200290694644
:104320000248FDF75DFF05B000BD00000008004831
:1043300070B5002406462146204600F003F900F03F
:1043400041F94FF49635304600F010F9641CAC4248
:10435000F9D370BD70B586B014216846FCF742F9F8
:104360001E48C16C41F00401C164C16C01F004013C
:104370000591C16C41F00101C164C16C01F0010102
:104380000591C16C41F00201C164C06C032500F0CD
:10439000020005904FF448700124002603958DE833
:1043A000510069460E48FDF71BFF200203958DE87A
:1043B00051004FF0904469462046FDF711FFFFF78A
:1043C0009FFFA06940F48070A06105481830016823
:1043D00041F40871016006B070BD00000010024099
:1043E00000040048203AD2B2034B02EB420203EB36
:1043F000021200F019B80000EA720008F0B50E468B
:104400000746002540F23F1407E021463846FFF7F3
:10441000E9FF103C6D1CA4B2761C3278002A01D052
:10442000142DF2D3F0BD00002DE9F04791468A46E5
:104430000026044600F086F8DFF84080012700BF20
:1044400000F0C0F85FF0000539F8160007FA05F132
:104450000842404601D1408800E0008800F086F81C
:104460006D1C102DF0D3641CE4B25146204600F0C0
:1044700069F8761C182EE3D3BDE8F0877800002099
:1044800010B5FFF767FF002000F014F8084CA0807B
:10449000A088A0F50241303906D000F0B3FB00201F
:1044A00000F008F8A08010BD00F023FBF7E7000043
:1044B0007800002070B51D490A6842F400720A6055
:1044C0000A6842F480720A60184C103C226842F07C
:1044D00020022260164A1060086840F02000086040
:1044E00000BF00BF00BF206840F0200020602068AF
:1044F00040F480702060FFF7EDFE4FF09041886A35
:1045000040F48070886200BF00BF00BF0848001FF1
:10451000006885B2886940F480708861FFF7F0FE1A
:10452000206840F400702060284670BD28040048D0
:104530001408004801B5BDF800000149488008BDD5
:104540007800002010B50C460146202000F068F8E5
:104550002146BDE81040212000F062B801B5BDF849
:1045600000000149088008BD78000020134A116846
:1045700041F400711160114910390B6843F48073E4
:104580000B600B6843F020030B600D4B1860106844
:1045900040F02000106000BF00BF00BF086840F07E
:1045A00020000860086840F48070086000BF00BF09
:1045B00000BF086840F40070086070472804004895
:1045C000140800481449086840F40070086008683E
:1045D00040F48070086010481038026842F02002F1
:1045E00002600E4B22221A600A6842F020020A6022
:1045F00000BF00BF00BF016841F0200101600168F9
:1046000041F48071016000BF00BF00BF016841F448
:104610000071016070470000280400481408004839
:10462000184B10B51A6842F400721A601A6842F406
:1046300080721A60134A103A146844F0200414601F
:10464000114C2060186840F02000186000BF00BFC7
:1046500000BF106840F020001060106840F48070C7
:1046600010602160186840F02000186000BF00BF93
:1046700000BF106840F020001060106840F48070A7
:10468000106010BD280400481408004800EB8100A9
:10469000006E00F0F84070478068C0F3C0007047BB
:1046A0008068C0F380007047C06810F4406F01D08C
:1046B0000020704701207047042303EAD15310B54E
:1046C00018444369C1F3045107248C40A3438A4032
:1046D0001343436110BD00EB8100016E21F00041E6
:1046E000114301667047000030B589B0202168464B
:1046F000FBF778FF1F481E49002401604902C0E90A
:104700000114042585610121C460C0E904410477D6
:1047100044770221016280F82440C462046380F877
:104720003840C46380F84040FDF786FA08B1FDF7D1
:104730003DF81148009006200190072002907F204C
:104740000594CDE9030569460A48FDF765F808B107
:10475000FDF72CF8094800900C20019069460548A7
:10476000FDF75AF8002801D0FDF720F809B030BD58
:1047700000010050E0000020000052470020903669
:104780002DE9F04F87B014216846FBF72BFF424814
:10479000C16C41F00401C164C16C01F004010591D8
:1047A000C16C41F02001C164C16C01F02001059190
:1047B000C16C41F00101C164C16C01F001010591BE
:1047C000C16C41F00201C164C16C01F002010591AC
:1047D000C16C41F00801C164C06CDFF8C08000F01A
:1047E0000800059001224FF47F414046FDF721FE6D
:1047F0000022FF214046FDF71CFE4FF480764FF06B
:104800009049002231464846FDF713FEDFF890A09C
:10481000002204215046FDF70CFEDFF888B04FF46B
:104820007877002239465846FDF703FE4FF6FF70B1
:10483000009001250024CDE90154694640460394C7
:10484000FDF7CEFCCDE90054694648460295FDF7D8
:10485000C7FC07208DE8310069465846FDF7C0FCCB
:104860000096CDE90154694648460394FDF7B8FC2B
:1048700004200090CDE90154694650460394FDF7A9
:10488000AFFC0097CDE90154694658460394FDF703
:10489000A7FC07B0BDE8F08F0010024000080048F8
:1048A000000C00480004004810B58CB000240594AA
:1048B000214804940694079408940A940994009457
:1048C000019402944FF08041039401604F21C0E9AC
:1048D0000114611EC0E903148461FEF7AAFB08B14C
:1048E000FCF764FF4FF48050049004A91248FEF7CF
:1048F00065FC08B1FCF75AFF0F48FEF7AEFD08B1A2
:10490000FCF754FF089408A90B480A94FEF742FBF1
:1049100008B1FCF74BFF0120CDE9004002940422CE
:10492000694605480394FEF709FD002801D0FCF70D
:104930003DFF0CB010BD00004C01002010B58EB042
:1049400000240794089409940A940B940C941C2155
:1049500068460D94FBF746FE1E481D49016041F66E
:104960003F71C0E901146321C0E903148461FEF7BB
:1049700060FB08B1FCF71AFF4FF48050079007A9BD
:104980001448FEF71BFC08B1FCF710FF1148FEF7B6
:10499000E6FF08B1FCF70AFF0B940BA90D480D9434
:1049A000FEF7F8FA08B1FCF701FF60200090322012
:1049B000CDE901040422694606480494FEF73DFF50
:1049C00008B1FCF7F3FE0348FEF70EFF0EB010BD72
:1049D000000400409801002010B588B0002417485A
:1049E000009401940294039404940594124906944B
:1049F00001604F21C0E9011442F20F71C0E90314B4
:104A00008461FEF716FB08B1FCF7D0FE4FF480502E
:104A1000009069460948FEF7D1FB08B1FCF7C6FED5
:104A2000049404A905480694FEF7B4FA002801D0BE
:104A3000FCF7BCFE08B010BD00080040E4010020F7
:104A4000184810B5164901604FF416514160002115
:104A500081600C22C160C0E904128161C161016200
:104A600041628162FFF772FA08B1FCF79FFE0021F4
:104A70000C48FFF7D2F808B1FCF798FE002109486E
:104A8000FFF7A5F808B1FCF791FE0648FFF77EF89E
:104A9000002803D0BDE81040FCF788BE10BD000020
:104AA0000038014030020020FEE7FEE730B40C4839
:104AB0000C490E4A034645780B4C09689B681268FE
:104AC00065B1B1FBF3F100BFB4FBF1F1491E016226
:104AD000916230BC01210548FEF7F0BB5943F3E772
:104AE000000000208800002000350C009801002004
:104AF000704730B501210020FFF792FD4FF47A7026
:104B0000FCF746FE00210120FFF78AFD41F290717B
:104B10001020FFF785FD4FF41C516020FFF780FD4A
:104B200001216120FFF77CFD02214620FFF778FD7F
:104B300048F210011320FFF773FD48F2FE01122026
:104B4000FFF76EFD4FF4A0610220FFF769FD41F20F
:104B500030010320FFF764FD40F20334214630208A
:104B6000FFF75EFD21463120FFF75AFD2146322036
:104B7000FFF756FDE51E29463320FFF751FD0321BF
:104B80003420FFF74DFD21463520FFF749FD142164
:104B90003620FFF745FD21463720FFF741FD21462E
:104BA0003820FFF73DFD21463920FFF739FD294622
:104BB0003A20FFF735FD03213B20FFF731FD214669
:104BC0003C20FFF72DFD4FF4A0513D20FFF728FDBD
:104BD0004FF400719220FFF723FD21469320FFF749
:104BE0001FFD40F60D019020FFF71AFD41F218015C
:104BF0000320FFF715FDBDE8304040F27311072098
:104C0000FFF70EBD10B543F20801E320FFF708FDE2
:104C10001221E720FFF704FD41F23121EF20FFF7D9
:104C2000FFFC00210120FFF7FBFC4FF4E0610220B4
:104C3000FFF7F6FC41F230010320FFF7F1FC002101
:104C40000420FFF7EDFC40F207210820FFF7E8FC05
:104C500000210920FFF7E4FC00210A20FFF7E0FC17
:104C600000210C20FFF7DCFC00210D20FFF7D8FC11
:104C700000210F20FFF7D4FC00211020FFF7D0FC0B
:104C800007211120FFF7CCFC00211220FFF7C8FC00
:104C900000211320FFF7C4FCC820FDF78FFA41F272
:104CA00090611020FFF7BCFC40F227211120FFF794
:104CB000B7FC3220FDF782FA1D211220FFF7B0FC6D
:104CC0003220FDF77BFA4FF400611320FFF7A8FCB8
:104CD00014212920FFF7A4FC0B212B20FFF7A0FCB7
:104CE0003220FDF76BFA00212020FFF799FC00210C
:104CF0002120FFF795FC07213020FFF791FC40F2BF
:104D000007713120FFF78CFC06213220FFF788FC69
:104D100040F204713520FFF783FC41F60471362020
:104D2000FFF77EFC04213720FFF77AFC00213820B2
:104D3000FFF776FC40F206713920FFF771FC40F274
:104D400001713C20FFF76CFC0F213D20FFF768FC50
:104D500000215020FFF764FCEF215120FFF760FC99
:104D600000215220FFF75CFC40F23F115320FFF777
:104D700057FC4FF41C516020FFF752FC01216120C9
:104D8000FFF74EFC00216A20FFF74AFC002180203B
:104D9000FFF746FC00218120FFF742FC0021822022
:104DA000FFF73EFC00218320FFF73AFC002184201E
:104DB000FFF736FC00218520FFF732FC1021902000
:104DC000FFF72EFC00219220FFF72AFC03219320FD
:104DD000FFF726FC4FF488719520FFF721FC002196
:104DE0009720FFF71DFC00219820FFF719FC41F2E6
:104DF00018010320FFF714FCBDE8104040F27311C6
:104E00000720FFF70DBC000008B1044801E003488B
:104E10001030016841F040010160704718040048FB
:104E200010B580210348FDF7FFFA012800D00020CB
:104E300010BD00000004004800B585B0142168468C
:104E4000FBF7D0FB80200090002001900120029011
:104E50000220039069460248FDF7C2F905B000BD83
:104E60000004004808B1044801E00348103001681C
:104E700041F08001016070471804004800B585B01A
:104E800014216846FBF7AEFB8020009011200190B2
:104E9000002002900220039069460248FDF7A0F925
:104EA00005B000BD000400487047FDF7CDBA10B54D
:104EB00094B038216846FBF795FB14210EA8FBF748
:104EC00091FB4FF40070FDF751FB012000900004AE
:104ED000019002200324CDE907041421CDE90A1032
:104EE0000C900D9009946846FDF734FE08B172B637
:104EF000FEE70F20CDE90E040020109011901290D3
:104F000002210EA8FDF7DCFC002801D072B6FEE7F6
:104F100014B010BD0248016841F47001016070478F
:104F200088ED00E00148FEF761BB00004C01002065
:104F30000148FEF75BBB0000E40100202DE9F043CF
:104F40000268234B234D244E244C4FF08049984255
:104F500007D0484505D0A84203D0B04201D0A042B6
:104F600003D122F070074A683A431D4FDFF874C03E
:104F7000DFF8748098420DD048450BD0A84209D084
:104F8000B04207D0A04205D0B84203D0604501D05E
:104F9000404503D122F44075CA682A434D6922F086
:104FA00080022A4302608A68C2620A68826298426A
:104FB00007D0A04205D0B84203D0604501D040459B
:104FC00001D10969016301214161BDE8F08300005D
:104FD000002C014000040040000800400034014063
:104FE00000400140004401400048014010B501F07C
:104FF0001F030121046A99408C430462016A9A40AC
:105000001143016210BD10B5846842EA032224F402
:105010007F440A432243826010BD00008268034B34
:105020001A400A4342F00701816070478FFFCFFFAB
:105030002DE9F043026A22F001020262056A436828
:1050400082691C4C25F0020522400C6822F0030204
:1050500014438A68194E2A43174D194FDFF864C06C
:10506000DFF86490A84207D0B04205D0B84203D020
:10507000604501D0484506D122F00808CA6842EAD6
:10508000080222F00402A84207D0B04205D0B8427C
:1050900003D0604501D0484505D14D6923F44073E4
:1050A0001D438B692B4343608461496841630262FD
:1050B000BDE8F0838FFFFEFF002C0140003401406B
:1050C000004001400044014000480140F0B5026A40
:1050D00022F010020262056A42688369194C1B4E75
:1050E00023400C6823F4407343EA042425F0200392
:1050F0008D6843EA0513144DA84201D0B04206D191
:10510000CF6823F0800343EA071323F04003A8424B
:105110000AD0B04208D00E4DA84205D00D4DA8428D
:1051200002D00D4DA84207D14D6922F4406242EAF7
:1051300085028D6942EA8502426084614968816323
:105140000362F0BDFF8FFFFE002C014000340140E0
:10515000004001400044014000480140F0B5026AAF
:1051600022F480720262056A4368C269194C1B4EC0
:1051700022400C6822F00302144325F400728D686B
:1051800042EA0522144DA84201D0B04206D1CF68B0
:1051900022F4006242EA072222F48062A8420AD086
:1051A000B04208D00E4DA84205D00E4DA84202D004
:1051B0000D4DA84207D14D6923F4405343EA05132E
:1051C0008D6943EA05134360C4614968C1630262A3
:1051D000F0BD00008FFFFEFF002C014000340140B5
:1051E000004001400044014000480140F0B5026A1F
:1051F00022F480520262056A4268C369194C1B4E50
:1052000023400C6823F4407343EA042425F400533C
:105210008D6843EA0533144DA84201D0B04206D14F
:10522000CF6823F4004343EA073323F48043A842C2
:105230000AD0B04208D00E4DA84205D00D4DA8426C
:1052400002D00D4DA84207D14D6922F4404242EAF6
:1052500085128D6942EA85124260C4614968016421
:105260000362F0BDFF8FFFFE002C014000340140BF
:1052700000400140004401400048014030B5026A4E
:1052800022F480320262046A4268036D114D2B40A1
:105290000D681D4324F400330C8943EA04430E4C8B
:1052A000A0420BD00D4CA04208D00D4CA04205D01E
:1052B0000C4CA04202D00C4CA04204D14C6922F408
:1052C000803242EA042242600565496881640362D3
:1052D00030BD00008FFFFEFF002C01400034014074
:1052E00000400140004401400048014030B5026ADE
:1052F00022F480120262046A4268036D114D24F4A4
:1053000000142B400D6843EA05230D8944EA055437
:105310000D4DA8420BD00D4DA84208D00C4DA8420F
:1053200005D00C4DA84202D00B4DA84204D14D69C6
:1053300022F4802242EA8522426003654968C16402
:10534000046230BDFF8FFFFE002C0140003401409D
:1053500000400140004401400048014010B5036A8C
:10536000046A24F001040462846924F0F00444EA2D
:10537000021423F00A020A438461026210BD000095
:1053800070B5046A24F0010404628469056A124E4F
:10539000B0420ED0B0F1804F0BD0104EB04208D0CA
:1053A0000F4EB04205D00F4EB04202D00E4EB0426A
:1053B00003D124F00304144301E044F001041A076C
:1053C00024F0F00444EA126225F00A0301F00A0115
:1053D00019438261016270BD002C0140000400404D
:1053E00000080040003401400040014010B5036A4D
:1053F00023F0100303628369046A23F4704343EAD1
:10540000023224F0A00343EA01118261016210BD5F
:1054100030B5046A24F0100404628469056A24F437
:10542000407444EA022222F470444FF6FF7202EA0A
:1054300003322243A02425F0A00304EA01111943FA
:105440008261016230BD000030B5416EB9B10268C1
:1054500091689268C1F342610B4B520F9C5CE5006E
:1054600003F10804A25CB5FBF2F2A0F86A205A5CD2
:10547000615CD200B2FBF1F1A0F8681030BD0121EF
:10548000A0F86A10F8E70000C272000890F828102F
:10549000C90706D001684A68C36A22F400321A4379
:1054A0004A6090F82810890706D501684A68036B9E
:1054B00022F480321A434A6090F82810490706D532
:1054C00001684A68436B22F480221A434A6090F8CC
:1054D0002810090706D501684A68836B22F4004248
:1054E0001A434A6090F82810C90606D501688A68F0
:1054F000C36B22F480521A438A6090F82810890600
:1055000006D501688A68036C22F400521A438A6047
:1055100090F82810490611D501684A68436C22F4B6
:1055200080121A434A60416CB1F5801F06D10168B0
:105530004A68836C22F4C0021A434A6090F828102B
:10554000090606D501684A68C06C22F400220243AD
:105550004A607047F8B500260446C0F88C60FCF736
:105560006DFF0546206800686FF07E47000708D58C
:105570002B4600224FF400112046009700F02CFC2F
:1055800060B92068006840070AD52B4600224FF416
:1055900080012046009700F01FFC08B10320F8BDF1
:1055A0002020C4F88400C4F8880044F86C6F002000
:1055B0002675F8BD10B5806A0021A0F85E10A0F82D
:1055C0005610FEF752FB10BD10B5026852E8001FDE
:1055D00021F4907142E80013002BF6D10E4B0268C3
:1055E000083252E8001F194042E80014002CF6D19E
:1055F000C16E012908D1016851E8002F22F0100284
:1056000041E80023002BF6D12021C0F888100021AA
:10561000C166016710BD0000FEFFFFEF10B5B0F8D6
:105620006020D0F888300168222B04D0886940F0CF
:105630000800886110BD496A836D11401980816D31
:10564000891C8165B0F85E10491EA0F85E10B0F8A4
:105650005E100029EED1026852E8001F21F490711B
:1056600042E80013002BF6D10168083151E8002F01
:1056700022F0010241E80023002BF5D12021C0F8DF
:10568000881000210167C26E012A02D0FEF704FDD6
:1056900010BDC166026852E8001F21F0100142E807
:1056A0000013002BF6D10168CA69D243D20601D497
:1056B00010220A62B0F85C10FEF787FA10BD0000F5
:1056C0002DE9F0470446B0F860600068C569D0F87D
:1056D00000A0D0F80880D4F88810222905D081696C
:1056E00041F008018161BDE8F087B4F868704FF0BF
:1056F000000963E02068406AA16D30400880A06D19
:10570000801CA065B4F85E00401EA4F85E0020680E
:10571000C569690730D0E9070AD05FEACA5107D5E1
:1057200001210162D4F88C0040F00100C4F88C0023
:10573000A8070BD55FEAC87008D02168022008626C
:10574000D4F88C0040F00400C4F88C0068070BD536
:105750005FEAC87008D0216804200862D4F88C0081
:1057600040F00200C4F88C00D4F88C0020B1204630
:10577000FEF77BFAC4F88C90B4F85E00F0B92168AB
:1057800051E8000F20F4807041E80002002AF6D1B1
:10579000264A2068083050E8001F114040E80013F6
:1057A000002BF6D12020C4F88800C4F87090E16E78
:1057B0004846012923D02046FEF76EFC0FB1A8060B
:1057C00098D4B4F85E0000288DD0B4F868108142F7
:1057D00089D92068083050E8001F21F0805140E846
:1057E0000012002AF5D112482067206850E8001FF7
:1057F00041F0200140E80012002AF6D173E7E0668C
:10580000216851E8000F20F0100041E80002002A52
:10581000F6D12068C169C943C90601D410210162CB
:10582000B4F85C102046FEF7D0F9C7E7FEFFFFEFA3
:105830001D56000810B5B0F86020D0F88830016817
:10584000222B04D0886940F00800886110BD496AA5
:105850001140826D1170816D491C8165B0F85E1038
:10586000491EA0F85E10B0F85E100029EED1026863
:1058700052E8001F21F4907142E80013002BF6D18A
:105880000168083151E8002F22F0010241E80023AD
:10589000002BF5D12021C0F8881000210167C26ECD
:1058A000012A02D0FEF7F8FB10BDC166026852E87B
:1058B000001F21F0100142E80013002BF6D101680F
:1058C000CA69D243D20601D410220A62B0F85C1031
:1058D000FEF77BF910BD00002DE9F0470446B0F853
:1058E00060600068C569D0F800A0D0F80880D4F8DE
:1058F0008810222905D0816941F008018161BDE845
:10590000F087B4F868704FF0000963E02068406ADF
:10591000A16D30400870A06D401CA065B4F85E0019
:10592000401EA4F85E002068C569690730D0E90709
:105930000AD05FEACA5107D501210162D4F88C0070
:1059400040F00100C4F88C00A8070BD55FEAC870CE
:1059500008D0216802200862D4F88C0040F00400CE
:10596000C4F88C0068070BD55FEAC87008D02168BE
:1059700004200862D4F88C0040F00200C4F88C00C7
:10598000D4F88C0020B12046FEF76FF9C4F88C9053
:10599000B4F85E00F0B9216851E8000F20F480707F
:1059A00041E80002002AF6D1264A2068083050E873
:1059B000001F114040E80013002BF6D12020C4F84E
:1059C0008800C4F87090E16E4846012923D0204633
:1059D000FEF762FB0FB1A80698D4B4F85E00002869
:1059E0008DD0B4F86810814289D92068083050E819
:1059F000001F21F0805140E80012002AF5D1124822
:105A00002067216851E8000F40F0200041E80002C3
:105A1000002AF6D173E7E066216851E8000F20F014
:105A2000100041E80002002AF6D12068C169C9438C
:105A3000C90601D410210162B4F85C102046FEF7BB
:105A4000C4F8C7E7FEFFFFEF355800082DE9F04125
:105A50000446016880682269E36910436269002591
:105A60001A431043DFF82CC20A688B4B1A400243DA
:105A70000A6020684168E26821F4405111434160A6
:105A80002168A069614501D0226A10438A68834B6E
:105A90001A4002438A602068C16A626A21F00F01DD
:105AA0001143C1627E4923687E488B420DD1D0F8F4
:105AB000880010F0030006D0012855D0022842D0FB
:105AC00003283FD152E001203DE077498B420BD1C2
:105AD000D0F8880010F00C0035D0042833D0082806
