:020000040800F2
:10000000000900209D020008C74200082F3900089F
:10001000C54200084B160008915600080000000079
:100020000000000000000000000000008146000801
:100030004D16000800000000C94200088346000871
:10004000B7020008B7020008B7020008B7020008AC
:10005000B7020008B7020008B7020008B70200089C
:10006000B7020008B7020008B7020008B70200088C
:10007000B7020008B7020008B7020008B70200087C
:10008000B702000800000000B7020008B70200082D
:10009000B7020008B7020008B7020008B70200085C
:1000A000B7020008B7020008B7020008B70200084C
:1000B000FD4600080947000815470008B702000878
:1000C000B7020008B7020008B7020008B70200082C
:1000D000B702000885560008B7020008B7020008FA
:1000E000B7020008B7020008B7020008B70200080C
:1000F000B7020008B7020008B702000800000000BD
:1001000000000000B702000800000000B70200086D
:10011000B702000800000000B7020008B70200089C
:10012000B7020008B7020008B7020008B7020008CB
:10013000B70200080000000000000000B70200083D
:10014000B7020008B702000800000000000000002D
:10015000000000000000000000000000000000009F
:10016000000000000000000000000000B7020008CE
:10017000B7020008000000000000000000000000BE
:1001800000000000B70200080000000000000000AE
:10019000000000000000000000000000000000005F
:1001A0000000000000000000B7020008B7020008CD
:1001B000B7020008B7020008B702000800000000FC
:1001C00000000000B702000800000000000000006E
:1001D000B7020008B702000800F002F800F04FF87C
:1001E0000AA090E8000C82448344AAF10107DA4592
:1001F00001D100F044F8AFF2090EBAE80F0013F095
:10020000010F18BFFB1A43F001031847607200008A
:1002100080720000103A24BF78C878C1FAD852071B
:1002200024BF30C830C144BF04680C607047000070
:100230000023002400250026103A28BF78C1FBD8EF
:10024000520728BF30C148BF0B607047662905F0D0
:10025000B087642900F01E81732900F0B484002067
:1002600070471FB505F09BFF00F0B2FC04000020B2
:10027000002105F045FCE0601FBD10B510BD00F089
:10028000A7FD1146FFF7EDFF05F0EAFB00F0C5FD05
:1002900003B4FFF7F2FF03BC00F008FE09488047F3
:1002A00009480047FEE7FEE7FEE7FEE7FEE7FEE758
:1002B000FEE7FEE7FEE7FEE704480549054A064B70
:1002C00070470000ED460008D90100080003002037
:1002D00000090020000500200005002053EA020C60
:1002E00000F069802DE9F04B4FF00006002B1FBF96
:1002F000B3FA83F503FA05F424FA05F65E4012BF5B
:100300001643B2FA82F502FA05F4C5F120051EBFC4
:1003100022FA05FC44EA0C04203556EA044C4FEA64
:10032000144418BF641C4FF000084FF000099042BD
:1003300071EB030C39D3002919BFB1FA81F701FA27
:1003400007F6B0FA80F700FA07F6C7F120071EBFDC
:1003500020FA07FC46EA0C062037B6FBF4FCA7EBB4
:100360000507103F07F01F0BCBF120060CFA0BFB23
:100370002CFA06F644BFB3460026202FA4BF5E46E3
:100380004FF0000B5BEA060C08BF4FF0010B19EBB6
:100390000B09ABFB027C48EB0608C01B06FB02CC3A
:1003A0000BFB03CC71EB0C01C1E70B460246414647
:1003B0004846BDE8F08B13B54FF000004FF0000148
:1003C000AFF30080BDE81C40704700000FB41CB5BF
:1003D000074B06AA7B4469460090059800F0C9FBCC
:1003E0000020694600F0D8FB1CBC5DF814FB00003F
:1003F000C107000070B5044685690068C10601D5D3
:10040000302600E02026C00707D070BDD4E90121C6
:1004100030469047206A401C20626D1EF6D570BDA4
:1004200070B5044685690078C00707D170BDD4E96E
:10043000012120209047206A401C20626D1EF6D5C5
:1004400070BD70B50C460546012A05D02878800697
:1004500000D5EA69002302E0012305E05B1C93421A
:1004600002D2E05C0028F9D1A869E618C01AA86198
:10047000286A184428622846FFF7BCFF04E0D5E943
:10048000012114F8010B9047B442F8D32846FFF736
:10049000C7FF70BD2DE9F04106460024106875299C
:1004A000314616A510D0AFF30080002802DA404292
:1004B00013A507E031688A0701D512A502E04907B4
:1004C00004D511A5012401E0AFF3008000210A2228
:1004D00006F1240709E0B0FBF2FCB0FBF2F302FBEB
:1004E0001C00303078541846491C0028F3D12346AC
:1004F0002A463046BDE8F04100F0CEB800000000CA
:100500002D0000002B000000200000002DE9F05F0E
:10051000894604464FF0000ADFF824B1FB44C0F8D6
:1005200020A02046E168884700287DD0252806D0F5
:10053000D4E901219047206A401C2062F1E70025A0
:100540005F462046E16888472028064607DB312EB3
:1005500005D2B81910F8200C08B10543F1E7A80737
:1005600001D525F00405C4F81CA00027C4F818A084
:100570002A2E09D0304605F0B4F838B304EB8708CA
:10058000303EC8F8186019E059F8041B204604EB07
:1005900087029161E1688847012F064618D1E0691A
:1005A000002820DA25F020051DE0D8F8180000EB1F
:1005B000800006EB40003038C8F818002046E1689B
:1005C0008847064605F08DF80028EED1012F0AD0A5
:1005D0002E2E08D12046E16888477F1C0646022F50
:1005E00045F02005C4DBA069002803DA404245F04D
:1005F0000105A061E80701D025F01005A6B1A6F11C
:100600004100192802D8203645F400654A46314693
:10061000204625604D46FFF719FE60B1012807D03E
:10062000ED1D25F0070000E007E000F1080978E77C
:1006300005F1040975E730467AE7206ABDE8F09FC6
:10064000A66E00004FF0000200B513469446964691
:10065000203922BFA0E80C50A0E80C50B1F12001D5
:10066000BFF4F7AF090728BFA0E80C5048BF0CC083
:100670005DF804EB890028BF40F8042B08BF7047E1
:1006800048BF20F8022B11F0804F18BF00F8012B53
:1006900070477047704770472DE9F0470D469946FF
:1006A0009246044600F124080168880604D5E069F2
:1006B00021F01001216000E00120A84201DD471B6C
:1006C00000E00027A1697A1902EB0900081AA0616D
:1006D0002078C00602D42046FFF78CFE002608E0F2
:1006E000D4E901211AF806009047206A401C761CC4
:1006F00020624E45F4DB2078C0060AD52046FFF77D
:1007000079FE06E0D4E9012130209047206A401CA0
:100710002062381EA7F10107F4DC07E0D4E90121CB
:1007200018F805009047206A401C2062281EA5F199
:100730000105F3DC2046FFF773FE2078000602D5A2
:100740000220BDE8F0870120FBE770472DE9FF4F4D
:100750000C461E464FF0FF378BB0D2E90001DDF8A2
:1007600060800A908A46C1F30A5505B93D460021CA
:1007700008464FF00000BAF1000F00F4400005DA1F
:1007800000EB80004FF4400101EA50004FEA90591D
:10079000B9F1010F00DDB9460A9850EA4A000ED0BF
:1007A00044F61050A5F2FF3545432F14B8F1000F61
:1007B0001ED07542291E1EDDC9F100021CE0B8F1F1
:1007C000010F4FF0000001D0302103E0F24305E0BB
:1007D0002154401CB042FBDB304600220021215452
:1007E0000B99C1F80880C1E900200FB0BDE8F08F77
:1007F000BD1B6D1CDEE74A4600DA694206A800F020
:1008000071FA06AB93E8070003AB83E80700504694
:100810000A9900F052FB8DE80700A0F500501F3840
:1008200000900398002D0ADD42F21F014A46084459
:10083000002303A90390684600F0BBFD09E0A0F582
:1008400000504A461F38002303A90390684600F071
:10085000C5FD8DE807000004000C03D04FF0FF3009
:10086000410800E01046B8F1000F03D000220092CA
:1008700015461EE0751E05D400F0AEF93032625503
:100880006D1EF9D5B3460122084302D000227F1C19
:1008900004E02078302801D100227F1E002A099729
:1008A00084D01DE0112D07DA00F096F93032625540
:1008B0006D1C50EA0102F5D1084302D00098C8B17E
:1008C0000EE00021681E05E0235C625C6354225444
:1008D000401E491C8142F7DBAB46A81B401E099015
:1008E000002004F80B000B98099AC0F80880C0E9B2
:1008F000002B7AE711264FF0000857E72DE9F04F5B
:1009000088460446D21D22F0070191B0D1E90001CA
:10091000CDE90A0104F0BDFE02460B98C00F01D0DC
:100920002D2007E02068810701D52B2002E020213F
:1009300001EAC000032A099001D0072A05DB03461B
:100940004146204600F08EF90BE12078800601D563
:10095000E06900E00620B8F1650F814606D0B8F1E5
:10096000660F18D0B8F1670F70D131E00020B9F1EF
:10097000110F009001DB112301E009F101030AAA24
:1009800001A90CA8FFF7E2FEDDE90C70002609F1D1
:100990000105834647E001204B4600904FF0004799
:1009A0000AAA01A90CA8FFF7D1FEDDE90DB00C9948
:1009B0005D46002610B909F101000D18B9EB0500DC
:1009C00003D4C0F1FF3609F10105A5EB09002BE0C6
:1009D000B9F1010F01DA4FF001090020B9F1110F4F
:1009E0000090484601DD112300E003460AAA01A950
:1009F0000CA8FFF7ABFEDDE90C704D4600268346E0
:100A0000207800070AD4AB4500DA5D4601A8012D25
:100A100004DD411911F8011C302907D04F4502DAD5
:100A200017F1040F04DA012082460FE06D1EEEE795
:100A3000002F02DCED1B3E4403E0781CA84200DDE1
:100A40007D1CB81B00F1010A4FF000472078000719
:100A500003D4AA4501DB4FF0FF3A0021B7F1004F64
:100A60000DF143088DF8431024D002202B23002FD2
:100A700001DA7F422D230A21021EA0F1010000DCD1
:100A80005FB197FBF1FC97FBF1F201FB1C7C174671
:100A90000CF1300C08F801CDEEE7A8F1010003706D
:100AA0002188090501D5452100E06521A0F1010853
:100AB00000F8011C09980FA9A1EB0807FF1D00B160
:100AC0000120411901EBEA70A1693844081A401E5F
:100AD000A0612078C00602D42046FFF78BFC09985D
:100AE00028B1D4E901219047206A401C2062207877
:100AF000C00622D52046FFF77DFC1EE0002E04DB59
:100B0000B34502DD01A8805D00E03020D4E9012179
:100B10009047206A401C2062761CAAF101005FEA1F
:100B2000000A0AD100F054F8C0680168405CD4E9BA
:100B300001219047206A401C2062281EA5F1010572
:100B4000DCDC07E0D4E9012118F8010B9047206AAA
:100B5000401C2062381EA7F10107F3DC2046FFF796
:100B60005FFC032011B041E601694A1C026108786C
:100B7000704700B58FB0CDE90131002105910549DD
:100B80007944CDE9031011466846FFF7BFFC0FB06A
:100B900000BD0000E5FFFFFF0A6802F8010B0A60D4
:100BA000704710B5436913B1AFF3008001E0FFF760
:100BB00048FC012010BD127800F124010A700022C7
:100BC0004A700122EDE711684FF0FF32E9E70000BB
:100BD00000487047C002002030B5B0F10A024FEA69
:100BE000900E71F100034EEA817EB0EB0E0061EBD6
:100BF00091014FEA101E4EEA017E10EB0E0041EB10
:100C000011114FEA102E4EEA016E10EB0E0041EB6F
:100C100011214FEA104E4EEA014E10EB0E0041EB4F
:100C20001141401841F100014FEAD00040EA417003
:100C30004FEAD10110EB80054FEA810444EA907439
:100C400044EB01046D1944EB0404521BA3414FF023
:100C5000000348BF0A3200D530BD401C41F10001FD
:100C600030BD00002DE9F0411F460446032601680F
:100C7000072A01F4006004DB08B116A505E016A5FB
:100C800003E008B115A500E015A521F010002060D3
:100C9000A069C01EA0610FB1401EA0612046FFF7F1
:100CA000A9FB4FB1D4E9012138469047206A401C86
:100CB0002062C01C206206E0206AFAE7D4E9012124
:100CC00015F8010B9047761EF8D22046FFF7A8FBD7
:100CD000BDE8F0814E414E006E616E00494E460007
:100CE000696E66002DE9F047814616468AB03548A0
:100CF00078440DC88DE80D0032487844801C03AC60
:100D00000DC884E80D0041F69B300844372190FB64
:100D1000F1F290FBF1F5A5F1800501FB12041B3CFB
:100D200002D56442012000E00020DFF898A0804650
:100D30000027FA44AAF1BE0A0EE0E0070AD03246C4
:100D4000684607EB470101230AEB810100F046FBEF
:100D50008DE8070064107F1C002CEED1194F7F44F2
:100D6000AE3F19E0E80715D007EB04100DF1180AA3
:100D700090E80E008AE80E00C068F04201D1981990
:100D800008903246012306A903A800F027FB03AB15
:100D900083E807006D10641C002DE3D14FF00103C0
:100DA00032466946B8F1000F03A802D000F001FBFB
:100DB00001E000F013FBC9E90001C9F808200AB0FE
:100DC000BDE8F0876067000000487047A00200207F
:100DD0007546FFF7F9FFAE4605006946534620F019
:100DE0000700854618B020B5FFF766FABDE8204039
:100DF0004FF000064FF000074FF000084FF0000BD7
:100E000021F00701AC46ACE8C009ACE8C009ACE889
:100E1000C009ACE8C0098D46704710B50446AFF371
:100E200000802046BDE81040FFF732BA4FF0013C89
:100E300050F8042B51F8043B9A4221D1A2EB0C0349
:100E4000934313EACC1317D150F8042B51F8043B09
:100E50009A4215D1A2EB0C03934313EACC130BD1A6
:100E600050F8042B51F8043B9A4209D1A2EB0C0331
:100E7000934313EACC13DBD04FF00000704700BF60
:100E8000D01A01BAB1FA81F101F0180122FA01F089
:100E9000CB40C1F12001DBB2C0B2C01A2CFA01F381
:100EA000D11A914311EAC311E6D1704701491820C4
:100EB000ABBEFEE72600020070475FEA400C08BFA9
:100EC00091F0000F4FEA8C234FEAC12243EA5151BF
:100ED0004FEA1C5018BF00F5F0404FEA300018BF31
:100EE00041F000415FEA6C5C00F02980BCF1FF3FFB
:100EF00008BF40F080407047130C06BF12044FF04B
:100F0000100C4FF0000C130E04BF12020CF1080C71
:100F1000130F04BF12010CF1040C930F04BF9200D5
:100F20000CF1020CD30F04BF52000CF1010C11465E
:100F30004FF00002A0F11F00A0EB0C00704711F071
:100F4000004F08BF704731F000413FF4D5AF0B0CA4
:100F500006BF09044FF0100C4FF0000C0B0E04BF3D
:100F600009020CF1080C0B0F04BF09010CF1040C71
:100F70008B0F04BF89000CF1020CCB0F04BF49009A
:100F80000CF1010CCCF12003A0EB0C0022FA03F3CE
:100F900002FA0CF241EA030100F10100704720F06F
:100FA0007F4C80EA030023F07F47ACEB070303F597
:100FB0007C5300F0004003F1FF032DE980494FEA24
:100FC000154B09B44FEA144325EA0B4E24EA0348B3
:100FD0000FF2042606EB132749083E785FEA320237
:100FE00003FB0667C7F5000707FB06F64FEA543711
:100FF0004FEAD64606F1020607FB066CCCF1005C10
:101000004FEA1C472CEA074C07FB06F40CFB06F5DD
:1010100004EB15464FEA961634BF00204FF000400F
:101020004FEAD13706FB07FC4FEA1C4C0CFB0BF7D1
:10103000D21B03FB0CF761EB07010CFB0EF7B0EBC7
:10104000074072EB17420CFB08F734BFA2EB0742D4
:10105000B2EB074261EB17414FEA0C444FEA9107AC
:1010600006FB07FC4FEA1C4C0CFB0BF7B0EBC74030
:1010700072EB573203FB0CF734BFA2EBC742B2EB63
:10108000C74261EB57310CFB0EF7B0EBC70072EBB8
:1010900057720CFB08F734BFA2EBC702B2EBC702D2
:1010A00061EB5771039F4FEA816141EA921104EBB2
:1010B000CC044FEAD1374FEA826206FB07FC42EAD2
:1010C00090124FEA80604FEA1C4C0CFB0BF7D21BCE
:1010D00003FB0CF761EB07010CFB0EF7B0EB0740CD
:1010E00072EB17420CFB08F734BFA2EB0742B2EBDE
:1010F000074261EB17414FEA8C554FEA910704EB29
:101100009C2406FB07FC4FEA1C4C0CFB0BF7B0EBD6
:10111000C74072EB573203FB0CF734BFA2EBC74258
:10112000B2EBC74261EB57310CFB0EF7B0EBC700D7
:1011300072EB57720CFB08F734BFA2EBC702B2EB9D
:10114000C70261EB577115EB4C254FEA816141EA0B
:1011500092114FEA82624FEAD13742EA901206FBBF
:1011600007FC44F100044FEA80604FEA1C4C0CFB82
:101170000BF7D21B03FB0CF761EB07010CFB0EF71F
:10118000B0EB074072EB17420CFB08F734BFA2EB41
:101190000742B2EB074261EB174115EB1C154FEA12
:1011A000813141EA92414FEA823242EA90424FEA6B
:1011B00080304FEA0C7644F1000448EA03434EEADB
:1011C0000B484FF0000EB2EB080C71EB030724BF85
:1011D000624639464EEB0E0E4FF0000B001852419E
:1011E00049414BEB0B0BB2EB080C71EB03077BF1A6
:1011F000000B24BF624639464EEB0E0E4FF0000B3B
:101200000018524149414BEB0B0BB2EB080C71EB50
:1012100003077BF1000B24BF624639464EEB0E0EEE
:1012200051EA020718BF46F0010616EB0E7655F19B
:10123000000254F1000103D5BDE88901BDE8008832
:10124000BDE88901BDE80048B619524141EB0101F2
:10125000A3F10103704780807F7E7D7C7B7A797863
:10126000777676757473727171706F6E6E6D6C6C6B
:101270006B6A6A696868676666656464636362610D
:101280006160605F5F5E5E5D5D5C5C5B5B5A5A598E
:1012900059585857575656555555545453535252FA
:1012A0005251515050504F4F4F4E4E4D4D4D4C4C52
:1012B0004C4B4B4B4A4A4A4949494848484747479B
:1012C00047464646454545444444444343434342D8
:1012D000424242414141002B9C4630D477002BD002
:1012E0001CB54FEA370703B44FF010004FF0100160
:1012F000BAF1000F06D0BCF1000FDCBF40F00800CF
:1013000040F008014FF000000FBCBDE810400BF1A9
:10131000010BBBF1010F08BF5FEA170722BF12F1F3
:10132000010211F101014FF0004143F1000300F00F
:10133000004043EA00007047F9D35708D0E746EA77
:10134000064613F1400F4FEA16461FDD13F1200F3A
:10135000DFBF16430A46002120335B42BED0C3F1F3
:10136000200746EA064602FA07F74FEA164646EA1B
:101370000706C3F1200722FA03F201FA07F721FA60
:1013800003F14FF0000342EA0702A7E746EA02062C
:1013900046EA06464FEA164646EA0106BCBF46EA5A
:1013A0000646360C4FF000034FF000024FF00001EC
:1013B00094E72DE9804C9A46934670B491E8380042
:1013C00007C831EA400C48BF34EA430C03D5FFF7A5
:1013D000E6FDFFF780FFF0BCBDE8008C2DE9804CF6
:1013E0009A46934670B491E8380007C810F0804FD1
:1013F00008BF13F0804F03D100F005F8FFF76BFF33
:10140000F0BCBDE8008C20F07F4780EA030023F0A9
:101410007F4C07EB0C03A3F57C5300F00040A3F1D5
:10142000FE0392F0000F00F0B38095F0000F00F083
:1014300077802DE901494FEA11404FEA144621EA2D
:10144000004800FB06FC24EA064708FB06F607FBFB
:1014500008F800FB07F718EB06484CEB164C4FEA70
:10146000124B18EB07484FEA15464CEB174022EA9F
:101470000B4E0BFB06FC25EA06470EFB06F607FBA8
:101480000EFE0BFB07F71EEB064E4CEB164C4FF017
:1014900000061EEB074E4CEB174B18EB0B0840F108
:1014A000000018EB0E0B58EB000840F100008F1AFB
:1014B0004FF000013CBFC943661B14BFB5EB040CE1
:1014C00000213CBFC943F61B4FEA17444EEA8E0E7B
:1014D00027EA04454FEA1C4704FB07622CEA074C45
:1014E00005FB07F70CFB05F604FB0CFC16EB0746A7
:1014F00042EB174216EB0C4642EB1C421BEB060676
:1015000058EB0202414146EA9E0601D5BDE8018939
:10151000B619524141EB0101A3F10103BDE8018974
:101520004FEA14454FEA114724EA054621EA074CE1
:1015300005FB07F406FB07F70CFB06F105FB0CFCAB
:1015400011EB074144EB17444FEA124711EB0C41F2
:1015500044EB1C4422EA074C05FB07F206FB07F7A5
:101560000CFB06F605FB0CFC16EB074642EB17429C
:1015700016EB0C4642EB1C456A1854F1000148BFBB
:101580007047B619524141EB0101A3F101037047C5
:1015900095F0000F37D04FEA11424FEA144721EA85
:1015A000024624EA074C02FB07F106FB07F70CFB97
:1015B00006F402FB0CFC14EB074441EB17414FEA25
:1015C000154714EB0C4441EB1C4125EA074C02FB88
:1015D00007F506FB07F70CFB06F602FB0CFC16EB07
:1015E000074645EB174516EB0C4645EB1C42121916
:1015F00051F1000148BF7047B619524141EB01015A
:10160000A3F1010370474FEA14454FEA114724EA5A
:10161000054621EA074C05FB07F106FB07F70CFB23
:1016200006F24FF0000605FB0CFC12EB074241EB03
:10163000174112EB0C4251EB1C4148BF7047921806
:1016400041EB0101A3F101037047FEE7704700225F
:1016500040F6B83306E00021491C89B29942FBD319
:10166000521C92B28242F6D3704772B6FEE710B5B2
:1016700090F8253000210122022B03D00421C16300
:10168000012122E003681C6824F00E041C60836CB6
:101690001C6824F480741C6003681C6824F0010436
:1016A0001C6090F84430046C03F01F0302FA03F34B
:1016B0006360D0E913345C60436D33B11C6824F47B
:1016C00080741C60D0E916345C6080F8252000220C
:1016D00080F82420084610BD70B590F8252000241D
:1016E00001212346022A07D00422C26380F8251074
:1016F00080F82430012429E00268156825F00E05E1
:1017000015600268156825F001051560826C156882
:1017100025F48075156090F84420056C02F01F02D6
:1017200001FA02F26A60D0E913255560426D32B1C8
:10173000156825F480751560D0E91625556080F888
:10174000251080F82430816B01B18847204670BD98
:1017500070B5044600F03CF90546601C02D0044810
:101760004068044400F034F9401BA042FAD370BD35
:10177000080000202DE9F04FDFF820920023012619
:101780000324A9F1040B85B00F2709F1040AABF17A
:10179000040EFAE006FA03F52A407CD091F804C062
:1017A0000CF0030CBCF1010F02D0BCF1020F26D1EA
:1017B000D0F808C0CDF800C04FEA430C04FA0CF88A
:1017C000CDF810C0DDF800C02CEA080CCDF800C040
:1017D000D1F80C80DDF810C008FA0CF8DDF800C074
:1017E00048EA0C08C0F80880D0F804C02CEA050CC0
:1017F0000D79C5F300159D4045EA0C0545600D794E
:10180000ED43AD070ED0C5684FEA430804FA08FC63
:1018100025EA0C05D1F808C00CFA08FC4CEA050CC6
:10182000C0F80CC00D7905F00305022D16D1DD08B6
:1018300000EB850CCDF808C0DCF820805D074FEA8E
:10184000D56C07FA0CF528EA05080D6905FA0CF5C0
:10185000DDF808C045EA0805CCF8205005684FEAD5
:10186000430CCDF808C004FA0CFC25EA0C0591F8ED
:1018700004C00CF00308DDF808C008FA0CF848EAC8
:101880000508C0F800804D6815F4403F7CD0444DF9
:10189000D5F860C000E077E04CF0010CC5F860C0FE
:1018A0002D6E23F0030C05F0010500953D4D6544B8
:1018B0000295AD684FEA837C4FEA1C7807FA08FC72
:1018C00025EA0C05B0F1904F06D0DFF8DCC060458A
:1018D00005D14FF0010C20E04FF0000C1DE0DFF8C7
:1018E000CCC0604502D14FF0020C16E0DFF8C0C05A
:1018F000604502D14FF0030C0FE0DFF8B8C060453F
:1019000002D14FF0040C08E0DFF8ACC0604502D112
:101910004FF0050C01E04FF0060C0CFA08FC4CEA05
:10192000050C029DC5F808C0D9F80050CC46D1F886
:10193000048095435FEAC82800D51543CCF80050D1
:10194000DAF80050D446D1F8048095435FEA88283D
:1019500000D51543CCF80050DBF80050DC46D1F838
:10196000048095435FEA883800D51543CCF80050D1
:10197000DEF80050F446D1F8048095435FEAC83899
:1019800000D51543CCF800505B1C0A6832FA03F509
:101990007FF400AF05B0BDE8F08F000008040140FF
:1019A0000010024000000140000400480008004808
:1019B000000C00480010004800140048006908406E
:1019C00000D0012070470AB1816170478162704781
:1019D00001488068704700000800002002488168C4
:1019E00042681144816070470800002010B500244F
:1019F000032000F073F80F2000F008F808B101246C
:101A000001E000F025F8204610BD000070B50E4E34
:101A100005460024706898B14FF47A71B1FBF0F07C
:101A20000A490968B1FBF0F000F064FD40B9102DDF
:101A300006D200222946501E00F030F8356000E042
:101A40000124204670BD0000080000201400002082
:101A50000A4882B0016E41F001010166016E01F099
:101A600001010091816D41F080518165806D00F030
:101A70008050009002B000F0A1B8000000100240B9
:101A8000002809DB00F01F0201219140400980007D
:101A900000F1E020C0F8001170470000F0B40E4BD8
:101AA0001B680C46C3F30223C3F10705042D00D9BC
:101AB0000425191D072901D2002300E0DB1E0126A1
:101AC00006FA05F1491E214099409E40761E1640B7
:101AD0003143F0BC03F0F5BD0CED00E0064900F029
:101AE000070208684FF6FF03184040EA0220034A45
:101AF00010430860704700000CED00E00000FA059C
:101B00002B492C4B0A6832214A432B4940B1B0F58E
:101B1000007F086829D020F4C06040F480602CE089
:101B20000868C0F34120022804D051F8800F20F447
:101B3000807022E0D1F8800020F48070C1F880002D
:101B4000086820F4C06040F400700860B2FBF3F055
:101B5000401C00E0401E4A69520501D50028F9D119
:101B6000486940050AD503207047C0F34120022888
:101B700006D051F8800F40F4807008600020704754
:101B8000D1F8800040F48070C1F88000086820F42B
:101B9000C06040F400700860B2FBF3F0401C00E04D
:101BA000401E4A695205DBD50028F9D1D8E700006C
:101BB0001400002040420F0000700040024881687D
:101BC00041F4804181607047007000402DE9F84386
:101BD0000446006800269D4D00035ED5A86D0027D1
:101BE000C00008D4A86D40F08050A865A86D0127FA
:101BF00000F080500090DFF85892D9F8001041F4BE
:101C00008071C9F80010FFF7E3FE804606E000BFD0
:101C1000FFF7DEFEA0EB080002282BD8D9F8000061
:101C2000C005F5D5D5F8900010F4407014D0216CA3
:101C3000814211D0D5F89000D5F8901020F4407072
:101C400041F48031C5F89010D5F8901021F480311E
:101C5000C5F89010C5F89000C00711D0FFF7B8FE86
:101C6000804641F2883907E0FFF7B2FEA0EB080199
:101C7000494501D903260BE0D5F890008007F3D53C
:101C8000D5F89000216C20F440700843C5F890000E
:101C90001FB1A86D20F08050A8652078C00707D03C
:101CA000D5F88800616820F003000843C5F8880073
:101CB0002078800707D5D5F88800A16820F00C00AF
:101CC0000843C5F888002078400707D5D5F8880074
:101CD000E16820F030000843C5F88800207800074C
:101CE00007D5D5F88800216920F0C0000843C5F861
:101CF00088002078800607D5D5F88800616920F42F
:101D000040600843C5F888002078400607D5D5F81C
:101D10008800A16920F440500843C5F88800207865
:101D2000000607D5D5F88800E16920F44040084353
:101D3000C5F888002088C00507D5D5F88800216A35
:101D400020F440300843C5F888002088800507D576
:101D5000D5F88800616A20F440200843C5F888005F
:101D6000208840050FD5D5F88800A16A20F44010DE
:101D70000843C5F88800A06AB0F5801F03D1E86861
:101D800040F48010E860208800050FD5D5F8880061
:101D9000E16A20F440000843C5F88800E06AB0F525
:101DA000800F03D1E86840F48010E8602088C00408
:101DB0000FD5D5F88800216B20F040700843C5F896
:101DC0008800206BB0F1807F03D1E86840F4801078
:101DD000E86020884FF0006180040ED5D5F88800B7
:101DE000626B20F040601043C5F88800606B884249
:101DF00003D1E86840F48010E860208840040ED5E4
:101E0000D5F88800A26B20F040601043C5F8880028
:101E1000A06B884203D1E86840F48010E860208815
:101E200000040FD5D5F88800E16B20F0405008433E
:101E3000C5F88800E06BB0F1805F03D1E86840F43A
:101E40008030E8603046BDE8F883000000100240B2
:101E5000007000402DE9F0470E4605004FF00007E6
:101E600025D0DFF8AC81D8F8000000F00F00B042B8
:101E70000CD2D8F8001021F00F013143C8F800103F
:101E8000D8F8000000F00F00B04210D12968614C72
:101E9000C80741F2883A5AD06868DFF87C91032875
:101EA00008D0022820682DD0400500282CDB012016
:101EB000BDE8F08720688001F9D5E06800F00302F2
:101EC000E068C0F30310401C032A19D0534A00BF36
:101ED000B2FBF0F0E268C2F306225043E268C2F3BC
:101EE0004162521C5200B0FBF2F0484517D9A0687D
:101EF00010F0F00F0CD0880711D5A86840B10EE0A3
:101F0000474AE5E78003D0E700F0B6F8484506D930
:101F1000A06820F0F00040F08000A0608027A0685A
:101F2000696820F003000843A060FFF751FD814677
:101F300006E000BFFFF74CFDA0EB090151453AD880
:101F4000A068696800F00C00B0EB810FF2D128683E
:101F5000810714D5400703D5A06840F4E060A06075
:101F60002878000705D5A06820F4605040F4E060B0
:101F7000A060A068A96820F0F000084304E0802F6A
:101F800003D1A06820F0F000A060D8F8001040460F
:101F900001F00F01B14216D9016821F00F01314360
:101FA0000160FFF715FD074607E000BFFFF710FDD2
:101FB000C11B514501D903207AE7D8F8000000F091
:101FC0000F00B042F2D12878400705D5A068E96833
:101FD00020F4E0600843A0602878000706D5A068D8
:101FE000296920F4605040EAC100A06000F044F884
:101FF000A1680C4AC1F30311515C01F01F01C840F4
:102000000949086009480068BDE8F047FFF7FEBCD1
:10201000002002400010024000B4C4040024F40078
:1020200000366E01DE610008140000200800002068
:102030000548064900688968054AC1F30221515CD8
:1020400001F01F01C840704714000020001002403A
:10205000EE6100080548064900688968054AC1F331
:10206000C221515C01F01F01C840704714000020DC
:1020700000100240EE610008184910B58868C0F3EE
:1020800081021748012A0BD08A68164BC2F38102DD
:10209000022A06D08A68C2F38102032A03D00020F4
:1020A00010BD184610BDCA6802F00304CA68C2F326
:1020B0000312521C032C02D0B0FBF2F001E0B3FB80
:1020C000F2F0CA68C968C2F306225043C1F3416105
:1020D000491C4900B0FBF1F010BD000000100240A7
:1020E0000024F40000366E012DE9F84304007AD094
:1020F0002078FA4DC00747D0A868E96800F00C00C6
:1021000001F003010C2802D0082817D001E00329B0
:1021100014D06068B0F5803F17D0B0F5A02F2868C4
:1021200017D020F480302860286820F480202860B0
:102130006068E0B1FFF74CFC064614E028688003B5
:1021400022D560680028D2D01EE0286840F4803094
:10215000EDE740F480202860F7E700BFFFF738FC88
:10216000801B642870D828688003F7D50CE0FFF73F
:102170002FFC064605E000BFFFF72AFC801B642801
:10218000F0D828688003F7D4207880074CD5A86859
:10219000E96800F00C0001F003010C2802D00428CB
:1021A0000DD001E002290AD0E068002828682BD071
:1021B00040F480702860FFF70BFC064619E02868A1
:1021C000400502D5E068002891D06868217C20F0A5
:1021D000FE4040EA01606860C1480068FFF716FCF5
:1021E000002800D120E076E1FFF7F2FB801B0228F7
:1021F000B8D828684005F7D56868217C20F0FE40F3
:1022000040EA016068600FE020F480702860FFF70A
:10221000DFFB064605E000BFFFF7DAFB801B022864
:10222000A0D828684005F7D42078000729D5606930
:102230000028D5F8940013D040F00100C5F89400B0
:10224000FFF7C6FB064606E090E000BFFFF7C0FBC5
:10225000801B022886D8D5F894008007F6D510E0B8
:1022600020F00100C5F89400FFF7B2FB064604E039
:10227000FFF7AEFB801B022878D8D5F894008007C2
:10228000F6D42078400761D5A86D0026C00008D498
:10229000A86D40F08050A865A86D012600F0805020
:1022A000009090480168C90511D40168804641F446
:1022B00080710160FFF78CFB074604E0FFF788FBA5
:1022C000C01B022852D8D8F80000C005F6D5A06877
:1022D000012815D00528D5F8900016D020F001006F
:1022E000C5F89000D5F8900020F00400C5F89000E3
:1022F000A06841F28838B8B1FFF76AFB07460EE0E4
:10230000D5F8900040F00100F0E740F00400C5F877
:102310009000F5E7FFF75CFBC11B414526D8D5F8D7
:1023200090008007F6D50CE0FFF752FB074604E06B
:10233000FFF74EFBC11B414518D8D5F89000800728
:10234000F6D41EB1A86D20F08050A86520788006D4
:1023500029D5A0690028D5F8980013D040F00100D5
:10236000C5F89800FFF734FB064606E077E000BFAB
:10237000FFF72EFB801B022877D8D5F8980080073E
:10238000F6D510E020F00100C5F89800FFF720FB1B
:10239000064604E0FFF71CFB801B022865D8D5F831
:1023A00098008007F6D4E069F0B3A968C1F3810111
:1023B000032961D00228286820F0807028600BD0A3
:1023C000E86820F00300E860E86847490840E860F2
:1023D000FFF7FEFA04464BE0FFF7FAFA064604E080
:1023E000FFF7F6FA801B02283FD828688001F7D44F
:1023F000F4E908016FF00F0202EB01110843218A92
:102400005204490802EB4151A26841EA0221084303
:10241000217D4FF07E42490802EB41610843217B58
:1024200040EAC160E96800E062E0304A11400843D8
:10243000E860286840F080702860E86840F08070AC
:10244000E860FFF7C5FA044605E000BFFFF7C0FAF1
:10245000001B022809D828688001F7D548E004E06D
:10246000FFF7B6FA001B022802D90320BDE8F88363
:1024700028688001F4D43BE00128F7D0E868226A9C
:1024800000F00301914226D1616A00F0F0020901D7
:10249000103991421FD1A26A00F4FE41B1EB022F24
:1024A00019D194F82C2000F07841B1EBC26F12D111
:1024B000218E00F4C00249084905A1F5001191429E
:1024C00009D194F8341000F0C06049084906A1F120
:1024D000007181420CD00120C8E7000000100240CA
:1024E0000800002000700040FFFFEEFE0C809F01FE
:1024F0000020BBE710B5401EB0F1807F01D3012062
:1025000010BD4FF0E02460610F21601703F0D9F88F
:102510000020A06107202061002010BD7047704797
:1025200070470000F0B590F83C20012A4AD0012203
:1025300080F83C20CA688B6822F440721A434B68CA
:1025400022F480621A430B6822F400621A430B697A
:1025500022F480521A434B6922F400521A430B6B47
:1025600022F480421A430B8B22F4702242EA034287
:10257000154C03680026154DA34201D0AB4203D190
:10258000CF6922F080523A43A34201D0AB4214D12A
:102590000F8D22F4700242EA07520F6A22F0807215
:1025A0003A434F6A22F000723A43A34201D0AB4251
:1025B00003D1C96A22F000520A435A6480F83C6091
:1025C0000020F0BD0220F0BD002C0140003401408D
:1025D0007047704770470000F0B590F83C20012A22
:1025E0003AD0012580F83C50022280F83D20036853
:1025F0005A689C68194E1A4FB34201D0BB4204D1AD
:1026000022F4700C4A6842EA0C02DFF858C002EA71
:102610000C02D1F800C04CEA020CC3F804C00268F6
:10262000B2420DD0B2F1804F0AD00F4B9A4207D080
:102630000E4B9A4204D0BA4202D00D4B9A4204D1BA
:10264000896824F080031943916080F83D5000218F
:1026500080F83C100846F0BD0220F0BD002C01407F
:10266000003401408FFFFFFD0004004000080040DF
:1026700000400140704710B5040003D094F83D00BD
:1026800010B107E0012010BD002084F83C00204676
:1026900000F022F8022084F83D00211D206802F09D
:1026A0003FF8012084F8480084F83E0084F83F0099
:1026B00084F8400084F8410084F8420084F8430024
:1026C00084F8440084F8450084F8460084F8470004
:1026D00084F83D00002010BD10B586B004461421DA
:1026E0006846FDF7AFFF216800223D480223B1F1A3
:1026F000804F27D03B4CA14248D1816D41F002016F
:102700008165816D01F002010591C16C41F002010A
:10271000C164C06C694600F0020005901020009072
:10272000CDE901323048CDE90323FFF723F8002239
:1027300011461D20FFF7B2F95FF01D00FFF7A0F969
:1027400006B010BD816D41F001018165816D01F020
:1027500001010591C16C41F00101C164C06C694681
:1027600000F0010005904FF400400090CDE90132E7
:102770000120CDE903204FF09040FEF7FBFF00223F
:1027800011461C20FFF78AF91C20D7E7174A91420F
:102790000ED1816D41F004018165806D002200F051
:1027A0000400059011461E20FFF778F91E20C5E7AA
:1027B0000F4A914207D1016E41F400310166006E6B
:1027C00000F4003009E00B4A9142B9D1016E41F4A6
:1027D00080210166006E00F480200590B0E70000C3
:1027E00000100240000400400004004800080040BF
:1027F000004401400048014090F83D10012901D0FB
:1028000001207047022180F83D100168CA6842F03B
:102810000102CA600068104988420ED0B0F1804FB2
:102820000BD00E49884208D00D49884205D00D4989
:10283000884202D00C49884207D181680B4A114076
:10284000062906D0B1F5803F03D0016841F00101AF
:102850000160002070470000002C0140000400408F
:102860000008004000340140004001400700010022
:1028700070B5044690F83C000025012814D00126CC
:1028800084F83C60022084F83D0022689068364B52
:10289000184020F47F409060086870282ED010DC2B
:1028A00010F00F0F03D021E04FF0020070BD4FEA8F
:1028B0002012072A1AD2DFE802F0525252524A3846
:1028C00040002A4BC21A984249D009DCB0F5805F1B
:1028D0000DD0B0F5005F1CD0B0F1101F06D13EE066
:1028E000102A3CD0202A3AD0502A38D0012584F82A
:1028F0003D60002084F83C00284670BDCB68D1E9DB
:102900000121206801F071FF2068816841F07701A2
:1029100009E0CB68D1E90121206801F066FF206859
:10292000816841F480418160E1E7CA6849682068B4
:1029300002F006F95021206806E0CA68496820685C
:1029400002F046F96021206801F05AFFCFE7CA681B
:102950004968206802F0F4F840212068F4E7226812
:1029600001461046F0E7000088FFCEFF200010006F
:102970002DE9F04104462DED068B002700683E4D01
:102980009FED3E9B9FED3F8BB0F1804F33D1207F79
:1029900001286CD10021204600F01AFD03F07DFAD9
:1029A000C5E906010421204600F012FD0646286113
:1029B0002068476295ED06AB51EC190B53EC1A2BCE
:1029C00003F0E6F803F03CFA2860304603F065FABD
:1029D00053EC1A2B03F0DCF853EC182B03F070FACD
:1029E00003F0A4F8A8600021204600F013F90421A8
:1029F000204600F00FF925492068884237D1207F12
:102A0000012834D10021204600F0E2FC03F045FA11
:102A1000C5E908010421204600F0DAFC0646686199
:102A20002068476295ED08AB51EC190B53EC1A2B5B
:102A300003F0AEF803F004FA6860304603F02DFAB4
:102A400053EC1A2B03F0A4F853EC182B03F038FACC
:102A500003F06CF8E8600021204600F0DBF8BDECE4
:102A6000068B20460421BDE8F04100F0D3B8BDEC50
:102A7000068BBDE8F081000020000020000000006F
:102A800080842E41000000000000594000040040F6
:102A90002DE9F041054690F83C0000260C4601283F
:102AA00010D0012085F83C0072B1042A1CD0082AFD
:102AB0002CD00C2A50D00126002085F83C0030464E
:102AC000BDE8F0810220FBE7D4E90012E368286842
:102AD00002F048F82868816921F00C0181612868BA
:102AE0008169A26811430FE0D4E90012E368286805
:102AF00002F080F82868816921F4406181612868CA
:102B00008169A26841EA02218161D5E72868D4E998
:102B1000002C277B016A21F480710162C169036A7C
:102B200021F0030141EA0C0121F0F00C39074FF4C8
:102B300020674CEA116123F4206307EA02221A435A
:102B4000C16102622868C16921F00C01C161286875
:102B5000C169A268114328E02868D4E90027E16828
:102B6000036A23F480530362D0F81CC0036A2CF478
:102B7000407C4CEA07274FF6FF7C27F470470CEAAD
:102B8000013139434FF4204723F4204307EA02324E
:102B90001A43C16102622868C16921F44061C161C0
:102BA0002868C169A26841EA0221C16184E710B5C1
:102BB000040003D094F83D0010B107E0012010BDDF
:102BC000002084F83C00204600F022F8022084F81F
:102BD0003D00211D206801F0A3FD012084F848007C
:102BE00084F83E0084F83F0084F8400084F84100F7
:102BF00084F8420084F8430084F8440084F84500D7
:102C000084F8460084F8470084F83D00002010BD99
:102C10007047000010B5044679B1042912D0082984
:102C200015D00C2918D0102919D094F8430000BFF2
:102C300094F84720012817D114E094F83E0094F846
:102C40004420F7E794F83F0094F84520F2E794F821
:102C5000400094F84620EDE794F84100E8E794F846
:102C60004200E5E7012A01D0012010BD022081B316
:102C7000042934D0082937D00C293AD010293BD068
:102C800084F8430084F847000122206801F0A0FD89
:102C90001B49206888420ED0B0F1804F0BD01949F3
:102CA000884208D01849884205D01849884202D085
:102CB0001749884207D18168164A1140062906D073
:102CC000B1F5803F03D0016841F0010101600020AF
:102CD00010BDFFE784F83E0084F84400D4E784F890
:102CE0003F0084F84500CFE784F8400084F84600B0
:102CF000CAE784F84100C5E784F84200C2E7000053
:102D0000002C014000040040000800400034014055
:102D1000004001400700010030B50446002571B1B4
:102D2000042911D0082914D00C2917D0102918D043
:102D300094F8430094F84720012817D114E094F840
:102D40003E0094F84420F7E794F83F0094F84520BB
:102D5000F2E794F8400094F84620EDE794F841003B
:102D6000E8E794F84200E5E7012A01D0012030BDF0
:102D7000022079B1042916D008291DD00C2949D088
:102D800010294AD084F8430084F847000C2947D022
:102D900001253DE084F83E0084F844002068C268C4
:102DA00042F0020210E084F83F0084F845002068F9
:102DB000C26842F0040207E084F8400084F846004C
:102DC0002068C26842F00802C2600122206801F057
:102DD000FFFC1649206888420ED0B0F1804F0BD01E
:102DE0001349884208D01349884205D012498842C5
:102DF00002D01249884207D18168114A1140062940
:102E000006D0B1F5803F03D0016841F001010160B7
:102E1000284630BD84F84100B6E784F84200B3E7A5
:102E20002068C26842F01002CEE70000002C01408A
:102E30000004004000080040003401400040014010
:102E40000700010070B50446006801694FF00005F5
:102E5000C943890715D4C168C943890711D4E91E3C
:102E6000016101202077206880698007204602D018
:102E7000FFF77EFD04E000F01BF9204600F0DDF9CD
:102E8000257720680169C943490717D4C168C94338
:102E9000490713D46FF004010161022020772068F4
:102EA000806910F4407F204602D0FFF761FD04E006
:102EB00000F0FEF8204600F0C0F92577206801698F
:102EC000C943090716D4C168C943090712D46FF072
:102ED00008010161042020772068C069800720462E
:102EE00002D0FFF745FD04E000F0E2F8204600F0D4
:102EF000A4F9257720680169C943C90617D4C168B8
:102F0000C943C90613D46FF010010161082020776E
:102F10002068C06910F4407F204602D0FFF728FDEA
:102F200004E000F0C5F8204600F087F92577206816
:102F30000169C943C90708D1C168C943C90704D198
:102F4000891E0161204600F0F7F920680169C94334
:102F5000090609D4C168C943090605D46FF0800188
:102F600001612046FFF7DBFA20680169C943C90502
:102F700009D4C168C943090605D46FF480710161A1
:102F80002046FFF7CBFA20680169C943490609D4F6
:102F9000C168C943490605D46FF04001016120466C
:102FA00000F02BFA20680169C943890609D4C16879
:102FB000C943890605D46FF0200101612046FFF75F
:102FC000AFFA20680169C943C90209D4C168C9437D
:102FD000C90205D46FF4801101612046FFF7F9FAA8
:102FE00020680169C943890209D4C168C9438902BB
:102FF00005D46FF4001101612046FFF7E9FA20685B
:103000000169C943490209D4C168C943490205D4C9
:103010006FF4800101612046FFF7DCFA2068016946
:10302000C94309020BD4C168C943090207D46FF42C
:10303000000101612046BDE87040FFF71BBB70BD79
:1030400070B586B0044614216846FDF7FBFA154EAC
:10305000256800221449022401234FF09040B54214
:1030600009D1CD6C45F00105CD64C96C01F00101B9
:10307000059140210BE00D4EB54210D1CD6C45F0CD
:103080000105CD64C96C01F0010105918021009119
:10309000CDE901426946CDE90323FEF76BFB06B09B
:1030A00070BD000000440140001002400048014093
:1030B000704770B5044690F83C0000260D46012884
:1030C0000BD0012084F83C000C2A4AD007DC82B1E6
:1030D000042A20D0082A06D131E0022070BD102A2F
:1030E00053D0142A63D00126002084F83C003046D7
:1030F00070BD206801F08EFB2068816941F00801F5
:1031000081612068816921F0040181612068816901
:103110002A69114311E0206801F0CAFB2068816927
:1031200041F4006181612068816921F480618161DD
:10313000206881692A6941EA02218161D4E7206817
:1031400001F0FEFB2068C16941F00801C1612068FF
:10315000C16921F00401C1612068C1692A69114374
:1031600011E0206801F034FC2068C16941F400617D
:10317000C1612068C16921F48061C1612068C169B1
:103180002A6941EA0221C161AEE7206801F068FCCA
:103190002068016D41F0080101652068016D21F092
:1031A000040101652068016D2A69114311E020685E
:1031B00001F08EFC2068016D41F40061016520681A
:1031C000016D21F4806101652068016D2A6941EA81
:1031D0000221016588E710B5040003D094F83D0092
:1031E00010B107E0012010BD002084F83C0020460B
:1031F00000F022F8022084F83D00211D206801F033
:103200008FFA012084F8480084F83E0084F83F00DB
:1032100084F8400084F8410084F8420084F84300B8
:1032200084F8440084F8450084F8460084F8470098
:1032300084F83D00002010BD7047704730B504464B
:10324000022269B1042912D0082917D00C291CD0F8
:10325000102921D094F84300012824D0012030BD4A
:1032600094F83E000128F9D184F83E201DE094F83E
:103270003F000128F2D184F83F2016E094F8400086
:103280000128EBD184F840200FE094F84100012898
:10329000E4D184F8412008E094F842000128DDD10F
:1032A00084F8422001E084F843200122206801F0E4
:1032B0008FFA194B20681949194A984209D0884257
:1032C00007D0904205D0174DA84202D0164DA84213
:1032D00003D1456C45F400454564206898420CD004
:1032E000B0F1804F09D0114B984206D0104B984254
:1032F00003D0884201D0904207D181680D4A114025
:10330000062906D0B1F5803F03D0016841F00101E4
:103310000160002030BD0000002C0140003401405D
:1033200000400140004401400048014000040040CA
:10333000000800400700010070B50068214988427C
:103340003FD1214D01212846FEF738FB00B1012075
:103350001E4C022160702846FEF730FB00B10120B0
:10336000207104212846FEF729FB00B10120E071FD
:1033700001214FF09040FEF721FB00B10120002118
:10338000A07201224FEA010301EB4100255C25B147
:10339000012D07D0022D11D10BE005196D786DB903
:1033A00022540BE005196E783EB9AA700225255407
:1033B00004E005196D78012D00D12354491C04291E
:1033C000E2DB70BD000800400004004892020020CB
:1033D0000246002041B1042909D008290AD00C294D
:1033E00001D11068006C70471068406B704710681E
:1033F000806B70471068C06B7047704790F8801002
:10340000012918D0012180F880102421C0F88410EF
:1034100050F8641B0A680B6823F001030B6022F06C
:1034200000510022026050F8643C196020210162C2
:10343000027710467047022070477047704770B59A
:10344000044690F8800001281DD0012084F88000F7
:103450002420C4F8840020680568026822F0010274
:1034600002602068826822F060620A43826020461F
:1034700001F0DCFB206805602020C4F884000020F7
:1034800084F8800070BD022070BD70B5044690F8CD
:10349000800001281DD0012084F880002420C4F879
:1034A000840020680568026822F00102026020683A
:1034B000826822F060420A438260204601F0B6FB37
:1034C000206805602020C4F88400002084F8800073
:1034D00070BD022070BD7047704770472DE9F04104
:1034E00003680446D86919689A6840F60F052842AF
:1034F0004FF0000509D186067ED501F0200602F0C6
:1035000080573E4378D0216F27E1A94EA94F16403E
:103510000F40374370D0C70709D0CF0507D5012723
:103520001F62D4F88C3043F00103C4F88C30830759
:103530000AD5D30708D0276802233B62D4F88C3021
:1035400043F00403C4F88C3043070AD5D30708D0EE
:10355000276804233B62D4F88C3043F00203C4F89C
:103560008C3003070CD501F02003334308D02668C4
:1035700008233362D4F88C3043F00803C4F88C304D
:1035800003050BD54B0109D526684FF40063336260
:10359000D4F88C3043F02003C4F88C30D4F88C304D
:1035A000002B3AD0800609D501F0200002F08051AE
:1035B000084303D0216F09B120468847D4F88C0016
:1035C00021688968490602D410F0280F27D02046C8
:1035D00001F0ECFB2068806840061BD520680830AD
:1035E00050E8001F21F0400140E80012002AF5D108
:1035F000E06F78B1704900E017E08163E06FFEF79B
:103600006BF8002809D0E06F816B00E02046BDE830
:10361000F04108472046FFF760FFBDE8F0812046F3
:10362000FFF75BFFC4F88C50F7E7E76E2026012F09
:103630007ED1C7067CD5CF067AD5102018622068C7
:103640008068400642D5E16F086840680004000CBD
:10365000E3D0B4F85C208242DFD9A4F85E000868A9
:10366000006880062BD4206850E8001F21F4807188
:1036700040E80012002AF6D12068083050E8001F08
:1036800021F0010140E80012002AF5D1206808303D
:1036900050E8001F21F0400140E80012002AF5D157
:1036A000C4F88860E566216851E8000F20F010003A
:1036B00041E80002002AF6D1E06FFDF7D8FFB4F828
:1036C0005C00B4F85E10401A81B22CE0B4F85C00E3
:1036D000B4F85E10401A81B2B4F85E0000289CD0A5
:1036E00000299AD0226852E8000F20F4907042E836
:1036F0000003002BF6D12E4BDB432068083050E846
:10370000002F1A4040E80027002FF6D1C4F8886047
:10371000E5662567226852E8000F20F0100042E8B5
:103720000003002BF6D12046FFF787FE75E7FFE781
:10373000C70209D5570207D54FF4801018622046FA
:10374000BDE8F041FFF7C8BE03060AD501F08003CB
:1037500002F40002134304D0616F00297FF456AFD6
:103760005BE7420611D54A060FD52046016851E8AD
:10377000002F22F0400241E80023002BF6D1C0F8D0
:103780008460456700F0D2F847E7020206D54A0098
:1037900004D52046BDE8F041FFF79DBEC001C5D568
:1037A0000029C3DA2046BDE8F041FFF747BE00001C
:1037B0000100001020010004994D000810B504001C
:1037C00003D0D4F8840010B107E0012010BD002020
:1037D00084F88000204600F027F82420C4F88400F4
:1037E0002068016821F001010160204601F020FD00
:1037F0000128EBD0A06A10B1204601F039FA206808
:10380000416821F4904141602068816821F02A01DB
:1038100081602068016841F0010101602046BDE837
:10382000104001F089BA000010B598B00446142188
:1038300011A8FCF707FF44216846FCF703FF1B496A
:103840002068884230D101200024CDE90004684678
:10385000FEF7BCF908B1FDF708FF1548016E41F409
:1038600080410166016E01F480411691C16C41F006
:103870000101C164C06C11A900F0010016904FF461
:10388000C06011900220CDE912040720CDE9144058
:103890004FF09040FDF76EFF002211462520FEF705
:1038A000FDF82520FEF7ECF818B010BD00380140F7
:1038B0000010024030B4D0F88830202B20D1E1B184
:1038C000DAB190F88030012B1AD0012380F88030D3
:1038D0000023C3660B4C0368A3420BD05B681B023A
:1038E00008D5046854E8003F43F0806344E800359D
:1038F000002DF6D130BC01F0D5BD012030BC7047A1
:103900000220FBE7008000400549064B48780A7812
:103910001A54401C487001220348FFF7CBBF000037
:103920001E00002074020020E40100207047FEE722
:1039300070B50824002500F06BFE13E06806050E44
:10394000002000F04DFE142001F0D2FE142001F002
:10395000CFFE012000F044FE142001F0C9FE00F06B
:103960004BFE0543641EE4B2E8D2002000F038FEAE
:10397000142001F0BDFE00F06DFE284670BD70B54C
:103980000446082516E000F02BFE142001F0B0FEDE
:1039900004F0800000F052FE142001F0A9FE600641
:1039A000040E142001F0A4FE012000F019FE1420E2
:1039B00001F09EFE6D1EEDB24FF00000E3D200F06C
:1039C0000FFEBDE87040142001F092BE10B501203A
:1039D00000F034FE142001F08BFE012000F000FE08
:1039E000142001F085FE002000F028FE142001F0D4
:1039F0007FFE002000F0F4FDBDE81040142001F02F
:103A000077BE10B5002000F0EBFD142001F070FE31
:103A1000002000F013FE142001F06AFE012000F0E7
:103A2000DFFD142001F064FE012000F007FEBDE878
:103A30001040142001F05CBE10B5052400F0E8FD34
:103A4000142001F055FE012000F0CAFD142001F001
:103A50004FFE05E0641EA4B2142001F049FE6CB1D3
:103A600000F0CAFD0028F5D100F0F4FD002000F0C0
:103A7000B7FD142001F03CFE002010BD00F0EAFD6F
:103A8000FFF7BFFF012010BD00B585B014216846C7
:103A9000FCF7D8FD4FF6FF70009000200321CDE920
:103AA0000201019069460248FDF764FE05B000BDC1
:103AB0000008004800B585B014216846FCF7C2FD37
:103AC0004FF6FF700090012001900320039000202A
:103AD000029069460248FDF74DFE05B000BD0000AA
:103AE0000008004870B5002406462146204600F034
:103AF00003F900F041F94FF49635304600F010F923
:103B0000641CAC42F9D370BD30B587B0142168464F
:103B1000FCF798FD1E48C16C41F00401C164C16C02
:103B200001F004010591C16C41F00101C164C16C57
:103B300001F001010591C16C41F00201C164C06C4A
:103B4000012500F0020005904FF44870CDE9000512
:103B500000240394694602940E48FDF70BFE2802E8
:103B600003940090CDE901544FF0904469462046FB
:103B7000FDF700FEFFF79EFFA06940F48070A06192
:103B800004481830016841F40871016007B030BD85
:103B90000010024000040048203AD2B2034B02EB6E
:103BA000420203EB021200F019B80000F6610008AF
:103BB000F0B50E460746002540F23F1407E02146C7
:103BC0003846FFF7E9FF103C6D1CA4B2761C327832
:103BD000002A01D0142DF2D3F0BD00002DE9F047EA
:103BE00091468A460026044600F086F8DFF84080B9
:103BF000012700BF00F0C0F85FF0000539F816009B
:103C000007FA05F10842404601D1408800E00088EB
:103C100000F086F86D1C102DF0D3641CE4B2514600
:103C2000204600F069F8761C182EE3D3BDE8F08733
:103C30001800002010B5FFF767FF002000F014F80F
:103C4000084CA080A088A0F50241303906D000F0D1
:103C5000C5FB002000F008F8A08010BD00F035FB87
:103C6000F7E700001800002070B51D490A6842F40B
:103C700000720A600A6842F480720A60184C103CB4
:103C8000226842F020022260164A1060086840F064
:103C90002000086000BF00BF00BF206840F0200087
:103CA0002060206840F480702060FFF7EDFE4FF048
:103CB0009041886A40F48070886200BF00BF00BFF6
:103CC0000848001F006885B2886940F480708861E8
:103CD000FFF7F0FE206840F400702060284670BDB9
:103CE000280400481408004801B5BDF80000014947
:103CF000488008BD1800002010B50C460146202061
:103D000000F068F82146BDE81040212000F062B8BC
:103D100001B5BDF800000149088008BD1800002069
:103D2000134A116841F400711160114910390B6890
:103D300043F480730B600B6843F020030B600D4B62
:103D40001860106840F02000106000BF00BF00BF86
:103D5000086840F020000860086840F4807008603F
:103D600000BF00BF00BF086840F4007008607047E3
:103D700028040048140800481449086840F40070FA
:103D80000860086840F480700860104810380268C5
:103D900042F0200202600E4B22221A600A6842F0B2
:103DA00020020A6000BF00BF00BF016841F020018F
:103DB0000160016841F48071016000BF00BF00BF75
:103DC000016841F400710160704700002804004858
:103DD00014080048184B10B51A6842F400721A60B3
:103DE0001A6842F480721A60134A103A146844F058
:103DF00020041460114C2060186840F02000186006
:103E000000BF00BF00BF106840F0200010601068C5
:103E100040F4807010602160186840F02000186045
:103E200000BF00BF00BF106840F0200010601068A5
:103E300040F48070106010BD280400481408004849
:103E40002DE9F04F87B014216846FCF7FBFB424890
:103E5000C16C41F00401C164C16C01F00401059121
:103E6000C16C41F02001C164C16C01F020010591D9
:103E7000C16C41F00101C164C16C01F00101059107
:103E8000C16C41F00201C164C16C01F002010591F5
:103E9000C16C41F00801C164C06CDFF8C08000F063
:103EA0000800059001224FF608714046FDF78BFD92
:103EB0000022F7214046FDF786FD4FF480764FF053
:103EC0009049002231464846FDF77DFDDFF890A07D
:103ED000002204215046FDF776FDDFF888B04FF44C
:103EE0007877002239465846FDF76DFD4FF6FF7092
:103EF000009001250024CDE9015469464046039411
:103F0000FDF738FCCDE90054694648460295FDF7B7
:103F100031FC07208DE8310069465846FDF72AFC40
:103F20000096CDE90154694648460394FDF722FC0A
:103F300004200090CDE90154694650460394FDF7F2
:103F400019FC0097CDE90154694658460394FDF7E2
:103F500011FC07B0BDE8F08F0010024000080048D7
:103F6000000C00480004004810B594B01C210DA8B6
:103F7000FCF768FB34216846FCF764FB20481F49C6
:103F80000024016041F63F71C0E901146321C0E9DA
:103F9000031444618461FEF76EFB08B1FDF765FB15
:103FA0001748FFF718F908B1FDF75FFB60200D9087
:103FB0001420CDE90E0410941194129400220DA93E
:103FC0000F481394FFF775F808B1FDF74EFB009406
:103FD0004FF40050CDE904400194029403940694F8
:103FE000694607480C94FEF79DFA08B1FDF73DFBC2
:103FF0000348FFF725F814B010BD0000004401404D
:104000004C01002010B594B01C210DA8FCF71AFB40
:1040100034216846FCF716FB20481F490024016044
:1040200040F69F71C0E901146321C0E903144461A3
:104030008461FEF720FB08B1FDF717FB1748FFF777
:10404000CAF808B1FDF711FB60200D901420CDE9EE
:104050000E0410941194129400220DA90F48139489
:10406000FFF727F808B1FDF700FB00944FF400506C
:10407000CDE90440019402940394069469460748EC
:104080000C94FEF74FFA08B1FDF7EFFA0348FEF77C
:10409000D7FF14B010BD0000004801409801002077
:1040A00010B58CB000240594264804940694079417
:1040B00008940A9409940094019402944FF080416A
:1040C000039401604F21C0E90114611EC0E903148B
:1040D0008461FEF7D0FA08B1FDF7C7FA4FF48050BB
:1040E000049004A91748FEF7C3FB08B1FDF7BDFA19
:1040F0001448FEF75CFD08B1FDF7B7FA089408A96B
:1041000010480A94FEF768FA08B1FDF7AEFA0120EC
:10411000CDE900400294002269460A480394FEF764
:10412000B7FC08B1FDF7A1FA02200090019004222B
:1041300069460448FEF7ACFC002801D0FDF795FA6B
:104140000CB010BD6800002010B58CB000240594A0
:10415000274804940694079408940A9409940094B8
:10416000019402942149039401604F21C0E9011494
:104170004FF6FF71C0E903148461FEF77CFA08B1C1
:10418000FDF773FA4FF48050049004A91848FEF725
:104190006FFB08B1FDF769FA1548FEF708FD08B195
:1041A000FDF763FA089408A911480A94FEF714FA77
:1041B00008B1FDF75AFA0120CDE90040029400222F
:1041C00069460B480394FEF763FC08B1FDF74DFA0E
:1041D000022000900190042269460548FEF758FC31
:1041E000002801D0FDF741FA0CB010BD00040040DA
:1041F000B400002010B588B0002417480094019442
:1042000002940394049405941249069401604F218A
:10421000C0E9011442F20F71C0E903148461FEF792
:104220002AFA08B1FDF721FA4FF480500090694650
:104230000948FEF71DFB08B1FDF717FA049404A91D
:1042400005480694FEF7C8F9002801D0FDF70DFADD
:1042500008B010BD0008004000010020184810B54B
:10426000164901604FF416514160002181600C2213
:10427000C160C0E904128161C16101624162816271
:10428000FFF79CFA08B1FDF7F0F900210C48FFF7A1
:10429000FCF808B1FDF7E9F900210948FFF7CFF86C
:1042A00008B1FDF7E2F90648FFF7A8F8002803D0A7
:1042B000BDE81040FDF7D9B910BD0000003801403D
:1042C000E4010020FEE7FEE7704730B50121002041
:1042D000FFF780FD4FF47A70FDF7B9F90021012056
:1042E000FFF778FD41F290711020FFF773FD4FF456
:1042F0001C516020FFF76EFD01216120FFF76AFD70
:1043000002214620FFF766FD48F210011320FFF757
:1043100061FD48F2FE011220FFF75CFD4FF4A06141
:104320000220FFF757FD41F230010320FFF752FD55
:1043300040F2033421463020FFF74CFD2146312066
:10434000FFF748FD21463220FFF744FDE51E2946D0
:104350003320FFF73FFD03213420FFF73BFD2146CB
:104360003520FFF737FD14213620FFF733FD2146B6
:104370003720FFF72FFD21463820FFF72BFD214680
:104380003920FFF727FD29463A20FFF723FD0321B7
:104390003B20FFF71FFD21463C20FFF71BFD4FF49C
:1043A000A0513D20FFF716FD4FF400719220FFF75A
:1043B00011FD21469320FFF70DFD40F60D019020E1
:1043C000FFF708FD41F218010320FFF703FDBDE8E8
:1043D000304040F273110720FFF7FCBC10B543F2E8
:1043E0000801E320FFF7F6FC1221E720FFF7F2FCBB
:1043F00041F23121EF20FFF7EDFC00210120FFF712
:10440000E9FC4FF4E0610220FFF7E4FC41F23001E7
:104410000320FFF7DFFC00210420FFF7DBFC40F264
:1044200007210820FFF7D6FC00210920FFF7D2FC66
:1044300000210A20FFF7CEFC00210C20FFF7CAFC68
:1044400000210D20FFF7C6FC00210F20FFF7C2FC62
:1044500000211020FFF7BEFC07211120FFF7BAFC56
:1044600000211220FFF7B6FC00211320FFF7B2FC59
:10447000C820FDF76DF941F290611020FFF7AAFC0A
:1044800040F227211120FFF7A5FC3220FDF760F94B
:104490001D211220FFF79EFC3220FDF759F94FF441
:1044A00000611320FFF796FC14212920FFF792FCEE
:1044B0000B212B20FFF78EFC3220FDF749F900215C
:1044C0002020FFF787FC00212120FFF783FC072134
:1044D0003020FFF77FFC40F207713120FFF77AFCB4
:1044E00006213220FFF776FC40F204713520FFF7F9
:1044F00071FC41F604713620FFF76CFC0421372073
:10450000FFF768FC00213820FFF764FC40F20671D9
:104510003920FFF75FFC40F201713C20FFF75AFCA5
:104520000F213D20FFF756FC00215020FFF752FCE1
:10453000EF215120FFF74EFC00215220FFF74AFCEB
:1045400040F23F115320FFF745FC4FF41C5160200F
:10455000FFF740FC01216120FFF73CFC00216A20AD
:10456000FFF738FC00218020FFF734FC0021812078
:10457000FFF730FC00218220FFF72CFC0021832074
:10458000FFF728FC00218420FFF724FC0021852070
:10459000FFF720FC10219020FFF71CFC0021922047
:1045A000FFF718FC03219320FFF714FC4FF48871E8
:1045B0009520FFF70FFC00219720FFF70BFC00214F
:1045C0009820FFF707FC41F218010320FFF702FCD7
:1045D000BDE8104040F273110720FFF7FBBB00005D
:1045E00008B1044801E003481030016841F040017F
:1045F000016070471804004810B580210348FDF79A
:10460000DDF9012800D0002010BD000000040048A2
:1046100000B585B014216846FCF714F8802000909E
:104620000020019001200290022003906946024878
:10463000FDF7A0F805B000BD0004004808B104482B
:1046400001E003481030016841F0800101607047CB
:104650001804004800B585B014216846FBF7F2FF46
:1046600080200090112001900020029002200390F1
:1046700069460248FDF77EF805B000BD0004004819
:104680007047FDF7ABB910B594B038216846FBF719
:10469000D9FF14210EA8FBF7D5FF4FF40070FDF7EA
:1046A0002FFA012000900004019002200324CDE99C
:1046B00007041421CDE90A100C900D900994684666
:1046C000FDF712FD08B172B6FEE70F20CDE90E042A
:1046D000002010901190129002210EA8FDF7BAFB55
:1046E000002801D072B6FEE714B010BD0248016880
:1046F00041F470010160704788ED00E00148FEF769
:10470000A1BB0000680000200148FEF79BBB000031
:10471000B40000200148FEF795BB00000001002016
:104720002DE9F0430268234B234D244E244C4FF0D7
:104730008049984207D0484505D0A84203D0B042EE
:1047400001D0A04203D122F070074A683A431D4FBE
:10475000DFF874C0DFF8748098420DD048450BD064
:10476000A84209D0B04207D0A04205D0B84203D039
:10477000604501D0404503D122F44075CA682A4300
:104780004D6922F080022A4302608A68C2620A6888
:104790008262984207D0A04205D0B84203D060455B
:1047A00001D0404501D10969016301214161BDE8A2
:1047B000F0830000002C014000040040000800408D
:1047C00000340140004001400044014000480140E5
:1047D00010B501F01F030121046A99408C43046263
:1047E000016A9A401143016210BD10B5846842EA23
:1047F000032224F47F440A432243826010BD000058
:104800008268034B1A400A4342F0070181607047F7
:104810008FFFCFFF2DE9F043026A22F0010202620E
:10482000056A436882691C4C25F0020522400C6829
:1048300022F0030214438A68194E2A43174D194F78
:10484000DFF864C0DFF86490A84207D0B04205D01A
:10485000B84203D0604501D0484506D122F008088F
:10486000CA6842EA080222F00402A84207D0B04215
:1048700005D0B84203D0604501D0484505D14D6907
:1048800023F440731D438B692B4343608461496863
:1048900041630262BDE8F0838FFFFEFF002C014000
:1048A0000034014000400140004401400048014004
:1048B000F0B5026A22F010020262056A426883695A
:1048C000194C1B4E23400C6823F4407343EA042424
:1048D00025F020038D6843EA0513144DA84201D04A
:1048E000B04206D1CF6823F0800343EA071323F0D8
:1048F0004003A8420AD0B04208D00E4DA84205D0CD
:104900000D4DA84202D00D4DA84207D14D6922F4A9
:10491000406242EA85028D6942EA85024260846112
:10492000496881630362F0BDFF8FFFFE002C0140E8
:104930000034014000400140004401400048014073
:10494000F0B5026A22F480720262056A4368C269A5
:10495000194C1B4E22400C6822F00302144325F42C
:1049600000728D6842EA0522144DA84201D0B0427F
:1049700006D1CF6822F4006242EA072222F4806264
:10498000A8420AD0B04208D00E4DA84205D00E4D24
:10499000A84202D00D4DA84207D14D6923F44053DF
:1049A00043EA05138D6943EA05134360C46149680E
:1049B000C1630262F0BD00008FFFFEFF002C0140CA
:1049C00000340140004001400044014000480140E3
:1049D000F0B5026A22F480520262056A4268C36935
:1049E000194C1B4E23400C6823F4407343EA042403
:1049F00025F400538D6843EA0533144DA84201D0D5
:104A0000B04206D1CF6823F4004343EA073323F4CE
:104A10008043A8420AD0B04208D00E4DA84205D02B
:104A20000D4DA84202D00D4DA84207D14D6922F488
:104A3000404242EA85128D6942EA85124260C461B1
:104A4000496801640362F0BDFF8FFFFE002C014046
:104A50000034014000400140004401400048014052
:104A600030B5026A22F480320262046A4268036D41
:104A7000114D2B400D681D4324F400330C8943EA8B
:104A800004430E4CA0420BD00D4CA04208D00D4C5C
:104A9000A04205D00C4CA04202D00C4CA04204D144
:104AA0004C6922F4803242EA04224260056549687A
:104AB0008164036230BD00008FFFFEFF002C0140C7
:104AC00000340140004001400044014000480140E2
:104AD00030B5026A22F480120262046A4268036DF1
:104AE000114D24F400142B400D6843EA05230D8971
:104AF00044EA05540D4DA8420BD00D4DA84208D0F4
:104B00000C4DA84205D00C4DA84202D00B4DA84236
:104B100004D14D6922F4802242EA85224260036575
:104B20004968C164046230BDFF8FFFFE002C014064
:104B30000034014000400140004401400048014071
:104B400010B5036A046A24F001040462846924F045
:104B5000F00444EA021423F00A020A438461026268
:104B600010BD000070B5046A24F001040462846979
:104B7000056A124EB0420ED0B0F1804F0BD0104EED
:104B8000B04208D00F4EB04205D00F4EB04202D016
:104B90000E4EB04203D124F00304144301E044F06C
:104BA00001041A0724F0F00444EA126225F00A0313
:104BB00001F00A0119438261016270BD002C0140BD
:104BC0000004004000080040003401400040014063
:104BD00010B5036A23F0100303628369046A23F4A7
:104BE000704343EA023224F0A00343EA01118261D8
:104BF000016210BD30B5046A24F0100404628469B7
:104C0000056A24F4407444EA022222F470444FF608
:104C1000FF7202EA03322243A02425F0A00304EA33
:104C2000011119438261016230BD000030B5416E4F
:104C3000B9B1026891689268C1F342610B4B520F9F
:104C40009C5CE50003F10804A25CB5FBF2F2A0F85D
:104C50006A205A5C615CD200B2FBF1F1A0F86810E6
:104C600030BD0121A0F86A10F8E70000CE6100080D
:104C700090F82810C90706D001684A68C36A22F470
:104C800000321A434A6090F82810890706D5016857
:104C90004A68036B22F480321A434A6090F8281065
:104CA000490706D501684A68436B22F480221A43FB
:104CB0004A6090F82810090706D501684A68836B96
:104CC00022F400421A434A6090F82810C90606D51B
:104CD00001688A68C36B22F480521A438A6090F894
:104CE0002810890606D501688A68036C22F40052F0
:104CF0001A438A6090F82810490611D501684A685D
:104D0000436C22F480121A434A60416CB1F5801F53
:104D100006D101684A68836C22F4C0021A434A60D3
:104D200090F82810090606D501684A68C06C22F47C
:104D3000002202434A607047F8B500260446C0F8D6
:104D40008C60FCF745FE0546206800686FF07E47E2
:104D5000000708D52B4600224FF40011204600978B
:104D600000F02CFC60B92068006840070AD52B468B
:104D700000224FF480012046009700F01FFC08B18C
:104D80000320F8BD2020C4F88400C4F8880044F84B
:104D90006C6F00202675F8BD10B5806A0021A0F860
:104DA0005E10A0F85610FEF798FB10BD10B5026813
:104DB00052E8001F21F4907142E80013002BF6D155
:104DC0000E4B0268083252E8001F194042E80014F6
:104DD000002CF6D1C16E012908D1016851E8002FDD
:104DE00022F0100241E80023002BF6D12021C0F868
:104DF00088100021C166016710BD0000FEFFFFEFB3
:104E000010B5B0F86020D0F888300168222B04D0AB
:104E1000886940F00800886110BD496A836D1140BF
:104E20001980816D891C8165B0F85E10491EA0F85B
:104E30005E10B0F85E100029EED1026852E8001F43
:104E400021F4907142E80013002BF6D1016808317B
:104E500051E8002F22F0010241E80023002BF5D198
:104E60002021C0F8881000210167C26E012A02D0FB
:104E7000FEF74AFD10BDC166026852E8001F21F02E
:104E8000100142E80013002BF6D10168CA69D24331
:104E9000D20601D410220A62B0F85C10FEF7CDFAF7
:104EA00010BD00002DE9F0470446B0F860600068CE
:104EB000C569D0F800A0D0F80880D4F8881022295D
:104EC00005D0816941F008018161BDE8F087B4F83F
:104ED00068704FF0000963E02068406AA16D3040BF
:104EE0000880A06D801CA065B4F85E00401EA4F888
:104EF0005E002068C569690730D0E9070AD05FEA1B
:104F0000CA5107D501210162D4F88C0040F001009C
:104F1000C4F88C00A8070BD55FEAC87008D02168D8
:104F200002200862D4F88C0040F00400C4F88C0021
:104F300068070BD55FEAC87008D0216804200862B2
:104F4000D4F88C0040F00200C4F88C00D4F88C0037
:104F500020B12046FEF7C1FAC4F88C90B4F85E0088
:104F6000F0B9216851E8000F20F4807041E8000298
:104F7000002AF6D1264A2068083050E8001F114068
:104F800040E80013002BF6D12020C4F88800C4F8B4
:104F90007090E16E4846012923D02046FEF7B4FC0C
:104FA0000FB1A80698D4B4F85E0000288DD0B4F8EC
:104FB0006810814289D92068083050E8001F21F02C
:104FC000805140E80012002AF5D11248206720687D
:104FD00050E8001F41F0200140E80012002AF6D1FD
:104FE00073E7E066216851E8000F20F0100041E807
:104FF0000002002AF6D12068C169C943C90601D45C
:1050000010210162B4F85C102046FEF716FAC7E7DB
:10501000FEFFFFEF014E000810B5B0F86020D0F899
:1050200088300168222B04D0886940F0080088612C
:1050300010BD496A1140826D1170816D491C8165F6
:10504000B0F85E10491EA0F85E10B0F85E1000299E
:10505000EED1026852E8001F21F4907142E800137B
:10506000002BF6D10168083151E8002F22F001022F
:1050700041E80023002BF5D12021C0F88810002141
:105080000167C26E012A02D0FEF73EFC10BDC16668
:10509000026852E8001F21F0100142E80013002BC3
:1050A000F6D10168CA69D243D20601D410220A623D
:1050B000B0F85C10FEF7C1F910BD00002DE9F04713
:1050C0000446B0F860600068C569D0F800A0D0F868
:1050D0000880D4F88810222905D0816941F00801A0
:1050E0008161BDE8F087B4F868704FF0000963E0B3
:1050F0002068406AA16D30400870A06D401CA0651A
:10510000B4F85E00401EA4F85E002068C569690717
:1051100030D0E9070AD05FEACA5107D50121016200
:10512000D4F88C0040F00100C4F88C00A8070BD51F
:105130005FEAC87008D0216802200862D4F88C00A9
:1051400040F00400C4F88C0068070BD55FEAC87013
:1051500008D0216804200862D4F88C0040F00200D6
:10516000C4F88C00D4F88C0020B12046FEF7B5F9C5
:10517000C4F88C90B4F85E00F0B9216851E8000FD3
:1051800020F4807041E80002002AF6D1264A206807
:10519000083050E8001F114040E80013002BF6D102
:1051A0002020C4F88800C4F87090E16E48460129B8
:1051B00023D02046FEF7A8FB0FB1A80698D4B4F878
:1051C0005E0000288DD0B4F86810814289D920682B
:1051D000083050E8001F21F0805140E80012002AFA
:1051E000F5D112482067216851E8000F40F02000F7
:1051F00041E80002002AF6D173E7E066216851E831
:10520000000F20F0100041E80002002AF6D12068CB
:10521000C169C943C90601D410210162B4F85C1008
:105220002046FEF70AF9C7E7FEFFFFEF1950000816
:105230002DE9F0410446016880682269E369104362
:10524000626900251A431043DFF82CC20A688B4BB1
:105250001A4002430A6020684168E26821F4405124
:10526000114341602168A069614501D0226A104361
:105270008A68834B1A4002438A602068C16A626A66
:1052800021F00F011143C1627E4923687E488B42A1
:105290000DD1D0F8880010F0030006D0012855D0B9
:1052A000022842D003283FD152E001203DE0774957
:1052B0008B420BD1D0F8880010F00C0035D00428B8
:1052C00033D0082840D00C282ED141E070498B42C1
:1052D0000BD1D0F8880010F0300026D0102835D03F
:1052E000202831D030281FD132E06A498B420BD1BF
:1052F000D0F8880010F0C00017D0402826D08028B1
:1053000022D0C02810D123E063450DD1D0F8880009
:1053100010F4406009D0B0F5806F17D0B0F5006F81
:1053200012D0B0F5406F13D010205B495B4F0026C0
:105330004FF4004263453BD160B1022813D00428EA
:105340000BD0082872D10DE00220EEE70420ECE734
:105350000820EAE7FCF76CFE01E0FCF78DFE010097
:1053600001D17CE01146606A37F810206768B1FB14
:10537000F2F007EB4703834270D8B0EB073F6DD8DC
:10538000002308461946FAF7A9FF090241EA10610D
:1053900002027808101871413A460023FAF79EFF7E
:1053A0003F4AA0F54071914258D82168C86056E044
:1053B000E3694FF6EF7893422CD109284ED2DFE80B
:1053C00000F00508114D0D4D4D4D1000FCF730FE5D
:1053D00001E0FCF73FFE010004D140E0FCF74CFE89
:1053E000F9E71146606A37F81000B1FBF0F04100B0
:1053F000606801EB5001B1FBF0F0A0F110014145F4
:105400002CD84FF6F0710140C0F3420001432068F0
:10541000C16024E0092821D2DFE800F0050912204C
:105420000E2020201100FCF703FE02E016E0FCF73E
:1054300011FE010004D112E0FCF71EFEF9E711464F
:10544000606A37F81000B1FBF0F1606801EB5001C1
:10545000B1FBF0F0A0F1100141450AD9012501206E
:10546000A4F86A0024F8680F2846A660E660BDE844
:10547000F08180B299E7000000800040F369FFCF1F
:10548000FFF4FF11003801400010024000440040CA
:1054900000480040004C00400024F400B6610008C1
:1054A000FFFC0F0070B58165A0F85C20A0F85E20BD
:1054B0000021016783684FF48055FF24AB4204D17B
:1054C0000369FBB940F2FF1322E07F26C3B1B3F1B9
:1054D000805F1AD0A0F86010C0F88C102223C0F8AA
:1054E00088300368083353E8004F44F0010443E870
:1054F0000046002EF5D1436EB3F1005F0ED032E0CE
:10550000036943B9A0F86040E6E703691BB13F2394
:10551000A0F86030E0E7A0F86060DDE7B0F8683040
:10552000934220D88268AA4201D10269CAB11F4AB7
:10553000026780F88010016941B1026852E8001FDB
:1055400041F4807142E80013002BF6D10168083164
:1055500051E8002F42F0805241E80023002BF5D1A2
:1055600021E0134AE4E78268AA4201D102697AB1D4
:10557000104A026780F88010016959B1026852E848
:10558000001F41F4907142E80013002BF6D10AE0AD
:10559000094AEEE7026852E8001F41F0200142E8A4
:1055A0000013002BF6D1002070BD0000BD50000894
:1055B000A54E000819500008014E00082DE9F047DB
:1055C0009A4617460E4604464FF000094FF0200851
:1055D000089D4AE0681C48D0FCF7FAF9A0EB0A00E5
:1055E000A8422AD84DB32068016849073DD5C06953
:1055F000C043000539D421684FF400600862206878
:1056000050E8001F21F4D07140E80012002AF6D1C2
:105610002068083050E8001F21F0010140E8001226
:10562000002AF5D144F8848FC4F80480C4F80880B7
:1056300004F8049C0320BDE8F087216851E8000FBE
:1056400020F4D07041E80002002AF6D1206808302A
:1056500050E8001F21F0010140E80012002AF5D1B6
:1056600044F8848FC4F80480E2E72068C06936EA11
:10567000000004D00020B842ACD00020DBE70120BD
:10568000F9E700000148FDF729BF0000E401002010
:10569000FEE703B401984100009850EAC12018BF0A
:1056A00004204A0D18BF40F0010040F2FF72B2EB37
:1056B000515F08BF40F00200012808BF052002B07A
:1056C00070470907090E002804DB00F1E02080F88C
:1056D0000014704700F00F0000F1E02080F8141D66
:1056E000704730380A2801D20120704700207047E7
:1056F000002100E0491C8142FCD3704710B50446EC
:10570000FEF764F9A020FEF73AF9FEF795F9204676
:10571000FEF735F9FEF790F9FEF773F9FEF756F943
:10572000A120FEF72CF9FEF787F9FEF701F90446F0
:10573000FEF782F9FEF765F9204610BD70B50D46FB
:105740000446FEF743F9A020FEF719F9FEF774F9B5
:105750002046FEF714F9FEF76FF92846FEF70FF919
:10576000FEF76AF9BDE87040FEF74BB92DE9F0414C
:10577000394D3A4C0026A978207801290AD0697958
:10578000012915D0297A0A2701292ED0E97A012981
:1057900044D05BE040F00100207031A233A13548D5
:1057A000FAF714FE33490020FEF702FAAE704DE01E
:1057B00000F0FE00207030480088C0F30721C7B217
:1057C0000120FFF7BBFF0A20FBF7C2FF394602208A
:1057D000FFF7B4FF29A225A12648FAF7F7FD2549CE
:1057E0000020FEF7E5F96E7130E040F00200207015
:1057F00025A21EA11F48FAF7E9FD1E490020FEF769
:10580000D7F960780A30C0B26070642800D367703E
:1058100020496078096848632E7217E000F0DF00C5
:1058200020701DA211A11348FAF7D0FD11490020E4
:10583000FEF7BEF9A0780A30C0B2A070642800D389
:10584000A7701849A07809684863EE722078BDE80F
:10585000F04100F0DBB800009202002000000020C0
:105860006B657931646F776E000000002020202086
:105870002573000048000020200000206B6579326D
:10588000646F776E000000006B657933646F776E2C
:10589000000000004C0100206B657934646F776E66
:1058A000000000009801002010B531480168314C1B
:1058B0006268891AC82959D30068606062782EA18D
:1058C0003148FAF783FD30491820FEF771F9A278C4
:1058D0002EA12D48FAF77AFD2B493020FEF768F902
:1058E0002E4C2FA128482268FAF770FD264948203F
:1058F000FEF75EF92F48006800F0E0FB41EC100B6A
:105900002DA153EC102B2048FAF760FD1E496020B2
:10591000FEF74EF92DA11C482268FAF757FD1A49E7
:105920007820FEF745F92E48006800F0C7FB41ECEF
:10593000100B2CA153EC102B1348FAF747FD12491A
:105940009020FEF735F90220FFF7D8FE044601202B
:10595000FFF7D4FE04EB002227A10B48FAF736FD2F
:10596000BDE810400849A820FEF722B910BD00008C
:1059700010000020000000207061365F64757479AB
:105980003A25642525000000480000207061375F3B
:10599000647574793A2564252500000020000020F4
:1059A00074696D325F6672713A2530356420487AC9
:1059B000000000002C00002074696D335F64757472
:1059C00079323A25302E33662525000074696D3210
:1059D0005F667271313A2530356420487A000000E4
:1059E0002800002074696D325F64757479313A253E
:1059F000302E336625250000656570726F6D5F6619
:105A00007271313A2530356420487A0070B5124DF4
:105A1000044601224FF6FF712846FBF7D4FF0F4ED4
:105A2000012204213046FBF7CEFF0022042130463C
:105A3000FBF7C9FF210200222846FBF7C4FF012221
:105A400004213046FBF7BFFF3046BDE8704000221E
:105A50000421FBF7B8BF000000080048000C004814
:105A6000FBF7C4FFFEF70FFEFEF7EAF9FEF718FB9F
:105A7000FEF76AFBFEF7BEFBFEF776FAFEF7C2FA08
:105A8000FEF7ECFB0020FFF7C1FFFEF7D3F84FF65F
:105A9000FF742046FEF726F82046FEF725F940F26F
:105AA0001F50FEF735F901220E490F48FDF702FF9E
:105AB0000E48FCF7A1FE00210D48FDF7BFFB0021B9
:105AC0000C48FDF7BBFB00210B48FDF725F9002131
:105AD0000A48FDF721F900BFFFF748FEFFF7E4FE93
